{
  "abi": [
    {
      "inputs": [
        {
          "internalType": "address",
          "name": "conduitController",
          "type": "address"
        }
      ],
      "stateMutability": "nonpayable",
      "type": "constructor"
    },
    {
      "inputs": [],
      "name": "BadContractSignature",
      "type": "error"
    },
    {
      "inputs": [],
      "name": "BadFraction",
      "type": "error"
    },
    {
      "inputs": [
        {
          "internalType": "address",
          "name": "token",
          "type": "address"
        },
        {
          "internalType": "address",
          "name": "from",
          "type": "address"
        },
        {
          "internalType": "address",
          "name": "to",
          "type": "address"
        },
        {
          "internalType": "uint256",
          "name": "amount",
          "type": "uint256"
        }
      ],
      "name": "BadReturnValueFromERC20OnTransfer",
      "type": "error"
    },
    {
      "inputs": [
        {
          "internalType": "uint8",
          "name": "v",
          "type": "uint8"
        }
      ],
      "name": "BadSignatureV",
      "type": "error"
    },
    {
      "inputs": [],
      "name": "ConsiderationCriteriaResolverOutOfRange",
      "type": "error"
    },
    {
      "inputs": [
        {
          "internalType": "uint256",
          "name": "orderIndex",
          "type": "uint256"
        },
        {
          "internalType": "uint256",
          "name": "considerationIndex",
          "type": "uint256"
        },
        {
          "internalType": "uint256",
          "name": "shortfallAmount",
          "type": "uint256"
        }
      ],
      "name": "ConsiderationNotMet",
      "type": "error"
    },
    {
      "inputs": [],
      "name": "CriteriaNotEnabledForItem",
      "type": "error"
    },
    {
      "inputs": [
        {
          "internalType": "address",
          "name": "token",
          "type": "address"
        },
        {
          "internalType": "address",
          "name": "from",
          "type": "address"
        },
        {
          "internalType": "address",
          "name": "to",
          "type": "address"
        },
        {
          "internalType": "uint256[]",
          "name": "identifiers",
          "type": "uint256[]"
        },
        {
          "internalType": "uint256[]",
          "name": "amounts",
          "type": "uint256[]"
        }
      ],
      "name": "ERC1155BatchTransferGenericFailure",
      "type": "error"
    },
    {
      "inputs": [
        {
          "internalType": "address",
          "name": "account",
          "type": "address"
        },
        {
          "internalType": "uint256",
          "name": "amount",
          "type": "uint256"
        }
      ],
      "name": "EtherTransferGenericFailure",
      "type": "error"
    },
    {
      "inputs": [],
      "name": "InexactFraction",
      "type": "error"
    },
    {
      "inputs": [],
      "name": "InsufficientEtherSupplied",
      "type": "error"
    },
    {
      "inputs": [],
      "name": "Invalid1155BatchTransferEncoding",
      "type": "error"
    },
    {
      "inputs": [],
      "name": "InvalidBasicOrderParameterEncoding",
      "type": "error"
    },
    {
      "inputs": [
        {
          "internalType": "address",
          "name": "conduit",
          "type": "address"
        }
      ],
      "name": "InvalidCallToConduit",
      "type": "error"
    },
    {
      "inputs": [],
      "name": "InvalidCanceller",
      "type": "error"
    },
    {
      "inputs": [
        {
          "internalType": "bytes32",
          "name": "conduitKey",
          "type": "bytes32"
        },
        {
          "internalType": "address",
          "name": "conduit",
          "type": "address"
        }
      ],
      "name": "InvalidConduit",
      "type": "error"
    },
    {
      "inputs": [],
      "name": "InvalidERC721TransferAmount",
      "type": "error"
    },
    {
      "inputs": [],
      "name": "InvalidFulfillmentComponentData",
      "type": "error"
    },
    {
      "inputs": [
        {
          "internalType": "uint256",
          "name": "value",
          "type": "uint256"
        }
      ],
      "name": "InvalidMsgValue",
      "type": "error"
    },
    {
      "inputs": [],
      "name": "InvalidNativeOfferItem",
      "type": "error"
    },
    {
      "inputs": [],
      "name": "InvalidProof",
      "type": "error"
    },
    {
      "inputs": [
        {
          "internalType": "bytes32",
          "name": "orderHash",
          "type": "bytes32"
        }
      ],
      "name": "InvalidRestrictedOrder",
      "type": "error"
    },
    {
      "inputs": [],
      "name": "InvalidSignature",
      "type": "error"
    },
    {
      "inputs": [],
      "name": "InvalidSigner",
      "type": "error"
    },
    {
      "inputs": [],
      "name": "InvalidTime",
      "type": "error"
    },
    {
      "inputs": [],
      "name": "MismatchedFulfillmentOfferAndConsiderationComponents",
      "type": "error"
    },
    {
      "inputs": [
        {
          "internalType": "enum Side",
          "name": "side",
          "type": "uint8"
        }
      ],
      "name": "MissingFulfillmentComponentOnAggregation",
      "type": "error"
    },
    {
      "inputs": [],
      "name": "MissingItemAmount",
      "type": "error"
    },
    {
      "inputs": [],
      "name": "MissingOriginalConsiderationItems",
      "type": "error"
    },
    {
      "inputs": [
        {
          "internalType": "address",
          "name": "account",
          "type": "address"
        }
      ],
      "name": "NoContract",
      "type": "error"
    },
    {
      "inputs": [],
      "name": "NoReentrantCalls",
      "type": "error"
    },
    {
      "inputs": [],
      "name": "NoSpecifiedOrdersAvailable",
      "type": "error"
    },
    {
      "inputs": [],
      "name": "OfferAndConsiderationRequiredOnFulfillment",
      "type": "error"
    },
    {
      "inputs": [],
      "name": "OfferCriteriaResolverOutOfRange",
      "type": "error"
    },
    {
      "inputs": [
        {
          "internalType": "bytes32",
          "name": "orderHash",
          "type": "bytes32"
        }
      ],
      "name": "OrderAlreadyFilled",
      "type": "error"
    },
    {
      "inputs": [],
      "name": "OrderCriteriaResolverOutOfRange",
      "type": "error"
    },
    {
      "inputs": [
        {
          "internalType": "bytes32",
          "name": "orderHash",
          "type": "bytes32"
        }
      ],
      "name": "OrderIsCancelled",
      "type": "error"
    },
    {
      "inputs": [
        {
          "internalType": "bytes32",
          "name": "orderHash",
          "type": "bytes32"
        }
      ],
      "name": "OrderPartiallyFilled",
      "type": "error"
    },
    {
      "inputs": [],
      "name": "PartialFillsNotEnabledForOrder",
      "type": "error"
    },
    {
      "inputs": [
        {
          "internalType": "address",
          "name": "token",
          "type": "address"
        },
        {
          "internalType": "address",
          "name": "from",
          "type": "address"
        },
        {
          "internalType": "address",
          "name": "to",
          "type": "address"
        },
        {
          "internalType": "uint256",
          "name": "identifier",
          "type": "uint256"
        },
        {
          "internalType": "uint256",
          "name": "amount",
          "type": "uint256"
        }
      ],
      "name": "TokenTransferGenericFailure",
      "type": "error"
    },
    {
      "inputs": [],
      "name": "UnresolvedConsiderationCriteria",
      "type": "error"
    },
    {
      "inputs": [],
      "name": "UnresolvedOfferCriteria",
      "type": "error"
    },
    {
      "inputs": [],
      "name": "UnusedItemParameters",
      "type": "error"
    },
    {
      "anonymous": false,
      "inputs": [
        {
          "indexed": false,
          "internalType": "uint256",
          "name": "newCounter",
          "type": "uint256"
        },
        {
          "indexed": true,
          "internalType": "address",
          "name": "offerer",
          "type": "address"
        }
      ],
      "name": "CounterIncremented",
      "type": "event"
    },
    {
      "anonymous": false,
      "inputs": [
        {
          "indexed": false,
          "internalType": "bytes32",
          "name": "orderHash",
          "type": "bytes32"
        },
        {
          "indexed": true,
          "internalType": "address",
          "name": "offerer",
          "type": "address"
        },
        {
          "indexed": true,
          "internalType": "address",
          "name": "zone",
          "type": "address"
        }
      ],
      "name": "OrderCancelled",
      "type": "event"
    },
    {
      "anonymous": false,
      "inputs": [
        {
          "indexed": false,
          "internalType": "bytes32",
          "name": "orderHash",
          "type": "bytes32"
        },
        {
          "indexed": true,
          "internalType": "address",
          "name": "offerer",
          "type": "address"
        },
        {
          "indexed": true,
          "internalType": "address",
          "name": "zone",
          "type": "address"
        },
        {
          "indexed": false,
          "internalType": "address",
          "name": "recipient",
          "type": "address"
        },
        {
          "components": [
            {
              "internalType": "enum ItemType",
              "name": "itemType",
              "type": "uint8"
            },
            {
              "internalType": "address",
              "name": "token",
              "type": "address"
            },
            {
              "internalType": "uint256",
              "name": "identifier",
              "type": "uint256"
            },
            {
              "internalType": "uint256",
              "name": "amount",
              "type": "uint256"
            }
          ],
          "indexed": false,
          "internalType": "struct SpentItem[]",
          "name": "offer",
          "type": "tuple[]"
        },
        {
          "components": [
            {
              "internalType": "enum ItemType",
              "name": "itemType",
              "type": "uint8"
            },
            {
              "internalType": "address",
              "name": "token",
              "type": "address"
            },
            {
              "internalType": "uint256",
              "name": "identifier",
              "type": "uint256"
            },
            {
              "internalType": "uint256",
              "name": "amount",
              "type": "uint256"
            },
            {
              "internalType": "address payable",
              "name": "recipient",
              "type": "address"
            }
          ],
          "indexed": false,
          "internalType": "struct ReceivedItem[]",
          "name": "consideration",
          "type": "tuple[]"
        }
      ],
      "name": "OrderFulfilled",
      "type": "event"
    },
    {
      "anonymous": false,
      "inputs": [
        {
          "indexed": false,
          "internalType": "bytes32",
          "name": "orderHash",
          "type": "bytes32"
        },
        {
          "indexed": true,
          "internalType": "address",
          "name": "offerer",
          "type": "address"
        },
        {
          "indexed": true,
          "internalType": "address",
          "name": "zone",
          "type": "address"
        }
      ],
      "name": "OrderValidated",
      "type": "event"
    },
    {
      "inputs": [
        {
          "components": [
            {
              "internalType": "address",
              "name": "offerer",
              "type": "address"
            },
            {
              "internalType": "address",
              "name": "zone",
              "type": "address"
            },
            {
              "components": [
                {
                  "internalType": "enum ItemType",
                  "name": "itemType",
                  "type": "uint8"
                },
                {
                  "internalType": "address",
                  "name": "token",
                  "type": "address"
                },
                {
                  "internalType": "uint256",
                  "name": "identifierOrCriteria",
                  "type": "uint256"
                },
                {
                  "internalType": "uint256",
                  "name": "startAmount",
                  "type": "uint256"
                },
                {
                  "internalType": "uint256",
                  "name": "endAmount",
                  "type": "uint256"
                }
              ],
              "internalType": "struct OfferItem[]",
              "name": "offer",
              "type": "tuple[]"
            },
            {
              "components": [
                {
                  "internalType": "enum ItemType",
                  "name": "itemType",
                  "type": "uint8"
                },
                {
                  "internalType": "address",
                  "name": "token",
                  "type": "address"
                },
                {
                  "internalType": "uint256",
                  "name": "identifierOrCriteria",
                  "type": "uint256"
                },
                {
                  "internalType": "uint256",
                  "name": "startAmount",
                  "type": "uint256"
                },
                {
                  "internalType": "uint256",
                  "name": "endAmount",
                  "type": "uint256"
                },
                {
                  "internalType": "address payable",
                  "name": "recipient",
                  "type": "address"
                }
              ],
              "internalType": "struct ConsiderationItem[]",
              "name": "consideration",
              "type": "tuple[]"
            },
            {
              "internalType": "enum OrderType",
              "name": "orderType",
              "type": "uint8"
            },
            {
              "internalType": "uint256",
              "name": "startTime",
              "type": "uint256"
            },
            {
              "internalType": "uint256",
              "name": "endTime",
              "type": "uint256"
            },
            {
              "internalType": "bytes32",
              "name": "zoneHash",
              "type": "bytes32"
            },
            {
              "internalType": "uint256",
              "name": "salt",
              "type": "uint256"
            },
            {
              "internalType": "bytes32",
              "name": "conduitKey",
              "type": "bytes32"
            },
            {
              "internalType": "uint256",
              "name": "counter",
              "type": "uint256"
            }
          ],
          "internalType": "struct OrderComponents[]",
          "name": "orders",
          "type": "tuple[]"
        }
      ],
      "name": "cancel",
      "outputs": [
        {
          "internalType": "bool",
          "name": "cancelled",
          "type": "bool"
        }
      ],
      "stateMutability": "nonpayable",
      "type": "function"
    },
    {
      "inputs": [
        {
          "components": [
            {
              "components": [
                {
                  "internalType": "address",
                  "name": "offerer",
                  "type": "address"
                },
                {
                  "internalType": "address",
                  "name": "zone",
                  "type": "address"
                },
                {
                  "components": [
                    {
                      "internalType": "enum ItemType",
                      "name": "itemType",
                      "type": "uint8"
                    },
                    {
                      "internalType": "address",
                      "name": "token",
                      "type": "address"
                    },
                    {
                      "internalType": "uint256",
                      "name": "identifierOrCriteria",
                      "type": "uint256"
                    },
                    {
                      "internalType": "uint256",
                      "name": "startAmount",
                      "type": "uint256"
                    },
                    {
                      "internalType": "uint256",
                      "name": "endAmount",
                      "type": "uint256"
                    }
                  ],
                  "internalType": "struct OfferItem[]",
                  "name": "offer",
                  "type": "tuple[]"
                },
                {
                  "components": [
                    {
                      "internalType": "enum ItemType",
                      "name": "itemType",
                      "type": "uint8"
                    },
                    {
                      "internalType": "address",
                      "name": "token",
                      "type": "address"
                    },
                    {
                      "internalType": "uint256",
                      "name": "identifierOrCriteria",
                      "type": "uint256"
                    },
                    {
                      "internalType": "uint256",
                      "name": "startAmount",
                      "type": "uint256"
                    },
                    {
                      "internalType": "uint256",
                      "name": "endAmount",
                      "type": "uint256"
                    },
                    {
                      "internalType": "address payable",
                      "name": "recipient",
                      "type": "address"
                    }
                  ],
                  "internalType": "struct ConsiderationItem[]",
                  "name": "consideration",
                  "type": "tuple[]"
                },
                {
                  "internalType": "enum OrderType",
                  "name": "orderType",
                  "type": "uint8"
                },
                {
                  "internalType": "uint256",
                  "name": "startTime",
                  "type": "uint256"
                },
                {
                  "internalType": "uint256",
                  "name": "endTime",
                  "type": "uint256"
                },
                {
                  "internalType": "bytes32",
                  "name": "zoneHash",
                  "type": "bytes32"
                },
                {
                  "internalType": "uint256",
                  "name": "salt",
                  "type": "uint256"
                },
                {
                  "internalType": "bytes32",
                  "name": "conduitKey",
                  "type": "bytes32"
                },
                {
                  "internalType": "uint256",
                  "name": "totalOriginalConsiderationItems",
                  "type": "uint256"
                }
              ],
              "internalType": "struct OrderParameters",
              "name": "parameters",
              "type": "tuple"
            },
            {
              "internalType": "uint120",
              "name": "numerator",
              "type": "uint120"
            },
            {
              "internalType": "uint120",
              "name": "denominator",
              "type": "uint120"
            },
            {
              "internalType": "bytes",
              "name": "signature",
              "type": "bytes"
            },
            {
              "internalType": "bytes",
              "name": "extraData",
              "type": "bytes"
            }
          ],
          "internalType": "struct AdvancedOrder",
          "name": "advancedOrder",
          "type": "tuple"
        },
        {
          "components": [
            {
              "internalType": "uint256",
              "name": "orderIndex",
              "type": "uint256"
            },
            {
              "internalType": "enum Side",
              "name": "side",
              "type": "uint8"
            },
            {
              "internalType": "uint256",
              "name": "index",
              "type": "uint256"
            },
            {
              "internalType": "uint256",
              "name": "identifier",
              "type": "uint256"
            },
            {
              "internalType": "bytes32[]",
              "name": "criteriaProof",
              "type": "bytes32[]"
            }
          ],
          "internalType": "struct CriteriaResolver[]",
          "name": "criteriaResolvers",
          "type": "tuple[]"
        },
        {
          "internalType": "bytes32",
          "name": "fulfillerConduitKey",
          "type": "bytes32"
        },
        {
          "internalType": "address",
          "name": "recipient",
          "type": "address"
        }
      ],
      "name": "fulfillAdvancedOrder",
      "outputs": [
        {
          "internalType": "bool",
          "name": "fulfilled",
          "type": "bool"
        }
      ],
      "stateMutability": "payable",
      "type": "function"
    },
    {
      "inputs": [
        {
          "components": [
            {
              "components": [
                {
                  "internalType": "address",
                  "name": "offerer",
                  "type": "address"
                },
                {
                  "internalType": "address",
                  "name": "zone",
                  "type": "address"
                },
                {
                  "components": [
                    {
                      "internalType": "enum ItemType",
                      "name": "itemType",
                      "type": "uint8"
                    },
                    {
                      "internalType": "address",
                      "name": "token",
                      "type": "address"
                    },
                    {
                      "internalType": "uint256",
                      "name": "identifierOrCriteria",
                      "type": "uint256"
                    },
                    {
                      "internalType": "uint256",
                      "name": "startAmount",
                      "type": "uint256"
                    },
                    {
                      "internalType": "uint256",
                      "name": "endAmount",
                      "type": "uint256"
                    }
                  ],
                  "internalType": "struct OfferItem[]",
                  "name": "offer",
                  "type": "tuple[]"
                },
                {
                  "components": [
                    {
                      "internalType": "enum ItemType",
                      "name": "itemType",
                      "type": "uint8"
                    },
                    {
                      "internalType": "address",
                      "name": "token",
                      "type": "address"
                    },
                    {
                      "internalType": "uint256",
                      "name": "identifierOrCriteria",
                      "type": "uint256"
                    },
                    {
                      "internalType": "uint256",
                      "name": "startAmount",
                      "type": "uint256"
                    },
                    {
                      "internalType": "uint256",
                      "name": "endAmount",
                      "type": "uint256"
                    },
                    {
                      "internalType": "address payable",
                      "name": "recipient",
                      "type": "address"
                    }
                  ],
                  "internalType": "struct ConsiderationItem[]",
                  "name": "consideration",
                  "type": "tuple[]"
                },
                {
                  "internalType": "enum OrderType",
                  "name": "orderType",
                  "type": "uint8"
                },
                {
                  "internalType": "uint256",
                  "name": "startTime",
                  "type": "uint256"
                },
                {
                  "internalType": "uint256",
                  "name": "endTime",
                  "type": "uint256"
                },
                {
                  "internalType": "bytes32",
                  "name": "zoneHash",
                  "type": "bytes32"
                },
                {
                  "internalType": "uint256",
                  "name": "salt",
                  "type": "uint256"
                },
                {
                  "internalType": "bytes32",
                  "name": "conduitKey",
                  "type": "bytes32"
                },
                {
                  "internalType": "uint256",
                  "name": "totalOriginalConsiderationItems",
                  "type": "uint256"
                }
              ],
              "internalType": "struct OrderParameters",
              "name": "parameters",
              "type": "tuple"
            },
            {
              "internalType": "uint120",
              "name": "numerator",
              "type": "uint120"
            },
            {
              "internalType": "uint120",
              "name": "denominator",
              "type": "uint120"
            },
            {
              "internalType": "bytes",
              "name": "signature",
              "type": "bytes"
            },
            {
              "internalType": "bytes",
              "name": "extraData",
              "type": "bytes"
            }
          ],
          "internalType": "struct AdvancedOrder[]",
          "name": "advancedOrders",
          "type": "tuple[]"
        },
        {
          "components": [
            {
              "internalType": "uint256",
              "name": "orderIndex",
              "type": "uint256"
            },
            {
              "internalType": "enum Side",
              "name": "side",
              "type": "uint8"
            },
            {
              "internalType": "uint256",
              "name": "index",
              "type": "uint256"
            },
            {
              "internalType": "uint256",
              "name": "identifier",
              "type": "uint256"
            },
            {
              "internalType": "bytes32[]",
              "name": "criteriaProof",
              "type": "bytes32[]"
            }
          ],
          "internalType": "struct CriteriaResolver[]",
          "name": "criteriaResolvers",
          "type": "tuple[]"
        },
        {
          "components": [
            {
              "internalType": "uint256",
              "name": "orderIndex",
              "type": "uint256"
            },
            {
              "internalType": "uint256",
              "name": "itemIndex",
              "type": "uint256"
            }
          ],
          "internalType": "struct FulfillmentComponent[][]",
          "name": "offerFulfillments",
          "type": "tuple[][]"
        },
        {
          "components": [
            {
              "internalType": "uint256",
              "name": "orderIndex",
              "type": "uint256"
            },
            {
              "internalType": "uint256",
              "name": "itemIndex",
              "type": "uint256"
            }
          ],
          "internalType": "struct FulfillmentComponent[][]",
          "name": "considerationFulfillments",
          "type": "tuple[][]"
        },
        {
          "internalType": "bytes32",
          "name": "fulfillerConduitKey",
          "type": "bytes32"
        },
        {
          "internalType": "address",
          "name": "recipient",
          "type": "address"
        },
        {
          "internalType": "uint256",
          "name": "maximumFulfilled",
          "type": "uint256"
        }
      ],
      "name": "fulfillAvailableAdvancedOrders",
      "outputs": [
        {
          "internalType": "bool[]",
          "name": "availableOrders",
          "type": "bool[]"
        },
        {
          "components": [
            {
              "components": [
                {
                  "internalType": "enum ItemType",
                  "name": "itemType",
                  "type": "uint8"
                },
                {
                  "internalType": "address",
                  "name": "token",
                  "type": "address"
                },
                {
                  "internalType": "uint256",
                  "name": "identifier",
                  "type": "uint256"
                },
                {
                  "internalType": "uint256",
                  "name": "amount",
                  "type": "uint256"
                },
                {
                  "internalType": "address payable",
                  "name": "recipient",
                  "type": "address"
                }
              ],
              "internalType": "struct ReceivedItem",
              "name": "item",
              "type": "tuple"
            },
            {
              "internalType": "address",
              "name": "offerer",
              "type": "address"
            },
            {
              "internalType": "bytes32",
              "name": "conduitKey",
              "type": "bytes32"
            }
          ],
          "internalType": "struct Execution[]",
          "name": "executions",
          "type": "tuple[]"
        }
      ],
      "stateMutability": "payable",
      "type": "function"
    },
    {
      "inputs": [
        {
          "components": [
            {
              "components": [
                {
                  "internalType": "address",
                  "name": "offerer",
                  "type": "address"
                },
                {
                  "internalType": "address",
                  "name": "zone",
                  "type": "address"
                },
                {
                  "components": [
                    {
                      "internalType": "enum ItemType",
                      "name": "itemType",
                      "type": "uint8"
                    },
                    {
                      "internalType": "address",
                      "name": "token",
                      "type": "address"
                    },
                    {
                      "internalType": "uint256",
                      "name": "identifierOrCriteria",
                      "type": "uint256"
                    },
                    {
                      "internalType": "uint256",
                      "name": "startAmount",
                      "type": "uint256"
                    },
                    {
                      "internalType": "uint256",
                      "name": "endAmount",
                      "type": "uint256"
                    }
                  ],
                  "internalType": "struct OfferItem[]",
                  "name": "offer",
                  "type": "tuple[]"
                },
                {
                  "components": [
                    {
                      "internalType": "enum ItemType",
                      "name": "itemType",
                      "type": "uint8"
                    },
                    {
                      "internalType": "address",
                      "name": "token",
                      "type": "address"
                    },
                    {
                      "internalType": "uint256",
                      "name": "identifierOrCriteria",
                      "type": "uint256"
                    },
                    {
                      "internalType": "uint256",
                      "name": "startAmount",
                      "type": "uint256"
                    },
                    {
                      "internalType": "uint256",
                      "name": "endAmount",
                      "type": "uint256"
                    },
                    {
                      "internalType": "address payable",
                      "name": "recipient",
                      "type": "address"
                    }
                  ],
                  "internalType": "struct ConsiderationItem[]",
                  "name": "consideration",
                  "type": "tuple[]"
                },
                {
                  "internalType": "enum OrderType",
                  "name": "orderType",
                  "type": "uint8"
                },
                {
                  "internalType": "uint256",
                  "name": "startTime",
                  "type": "uint256"
                },
                {
                  "internalType": "uint256",
                  "name": "endTime",
                  "type": "uint256"
                },
                {
                  "internalType": "bytes32",
                  "name": "zoneHash",
                  "type": "bytes32"
                },
                {
                  "internalType": "uint256",
                  "name": "salt",
                  "type": "uint256"
                },
                {
                  "internalType": "bytes32",
                  "name": "conduitKey",
                  "type": "bytes32"
                },
                {
                  "internalType": "uint256",
                  "name": "totalOriginalConsiderationItems",
                  "type": "uint256"
                }
              ],
              "internalType": "struct OrderParameters",
              "name": "parameters",
              "type": "tuple"
            },
            {
              "internalType": "bytes",
              "name": "signature",
              "type": "bytes"
            }
          ],
          "internalType": "struct Order[]",
          "name": "orders",
          "type": "tuple[]"
        },
        {
          "components": [
            {
              "internalType": "uint256",
              "name": "orderIndex",
              "type": "uint256"
            },
            {
              "internalType": "uint256",
              "name": "itemIndex",
              "type": "uint256"
            }
          ],
          "internalType": "struct FulfillmentComponent[][]",
          "name": "offerFulfillments",
          "type": "tuple[][]"
        },
        {
          "components": [
            {
              "internalType": "uint256",
              "name": "orderIndex",
              "type": "uint256"
            },
            {
              "internalType": "uint256",
              "name": "itemIndex",
              "type": "uint256"
            }
          ],
          "internalType": "struct FulfillmentComponent[][]",
          "name": "considerationFulfillments",
          "type": "tuple[][]"
        },
        {
          "internalType": "bytes32",
          "name": "fulfillerConduitKey",
          "type": "bytes32"
        },
        {
          "internalType": "uint256",
          "name": "maximumFulfilled",
          "type": "uint256"
        }
      ],
      "name": "fulfillAvailableOrders",
      "outputs": [
        {
          "internalType": "bool[]",
          "name": "availableOrders",
          "type": "bool[]"
        },
        {
          "components": [
            {
              "components": [
                {
                  "internalType": "enum ItemType",
                  "name": "itemType",
                  "type": "uint8"
                },
                {
                  "internalType": "address",
                  "name": "token",
                  "type": "address"
                },
                {
                  "internalType": "uint256",
                  "name": "identifier",
                  "type": "uint256"
                },
                {
                  "internalType": "uint256",
                  "name": "amount",
                  "type": "uint256"
                },
                {
                  "internalType": "address payable",
                  "name": "recipient",
                  "type": "address"
                }
              ],
              "internalType": "struct ReceivedItem",
              "name": "item",
              "type": "tuple"
            },
            {
              "internalType": "address",
              "name": "offerer",
              "type": "address"
            },
            {
              "internalType": "bytes32",
              "name": "conduitKey",
              "type": "bytes32"
            }
          ],
          "internalType": "struct Execution[]",
          "name": "executions",
          "type": "tuple[]"
        }
      ],
      "stateMutability": "payable",
      "type": "function"
    },
    {
      "inputs": [
        {
          "components": [
            {
              "internalType": "address",
              "name": "considerationToken",
              "type": "address"
            },
            {
              "internalType": "uint256",
              "name": "considerationIdentifier",
              "type": "uint256"
            },
            {
              "internalType": "uint256",
              "name": "considerationAmount",
              "type": "uint256"
            },
            {
              "internalType": "address payable",
              "name": "offerer",
              "type": "address"
            },
            {
              "internalType": "address",
              "name": "zone",
              "type": "address"
            },
            {
              "internalType": "address",
              "name": "offerToken",
              "type": "address"
            },
            {
              "internalType": "uint256",
              "name": "offerIdentifier",
              "type": "uint256"
            },
            {
              "internalType": "uint256",
              "name": "offerAmount",
              "type": "uint256"
            },
            {
              "internalType": "enum BasicOrderType",
              "name": "basicOrderType",
              "type": "uint8"
            },
            {
              "internalType": "uint256",
              "name": "startTime",
              "type": "uint256"
            },
            {
              "internalType": "uint256",
              "name": "endTime",
              "type": "uint256"
            },
            {
              "internalType": "bytes32",
              "name": "zoneHash",
              "type": "bytes32"
            },
            {
              "internalType": "uint256",
              "name": "salt",
              "type": "uint256"
            },
            {
              "internalType": "bytes32",
              "name": "offererConduitKey",
              "type": "bytes32"
            },
            {
              "internalType": "bytes32",
              "name": "fulfillerConduitKey",
              "type": "bytes32"
            },
            {
              "internalType": "uint256",
              "name": "totalOriginalAdditionalRecipients",
              "type": "uint256"
            },
            {
              "components": [
                {
                  "internalType": "uint256",
                  "name": "amount",
                  "type": "uint256"
                },
                {
                  "internalType": "address payable",
                  "name": "recipient",
                  "type": "address"
                }
              ],
              "internalType": "struct AdditionalRecipient[]",
              "name": "additionalRecipients",
              "type": "tuple[]"
            },
            {
              "internalType": "bytes",
              "name": "signature",
              "type": "bytes"
            }
          ],
          "internalType": "struct BasicOrderParameters",
          "name": "parameters",
          "type": "tuple"
        }
      ],
      "name": "fulfillBasicOrder",
      "outputs": [
        {
          "internalType": "bool",
          "name": "fulfilled",
          "type": "bool"
        }
      ],
      "stateMutability": "payable",
      "type": "function"
    },
    {
      "inputs": [
        {
          "components": [
            {
              "components": [
                {
                  "internalType": "address",
                  "name": "offerer",
                  "type": "address"
                },
                {
                  "internalType": "address",
                  "name": "zone",
                  "type": "address"
                },
                {
                  "components": [
                    {
                      "internalType": "enum ItemType",
                      "name": "itemType",
                      "type": "uint8"
                    },
                    {
                      "internalType": "address",
                      "name": "token",
                      "type": "address"
                    },
                    {
                      "internalType": "uint256",
                      "name": "identifierOrCriteria",
                      "type": "uint256"
                    },
                    {
                      "internalType": "uint256",
                      "name": "startAmount",
                      "type": "uint256"
                    },
                    {
                      "internalType": "uint256",
                      "name": "endAmount",
                      "type": "uint256"
                    }
                  ],
                  "internalType": "struct OfferItem[]",
                  "name": "offer",
                  "type": "tuple[]"
                },
                {
                  "components": [
                    {
                      "internalType": "enum ItemType",
                      "name": "itemType",
                      "type": "uint8"
                    },
                    {
                      "internalType": "address",
                      "name": "token",
                      "type": "address"
                    },
                    {
                      "internalType": "uint256",
                      "name": "identifierOrCriteria",
                      "type": "uint256"
                    },
                    {
                      "internalType": "uint256",
                      "name": "startAmount",
                      "type": "uint256"
                    },
                    {
                      "internalType": "uint256",
                      "name": "endAmount",
                      "type": "uint256"
                    },
                    {
                      "internalType": "address payable",
                      "name": "recipient",
                      "type": "address"
                    }
                  ],
                  "internalType": "struct ConsiderationItem[]",
                  "name": "consideration",
                  "type": "tuple[]"
                },
                {
                  "internalType": "enum OrderType",
                  "name": "orderType",
                  "type": "uint8"
                },
                {
                  "internalType": "uint256",
                  "name": "startTime",
                  "type": "uint256"
                },
                {
                  "internalType": "uint256",
                  "name": "endTime",
                  "type": "uint256"
                },
                {
                  "internalType": "bytes32",
                  "name": "zoneHash",
                  "type": "bytes32"
                },
                {
                  "internalType": "uint256",
                  "name": "salt",
                  "type": "uint256"
                },
                {
                  "internalType": "bytes32",
                  "name": "conduitKey",
                  "type": "bytes32"
                },
                {
                  "internalType": "uint256",
                  "name": "totalOriginalConsiderationItems",
                  "type": "uint256"
                }
              ],
              "internalType": "struct OrderParameters",
              "name": "parameters",
              "type": "tuple"
            },
            {
              "internalType": "bytes",
              "name": "signature",
              "type": "bytes"
            }
          ],
          "internalType": "struct Order",
          "name": "order",
          "type": "tuple"
        },
        {
          "internalType": "bytes32",
          "name": "fulfillerConduitKey",
          "type": "bytes32"
        }
      ],
      "name": "fulfillOrder",
      "outputs": [
        {
          "internalType": "bool",
          "name": "fulfilled",
          "type": "bool"
        }
      ],
      "stateMutability": "payable",
      "type": "function"
    },
    {
      "inputs": [
        {
          "internalType": "address",
          "name": "offerer",
          "type": "address"
        }
      ],
      "name": "getCounter",
      "outputs": [
        {
          "internalType": "uint256",
          "name": "counter",
          "type": "uint256"
        }
      ],
      "stateMutability": "view",
      "type": "function"
    },
    {
      "inputs": [
        {
          "components": [
            {
              "internalType": "address",
              "name": "offerer",
              "type": "address"
            },
            {
              "internalType": "address",
              "name": "zone",
              "type": "address"
            },
            {
              "components": [
                {
                  "internalType": "enum ItemType",
                  "name": "itemType",
                  "type": "uint8"
                },
                {
                  "internalType": "address",
                  "name": "token",
                  "type": "address"
                },
                {
                  "internalType": "uint256",
                  "name": "identifierOrCriteria",
                  "type": "uint256"
                },
                {
                  "internalType": "uint256",
                  "name": "startAmount",
                  "type": "uint256"
                },
                {
                  "internalType": "uint256",
                  "name": "endAmount",
                  "type": "uint256"
                }
              ],
              "internalType": "struct OfferItem[]",
              "name": "offer",
              "type": "tuple[]"
            },
            {
              "components": [
                {
                  "internalType": "enum ItemType",
                  "name": "itemType",
                  "type": "uint8"
                },
                {
                  "internalType": "address",
                  "name": "token",
                  "type": "address"
                },
                {
                  "internalType": "uint256",
                  "name": "identifierOrCriteria",
                  "type": "uint256"
                },
                {
                  "internalType": "uint256",
                  "name": "startAmount",
                  "type": "uint256"
                },
                {
                  "internalType": "uint256",
                  "name": "endAmount",
                  "type": "uint256"
                },
                {
                  "internalType": "address payable",
                  "name": "recipient",
                  "type": "address"
                }
              ],
              "internalType": "struct ConsiderationItem[]",
              "name": "consideration",
              "type": "tuple[]"
            },
            {
              "internalType": "enum OrderType",
              "name": "orderType",
              "type": "uint8"
            },
            {
              "internalType": "uint256",
              "name": "startTime",
              "type": "uint256"
            },
            {
              "internalType": "uint256",
              "name": "endTime",
              "type": "uint256"
            },
            {
              "internalType": "bytes32",
              "name": "zoneHash",
              "type": "bytes32"
            },
            {
              "internalType": "uint256",
              "name": "salt",
              "type": "uint256"
            },
            {
              "internalType": "bytes32",
              "name": "conduitKey",
              "type": "bytes32"
            },
            {
              "internalType": "uint256",
              "name": "counter",
              "type": "uint256"
            }
          ],
          "internalType": "struct OrderComponents",
          "name": "order",
          "type": "tuple"
        }
      ],
      "name": "getOrderHash",
      "outputs": [
        {
          "internalType": "bytes32",
          "name": "orderHash",
          "type": "bytes32"
        }
      ],
      "stateMutability": "view",
      "type": "function"
    },
    {
      "inputs": [
        {
          "internalType": "bytes32",
          "name": "orderHash",
          "type": "bytes32"
        }
      ],
      "name": "getOrderStatus",
      "outputs": [
        {
          "internalType": "bool",
          "name": "isValidated",
          "type": "bool"
        },
        {
          "internalType": "bool",
          "name": "isCancelled",
          "type": "bool"
        },
        {
          "internalType": "uint256",
          "name": "totalFilled",
          "type": "uint256"
        },
        {
          "internalType": "uint256",
          "name": "totalSize",
          "type": "uint256"
        }
      ],
      "stateMutability": "view",
      "type": "function"
    },
    {
      "inputs": [],
      "name": "incrementCounter",
      "outputs": [
        {
          "internalType": "uint256",
          "name": "newCounter",
          "type": "uint256"
        }
      ],
      "stateMutability": "nonpayable",
      "type": "function"
    },
    {
      "inputs": [],
      "name": "information",
      "outputs": [
        {
          "internalType": "string",
          "name": "version",
          "type": "string"
        },
        {
          "internalType": "bytes32",
          "name": "domainSeparator",
          "type": "bytes32"
        },
        {
          "internalType": "address",
          "name": "conduitController",
          "type": "address"
        }
      ],
      "stateMutability": "view",
      "type": "function"
    },
    {
      "inputs": [
        {
          "components": [
            {
              "components": [
                {
                  "internalType": "address",
                  "name": "offerer",
                  "type": "address"
                },
                {
                  "internalType": "address",
                  "name": "zone",
                  "type": "address"
                },
                {
                  "components": [
                    {
                      "internalType": "enum ItemType",
                      "name": "itemType",
                      "type": "uint8"
                    },
                    {
                      "internalType": "address",
                      "name": "token",
                      "type": "address"
                    },
                    {
                      "internalType": "uint256",
                      "name": "identifierOrCriteria",
                      "type": "uint256"
                    },
                    {
                      "internalType": "uint256",
                      "name": "startAmount",
                      "type": "uint256"
                    },
                    {
                      "internalType": "uint256",
                      "name": "endAmount",
                      "type": "uint256"
                    }
                  ],
                  "internalType": "struct OfferItem[]",
                  "name": "offer",
                  "type": "tuple[]"
                },
                {
                  "components": [
                    {
                      "internalType": "enum ItemType",
                      "name": "itemType",
                      "type": "uint8"
                    },
                    {
                      "internalType": "address",
                      "name": "token",
                      "type": "address"
                    },
                    {
                      "internalType": "uint256",
                      "name": "identifierOrCriteria",
                      "type": "uint256"
                    },
                    {
                      "internalType": "uint256",
                      "name": "startAmount",
                      "type": "uint256"
                    },
                    {
                      "internalType": "uint256",
                      "name": "endAmount",
                      "type": "uint256"
                    },
                    {
                      "internalType": "address payable",
                      "name": "recipient",
                      "type": "address"
                    }
                  ],
                  "internalType": "struct ConsiderationItem[]",
                  "name": "consideration",
                  "type": "tuple[]"
                },
                {
                  "internalType": "enum OrderType",
                  "name": "orderType",
                  "type": "uint8"
                },
                {
                  "internalType": "uint256",
                  "name": "startTime",
                  "type": "uint256"
                },
                {
                  "internalType": "uint256",
                  "name": "endTime",
                  "type": "uint256"
                },
                {
                  "internalType": "bytes32",
                  "name": "zoneHash",
                  "type": "bytes32"
                },
                {
                  "internalType": "uint256",
                  "name": "salt",
                  "type": "uint256"
                },
                {
                  "internalType": "bytes32",
                  "name": "conduitKey",
                  "type": "bytes32"
                },
                {
                  "internalType": "uint256",
                  "name": "totalOriginalConsiderationItems",
                  "type": "uint256"
                }
              ],
              "internalType": "struct OrderParameters",
              "name": "parameters",
              "type": "tuple"
            },
            {
              "internalType": "uint120",
              "name": "numerator",
              "type": "uint120"
            },
            {
              "internalType": "uint120",
              "name": "denominator",
              "type": "uint120"
            },
            {
              "internalType": "bytes",
              "name": "signature",
              "type": "bytes"
            },
            {
              "internalType": "bytes",
              "name": "extraData",
              "type": "bytes"
            }
          ],
          "internalType": "struct AdvancedOrder[]",
          "name": "advancedOrders",
          "type": "tuple[]"
        },
        {
          "components": [
            {
              "internalType": "uint256",
              "name": "orderIndex",
              "type": "uint256"
            },
            {
              "internalType": "enum Side",
              "name": "side",
              "type": "uint8"
            },
            {
              "internalType": "uint256",
              "name": "index",
              "type": "uint256"
            },
            {
              "internalType": "uint256",
              "name": "identifier",
              "type": "uint256"
            },
            {
              "internalType": "bytes32[]",
              "name": "criteriaProof",
              "type": "bytes32[]"
            }
          ],
          "internalType": "struct CriteriaResolver[]",
          "name": "criteriaResolvers",
          "type": "tuple[]"
        },
        {
          "components": [
            {
              "components": [
                {
                  "internalType": "uint256",
                  "name": "orderIndex",
                  "type": "uint256"
                },
                {
                  "internalType": "uint256",
                  "name": "itemIndex",
                  "type": "uint256"
                }
              ],
              "internalType": "struct FulfillmentComponent[]",
              "name": "offerComponents",
              "type": "tuple[]"
            },
            {
              "components": [
                {
                  "internalType": "uint256",
                  "name": "orderIndex",
                  "type": "uint256"
                },
                {
                  "internalType": "uint256",
                  "name": "itemIndex",
                  "type": "uint256"
                }
              ],
              "internalType": "struct FulfillmentComponent[]",
              "name": "considerationComponents",
              "type": "tuple[]"
            }
          ],
          "internalType": "struct Fulfillment[]",
          "name": "fulfillments",
          "type": "tuple[]"
        }
      ],
      "name": "matchAdvancedOrders",
      "outputs": [
        {
          "components": [
            {
              "components": [
                {
                  "internalType": "enum ItemType",
                  "name": "itemType",
                  "type": "uint8"
                },
                {
                  "internalType": "address",
                  "name": "token",
                  "type": "address"
                },
                {
                  "internalType": "uint256",
                  "name": "identifier",
                  "type": "uint256"
                },
                {
                  "internalType": "uint256",
                  "name": "amount",
                  "type": "uint256"
                },
                {
                  "internalType": "address payable",
                  "name": "recipient",
                  "type": "address"
                }
              ],
              "internalType": "struct ReceivedItem",
              "name": "item",
              "type": "tuple"
            },
            {
              "internalType": "address",
              "name": "offerer",
              "type": "address"
            },
            {
              "internalType": "bytes32",
              "name": "conduitKey",
              "type": "bytes32"
            }
          ],
          "internalType": "struct Execution[]",
          "name": "executions",
          "type": "tuple[]"
        }
      ],
      "stateMutability": "payable",
      "type": "function"
    },
    {
      "inputs": [
        {
          "components": [
            {
              "components": [
                {
                  "internalType": "address",
                  "name": "offerer",
                  "type": "address"
                },
                {
                  "internalType": "address",
                  "name": "zone",
                  "type": "address"
                },
                {
                  "components": [
                    {
                      "internalType": "enum ItemType",
                      "name": "itemType",
                      "type": "uint8"
                    },
                    {
                      "internalType": "address",
                      "name": "token",
                      "type": "address"
                    },
                    {
                      "internalType": "uint256",
                      "name": "identifierOrCriteria",
                      "type": "uint256"
                    },
                    {
                      "internalType": "uint256",
                      "name": "startAmount",
                      "type": "uint256"
                    },
                    {
                      "internalType": "uint256",
                      "name": "endAmount",
                      "type": "uint256"
                    }
                  ],
                  "internalType": "struct OfferItem[]",
                  "name": "offer",
                  "type": "tuple[]"
                },
                {
                  "components": [
                    {
                      "internalType": "enum ItemType",
                      "name": "itemType",
                      "type": "uint8"
                    },
                    {
                      "internalType": "address",
                      "name": "token",
                      "type": "address"
                    },
                    {
                      "internalType": "uint256",
                      "name": "identifierOrCriteria",
                      "type": "uint256"
                    },
                    {
                      "internalType": "uint256",
                      "name": "startAmount",
                      "type": "uint256"
                    },
                    {
                      "internalType": "uint256",
                      "name": "endAmount",
                      "type": "uint256"
                    },
                    {
                      "internalType": "address payable",
                      "name": "recipient",
                      "type": "address"
                    }
                  ],
                  "internalType": "struct ConsiderationItem[]",
                  "name": "consideration",
                  "type": "tuple[]"
                },
                {
                  "internalType": "enum OrderType",
                  "name": "orderType",
                  "type": "uint8"
                },
                {
                  "internalType": "uint256",
                  "name": "startTime",
                  "type": "uint256"
                },
                {
                  "internalType": "uint256",
                  "name": "endTime",
                  "type": "uint256"
                },
                {
                  "internalType": "bytes32",
                  "name": "zoneHash",
                  "type": "bytes32"
                },
                {
                  "internalType": "uint256",
                  "name": "salt",
                  "type": "uint256"
                },
                {
                  "internalType": "bytes32",
                  "name": "conduitKey",
                  "type": "bytes32"
                },
                {
                  "internalType": "uint256",
                  "name": "totalOriginalConsiderationItems",
                  "type": "uint256"
                }
              ],
              "internalType": "struct OrderParameters",
              "name": "parameters",
              "type": "tuple"
            },
            {
              "internalType": "bytes",
              "name": "signature",
              "type": "bytes"
            }
          ],
          "internalType": "struct Order[]",
          "name": "orders",
          "type": "tuple[]"
        },
        {
          "components": [
            {
              "components": [
                {
                  "internalType": "uint256",
                  "name": "orderIndex",
                  "type": "uint256"
                },
                {
                  "internalType": "uint256",
                  "name": "itemIndex",
                  "type": "uint256"
                }
              ],
              "internalType": "struct FulfillmentComponent[]",
              "name": "offerComponents",
              "type": "tuple[]"
            },
            {
              "components": [
                {
                  "internalType": "uint256",
                  "name": "orderIndex",
                  "type": "uint256"
                },
                {
                  "internalType": "uint256",
                  "name": "itemIndex",
                  "type": "uint256"
                }
              ],
              "internalType": "struct FulfillmentComponent[]",
              "name": "considerationComponents",
              "type": "tuple[]"
            }
          ],
          "internalType": "struct Fulfillment[]",
          "name": "fulfillments",
          "type": "tuple[]"
        }
      ],
      "name": "matchOrders",
      "outputs": [
        {
          "components": [
            {
              "components": [
                {
                  "internalType": "enum ItemType",
                  "name": "itemType",
                  "type": "uint8"
                },
                {
                  "internalType": "address",
                  "name": "token",
                  "type": "address"
                },
                {
                  "internalType": "uint256",
                  "name": "identifier",
                  "type": "uint256"
                },
                {
                  "internalType": "uint256",
                  "name": "amount",
                  "type": "uint256"
                },
                {
                  "internalType": "address payable",
                  "name": "recipient",
                  "type": "address"
                }
              ],
              "internalType": "struct ReceivedItem",
              "name": "item",
              "type": "tuple"
            },
            {
              "internalType": "address",
              "name": "offerer",
              "type": "address"
            },
            {
              "internalType": "bytes32",
              "name": "conduitKey",
              "type": "bytes32"
            }
          ],
          "internalType": "struct Execution[]",
          "name": "executions",
          "type": "tuple[]"
        }
      ],
      "stateMutability": "payable",
      "type": "function"
    },
    {
      "inputs": [],
      "name": "name",
      "outputs": [
        {
          "internalType": "string",
          "name": "contractName",
          "type": "string"
        }
      ],
      "stateMutability": "pure",
      "type": "function"
    },
    {
      "inputs": [
        {
          "components": [
            {
              "components": [
                {
                  "internalType": "address",
                  "name": "offerer",
                  "type": "address"
                },
                {
                  "internalType": "address",
                  "name": "zone",
                  "type": "address"
                },
                {
                  "components": [
                    {
                      "internalType": "enum ItemType",
                      "name": "itemType",
                      "type": "uint8"
                    },
                    {
                      "internalType": "address",
                      "name": "token",
                      "type": "address"
                    },
                    {
                      "internalType": "uint256",
                      "name": "identifierOrCriteria",
                      "type": "uint256"
                    },
                    {
                      "internalType": "uint256",
                      "name": "startAmount",
                      "type": "uint256"
                    },
                    {
                      "internalType": "uint256",
                      "name": "endAmount",
                      "type": "uint256"
                    }
                  ],
                  "internalType": "struct OfferItem[]",
                  "name": "offer",
                  "type": "tuple[]"
                },
                {
                  "components": [
                    {
                      "internalType": "enum ItemType",
                      "name": "itemType",
                      "type": "uint8"
                    },
                    {
                      "internalType": "address",
                      "name": "token",
                      "type": "address"
                    },
                    {
                      "internalType": "uint256",
                      "name": "identifierOrCriteria",
                      "type": "uint256"
                    },
                    {
                      "internalType": "uint256",
                      "name": "startAmount",
                      "type": "uint256"
                    },
                    {
                      "internalType": "uint256",
                      "name": "endAmount",
                      "type": "uint256"
                    },
                    {
                      "internalType": "address payable",
                      "name": "recipient",
                      "type": "address"
                    }
                  ],
                  "internalType": "struct ConsiderationItem[]",
                  "name": "consideration",
                  "type": "tuple[]"
                },
                {
                  "internalType": "enum OrderType",
                  "name": "orderType",
                  "type": "uint8"
                },
                {
                  "internalType": "uint256",
                  "name": "startTime",
                  "type": "uint256"
                },
                {
                  "internalType": "uint256",
                  "name": "endTime",
                  "type": "uint256"
                },
                {
                  "internalType": "bytes32",
                  "name": "zoneHash",
                  "type": "bytes32"
                },
                {
                  "internalType": "uint256",
                  "name": "salt",
                  "type": "uint256"
                },
                {
                  "internalType": "bytes32",
                  "name": "conduitKey",
                  "type": "bytes32"
                },
                {
                  "internalType": "uint256",
                  "name": "totalOriginalConsiderationItems",
                  "type": "uint256"
                }
              ],
              "internalType": "struct OrderParameters",
              "name": "parameters",
              "type": "tuple"
            },
            {
              "internalType": "bytes",
              "name": "signature",
              "type": "bytes"
            }
          ],
          "internalType": "struct Order[]",
          "name": "orders",
          "type": "tuple[]"
        }
      ],
      "name": "validate",
      "outputs": [
        {
          "internalType": "bool",
          "name": "validated",
          "type": "bool"
        }
      ],
      "stateMutability": "nonpayable",
      "type": "function"
    }
  ],
  "bytecode": {
    "object": "0x6101c06040523480156200001257600080fd5b506040516200990738038062009907833981016040819052620000359162000dcf565b80808080808080808062000048620000fc565b61016052610120526101005260e05260c05260a05260805246610140526001600160a01b03811661018081905260408051630a96ad3960e01b81528151849392630a96ad3992600480820193918290030181865afa158015620000af573d6000803e3d6000fd5b505050506040513d601f19601f82011682018060405250810190620000d5919062000e01565b506101a0525050600160005550620000f2935050620005c7915050565b5050505062000e91565b604080518082018252600d8082526c21b7b739b4b232b930ba34b7b760991b602092830152825180840184529081526c312e312d7265666572656e636560981b9082015290517f64987f6373075400d7cbff689f2b7bc23753c7e6ce20688196489b8f5d9d7e6c917fb6759aa1fb159fcc9380ddea57bb2003d7f8dfca6c4641b175f1a2cc262affa991600091829182918291829182916200024e91016909ecccccae492e8cada560b31b81526e1d5a5b9d0e081a5d195b551e5c194b608a1b600a8201526d1859191c995cdcc81d1bdad95b8b60921b60198201527f75696e74323536206964656e7469666965724f7243726974657269612c00000060278201527f75696e74323536207374617274416d6f756e742c0000000000000000000000006044820152701d5a5b9d0c8d4d88195b99105b5bdd5b9d607a1b6058820152602960f81b6069820152606a0190565b60408051601f1981840301815282825271086dedce6d2c8cae4c2e8d2dedc92e8cada560731b60208401526e1d5a5b9d0e081a5d195b551e5c194b608a1b60328401526d1859191c995cdcc81d1bdad95b8b60921b60418401527f75696e74323536206964656e7469666965724f7243726974657269612c000000604f8401527f75696e74323536207374617274416d6f756e742c000000000000000000000000606c840152711d5a5b9d0c8d4d88195b99105b5bdd5b9d0b60721b6080840152701859191c995cdcc81c9958da5c1a595b9d607a1b6092840152602960f81b60a384018190528251808503608401815260a485019093526f09ee4c8cae486dedae0dedccadce8e6560831b60c48501526f1859191c995cdcc81bd999995c995c8b60821b60d48501526c1859191c995cdcc81e9bdb994b609a1b60e48501527113d999995c925d195b56d7481bd999995c8b60721b60f18501527f436f6e73696465726174696f6e4974656d5b5d20636f6e73696465726174696f610103850152611b8b60f21b6101238501526f1d5a5b9d0e081bdc99195c951e5c194b60821b610125850152711d5a5b9d0c8d4d881cdd185c9d151a5b594b60721b6101358501526f1d5a5b9d0c8d4d88195b99151a5b594b60821b61014785015270189e5d195ccccc881e9bdb9952185cda0b607a1b6101578501526c1d5a5b9d0c8d4d881cd85b1d0b609a1b6101688501527f6279746573333220636f6e647569744b65792c000000000000000000000000006101758501526e3ab4b73a191a9b1031b7bab73a32b960891b6101888501526101978401529250906000906101980160408051601f19818403018152908290526c08a92a06e626488dedac2d2dc5609b1b60208301526b1cdd1c9a5b99c81b985b594b60a21b602d8301526e1cdd1c9a5b99c81d995c9cda5bdb8b608a1b60398301526f1d5a5b9d0c8d4d8818da185a5b92590b60821b60488301527f6164647265737320766572696679696e67436f6e7472616374000000000000006058830152602960f81b6071830152915060720160408051601f19818403018152908290528051602091820120855186830120855186840120919b50995097506200058e918391859187910162000e64565b604051602081830303815290604052805190602001209450620005b9888b8b62000d8a60201b60201c565b935050505090919293949596565b7f3617319a054d772f909f7c479a2cebe5066e836a939412e32403c99029b92eff805460ff199081169091557fa15bc60c955c405d20d9149c709e2460f1c2d9a497496a7f46004d1772c3054c8054821690557fc3a24b0501bd2c13a7e57f2db4369ec4c223447539fc0724a9d55ac4a06ebd4d8054821690557fcbc4e5fb02c3d1de23a9f1e014b4d2ee5aeaea9505df5e855c9210bf472495af8054821690557f83ec6a1f0257b830b5e016457c9cf1435391bf56cc98f369a58a54fe937724658054821660019081179091557f405aad32e1adbac89bb7f176e338b8fc6e994ca210c9bb7bdca249b46594225080548316821790557fc69056f16cbaa3c616b828e333ab7d3a32310765507f8f58359e99ebb7a885f380548316821790557ff2c49132ed1cee2a7e75bde50d332a2f81f1d01e5456d8a19d1df09bd561dbd280548316821790557f85aaa47b6dc46495bb8824fad4583769726fea36efd831a35556690b830a8fbe8054831660029081179091557f8a8dc4e5242ea8b1ab1d60606dae757e6c2cca9f92a2cced9f72c19960bcb45880548416821790557f9dcb9783ba5cd0b54745f65f4f918525e461e91888c334e5342cb380ac558d5380548416821790557f2d72af3c1b2b2956e6f694fb741556d5ca9524373974378cdbec16afa8b8416480548416821790557fd56a60595ebefebed7f22dcee6c2acc61b06cf8c68e84c88677840365d1ff92b8054841660039081179091557fa8f2d96126c6d0ad63adabaef7bf5cf47f163fb0c218a473d28f62312d197bcf80548516821790557fd6ebcc64c739277b117ce359e436534b234b76e914c80ad276abf5b56207893980548516821790557ff60b7f6a315ec68a6ac240e69dca53652b38627f709a2caa217d9e18af4d7a6080548516821790557f47d4745e02b343689a5e7ac121d2a352b7a15c10328a8759fd7d4cf0999002bb8054851660049081179091557ffc111d09a6e2f0958402cbe16a5aef32c9d8ddb9a4df7271140de57bfed6525a80548616821790557f6a2b6bffaca788160f671fa62d34758b717f75a90ad5a468757c50d61f33c44380548616821790557f8a8166be5f30abeb6c91ee2f07eeb0b2eb14b4d59534d10a1c143964bd61791980548616821790557f0ffe031ee7f67944a037276fd51f48fcc2fe05a729c43144606bc8777da8014f8054861660059081179091557f94f2575c7592b1dfd5a8846a17482da7b0e38fb10c93880d74916c5f1679246480548716821790557f370c8c7c6215b209793aa720f65163fbeecd5f5114008532ba0649ee2340540280548716821790557f0f0519a40093d7edad68f12e2ec868fdf92a03df1cbec3e035c987d6b218f2f48054871690911790556020527f17ef568e3e12ab5b9c7254a8d58478811de00f9e6eb34345acd53bf8fd09d3ec8054851690557f1a1e6821cde7d0159c0d293177871e09677b4e42307c7db3ba94f8648a5a050f8054851690557f2645749a946633740611cfc8178319f0958659d6922e4bf7e3a08b44789f53a48054851690557f140aabff1a85df08546c9a350c79ae18341bde4a2cef5d2fd460885c0128ce268054851690557f4a597304b2df0a7a7b428b3c24c35ba6373aabebf9972387f5610f74a01b21bd8054851690557ff7deed9399d719bf61dcb1322c056a03a885c275ab093673b0cc182b84bea0618054851690557fabd6e7cb50984ff9c2f3e18a2660c3353dadf4e3291deeb275dae2cd1e44fe0580548516841790557f04cde762ef08b6b6c5ded8e8c4c0b3f4e5c9ad7342c88fcc93681b4588b73f0580548516841790557f4ad5a04d53b5856f318545bb721f67d3f6d0a5a999f25eec7e20eaeb4c47b93380548516841790557fa5022b2bfd144bf9103d80168549b5df7c72ab60bd51bf71a02a08d844853b4a80548516841790557fac375bcb880242328180c23d4a918023a12a7caf7cf12b8c4074e4a3f39900a080548516841790557f1bb30a1647f6f6723cb3a88838ce0319afabe51263fc466f2f669a7a24ad88c6805485169093179092557f91da3fd0782e51c6b3986e9e672fd566868e71f3dbc2d6c2cd6fbb3e361af2a780548416821790557fc59312466997bb42aaaf719ece141047820e6b34531e1670dc1852a453648f0f80548416821790557f5c6b02db8b672415ffad906d7ccee10bd53dbad7d0b29e2bc0e50c93d5f3109380548416821790557feb3e677499e881fe1bdbc344a49c412138038a9f40883b6dc68f713aab48352380548416821790557f7f6fa3f34639ea1891363ca773619dbd5f652d7ab50411111dde2f57e3ae13ad80548416821790557f87e655ef16e4075af30c6a90c2b439f7dcd2d83a606dafadaee10cffaf9181328054841690911790557f2e174c10e159ea99b867ce3205125c24a42d128804e4070ed6fcc8cc98166aa080548316821790557fbeb3bad75134cb432e5707980e3245c52c5998a1125ee30f2f0dbf3925b1e55180548316821790557f0c1469ad586d86b6976c45826d7ae56d76ee516e37a2bccffbe904b74dbae7ea80548316821790557f66b61daf77b854ca6ba000a8d4b340eafcdb71b6583753b4af89fceb54988fff80548316821790557f9bbf2ad10217b6212df1939350a047a69b6887b770020d3fa8c328c0653ee987805483168217905560176000527fff624574ceefb6578b3887a7448cf2ca4d120002f646987b0a9b9ad3f6dc2c108054909216179055565b604080516020808201959095528082019390935260608301919091524660808301523060a0808401919091528151808403909101815260c09092019052805191012090565b60006020828403121562000de257600080fd5b81516001600160a01b038116811462000dfa57600080fd5b9392505050565b6000806040838503121562000e1557600080fd5b505080516020909101519092909150565b6000815160005b8181101562000e49576020818501810151868301520162000e2d565b8181111562000e59576000828601525b509290920192915050565b600062000e8862000e8162000e7a848862000e26565b8662000e26565b8462000e26565b95945050505050565b60805160a05160c05160e05161010051610120516101405161016051610180516101a0516189de62000f296000396000616c7301526000818161129f0152616c420152600061386f015260006137a3015260008181610c7e015261413e0152600081816123970152613a0d0152600081816123290152613ff0015260006137cf0152600061381e015260006137f901526189de6000f3fe6080604052600436106100e85760003560e01c8063a81744041161008a578063f07ec37311610059578063f07ec373146102a6578063f47b7740146102c6578063fb0f3ee1146102ea578063fd9f1e10146102fd57600080fd5b8063a81744041461025a578063b3a34c4c1461026d578063e7acab2414610280578063ed98a5741461029357600080fd5b80635b34b966116100c65780635b34b966146101c657806379df72bd146101e957806387201b4114610209578063881477321461022a57600080fd5b806306fdde03146100ed57806346423aa71461011857806355944a42146101a6575b600080fd5b3480156100f957600080fd5b5061010261031d565b60405161010f9190616f90565b60405180910390f35b34801561012457600080fd5b50610184610133366004616fa3565b60009081526002602052604090205460ff808216926101008304909116916effffffffffffffffffffffffffffff620100008204811692710100000000000000000000000000000000009092041690565b604080519415158552921515602085015291830152606082015260800161010f565b6101b96101b43660046175d4565b61035e565b60405161010f9190617753565b3480156101d257600080fd5b506101db6103c5565b60405190815260200161010f565b3480156101f557600080fd5b506101db610204366004617766565b61040b565b61021c6102173660046177a2565b6105a2565b60405161010f929190617883565b34801561023657600080fd5b5061024a6102453660046178dc565b610640565b604051901515815260200161010f565b6101b961026836600461791e565b61068f565b61024a61027b36600461798a565b610751565b61024a61028e3660046179d4565b610810565b61021c6102a1366004617a64565b610885565b3480156102b257600080fd5b506101db6102c1366004617b0d565b610974565b3480156102d257600080fd5b506102db610992565b60405161010f93929190617b2a565b61024a6102f8366004617b5c565b6109aa565b34801561030957600080fd5b5061024a6103183660046178dc565b610a01565b606061035960408051808201909152600d81527f436f6e73696465726174696f6e00000000000000000000000000000000000000602082015290565b905090565b606060026000540361039c576040517f7fa8a98700000000000000000000000000000000000000000000000000000000815260040160405180910390fd5b60026000556103b6866103af8688617b98565b8585610a49565b60016000559695505050505050565b6000600260005403610403576040517f7fa8a98700000000000000000000000000000000000000000000000000000000815260040160405180910390fd5b610359610a80565b60408051610160810190915260009061059c908061042c6020860186617b0d565b6001600160a01b0316815260200184602001602081019061044d9190617b0d565b6001600160a01b031681526020016104686040860186617ccd565b808060200260200160405190810160405280939291908181526020016000905b828210156104b4576104a560a08302860136819003810190617d34565b81526020019060010190610488565b50505091835250506020016104cc6060860186617d50565b808060200260200160405190810160405280939291908181526020016000905b828210156105185761050960c08302860136819003810190617db7565b815260200190600101906104ec565b505050918352505060200161053360a0860160808701617dd3565b600381111561054457610544617669565b81526020018460a0013581526020018460c0013581526020018460e0013581526020018461010001358152602001846101200135815260200184806060019061058d9190617d50565b90915250610140840135610b1b565b92915050565b6060806002600054036105e1576040517f7fa8a98700000000000000000000000000000000000000000000000000000000815260040160405180910390fd5b600260009081556105f18d610d51565b90506106278d828e8e906106059190617b98565b8d8d8d8d8d6001600160a01b038e161561061f578d610621565b335b8d610e2d565b6001600055909e909d509b505050505050505050505050565b600060026000540361067e576040517f7fa8a98700000000000000000000000000000000000000000000000000000000815260040160405180910390fd5b6106888383610e71565b9392505050565b60606002600054036106cd576040517f7fa8a98700000000000000000000000000000000000000000000000000000000815260040160405180910390fd5b60026000556107436106df8686611031565b604080516000808252602082019092529061073b565b6107286040805160a081019091526000808252602082019081526020016000815260200160008152602001606081525090565b8152602001906001900390816106f55790505b508585610a49565b600160005595945050505050565b600060026000540361078f576040517f7fa8a98700000000000000000000000000000000000000000000000000000000815260040160405180910390fd5b60026000556108046107a0846110f6565b60408051600080825260208201909252906107fc565b6107e96040805160a081019091526000808252602082019081526020016000815260200160008152602001606081525090565b8152602001906001900390816107b65790505b5084336111b1565b60016000559392505050565b600060026000540361084e576040517f7fa8a98700000000000000000000000000000000000000000000000000000000815260040160405180910390fd5b60026000556103b661085f87617dee565b6108698688617b98565b856001600160a01b0386161561087f57856111b1565b336111b1565b6060806002600054036108c4576040517f7fa8a98700000000000000000000000000000000000000000000000000000000815260040160405180910390fd5b600260009081556108d58b8b611031565b905060006108e282610d51565b905061095c8282600060405190808252806020026020018201604052801561094f57816020015b61093c6040805160a081019091526000808252602082019081526020016000815260200160008152602001606081525090565b8152602001906001900390816109095790505b508d8d8d8d8d338e610e2d565b6001600055909d909c509a5050505050505050505050565b6001600160a01b03811660009081526001602052604081205461059c565b606060008061099f61125c565b925092509250909192565b60006002600054036109e8576040517f7fa8a98700000000000000000000000000000000000000000000000000000000815260040160405180910390fd5b60026000556109f6826112c4565b600160005592915050565b6000600260005403610a3f576040517f7fa8a98700000000000000000000000000000000000000000000000000000000815260040160405180910390fd5b6106888383611949565b60606000610a5686610d51565b9050610a6986828760018a516000611bc2565b610a748185856120c4565b9150505b949350505050565b6000600260005403610abe576040517f7fa8a98700000000000000000000000000000000000000000000000000000000815260040160405180910390fd5b3360009081526001602052604081208054909190610adb90617e29565b918290555060405181815290915033907f721c20121297512b72821b97f5326877ea8ecf4bb9948fea5bfcb6453074d37f9060200160405180910390a290565b60008083604001515167ffffffffffffffff811115610b3c57610b3c616fbc565b604051908082528060200260200182016040528015610b65578160200160208202803683370190505b509050600084610140015167ffffffffffffffff811115610b8857610b88616fbc565b604051908082528060200260200182016040528015610bb1578160200160208202803683370190505b50905060005b856040015151811015610c1757610bea86604001518281518110610bdd57610bdd617e43565b6020026020010151612325565b838281518110610bfc57610bfc617e43565b6020908102919091010152610c1081617e29565b9050610bb7565b5060005b856101400151811015610c7b57610c4e86606001518281518110610c4157610c41617e43565b6020026020010151612393565b828281518110610c6057610c60617e43565b6020908102919091010152610c7481617e29565b9050610c1b565b507f00000000000000000000000000000000000000000000000000000000000000008560000151866020015184604051602001610cb89190617e72565b6040516020818303038152906040528051906020012084604051602001610cdf9190617e72565b6040516020818303038152906040528051906020012089608001518a60a001518b60c001518c60e001518d61010001518e61012001518e604051602001610d319c9b9a99989796959493929190617ec1565b604051602081830303815290604052805190602001209250505092915050565b80516060908067ffffffffffffffff811115610d6f57610d6f616fbc565b604051908082528060200260200182016040528015610dc857816020015b6040805160a081018252600080825260606020808401829052938301819052820181905260808201528252600019909201910181610d8d5790505b50915060005b81811015610e2657610df8848281518110610deb57610deb617e43565b60200260200101516123ea565b838281518110610e0a57610e0a617e43565b602002602001018190525080610e1f90617e29565b9050610dce565b5050919050565b606080610e3f8c8c8c60008789611bc2565b610e5e8b610e4d8a8c617f83565b610e57898b617f83565b88886126cc565b909d909c509a5050505050505050505050565b6000600260005403610eaf576040517f7fa8a98700000000000000000000000000000000000000000000000000000000815260040160405180910390fd5b6000808084815b818110156110235736888883818110610ed157610ed1617e43565b9050602002810190610ee39190618056565b905036610ef08280618094565b9050610eff6020820182617b0d565b9450610f12610f0d826180c8565b612a23565b60008181526002602052604081209850909650610f3490879089906001612a5e565b50865460ff1661101057610f8a8587610f5060208601866180d4565b8080601f016020809104026020016040519081016040528093929190818152602001838380828437600092019190915250612b8c92505050565b86547fffffffffffffffffffffffffffffffffffffffffffffffffffffffffffffff00166001178755610fc36040820160208301617b0d565b6001600160a01b0316856001600160a01b03167ffde361574a066b44b3b5fe98a87108b7565e327327954c4faeea56a4e6491a0a8860405161100791815260200190565b60405180910390a35b50508061101c90617e29565b9050610eb6565b506001979650505050505050565b6060818067ffffffffffffffff81111561104d5761104d616fbc565b60405190808252806020026020018201604052801561108657816020015b611073616e69565b81526020019060019003908161106b5790505b50915060005b818110156110ee576110c08585838181106110a9576110a9617e43565b90506020028101906110bb9190618056565b6110f6565b8382815181106110d2576110d2617e43565b6020026020010181905250806110e790617e29565b905061108c565b505092915050565b6110fe616e69565b6040805160a08101909152806111148480618094565b61111d906180c8565b815260200160016effffffffffffffffffffffffffffff16815260200160016effffffffffffffffffffffffffffff16815260200183806020019061116291906180d4565b8080601f01602080910402602001604051908101604052809392919081815260200183838082843760009201829052509385525050604080516020818101909252928352909201525092915050565b6000606060008060006111c78989600187612c1d565b9250925092506111d78989612fe2565b885160006111e88285858c8c61332f565b905081602001516001600160a01b031682600001516001600160a01b03167f9d9af8e38d66c62e2c12f0225249fd9d721c54b83f48d9352c97c6cacdcb6f31878b856020015186604001516040516112439493929190618173565b60405180910390a35060019a9950505050505050505050565b60408051808201909152600d81527f312e312d7265666572656e636500000000000000000000000000000000000000602082015260008061129b61379f565b92937f000000000000000000000000000000000000000000000000000000000000000092509050565b600080806112da6101208501610100860161820e565b9050600360008260178111156112f2576112f2617669565b601781111561130357611303617669565b8152602081019190915260400160009081205460ff1692509050806113306101208601610100870161820e565b90506004600082601781111561134857611348617669565b601781111561135957611359617669565b8152602081019190915260400160009081205460ff16925090508083600581111561138657611386617669565b14806113a3575060018360058111156113a1576113a1617669565b145b156113b0575060006113b4565b5060015b341580156113d3575060008160058111156113d1576113d1617669565b145b15611411576040517fa61be9f00000000000000000000000000000000000000000000000000000000081523460048201526024015b60405180910390fd5b34158015906114315750600181600581111561142f5761142f617669565b145b1561146a576040517fa61be9f0000000000000000000000000000000000000000000000000000000008152346004820152602401611408565b6000600484600581111561148057611480617669565b148061149d5750600584600581111561149b5761149b617669565b145b156114b9576114b260c0870160a08801617b0d565b90506114c9565b6114c66020870187617b0d565b90505b6000808560058111156114de576114de617669565b14806114fb575060018560058111156114f9576114f9617669565b145b156115085750600061156b565b600285600581111561151c5761151c617669565b14806115395750600385600581111561153757611537617669565b145b156115465750600161156b565b600485600581111561155a5761155a617669565b036115675750600261156b565b5060035b6000600486600581111561158157611581617669565b148061159e5750600586600581111561159c5761159c617669565b145b156115ab575060016115ed565b60008660058111156115bf576115bf617669565b14806115dc575060028660058111156115da576115da617669565b145b156115e9575060026115ed565b5060035b6115fb888684878786613891565b600061160d60808a0160608b01617b0d565b90506000600488600581111561162557611625617669565b14806116425750600588600581111561164057611640617669565b145b1561165357506101c089013561165b565b506101a08901355b600088600581111561166f5761166f617669565b148061168c5750600188600581111561168a5761168a617669565b145b80156116b1575060208a018035906116a4908c617b0d565b6001600160a01b03161715155b806116f7575060028860058111156116cb576116cb617669565b14806116e8575060038860058111156116e6576116e6617669565b145b80156116f7575060208a013515155b8061173d5750600488600581111561171157611711617669565b148061172e5750600588600581111561172c5761172c617669565b145b801561173d575060c08a013515155b15611774576040517f6ab37ce700000000000000000000000000000000000000000000000000000000815260040160405180910390fd5b604080518082019091526000815260606020820152600089600581111561179d5761179d617669565b036117db576117c86117b560c08d0160a08e01617b0d565b84338e60c001358f60e001358787614289565b6117d68b604001358c6142fd565b61192f565b60018960058111156117ef576117ef617669565b0361181a576117c861180760c08d0160a08e01617b0d565b84338e60c001358f60e001358787614429565b600289600581111561182e5761182e617669565b03611866576118466117b560c08d0160a08e01617b0d565b6117d6338461185860208f018f617b0d565b8e604001358f60008761445f565b600389600581111561187a5761187a617669565b036118925761184661180760c08d0160a08e01617b0d565b60048960058111156118a6576118a6617669565b036118f4576118ce6118bb60208d018d617b0d565b33858e602001358f604001358787614289565b6117d683338d60a00160208101906118e69190617b0d565b8e60e001358f60018761445f565b61191761190460208d018d617b0d565b33858e602001358f604001358787614429565b61192f83338d60a00160208101906118e69190617b0d565b61193881614518565b5060019a9950505050505050505050565b6000600260005403611987576040517f7fa8a98700000000000000000000000000000000000000000000000000000000815260040160405180910390fd5b6000808084815b8181101561102357368888838181106119a9576119a9617e43565b90506020028101906119bb9190618094565b90506119ca6020820182617b0d565b94506119dc6040820160208301617b0d565b9350336001600160a01b03861614801590611a005750336001600160a01b03851614155b15611a37576040517f80ec737400000000000000000000000000000000000000000000000000000000815260040160405180910390fd5b6000611b26604051806101600160405280886001600160a01b03168152602001876001600160a01b03168152602001848060400190611a769190617ccd565b808060200260200160405190810160405280939291908181526020016000905b82821015611ac257611ab360a08302860136819003810190617d34565b81526020019060010190611a96565b5050509183525050602001611ada6060860186617d50565b808060200260200160405190810160405280939291908181526020016000905b8282101561051857611b1760c08302860136819003810190617db7565b81526020019060010190611afa565b6000818152600260205260409081902080547fffffffffffffffffffffffffffffffffffffffffffffffffffffffffffff00001661010017815590519098509091506001600160a01b0380871691908816907f6bacc01dbe442496068f7d234edd811f1a5f833243e0aec824f86ab861f3c90d90611ba79085815260200190565b60405180910390a3505080611bbb90617e29565b905061198e565b855160008167ffffffffffffffff811115611bdf57611bdf616fbc565b604051908082528060200260200182016040528015611c08578160200160208202803683370190505b509050600080357fffffffff00000000000000000000000000000000000000000000000000000000167f55944a420000000000000000000000000000000000000000000000000000000014801590611ca457506000357fffffffff00000000000000000000000000000000000000000000000000000000167fa81744040000000000000000000000000000000000000000000000000000000014155b90506000805b84811015611f505760008b8281518110611cc657611cc6617e43565b6020026020010151905060008b8381518110611ce457611ce4617e43565b6020026020010151905088600003611d09576000602090920182905260800152611f40565b6000806000611d1a858f8f8c612c1d565b92509250925081600003611d3e575050600060209093018390525060800152611f40565b82898781518110611d5157611d51617e43565b60209081029190910101528b611d668161822f565b865160a081015160c0820151604090920151929f5092509060005b8151811015611e66576000828281518110611d9e57611d9e617e43565b602002602001015190508b80611dc65750600081516005811115611dc457611dc4617669565b145b9b506000611dd988888460800151614534565b90508160800151826060015103611df65760608201819052611e0b565b611e0588888460600151614534565b60608301525b608082018190526060820151611e259082888860006145b9565b6060830181905260208b0151805185908110611e4357611e43617e43565b60200260200101516060018181525050505080611e5f90617e29565b9050611d81565b5087516060015160005b8151811015611f35576000828281518110611e8d57611e8d617e43565b602002602001015190506000611ea889898460800151614534565b90508160800151826060015103611ec55760608201819052611eda565b611ed489898460600151614534565b60608301525b608082018190526060820151611ef49082898960016145b9565b6060830181905260408c0151805185908110611f1257611f12617e43565b60200260200101516060018181525050505080611f2e90617e29565b9050611e70565b505050505050505050505b611f4981617e29565b9050611caa565b50808015611f5b5750815b15611f92576040517f12d3f5a300000000000000000000000000000000000000000000000000000000815260040160405180910390fd5b611f9c8989614652565b60005b848110156120b7576000801b848281518110611fbd57611fbd617e43565b602002602001015103156120a75760008b8281518110611fdf57611fdf617e43565b602002602001015160000151905060008b838151811061200157612001617e43565b602002602001015160200151905060008c848151811061202357612023617e43565b602002602001015160400151905082602001516001600160a01b031683600001516001600160a01b03167f9d9af8e38d66c62e2c12f0225249fd9d721c54b83f48d9352c97c6cacdcb6f3189878151811061208057612080617e43565b60200260200101518c868660405161209b9493929190618173565b60405180910390a35050505b6120b081617e29565b9050611f9f565b5050505050505050505050565b6060818067ffffffffffffffff8111156120e0576120e0616fbc565b60405190808252806020026020018201604052801561214e57816020015b60408051610100810182526000606082018181526080830182905260a0830182905260c0830182905260e08301829052825260208083018290529282015282526000199092019101816120fe5790505b5091506000805b82811015612218573686868381811061217057612170617e43565b90506020028101906121829190618056565b905060006121a6896121948480618246565b6121a16020870187618246565b614a5a565b905080602001516001600160a01b03168160000151608001516001600160a01b0316036121dd576121d684617e29565b9350612205565b80866121e986866182ae565b815181106121f9576121f9617e43565b60200260200101819052505b50508061221190617e29565b9050612155565b50801561231157600061222b82846182ae565b905060008167ffffffffffffffff81111561224857612248616fbc565b6040519080825280602002602001820160405280156122b657816020015b60408051610100810182526000606082018181526080830182905260a0830182905260c0830182905260e08301829052825260208083018290529282015282526000199092019101816122665790505b50905060005b8281101561230c578581815181106122d6576122d6617e43565b60200260200101518282815181106122f0576122f0617e43565b60200260200101819052508061230590617e29565b90506122bc565b509350505b61231b8684614dac565b5050509392505050565b60007f000000000000000000000000000000000000000000000000000000000000000082600001518360200151846040015185606001518660800151604051602001612376969594939291906182c5565b604051602081830303815290604052805190602001209050919050565b60007f0000000000000000000000000000000000000000000000000000000000000000826000015183602001518460400151856060015186608001518760a001516040516020016123769796959493929190618305565b6040805160a08101825260008082526060602083018190529282018390529181018290526080810191909152815160400151805160009067ffffffffffffffff81111561243957612439616fbc565b60405190808252806020026020018201604052801561248b57816020015b6040805160808101825260008082526020808301829052928201819052606082015282526000199092019101816124575790505b50905060005b82518110156125385760008382815181106124ae576124ae617e43565b6020026020010151905060006040518060800160405280836000015160058111156124db576124db617669565b815260200183602001516001600160a01b0316815260200183604001518152602001836060015181525090508084848151811061251a5761251a617e43565b602002602001018190525050508061253190617e29565b9050612491565b50835160600151805160009067ffffffffffffffff81111561255c5761255c616fbc565b6040519080825280602002602001820160405280156125b557816020015b6040805160a08101825260008082526020808301829052928201819052606082018190526080820152825260001990920191018161257a5790505b50905060005b82518110156126755760008382815181106125d8576125d8617e43565b6020026020010151905060006040518060a001604052808360000151600581111561260557612605617669565b815260200183602001516001600160a01b0316815260200183604001518152602001836060015181526020018360a001516001600160a01b031681525090508084848151811061265757612657617e43565b602002602001018190525050508061266e90617e29565b90506125bb565b506040805160a0810182528751516001600160a01b031681526020808201959095529081019190915285516101200151606082015291909401516effffffffffffffffffffffffffffff1660808201529392505050565b8351835160609182916126df8183618350565b67ffffffffffffffff8111156126f7576126f7616fbc565b60405190808252806020026020018201604052801561276557816020015b60408051610100810182526000606082018181526080830182905260a0830182905260c0830182905260e08301829052825260208083018290529282015282526000199092019101816127155790505b5092506000805b838110156128145760008a828151811061278857612788617e43565b6020026020010151905060006127a28d6000848d8d615005565b905080602001516001600160a01b03168160000151608001516001600160a01b0316036127d9576127d284617e29565b9350612801565b80876127e586866182ae565b815181106127f5576127f5617e43565b60200260200101819052505b50508061280d90617e29565b905061276c565b5060005b828110156128cb57600089828151811061283457612834617e43565b60200260200101519050600061284e8d6001848d8d615005565b905080602001516001600160a01b03168160000151608001516001600160a01b0316036128855761287e84617e29565b93506128b8565b8087856128928987618350565b61289c91906182ae565b815181106128ac576128ac617e43565b60200260200101819052505b5050806128c490617e29565b9050612818565b5080156129cf576000816128df8486618350565b6128e991906182ae565b905060008167ffffffffffffffff81111561290657612906616fbc565b60405190808252806020026020018201604052801561297457816020015b60408051610100810182526000606082018181526080830182905260a0830182905260c0830182905260e08301829052825260208083018290529282015282526000199092019101816129245790505b50905060005b828110156129ca5786818151811061299457612994617e43565b60200260200101518282815181106129ae576129ae617e43565b6020026020010181905250806129c390617e29565b905061297a565b509450505b8351600003612a0a576040517fd5da9a1b00000000000000000000000000000000000000000000000000000000815260040160405180910390fd5b612a148a85614dac565b94505050509550959350505050565b6000612a398260600151518361014001516151ea565b81516001600160a01b031660009081526001602052604090205461059c908390610b1b565b8254600090610100900460ff1615612ab3578115612aab576040517f1a51557400000000000000000000000000000000000000000000000000000000815260048101869052602401611408565b506000610a78565b83546201000090046effffffffffffffffffffffffffffff168015612b80578315612b0d576040517fee9e0e6300000000000000000000000000000000000000000000000000000000815260048101879052602401611408565b84547101000000000000000000000000000000000090046effffffffffffffffffffffffffffff168110612b80578215612b76576040517f10fda3e100000000000000000000000000000000000000000000000000000000815260048101879052602401611408565b6000915050610a78565b50600195945050505050565b336001600160a01b03841603612ba157505050565b6000612c0a612bae61379f565b846040517f19010000000000000000000000000000000000000000000000000000000000006020820152602281018390526042810182905260009060620160405160208183030381529060405280519060200120905092915050565b9050612c17848284615228565b50505050565b60008060008087600001519050612c3d8160a001518260c001518861544e565b612c51575060009250829150819050612fd8565b602088015160408901516effffffffffffffffffffffffffffff918216911680821180612c7c575081155b15612cb3576040517f5a052b3200000000000000000000000000000000000000000000000000000000815260040160405180910390fd5b8082108015612cca5750612cca83608001516154ad565b15612d01576040517fa11b63ff00000000000000000000000000000000000000000000000000000000815260040160405180910390fd5b612d0a83612a23565b9550612d2c8a8a89898760e00151886080015189600001518a602001516154cb565b600086815260026020526040812090612d4990889083908c612a5e565b612d5e575060009450849350612fd892505050565b805460ff16612d7a57612d7a8460000151888d60600151612b8c565b80546effffffffffffffffffffffffffffff620100008204811691710100000000000000000000000000000000009004168015612f485783600103612dc457809450809350612df0565b838114612df057612dd58483618368565b9150612de18186618368565b9450612ded8185618368565b93505b83612dfb8684618350565b1115612e0e57612e0b82856182ae565b94505b612e188583618350565b91506effffffffffffffffffffffffffffff821180612e4557506effffffffffffffffffffffffffffff84115b15612ed1576000612e5f86612e5a858861572e565b61572e565b905060008115612e6f5781612e72565b60015b9050612e7e81886183b6565b9650612e8a81856183b6565b9350612e9681876183b6565b95506000612eb56effffffffffffffffffffffffffffff6000196182ae565b9050612ec18188618350565b612ecb8287618350565b50505050505b82546effffffffffffffffffffffffffffff858116710100000000000000000000000000000000000270ffffffffffffffffffffffffffffffffff91851662010000027fffffffffffffffffffffffffffffff00000000000000000000000000000000009093169290921760011716178355612fbb565b82546effffffffffffffffffffffffffffff858116710100000000000000000000000000000000000270ffffffffffffffffffffffffffffffffff91881662010000027fffffffffffffffffffffffffffffff000000000000000000000000000000000090931692909217600117161783555b50506effffffffffffffffffffffffffffff928316955050169150505b9450945094915050565b8051825160005b8281101561322757600084828151811061300557613005617e43565b60209081029190910101518051909150801561304d576040517f869586c400000000000000000000000000000000000000000000000000000000815260040160405180910390fd5b6040820151600080808560200151600181111561306c5761306c617669565b036131175786604001515183106130af576040517fbfb3f8ce00000000000000000000000000000000000000000000000000000000815260040160405180910390fd5b6000876040015184815181106130c7576130c7617e43565b6020908102919091010151805160408201519094509250905060048360058111156130f4576130f4617669565b036131025760028152613107565b600381525b60608601516040909101526131b9565b8660600151518310613155576040517f6088d7de00000000000000000000000000000000000000000000000000000000815260040160405180910390fd5b60008760600151848151811061316d5761316d617e43565b60209081029190910101518051604082015190945092509050600483600581111561319a5761319a617669565b036131a857600281526131ad565b600381525b60608601516040909101525b6131c282615753565b6131f8576040517f94eb6af600000000000000000000000000000000000000000000000000000000815260040160405180910390fd5b8015613211576132118560600151828760800151615770565b50505050508061322090617e29565b9050612fe9565b508351606001515160005b818110156132af57613268866000015160600151828151811061325757613257617e43565b602002602001015160000151615753565b1561329f576040517fff75a34000000000000000000000000000000000000000000000000000000000815260040160405180910390fd5b6132a881617e29565b9050613232565b50508351604001515160005b81811015613327576132e0866000015160400151828151811061325757613257617e43565b15613317576040517fa6cfc67300000000000000000000000000000000000000000000000000000000815260040160405180910390fd5b61332081617e29565b90506132bb565b505050505050565b6040805160a081018252600080825260606020830181905292820183905291810182905260808101919091526040805160a0808201835287825260208083018890528284018790529089015160608084019190915260c08a015160808401528351808501909452600084529083015290875161012089015160408a01515167ffffffffffffffff8111156133c5576133c5616fbc565b60405190808252806020026020018201604052801561341757816020015b6040805160808101825260008082526020808301829052928201819052606082015282526000199092019101816133e35790505b50602086015260005b8a60400151518110156135a75760008b60400151828151811061344557613445617e43565b602002602001015190506000600581111561346257613462617669565b8151600581111561347557613475617669565b036134ac576040517f12d3f5a300000000000000000000000000000000000000000000000000000000815260040160405180910390fd5b60006134c382606001518360800151896000615877565b905060006040518060a00160405280846000015160058111156134e8576134e8617669565b815260200184602001516001600160a01b03168152602001846040015181526020018381526020018b6001600160a01b0316815250905060405180608001604052808260000151600581111561354057613540617669565b815260200182602001516001600160a01b0316815260200182604001518152602001838152508960200151858151811061357c5761357c617e43565b60200260200101819052506135938187878a6158d3565b505050806135a090617e29565b9050613420565b5089606001515167ffffffffffffffff8111156135c6576135c6616fbc565b60405190808252806020026020018201604052801561361f57816020015b6040805160a0810182526000808252602080830182905292820181905260608201819052608082015282526000199092019101816135e45790505b5060408601523460005b8b60600151518110156137765760008c60600151828151811061364e5761364e617e43565b60200260200101519050600061366f826060015183608001518a6001615877565b905060006040518060a001604052808460000151600581111561369457613694617669565b815260200184602001516001600160a01b03168152602001846040015181526020018381526020018460a001516001600160a01b03168152509050808a6040015185815181106136e6576136e6617e43565b602090810291909101015260008151600581111561370657613706617669565b036137525784821115613745576040517f1a783b8d00000000000000000000000000000000000000000000000000000000815260040160405180910390fd5b61374f82866182ae565b94505b61376281338b604001518b6158d3565b5050508061376f90617e29565b9050613629565b5061378084614518565b8015613790576137903382615a17565b50505050505b95945050505050565b60007f0000000000000000000000000000000000000000000000000000000000000000461461386c5750604080517f00000000000000000000000000000000000000000000000000000000000000006020808301919091527f0000000000000000000000000000000000000000000000000000000000000000828401527f000000000000000000000000000000000000000000000000000000000000000060608301524660808301523060a0808401919091528351808403909101815260c0909201909252805191012090565b507f000000000000000000000000000000000000000000000000000000000000000090565b6138a7866101200135876101400135600161544e565b506138b0615abf565b6138ce6138c1610200880188618246565b9050876101e001356151ea565b6040805160e0810182526000808252602082018190529181018290526060808201526080810182905260a0810182905260c081019190915260006040518060a0016040528088600381111561392557613925617669565b815260200187600581111561393c5761393c617669565b815260200186600581111561395357613953617669565b8152602001856001600160a01b0316815260200184600581111561397957613979617669565b90529050600061398d6102008a018a618246565b61399991506001618350565b67ffffffffffffffff8111156139b1576139b1616fbc565b604051908082528060200260200182016040528015613a0a57816020015b6040805160a0810182526000808252602080830182905292820181905260608201819052608082015282526000199092019101816139cf5790505b507f000000000000000000000000000000000000000000000000000000000000000084526040805160c08101909152602084015191925060009181906005811115613a5757613a57617669565b8152602090810190613a6b908d018d617b0d565b6001600160a01b031681526020018b6020013581526020018b6040013581526020018b6040013581526020018b6060016020810190613aaa9190617b0d565b6001600160a01b031690529050613ac76101e08b01356001618350565b67ffffffffffffffff811115613adf57613adf616fbc565b604051908082528060200260200182016040528015613b08578160200160208202803683370190505b506060808601919091528451825160208085015160408087015195870151608088015160a08901519251613b429894959293919201618305565b604051602081830303815290604052805190602001208460600151600081518110613b6f57613b6f617e43565b602002602001018181525050613bae6040805160a081019091528060008152600060208201819052604082018190526060820181905260809091015290565b6040805160c081018252600080825260208201819052918101829052606081018290526080810182905260a081019190915260006040518060a0016040528087602001516005811115613c0357613c03617669565b815260200185602001516001600160a01b0316815260200185604001518152602001856080015181526020018560a001516001600160a01b031681525090508085600081518110613c5657613c56617e43565b602002602001018190525060005b613c726102008f018f618246565b9050811015613e455760008e806102000190613c8e9190618246565b83818110613c9e57613c9e617e43565b905060400201803603810190613cb491906183ca565b90506040518060a0016040528089604001516005811115613cd757613cd7617669565b815260200189606001516001600160a01b03168152602001600081526020018260000151815260200182602001516001600160a01b031681525094508487836001613d229190618350565b81518110613d3257613d32617e43565b60200260200101819052508e6101e001358210613d4f5750613e35565b6040518060c0016040528089604001516005811115613d7057613d70617669565b815260200189606001516001600160a01b0316815260200160008152602001826000015181526020018260000151815260200182602001516001600160a01b031681525093508860000151846000015185602001518660400151876060015188608001518960a00151604051602001613def9796959493929190618305565b604051602081830303815290604052805190602001208960600151836001613e179190618350565b81518110613e2757613e27617e43565b602002602001018181525050505b613e3e81617e29565b9050613c64565b508660600151604051602001613e5b9190617e72565b604080517fffffffffffffffffffffffffffffffffffffffffffffffffffffffffffffffe0818403018152919052805160209091012060808801526101e08d01355b613eab6102008f018f618246565b9050811015613f885760008e806102000190613ec79190618246565b83818110613ed757613ed7617e43565b905060400201803603810190613eed91906183ca565b90506040518060a0016040528089604001516005811115613f1057613f10617669565b815260200189606001516001600160a01b03168152602001600081526020018260000151815260200182602001516001600160a01b031681525094508487836001613f5b9190618350565b81518110613f6b57613f6b617e43565b60200260200101819052505080613f8190617e29565b9050613e9d565b506000935060019250613f99915050565b604051908082528060200260200182016040528015613feb57816020015b604080516080810182526000808252602080830182905292820181905260608201528252600019909201910181613fb75790505b5090507f0000000000000000000000000000000000000000000000000000000000000000846000018181525050600060405180608001604052808560800151600581111561403b5761403b617669565b815260200161405060c08e0160a08f01617b0d565b6001600160a01b031681526020018c60c0013581526020018c60e001358152509050808260008151811061408657614086617e43565b6020026020010181905250600060405180602001604052808760000151846000015185602001518660400151876060015188606001516040516020016140d1969594939291906182c5565b604051602081830303815290604052805190602001208152509050806040516020016140fd9190618420565b604080517fffffffffffffffffffffffffffffffffffffffffffffffffffffffffffffffe081840301815291815281516020909201919091209087015250507f0000000000000000000000000000000000000000000000000000000000000000845261416a848b85615bc7565b602085015261417f60a08b0160808c01617b0d565b6001600160a01b031661419860808c0160608d01617b0d565b6001600160a01b03167f9d9af8e38d66c62e2c12f0225249fd9d721c54b83f48d9352c97c6cacdcb6f3186602001513385876040516141da9493929190618173565b60405180910390a361421c84602001518b61016001358b8d60600160208101906142049190617b0d565b8e60800160208101906142179190617b0d565b615c86565b602084015161427d9061423560808d0160608e01617b0d565b6142436102208e018e6180d4565b8080601f016020809104026020016040519081016040528093929190818152602001838380828437600092019190915250615dc892505050565b50505050505050505050565b6142938183615e12565b816142e357826001146142d2576040517fefcc00b100000000000000000000000000000000000000000000000000000000815260040160405180910390fd5b6142de87878787615e23565b6142f4565b6142f4828260028a8a8a8a8a615ef1565b50505050505050565b3460005b61430f610200840184618246565b90508110156143b55736614327610200850185618246565b8381811061433757614337617e43565b6040029190910191505080358381111561437d576040517f1a783b8d00000000000000000000000000000000000000000000000000000000815260040160405180910390fd5b6143966143906040840160208501617b0d565b82615a17565b6143a081856182ae565b93505050806143ae90617e29565b9050614301565b50808311156143f0576040517f1a783b8d00000000000000000000000000000000000000000000000000000000815260040160405180910390fd5b6144096144036080840160608501617b0d565b84615a17565b82811115614424576144243361441f85846182ae565b615a17565b505050565b614432836160d7565b61443c8183615e12565b8161444e576142de8787878787616111565b6142f4828260038a8a8a8a8a615ef1565b6000821561447357506101a083013561447b565b506101c08301355b60005b61448c610200860186618246565b90508110156144ff57366144a4610200870187618246565b838181106144b4576144b4617e43565b905060400201905084156144d0576144cd8135886182ae565b96505b6144ee888b6144e56040850160208601617b0d565b843587896161ff565b506144f881617e29565b905061447e565b5061450e8689898885876161ff565b5050505050505050565b8060200151516000036145285750565b6145318161623a565b50565b6000828403614544575080610688565b60006145508584618368565b905061455c84826183b6565b91506000838661456c8786618368565b61457691906183b6565b149050806145b0576040517fc63cf08900000000000000000000000000000000000000000000000000000000815260040160405180910390fd5b50509392505050565b6000848614614648576000806145cf86866182ae565b905060006145dd87426182ae565b905060006145eb82846182ae565b90508515614601576145fe6001846182ae565b93505b60008461460e848c618368565b614618848e618368565b6146229190618350565b61462c9190618350565b9050600061463a85836183b6565b965061379695505050505050565b5092949350505050565b805160005b8181101561490d57600083828151811061467357614673617e43565b60200260200101519050600081600001519050855181106146c0576040517f869586c400000000000000000000000000000000000000000000000000000000815260040160405180910390fd5b8581815181106146d2576146d2617e43565b6020026020010151608001516effffffffffffffffffffffffffffff166000036146fd5750506148fd565b6040820151600080808560200151600181111561471c5761471c617669565b036147e257600089858151811061473557614735617e43565b60200260200101516020015190508051841061477d576040517fbfb3f8ce00000000000000000000000000000000000000000000000000000000815260040160405180910390fd5b600081858151811061479157614791617e43565b6020908102919091010151805160408201519095509350905060048460058111156147be576147be617669565b036147cc57600281526147d1565b600381525b60608701516040909101525061489f565b60008985815181106147f6576147f6617e43565b60200260200101516040015190508051841061483e576040517f6088d7de00000000000000000000000000000000000000000000000000000000815260040160405180910390fd5b600081858151811061485257614852617e43565b60209081029190910101518051604082015190955093509050600484600581111561487f5761487f617669565b0361488d5760028152614892565b600381525b6060870151604090910152505b6148a882615753565b6148de576040517f94eb6af600000000000000000000000000000000000000000000000000000000815260040160405180910390fd5b80156148f7576148f78560600151828760800151615770565b50505050505b61490681617e29565b9050614657565b5050815160005b81811015612c1757600084828151811061493057614930617e43565b602002602001015190506000816020015151905081608001516effffffffffffffffffffffffffffff16600003614968575050614a4a565b60005b818110156149d35761498c8360200151828151811061325757613257617e43565b156149c3576040517fa6cfc67300000000000000000000000000000000000000000000000000000000815260040160405180910390fd5b6149cc81617e29565b905061496b565b505060408101515160005b81811015614a46576149ff8360400151828151811061325757613257617e43565b15614a36576040517fff75a34000000000000000000000000000000000000000000000000000000000815260040160405180910390fd5b614a3f81617e29565b90506149de565b5050505b614a5381617e29565b9050614914565b60408051610100810182526000606082018181526080830182905260a0830182905260c0830182905260e0830182905282526020820181905291810191909152831580614aa5575081155b15614adc576040517f98e9db6e00000000000000000000000000000000000000000000000000000000815260040160405180910390fd5b6000614b3c878585808060200260200160405190810160405280939291908181526020016000905b82821015614b3057614b2160408302860136819003810190618454565b81526020019060010190614b04565b505050505060006162c2565b9050614b9d878787808060200260200160405190810160405280939291908181526020016000905b82821015614b9057614b8160408302860136819003810190618454565b81526020019060010190614b64565b50505050506000806165b4565b81519092506005811115614bb357614bb3617669565b8251516005811115614bc757614bc7617669565b141580614bf2575080602001516001600160a01b03168260000151602001516001600160a01b031614155b80614c095750806040015182600001516040015114155b15614c40576040517f09cfb45500000000000000000000000000000000000000000000000000000000815260040160405180910390fd5b81600001516060015181606001511115614cf357600084846000818110614c6957614c69617e43565b905060400201803603810190614c7f9190618454565b90508260000151606001518260600151614c9991906182ae565b88826000015181518110614caf57614caf617e43565b602002602001015160400151826020015181518110614cd057614cd0617e43565b602090810291909101015160609081019190915283518101519083015250614d81565b600086866000818110614d0857614d08617e43565b905060400201803603810190614d1e9190618454565b90508160600151836000015160600151614d3891906182ae565b88826000015181518110614d4e57614d4e617e43565b602002602001015160200151826020015181518110614d6f57614d6f617e43565b60200260200101516060018181525050505b60608082015183519091015260809081015182516001600160a01b0390911691015295945050505050565b81516060908067ffffffffffffffff811115614dca57614dca616fbc565b604051908082528060200260200182016040528015614df3578160200160208202803683370190505b50915060005b81811015614f09576000858281518110614e1557614e15617e43565b6020026020010151905080608001516effffffffffffffffffffffffffffff16600003614e425750614ef9565b6001848381518110614e5657614e56617e43565b91151560209283029190910190910152604081015160005b8151811015614ef5576000828281518110614e8b57614e8b617e43565b602002602001015160600151905080600014614ee4576040517fa5f54208000000000000000000000000000000000000000000000000000000008152600481018690526024810183905260448101829052606401611408565b50614eee81617e29565b9050614e6e565b5050505b614f0281617e29565b9050614df9565b50604080518082019091526000815260606020820152349060005b8551811015614fe2576000868281518110614f4157614f41617e43565b60209081029190910101518051909150600081516005811115614f6657614f66617669565b03614fbb578481606001511115614fa9576040517f1a783b8d00000000000000000000000000000000000000000000000000000000815260040160405180910390fd5b6060810151614fb890866182ae565b94505b614fcf8183602001518460400151876158d3565b505080614fdb90617e29565b9050614f24565b50614fec81614518565b8115614ffc57614ffc3383615a17565b50505092915050565b60408051610100810182526000606082018181526080830182905260a0830182905260c0830182905260e083018290528252602082018190529181019190915285518451600081900361508657866040517f375c24c10000000000000000000000000000000000000000000000000000000081526004016114089190618480565b6000805b828110156151475760008882815181106150a6576150a6617e43565b60200260200101516000015190508481106150ed576040517f7fda727900000000000000000000000000000000000000000000000000000000815260040160405180910390fd5b8a81815181106150ff576150ff617e43565b6020026020010151608001516effffffffffffffffffffffffffffff166000146151365761512e826001618350565b925050615147565b5061514081617e29565b905061508a565b508060000361519b57505060408051610100810182526000606082018181526080830182905260a0830182905260c0830182905260e083018290528252602082018190529181019190915291506137969050565b60008860018111156151af576151af617669565b036151d4576151ca89886151c46001856182ae565b886165b4565b9350505050613796565b6151ca89886151e46001856182ae565b89616894565b80821015615224576040517f466aa61600000000000000000000000000000000000000000000000000000000815260040160405180910390fd5b5050565b600080806001600160a01b0386163b1561524757613327868686616902565b83516040036152a757600084806020019051810190615266919061848e565b9094507f7fffffffffffffffffffffffffffffffffffffffffffffffffffffffffffffff81169350905061529f60ff82901c601b6184b2565b915050615370565b835160410361533e57838060200190518101906152c4919061848e565b85519194509250849060409081106152de576152de617e43565b016020015160f81c9050601b81148015906152fd57508060ff16601c14155b15615339576040517f1f003d0a00000000000000000000000000000000000000000000000000000000815260ff82166004820152602401611408565b615370565b6040517f8baa579f00000000000000000000000000000000000000000000000000000000815260040160405180910390fd5b6040805160008082526020820180845288905260ff841692820192909252606081018590526080810184905260019060a0016020604051602081039080840390855afa1580156153c4573d6000803e3d6000fd5b50506040517fffffffffffffffffffffffffffffffffffffffffffffffffffffffffffffffe001519150506001600160a01b03811615806154175750866001600160a01b0316816001600160a01b031614155b156142f4576040517f815e1d6400000000000000000000000000000000000000000000000000000000815260040160405180910390fd5b60004284118061545e5750428311155b156154a357811561549b576040517f6f7eac2600000000000000000000000000000000000000000000000000000000815260040160405180910390fd5b506000610688565b5060019392505050565b60008160038111156154c1576154c1617669565b6001161592915050565b60018360038111156154df576154df617669565b1180156154f55750336001600160a01b03821614155b801561550a5750336001600160a01b03831614155b1561450e5760808801515115801561552157508651155b15615622576040517f0e1d31dc00000000000000000000000000000000000000000000000000000000808252600482018790523360248301526001600160a01b03848116604484015260648301879052909190831690630e1d31dc90608401602060405180830381865afa15801561559d573d6000803e3d6000fd5b505050506040513d601f19601f820116820180604052508101906155c191906184d7565b7fffffffff00000000000000000000000000000000000000000000000000000000161461561d576040517ffb5014fc00000000000000000000000000000000000000000000000000000000815260048101869052602401611408565b61450e565b6040517f331315700000000000000000000000000000000000000000000000000000000081527f0e1d31dc00000000000000000000000000000000000000000000000000000000906001600160a01b0383169063331315709061569190899033908e908d908f906004016186bb565b602060405180830381865afa1580156156ae573d6000803e3d6000fd5b505050506040513d601f19601f820116820180604052508101906156d291906184d7565b7fffffffff00000000000000000000000000000000000000000000000000000000161461450e576040517ffb5014fc00000000000000000000000000000000000000000000000000000000815260048101869052602401611408565b60005b811561574c57816157428185618899565b9093509150615731565b5090919050565b6000600382600581111561576957615769617669565b1192915050565b60008360405160200161578591815260200190565b60405160208183030381529060405280519060200120905060005b825181101561583d5760008382815181106157bd576157bd617e43565b602002602001015190508083116157ff57604080516020810185905290810182905260600160405160208183030381529060405280519060200120925061582c565b60408051602081018390529081018490526060016040516020818303038152906040528051906020012092505b5061583681617e29565b90506157a0565b50808314612c17576040517f09bde33900000000000000000000000000000000000000000000000000000000815260040160405180910390fd5b600083850361589a576158938360000151846020015186614534565b9050610a78565b6137966158b08460000151856020015188614534565b6158c38560000151866020015188614534565b85606001518660800151866145b9565b6000845160058111156158e8576158e8617669565b0361594f57604084015160208501516001600160a01b03161715615938576040517f6ab37ce700000000000000000000000000000000000000000000000000000000815260040160405180910390fd5b61594a84608001518560600151615a17565b612c17565b60018451600581111561596457615964617669565b036159bf576040840151156159a5576040517f6ab37ce700000000000000000000000000000000000000000000000000000000815260040160405180910390fd5b61594a8460200151848660800151876060015186866161ff565b6002845160058111156159d4576159d4617669565b036159f85761594a8460200151848660800151876040015188606001518787614289565b612c178460200151848660800151876040015188606001518787614429565b615a20816160d7565b6000826001600160a01b03168260405160006040518083038185875af1925050503d8060008114615a6d576040519150601f19603f3d011682016040523d82523d6000602084013e615a72565b606091505b5050905080614424576040517f470c7c1d0000000000000000000000000000000000000000000000000000000081526001600160a01b038416600482015260248101839052604401611408565b6000615acf6024600436846188ad565b810190615adc9190616fa3565b6020148015615b095750615af76102446102243660006188ad565b810190615b049190616fa3565b610240145b8015615b655750615b216102846102643660006188ad565b810190615b2e9190616fa3565b615b39906040618368565b615b4590610260618350565b615b566102646102443660006188ad565b810190615b639190616fa3565b145b8015615b8e57506018615b7f6101446101243660006188ad565b810190615b8c9190616fa3565b105b905080614531576040517f39f3e3fd00000000000000000000000000000000000000000000000000000000815260040160405180910390fd5b600080615bf8615bdd6080860160608701617b0d565b6001600160a01b031660009081526001602052604090205490565b8551909150615c0d6080860160608701617b0d565b615c1d60a0870160808801617b0d565b8760400151886080015187600001518961012001358a61014001358b61016001358c61018001358d6101a001358b604051602001615c669c9b9a99989796959493929190617ec1565b604051602081830303815290604052805190602001209150509392505050565b6001836003811115615c9a57615c9a617669565b118015615cb05750336001600160a01b03821614155b8015615cc55750336001600160a01b03831614155b15615dc1576040517f0e1d31dc00000000000000000000000000000000000000000000000000000000808252600482018790523360248301526001600160a01b03848116604484015260648301879052909190831690630e1d31dc90608401602060405180830381865afa158015615d41573d6000803e3d6000fd5b505050506040513d601f19601f82011682018060405250810190615d6591906184d7565b7fffffffff000000000000000000000000000000000000000000000000000000001614615dc1576040517ffb5014fc00000000000000000000000000000000000000000000000000000000815260048101869052602401611408565b5050505050565b6000838152600260205260409020615de38482600180612a5e565b50805460ff16615df857615df8838584612b8c565b710100000000000000000000000000000100019055505050565b815181146152245761522482614518565b836001600160a01b03163b600003615e72576040517f5f15d6720000000000000000000000000000000000000000000000000000000081526001600160a01b0385166004820152602401611408565b6040517f23b872dd0000000000000000000000000000000000000000000000000000000081526001600160a01b0384811660048301528381166024830152604482018390528516906323b872dd90606401600060405180830381600087803b158015615edd57600080fd5b505af115801561450e573d6000803e3d6000fd5b6020870151516000615f04826001618350565b67ffffffffffffffff811115615f1c57615f1c616fbc565b604051908082528060200260200182016040528015615f7c57816020015b6040805160c08101825260008082526020808301829052928201819052606082018190526080820181905260a08201528252600019909201910181615f3a5790505b50905060005b8281101561604c5760008a602001518281518110615fa257615fa2617e43565b602002602001015190506040518060c0016040528082600001516003811115615fcd57615fcd617669565b815260200182602001516001600160a01b0316815260200182604001516001600160a01b0316815260200182606001516001600160a01b03168152602001826080015181526020018260a0015181525083838151811061602f5761602f617e43565b6020026020010181905250508061604590617e29565b9050615f82565b506040518060c0016040528089600381111561606a5761606a617669565b8152602001886001600160a01b03168152602001876001600160a01b03168152602001866001600160a01b03168152602001858152602001848152508183815181106160b8576160b8617e43565b6020908102919091018101919091528901525050509490935250505050565b80600003614531576040517f91b3e51400000000000000000000000000000000000000000000000000000000815260040160405180910390fd5b846001600160a01b03163b600003616160576040517f5f15d6720000000000000000000000000000000000000000000000000000000081526001600160a01b0386166004820152602401611408565b6040517ff242432a0000000000000000000000000000000000000000000000000000000081526001600160a01b0385811660048301528481166024830152604482018490526064820183905260a06084830152600060a483015286169063f242432a9060c401600060405180830381600087803b1580156161e057600080fd5b505af11580156161f4573d6000803e3d6000fd5b505050505050505050565b616208836160d7565b6162128183615e12565b8161622857616223868686866169e5565b613327565b6133278282600189898960008a615ef1565b805161624590616bf0565b6001600160a01b0316634ce34aa282602001516040518263ffffffff1660e01b815260040161627491906188d7565b6020604051808303816000875af1158015616293573d6000803e3d6000fd5b505050506040513d601f19601f820116820180604052508101906162b791906184d7565b506060602090910152565b6040805160a0810182526000808252602080830182905282840182905260608084018390526080840183905284519081018552828152908101829052928301529083838151811061631557616315617e43565b6020908102919091010151518152835184908490811061633757616337617e43565b60209081029190910181015181015190820152845181511015604082018190526165705760008582600001518151811061637357616373617e43565b602002602001015190508160400151806163965750806040015151826020015110155b15156040830181905261656e57600081604001518360200151815181106163bf576163bf617e43565b602002602001015190506040518060a00160405280826000015160058111156163ea576163ea617669565b815260200182602001516001600160a01b03168152602001826040015181526020018260600151815260200182608001516001600160a01b03168152509350600081606001818152505060008560016164439190618350565b90505b865181101561656b5786818151811061646157616461617e43565b6020908102919091010151518452865187908290811061648357616483617e43565b602090810291909101810151810151908501528751845110156040850181905261656b57878460000151815181106164bd576164bd617e43565b6020026020010151925082608001516effffffffffffffffffffffffffffff1660001461655b57604080840151516020860151101590850181905261656b57826040015184602001518151811061651657616516617e43565b60200260200101519150816060015185606001516165349190618350565b60608087019190915260009083015261654d8286616d36565b15156040850181905261656b575b61656481617e29565b9050616446565b50505b505b8060400151156165ac576040517f7fda727900000000000000000000000000000000000000000000000000000000815260040160405180910390fd5b509392505050565b60408051610100810182526000606082018181526080830182905260a0830182905260c0830182905260e0830182905282526020820181905291810191909152600084848151811061660857616608617e43565b6020026020010151600001519050600085858151811061662a5761662a617e43565b60200260200101516020015190506000875183101590508061685157600088848151811061665a5761665a617e43565b60200260200101519050818061667557508060200151518310155b91508161684f5760008160200151848151811061669457616694617e43565b6020026020010151905060405180606001604052806040518060a00160405280846000015160058111156166ca576166ca617669565b815260200184602001516001600160a01b0316815260200184604001518152602001846060015181526020018a6001600160a01b0316815250815260200183600001516001600160a01b03168152602001836060015181525095506000816060018181525050600088600161673f9190618350565b90505b895181101561684c5789818151811061675d5761675d617e43565b602002602001015160000151955089818151811061677d5761677d617e43565b60200260200101516020015194508a5186101593508361684c578a86815181106167a9576167a9617e43565b6020026020010151925082608001516effffffffffffffffffffffffffffff1660001461683c5782602001515185101593508361684c57826020015185815181106167f6576167f6617e43565b6020026020010151915081606001518760000151606001516168189190618350565b8751606090810191909152600090830152616834838389616dbf565b93508361684c575b61684581617e29565b9050616742565b50505b505b8015616889576040517f7fda727900000000000000000000000000000000000000000000000000000000815260040160405180910390fd5b505050949350505050565b60408051610100810182526000606082018181526080830182905260a0830182905260c0830182905260e08301829052825260208201819052918101829052906168df8686866162c2565b604080516060810182529182523360208301528101939093525090949350505050565b6040517f1626ba7e00000000000000000000000000000000000000000000000000000000808252906001600160a01b03851690631626ba7e9061694b908690869060040161895b565b602060405180830381865afa158015616968573d6000803e3d6000fd5b505050506040513d601f19601f8201168201806040525081019061698c91906184d7565b7fffffffff000000000000000000000000000000000000000000000000000000001614614424576040517f815e1d6400000000000000000000000000000000000000000000000000000000815260040160405180910390fd5b836001600160a01b03163b600003616a34576040517f5f15d6720000000000000000000000000000000000000000000000000000000081526001600160a01b0385166004820152602401611408565b604080516001600160a01b0385811660248301528481166044830152606480830185905283518084039091018152608490920183526020820180517bffffffffffffffffffffffffffffffffffffffffffffffffffffffff167f23b872dd000000000000000000000000000000000000000000000000000000001790529151600092839290881691616ac69190618974565b6000604051808303816000865af19150503d8060008114616b03576040519150601f19603f3d011682016040523d82523d6000602084013e616b08565b606091505b509150915081616b6d576040517ff486bc870000000000000000000000000000000000000000000000000000000081526001600160a01b038088166004830152808716602483015285166044820152600060648201526084810184905260a401611408565b805115801590616b7f57506020815110155b156133275780806020019051810190616b989190618986565b613327576040517f988919230000000000000000000000000000000000000000000000000000000081526001600160a01b03808816600483015280871660248301528516604482015260648101849052608401611408565b6000616cd9826040517fff0000000000000000000000000000000000000000000000000000000000000060208201527fffffffffffffffffffffffffffffffffffffffff0000000000000000000000007f000000000000000000000000000000000000000000000000000000000000000060601b166021820152603581018290527f00000000000000000000000000000000000000000000000000000000000000006055820152600090607501604080517fffffffffffffffffffffffffffffffffffffffffffffffffffffffffffffffe0818403018152919052805160209091012092915050565b9050806001600160a01b03163b600003616d31576040517f1cf99b26000000000000000000000000000000000000000000000000000000008152600481018390526001600160a01b0382166024820152604401611408565b919050565b600082608001516001600160a01b031682608001516001600160a01b0316141580616d85575082516005811115616d6f57616d6f617669565b82516005811115616d8257616d82617669565b14155b80616daa575082602001516001600160a01b031682602001516001600160a01b031614155b80610688575050604091820151910151141590565b60008260400151826000015160400151141580616df6575083600001516001600160a01b031682602001516001600160a01b031614155b80616e0957508360600151826040015114155b80616e39575082516005811115616e2257616e22617669565b8251516005811115616e3657616e36617669565b14155b80610a78575082602001516001600160a01b03168260000151602001516001600160a01b03161415949350505050565b6040518060a00160405280616e7c616e9d565b81526000602082018190526040820152606080820181905260809091015290565b60405180610160016040528060006001600160a01b0316815260200160006001600160a01b03168152602001606081526020016060815260200160006003811115616eea57616eea617669565b815260006020820181905260408201819052606082018190526080820181905260a0820181905260c09091015290565b60005b83811015616f35578181015183820152602001616f1d565b83811115612c175750506000910152565b60008151808452616f5e816020860160208601616f1a565b601f017fffffffffffffffffffffffffffffffffffffffffffffffffffffffffffffffe0169290920160200192915050565b6020815260006106886020830184616f46565b600060208284031215616fb557600080fd5b5035919050565b7f4e487b7100000000000000000000000000000000000000000000000000000000600052604160045260246000fd5b60405160a0810167ffffffffffffffff8111828210171561700e5761700e616fbc565b60405290565b604051610160810167ffffffffffffffff8111828210171561700e5761700e616fbc565b604051601f82017fffffffffffffffffffffffffffffffffffffffffffffffffffffffffffffffe016810167ffffffffffffffff8111828210171561707f5761707f616fbc565b604052919050565b600067ffffffffffffffff8211156170a1576170a1616fbc565b5060051b60200190565b6001600160a01b038116811461453157600080fd5b8035616d31816170ab565b803560068110616d3157600080fd5b600060a082840312156170ec57600080fd5b6170f4616feb565b90506170ff826170cb565b8152602082013561710f816170ab565b8060208301525060408201356040820152606082013560608201526080820135608082015292915050565b600082601f83011261714b57600080fd5b8135602061716061715b83617087565b617038565b82815260a0928302850182019282820191908785111561717f57600080fd5b8387015b858110156171a25761719589826170da565b8452928401928101617183565b5090979650505050505050565b600060c082840312156171c157600080fd5b60405160c0810181811067ffffffffffffffff821117156171e4576171e4616fbc565b6040529050806171f3836170cb565b81526020830135617203816170ab565b8060208301525060408301356040820152606083013560608201526080830135608082015260a0830135617236816170ab565b60a0919091015292915050565b600082601f83011261725457600080fd5b8135602061726461715b83617087565b82815260c0928302850182019282820191908785111561728357600080fd5b8387015b858110156171a25761729989826171af565b8452928401928101617287565b803560048110616d3157600080fd5b600061016082840312156172c857600080fd5b6172d0617014565b90506172db826170c0565b81526172e9602083016170c0565b6020820152604082013567ffffffffffffffff8082111561730957600080fd5b6173158583860161713a565b6040840152606084013591508082111561732e57600080fd5b5061733b84828501617243565b60608301525061734d608083016172a6565b608082015260a082013560a082015260c082013560c082015260e082013560e082015261010080830135818301525061012080830135818301525061014080830135818301525092915050565b80356effffffffffffffffffffffffffffff81168114616d3157600080fd5b600082601f8301126173ca57600080fd5b813567ffffffffffffffff8111156173e4576173e4616fbc565b61741560207fffffffffffffffffffffffffffffffffffffffffffffffffffffffffffffffe0601f84011601617038565b81815284602083860101111561742a57600080fd5b816020850160208301376000918101602001919091529392505050565b600060a0828403121561745957600080fd5b617461616feb565b9050813567ffffffffffffffff8082111561747b57600080fd5b617487858386016172b5565b83526174956020850161739a565b60208401526174a66040850161739a565b604084015260608401359150808211156174bf57600080fd5b6174cb858386016173b9565b606084015260808401359150808211156174e457600080fd5b506174f1848285016173b9565b60808301525092915050565b600082601f83011261750e57600080fd5b8135602061751e61715b83617087565b82815260059290921b8401810191818101908684111561753d57600080fd5b8286015b8481101561757d57803567ffffffffffffffff8111156175615760008081fd5b61756f8986838b0101617447565b845250918301918301617541565b509695505050505050565b60008083601f84011261759a57600080fd5b50813567ffffffffffffffff8111156175b257600080fd5b6020830191508360208260051b85010111156175cd57600080fd5b9250929050565b6000806000806000606086880312156175ec57600080fd5b853567ffffffffffffffff8082111561760457600080fd5b61761089838a016174fd565b9650602088013591508082111561762657600080fd5b61763289838a01617588565b9096509450604088013591508082111561764b57600080fd5b5061765888828901617588565b969995985093965092949392505050565b7f4e487b7100000000000000000000000000000000000000000000000000000000600052602160045260246000fd5b600681106176a8576176a8617669565b9052565b6176b7828251617698565b60208101516001600160a01b038082166020850152604083015160408501526060830151606085015280608084015116608085015250505050565b600081518084526020808501945080840160005b8381101561774857815161771b8882516176ac565b808401516001600160a01b031660a08901526040015160c088015260e09096019590820190600101617706565b509495945050505050565b60208152600061068860208301846176f2565b60006020828403121561777857600080fd5b813567ffffffffffffffff81111561778f57600080fd5b8201610160818503121561068857600080fd5b60008060008060008060008060008060e08b8d0312156177c157600080fd5b8a3567ffffffffffffffff808211156177d957600080fd5b6177e58e838f016174fd565b9b5060208d01359150808211156177fb57600080fd5b6178078e838f01617588565b909b50995060408d013591508082111561782057600080fd5b61782c8e838f01617588565b909950975060608d013591508082111561784557600080fd5b506178528d828e01617588565b90965094505060808b0135925061786b60a08c016170c0565b915060c08b013590509295989b9194979a5092959850565b604080825283519082018190526000906020906060840190828701845b828110156178be5781511515845292840192908401906001016178a0565b505050838103828501526178d281866176f2565b9695505050505050565b600080602083850312156178ef57600080fd5b823567ffffffffffffffff81111561790657600080fd5b61791285828601617588565b90969095509350505050565b6000806000806040858703121561793457600080fd5b843567ffffffffffffffff8082111561794c57600080fd5b61795888838901617588565b9096509450602087013591508082111561797157600080fd5b5061797e87828801617588565b95989497509550505050565b6000806040838503121561799d57600080fd5b823567ffffffffffffffff8111156179b457600080fd5b8301604081860312156179c657600080fd5b946020939093013593505050565b6000806000806000608086880312156179ec57600080fd5b853567ffffffffffffffff80821115617a0457600080fd5b9087019060a0828a031215617a1857600080fd5b90955060208701359080821115617a2e57600080fd5b50617a3b88828901617588565b909550935050604086013591506060860135617a56816170ab565b809150509295509295909350565b60008060008060008060008060a0898b031215617a8057600080fd5b883567ffffffffffffffff80821115617a9857600080fd5b617aa48c838d01617588565b909a50985060208b0135915080821115617abd57600080fd5b617ac98c838d01617588565b909850965060408b0135915080821115617ae257600080fd5b50617aef8b828c01617588565b999c989b509699959896976060870135966080013595509350505050565b600060208284031215617b1f57600080fd5b8135610688816170ab565b606081526000617b3d6060830186616f46565b90508360208301526001600160a01b0383166040830152949350505050565b600060208284031215617b6e57600080fd5b813567ffffffffffffffff811115617b8557600080fd5b8201610240818503121561068857600080fd5b6000617ba661715b84617087565b83815260208082019190600586811b860136811115617bc457600080fd5b865b81811015617cc057803567ffffffffffffffff80821115617be75760008081fd5b818a01915060a08236031215617bfd5760008081fd5b617c05616feb565b823581528683013560028110617c1b5760008081fd5b81880152604083810135908201526060808401359082015260808084013583811115617c475760008081fd5b939093019236601f850112617c5e57600092508283fd5b83359250617c6e61715b84617087565b83815292871b84018801928881019036851115617c8b5760008081fd5b948901945b84861015617ca957853582529489019490890190617c90565b918301919091525088525050948301948301617bc6565b5092979650505050505050565b60008083357fffffffffffffffffffffffffffffffffffffffffffffffffffffffffffffffe1843603018112617d0257600080fd5b83018035915067ffffffffffffffff821115617d1d57600080fd5b602001915060a0810236038213156175cd57600080fd5b600060a08284031215617d4657600080fd5b61068883836170da565b60008083357fffffffffffffffffffffffffffffffffffffffffffffffffffffffffffffffe1843603018112617d8557600080fd5b83018035915067ffffffffffffffff821115617da057600080fd5b602001915060c0810236038213156175cd57600080fd5b600060c08284031215617dc957600080fd5b61068883836171af565b600060208284031215617de557600080fd5b610688826172a6565b600061059c3683617447565b7f4e487b7100000000000000000000000000000000000000000000000000000000600052601160045260246000fd5b60006000198203617e3c57617e3c617dfa565b5060010190565b7f4e487b7100000000000000000000000000000000000000000000000000000000600052603260045260246000fd5b815160009082906020808601845b83811015617e9c57815185529382019390820190600101617e80565b50929695505050505050565b6004811061453157614531617669565b6176a881617ea8565b8c81526001600160a01b038c811660208301528b166040820152606081018a9052608081018990526101808101617ef789617ea8565b60a082019890985260c081019690965260e08601949094526101008501929092526101208401526101408301526101609091015295945050505050565b600060408284031215617f4657600080fd5b6040516040810181811067ffffffffffffffff82111715617f6957617f69616fbc565b604052823581526020928301359281019290925250919050565b6000617f9161715b84617087565b80848252602080830192508560051b850136811115617faf57600080fd5b855b8181101561804a57803567ffffffffffffffff811115617fd15760008081fd5b870136601f820112617fe35760008081fd5b8035617ff161715b82617087565b81815260069190911b820185019085810190368311156180115760008081fd5b928601925b8284101561803a576180283685617f34565b82528682019150604084019350618016565b8852505050938201938201617fb1565b50919695505050505050565b600082357fffffffffffffffffffffffffffffffffffffffffffffffffffffffffffffffc183360301811261808a57600080fd5b9190910192915050565b600082357ffffffffffffffffffffffffffffffffffffffffffffffffffffffffffffffea183360301811261808a57600080fd5b600061059c36836172b5565b60008083357fffffffffffffffffffffffffffffffffffffffffffffffffffffffffffffffe184360301811261810957600080fd5b83018035915067ffffffffffffffff82111561812457600080fd5b6020019150368190038213156175cd57600080fd5b600081518084526020808501945080840160005b83811015617748576181608783516176ac565b60a096909601959082019060010161814d565b6000608080830187845260206001600160a01b03808916828701526040848188015283895180865260a089019150848b01955060005b818110156181ea5786516181be848251617698565b8087015186168488015284810151858501526060908101519084015295850195918701916001016181a9565b505087810360608901526181fe818a618139565b9c9b505050505050505050505050565b60006020828403121561822057600080fd5b81356018811061068857600080fd5b60008161823e5761823e617dfa565b506000190190565b60008083357fffffffffffffffffffffffffffffffffffffffffffffffffffffffffffffffe184360301811261827b57600080fd5b83018035915067ffffffffffffffff82111561829657600080fd5b6020019150600681901b36038213156175cd57600080fd5b6000828210156182c0576182c0617dfa565b500390565b86815260c081016182d96020830188617698565b6001600160a01b03861660408301528460608301528360808301528260a0830152979650505050505050565b87815260e081016183196020830189617698565b6001600160a01b0380881660408401528660608401528560808401528460a084015280841660c08401525098975050505050505050565b6000821982111561836357618363617dfa565b500190565b600081600019048311821515161561838257618382617dfa565b500290565b7f4e487b7100000000000000000000000000000000000000000000000000000000600052601260045260246000fd5b6000826183c5576183c5618387565b500490565b6000604082840312156183dc57600080fd5b6040516040810181811067ffffffffffffffff821117156183ff576183ff616fbc565b604052823581526020830135618414816170ab565b60208201529392505050565b60008183825b6001811015618445578151835260209283019290910190600101618426565b50505060208201905092915050565b60006040828403121561846657600080fd5b6106888383617f34565b600281106176a8576176a8617669565b6020810161059c8284618470565b600080604083850312156184a157600080fd5b505080516020909101519092909150565b600060ff821660ff84168060ff038211156184cf576184cf617dfa565b019392505050565b6000602082840312156184e957600080fd5b81517fffffffff000000000000000000000000000000000000000000000000000000008116811461068857600080fd5b600081518084526020808501945080840160005b83811015617748578151618542888251617698565b808401516001600160a01b03168885015260408082015190890152606080820151908901526080908101519088015260a0909601959082019060010161852d565b600081518084526020808501945080840160005b838110156177485781516185ac888251617698565b808401516001600160a01b0390811689860152604080830151908a0152606080830151908a0152608080830151908a015260a091820151169088015260c09096019590820190600101618597565b600081518084526020808501945080840160005b838110156177485781518752958201959082019060010161860e565b600081518084526020808501808196508360051b8101915082860160005b858110156186ae578284038952815160a0815186528682015161866d88880182618470565b50604082810151908701526060808301519087015260809182015191860181905261869a818701836185fa565b9a87019a9550505090840190600101618648565b5091979650505050505050565b8581526001600160a01b038516602082015260a060408201526000610140855160a0808501526186f682850182516001600160a01b03169052565b6020810151610160618712818701836001600160a01b03169052565b60408301519150806101808701525061872f6102a0860182618519565b905060608201517ffffffffffffffffffffffffffffffffffffffffffffffffffffffffffffffec0868303016101a087015261876b8282618583565b91505060808201516187816101c0870182617eb8565b5060a08201516101e086015260c082015161020086015260e082015161022086015261010080830151610240870152610120808401516102608801528484015161028088015260208a015194506187eb60c08801866effffffffffffffffffffffffffffff169052565b60408a01516effffffffffffffffffffffffffffff1660e088015260608a01518784037fffffffffffffffffffffffffffffffffffffffffffffffffffffffffffffff60908101848a015290955093506188458386616f46565b945060808a0151925083878603018188015250506188638382616f46565b92505050828103606084015261887981866185fa565b9050828103608084015261888d818561862a565b98975050505050505050565b6000826188a8576188a8618387565b500690565b600080858511156188bd57600080fd5b838611156188ca57600080fd5b5050820193919092039150565b602080825282518282018190526000919060409081850190868401855b828110156186ae578151805161890981617ea8565b8552808701516001600160a01b039081168887015286820151811687870152606080830151909116908601526080808201519086015260a0908101519085015260c090930192908501906001016188f4565b828152604060208201526000610a786040830184616f46565b6000825161808a818460208701616f1a565b60006020828403121561899857600080fd5b8151801515811461068857600080fdfea264697066735822122005ef3406942815a8864ef92b47f15c71b18e859116cbc199e6f9a4b78ee9e77f64736f6c634300080e0033",
    "linkReferences": {}
  },
  "methodIdentifiers": {
    "cancel((address,address,(uint8,address,uint256,uint256,uint256)[],(uint8,address,uint256,uint256,uint256,address)[],uint8,uint256,uint256,bytes32,uint256,bytes32,uint256)[])": "fd9f1e10",
    "fulfillAdvancedOrder(((address,address,(uint8,address,uint256,uint256,uint256)[],(uint8,address,uint256,uint256,uint256,address)[],uint8,uint256,uint256,bytes32,uint256,bytes32,uint256),uint120,uint120,bytes,bytes),(uint256,uint8,uint256,uint256,bytes32[])[],bytes32,address)": "e7acab24",
    "fulfillAvailableAdvancedOrders(((address,address,(uint8,address,uint256,uint256,uint256)[],(uint8,address,uint256,uint256,uint256,address)[],uint8,uint256,uint256,bytes32,uint256,bytes32,uint256),uint120,uint120,bytes,bytes)[],(uint256,uint8,uint256,uint256,bytes32[])[],(uint256,uint256)[][],(uint256,uint256)[][],bytes32,address,uint256)": "87201b41",
    "fulfillAvailableOrders(((address,address,(uint8,address,uint256,uint256,uint256)[],(uint8,address,uint256,uint256,uint256,address)[],uint8,uint256,uint256,bytes32,uint256,bytes32,uint256),bytes)[],(uint256,uint256)[][],(uint256,uint256)[][],bytes32,uint256)": "ed98a574",
    "fulfillBasicOrder((address,uint256,uint256,address,address,address,uint256,uint256,uint8,uint256,uint256,bytes32,uint256,bytes32,bytes32,uint256,(uint256,address)[],bytes))": "fb0f3ee1",
    "fulfillOrder(((address,address,(uint8,address,uint256,uint256,uint256)[],(uint8,address,uint256,uint256,uint256,address)[],uint8,uint256,uint256,bytes32,uint256,bytes32,uint256),bytes),bytes32)": "b3a34c4c",
    "getCounter(address)": "f07ec373",
    "getOrderHash((address,address,(uint8,address,uint256,uint256,uint256)[],(uint8,address,uint256,uint256,uint256,address)[],uint8,uint256,uint256,bytes32,uint256,bytes32,uint256))": "79df72bd",
    "getOrderStatus(bytes32)": "46423aa7",
    "incrementCounter()": "5b34b966",
    "information()": "f47b7740",
    "matchAdvancedOrders(((address,address,(uint8,address,uint256,uint256,uint256)[],(uint8,address,uint256,uint256,uint256,address)[],uint8,uint256,uint256,bytes32,uint256,bytes32,uint256),uint120,uint120,bytes,bytes)[],(uint256,uint8,uint256,uint256,bytes32[])[],((uint256,uint256)[],(uint256,uint256)[])[])": "55944a42",
    "matchOrders(((address,address,(uint8,address,uint256,uint256,uint256)[],(uint8,address,uint256,uint256,uint256,address)[],uint8,uint256,uint256,bytes32,uint256,bytes32,uint256),bytes)[],((uint256,uint256)[],(uint256,uint256)[])[])": "a8174404",
    "name()": "06fdde03",
    "validate(((address,address,(uint8,address,uint256,uint256,uint256)[],(uint8,address,uint256,uint256,uint256,address)[],uint8,uint256,uint256,bytes32,uint256,bytes32,uint256),bytes)[])": "88147732"
  },
  "id": 84
}