{
  "abi": [
    {
      "inputs": [
        {
          "internalType": "address",
          "name": "conduitController",
          "type": "address"
        }
      ],
      "stateMutability": "nonpayable",
      "type": "constructor"
    },
    {
      "inputs": [],
      "name": "BadContractSignature",
      "type": "error"
    },
    {
      "inputs": [],
      "name": "BadFraction",
      "type": "error"
    },
    {
      "inputs": [
        {
          "internalType": "address",
          "name": "token",
          "type": "address"
        },
        {
          "internalType": "address",
          "name": "from",
          "type": "address"
        },
        {
          "internalType": "address",
          "name": "to",
          "type": "address"
        },
        {
          "internalType": "uint256",
          "name": "amount",
          "type": "uint256"
        }
      ],
      "name": "BadReturnValueFromERC20OnTransfer",
      "type": "error"
    },
    {
      "inputs": [
        {
          "internalType": "uint8",
          "name": "v",
          "type": "uint8"
        }
      ],
      "name": "BadSignatureV",
      "type": "error"
    },
    {
      "inputs": [],
      "name": "ConsiderationCriteriaResolverOutOfRange",
      "type": "error"
    },
    {
      "inputs": [
        {
          "internalType": "uint256",
          "name": "orderIndex",
          "type": "uint256"
        },
        {
          "internalType": "uint256",
          "name": "considerationIndex",
          "type": "uint256"
        },
        {
          "internalType": "uint256",
          "name": "shortfallAmount",
          "type": "uint256"
        }
      ],
      "name": "ConsiderationNotMet",
      "type": "error"
    },
    {
      "inputs": [],
      "name": "CriteriaNotEnabledForItem",
      "type": "error"
    },
    {
      "inputs": [
        {
          "internalType": "address",
          "name": "token",
          "type": "address"
        },
        {
          "internalType": "address",
          "name": "from",
          "type": "address"
        },
        {
          "internalType": "address",
          "name": "to",
          "type": "address"
        },
        {
          "internalType": "uint256[]",
          "name": "identifiers",
          "type": "uint256[]"
        },
        {
          "internalType": "uint256[]",
          "name": "amounts",
          "type": "uint256[]"
        }
      ],
      "name": "ERC1155BatchTransferGenericFailure",
      "type": "error"
    },
    {
      "inputs": [
        {
          "internalType": "address",
          "name": "account",
          "type": "address"
        },
        {
          "internalType": "uint256",
          "name": "amount",
          "type": "uint256"
        }
      ],
      "name": "EtherTransferGenericFailure",
      "type": "error"
    },
    {
      "inputs": [],
      "name": "InexactFraction",
      "type": "error"
    },
    {
      "inputs": [],
      "name": "InsufficientEtherSupplied",
      "type": "error"
    },
    {
      "inputs": [],
      "name": "Invalid1155BatchTransferEncoding",
      "type": "error"
    },
    {
      "inputs": [],
      "name": "InvalidBasicOrderParameterEncoding",
      "type": "error"
    },
    {
      "inputs": [
        {
          "internalType": "address",
          "name": "conduit",
          "type": "address"
        }
      ],
      "name": "InvalidCallToConduit",
      "type": "error"
    },
    {
      "inputs": [],
      "name": "InvalidCanceller",
      "type": "error"
    },
    {
      "inputs": [
        {
          "internalType": "bytes32",
          "name": "conduitKey",
          "type": "bytes32"
        },
        {
          "internalType": "address",
          "name": "conduit",
          "type": "address"
        }
      ],
      "name": "InvalidConduit",
      "type": "error"
    },
    {
      "inputs": [],
      "name": "InvalidERC721TransferAmount",
      "type": "error"
    },
    {
      "inputs": [],
      "name": "InvalidFulfillmentComponentData",
      "type": "error"
    },
    {
      "inputs": [
        {
          "internalType": "uint256",
          "name": "value",
          "type": "uint256"
        }
      ],
      "name": "InvalidMsgValue",
      "type": "error"
    },
    {
      "inputs": [],
      "name": "InvalidNativeOfferItem",
      "type": "error"
    },
    {
      "inputs": [],
      "name": "InvalidProof",
      "type": "error"
    },
    {
      "inputs": [
        {
          "internalType": "bytes32",
          "name": "orderHash",
          "type": "bytes32"
        }
      ],
      "name": "InvalidRestrictedOrder",
      "type": "error"
    },
    {
      "inputs": [],
      "name": "InvalidSignature",
      "type": "error"
    },
    {
      "inputs": [],
      "name": "InvalidSigner",
      "type": "error"
    },
    {
      "inputs": [],
      "name": "InvalidTime",
      "type": "error"
    },
    {
      "inputs": [],
      "name": "MismatchedFulfillmentOfferAndConsiderationComponents",
      "type": "error"
    },
    {
      "inputs": [
        {
          "internalType": "enum Side",
          "name": "side",
          "type": "uint8"
        }
      ],
      "name": "MissingFulfillmentComponentOnAggregation",
      "type": "error"
    },
    {
      "inputs": [],
      "name": "MissingItemAmount",
      "type": "error"
    },
    {
      "inputs": [],
      "name": "MissingOriginalConsiderationItems",
      "type": "error"
    },
    {
      "inputs": [
        {
          "internalType": "address",
          "name": "account",
          "type": "address"
        }
      ],
      "name": "NoContract",
      "type": "error"
    },
    {
      "inputs": [],
      "name": "NoReentrantCalls",
      "type": "error"
    },
    {
      "inputs": [],
      "name": "NoSpecifiedOrdersAvailable",
      "type": "error"
    },
    {
      "inputs": [],
      "name": "OfferAndConsiderationRequiredOnFulfillment",
      "type": "error"
    },
    {
      "inputs": [],
      "name": "OfferCriteriaResolverOutOfRange",
      "type": "error"
    },
    {
      "inputs": [
        {
          "internalType": "bytes32",
          "name": "orderHash",
          "type": "bytes32"
        }
      ],
      "name": "OrderAlreadyFilled",
      "type": "error"
    },
    {
      "inputs": [],
      "name": "OrderCriteriaResolverOutOfRange",
      "type": "error"
    },
    {
      "inputs": [
        {
          "internalType": "bytes32",
          "name": "orderHash",
          "type": "bytes32"
        }
      ],
      "name": "OrderIsCancelled",
      "type": "error"
    },
    {
      "inputs": [
        {
          "internalType": "bytes32",
          "name": "orderHash",
          "type": "bytes32"
        }
      ],
      "name": "OrderPartiallyFilled",
      "type": "error"
    },
    {
      "inputs": [],
      "name": "PartialFillsNotEnabledForOrder",
      "type": "error"
    },
    {
      "inputs": [
        {
          "internalType": "address",
          "name": "token",
          "type": "address"
        },
        {
          "internalType": "address",
          "name": "from",
          "type": "address"
        },
        {
          "internalType": "address",
          "name": "to",
          "type": "address"
        },
        {
          "internalType": "uint256",
          "name": "identifier",
          "type": "uint256"
        },
        {
          "internalType": "uint256",
          "name": "amount",
          "type": "uint256"
        }
      ],
      "name": "TokenTransferGenericFailure",
      "type": "error"
    },
    {
      "inputs": [],
      "name": "UnresolvedConsiderationCriteria",
      "type": "error"
    },
    {
      "inputs": [],
      "name": "UnresolvedOfferCriteria",
      "type": "error"
    },
    {
      "inputs": [],
      "name": "UnusedItemParameters",
      "type": "error"
    },
    {
      "anonymous": false,
      "inputs": [
        {
          "indexed": false,
          "internalType": "uint256",
          "name": "newCounter",
          "type": "uint256"
        },
        {
          "indexed": true,
          "internalType": "address",
          "name": "offerer",
          "type": "address"
        }
      ],
      "name": "CounterIncremented",
      "type": "event"
    },
    {
      "anonymous": false,
      "inputs": [
        {
          "indexed": false,
          "internalType": "bytes32",
          "name": "orderHash",
          "type": "bytes32"
        },
        {
          "indexed": true,
          "internalType": "address",
          "name": "offerer",
          "type": "address"
        },
        {
          "indexed": true,
          "internalType": "address",
          "name": "zone",
          "type": "address"
        }
      ],
      "name": "OrderCancelled",
      "type": "event"
    },
    {
      "anonymous": false,
      "inputs": [
        {
          "indexed": false,
          "internalType": "bytes32",
          "name": "orderHash",
          "type": "bytes32"
        },
        {
          "indexed": true,
          "internalType": "address",
          "name": "offerer",
          "type": "address"
        },
        {
          "indexed": true,
          "internalType": "address",
          "name": "zone",
          "type": "address"
        },
        {
          "indexed": false,
          "internalType": "address",
          "name": "recipient",
          "type": "address"
        },
        {
          "components": [
            {
              "internalType": "enum ItemType",
              "name": "itemType",
              "type": "uint8"
            },
            {
              "internalType": "address",
              "name": "token",
              "type": "address"
            },
            {
              "internalType": "uint256",
              "name": "identifier",
              "type": "uint256"
            },
            {
              "internalType": "uint256",
              "name": "amount",
              "type": "uint256"
            }
          ],
          "indexed": false,
          "internalType": "struct SpentItem[]",
          "name": "offer",
          "type": "tuple[]"
        },
        {
          "components": [
            {
              "internalType": "enum ItemType",
              "name": "itemType",
              "type": "uint8"
            },
            {
              "internalType": "address",
              "name": "token",
              "type": "address"
            },
            {
              "internalType": "uint256",
              "name": "identifier",
              "type": "uint256"
            },
            {
              "internalType": "uint256",
              "name": "amount",
              "type": "uint256"
            },
            {
              "internalType": "address payable",
              "name": "recipient",
              "type": "address"
            }
          ],
          "indexed": false,
          "internalType": "struct ReceivedItem[]",
          "name": "consideration",
          "type": "tuple[]"
        }
      ],
      "name": "OrderFulfilled",
      "type": "event"
    },
    {
      "anonymous": false,
      "inputs": [
        {
          "indexed": false,
          "internalType": "bytes32",
          "name": "orderHash",
          "type": "bytes32"
        },
        {
          "indexed": true,
          "internalType": "address",
          "name": "offerer",
          "type": "address"
        },
        {
          "indexed": true,
          "internalType": "address",
          "name": "zone",
          "type": "address"
        }
      ],
      "name": "OrderValidated",
      "type": "event"
    },
    {
      "inputs": [
        {
          "components": [
            {
              "internalType": "address",
              "name": "offerer",
              "type": "address"
            },
            {
              "internalType": "address",
              "name": "zone",
              "type": "address"
            },
            {
              "components": [
                {
                  "internalType": "enum ItemType",
                  "name": "itemType",
                  "type": "uint8"
                },
                {
                  "internalType": "address",
                  "name": "token",
                  "type": "address"
                },
                {
                  "internalType": "uint256",
                  "name": "identifierOrCriteria",
                  "type": "uint256"
                },
                {
                  "internalType": "uint256",
                  "name": "startAmount",
                  "type": "uint256"
                },
                {
                  "internalType": "uint256",
                  "name": "endAmount",
                  "type": "uint256"
                }
              ],
              "internalType": "struct OfferItem[]",
              "name": "offer",
              "type": "tuple[]"
            },
            {
              "components": [
                {
                  "internalType": "enum ItemType",
                  "name": "itemType",
                  "type": "uint8"
                },
                {
                  "internalType": "address",
                  "name": "token",
                  "type": "address"
                },
                {
                  "internalType": "uint256",
                  "name": "identifierOrCriteria",
                  "type": "uint256"
                },
                {
                  "internalType": "uint256",
                  "name": "startAmount",
                  "type": "uint256"
                },
                {
                  "internalType": "uint256",
                  "name": "endAmount",
                  "type": "uint256"
                },
                {
                  "internalType": "address payable",
                  "name": "recipient",
                  "type": "address"
                }
              ],
              "internalType": "struct ConsiderationItem[]",
              "name": "consideration",
              "type": "tuple[]"
            },
            {
              "internalType": "enum OrderType",
              "name": "orderType",
              "type": "uint8"
            },
            {
              "internalType": "uint256",
              "name": "startTime",
              "type": "uint256"
            },
            {
              "internalType": "uint256",
              "name": "endTime",
              "type": "uint256"
            },
            {
              "internalType": "bytes32",
              "name": "zoneHash",
              "type": "bytes32"
            },
            {
              "internalType": "uint256",
              "name": "salt",
              "type": "uint256"
            },
            {
              "internalType": "bytes32",
              "name": "conduitKey",
              "type": "bytes32"
            },
            {
              "internalType": "uint256",
              "name": "counter",
              "type": "uint256"
            }
          ],
          "internalType": "struct OrderComponents[]",
          "name": "orders",
          "type": "tuple[]"
        }
      ],
      "name": "cancel",
      "outputs": [
        {
          "internalType": "bool",
          "name": "cancelled",
          "type": "bool"
        }
      ],
      "stateMutability": "nonpayable",
      "type": "function"
    },
    {
      "inputs": [
        {
          "components": [
            {
              "components": [
                {
                  "internalType": "address",
                  "name": "offerer",
                  "type": "address"
                },
                {
                  "internalType": "address",
                  "name": "zone",
                  "type": "address"
                },
                {
                  "components": [
                    {
                      "internalType": "enum ItemType",
                      "name": "itemType",
                      "type": "uint8"
                    },
                    {
                      "internalType": "address",
                      "name": "token",
                      "type": "address"
                    },
                    {
                      "internalType": "uint256",
                      "name": "identifierOrCriteria",
                      "type": "uint256"
                    },
                    {
                      "internalType": "uint256",
                      "name": "startAmount",
                      "type": "uint256"
                    },
                    {
                      "internalType": "uint256",
                      "name": "endAmount",
                      "type": "uint256"
                    }
                  ],
                  "internalType": "struct OfferItem[]",
                  "name": "offer",
                  "type": "tuple[]"
                },
                {
                  "components": [
                    {
                      "internalType": "enum ItemType",
                      "name": "itemType",
                      "type": "uint8"
                    },
                    {
                      "internalType": "address",
                      "name": "token",
                      "type": "address"
                    },
                    {
                      "internalType": "uint256",
                      "name": "identifierOrCriteria",
                      "type": "uint256"
                    },
                    {
                      "internalType": "uint256",
                      "name": "startAmount",
                      "type": "uint256"
                    },
                    {
                      "internalType": "uint256",
                      "name": "endAmount",
                      "type": "uint256"
                    },
                    {
                      "internalType": "address payable",
                      "name": "recipient",
                      "type": "address"
                    }
                  ],
                  "internalType": "struct ConsiderationItem[]",
                  "name": "consideration",
                  "type": "tuple[]"
                },
                {
                  "internalType": "enum OrderType",
                  "name": "orderType",
                  "type": "uint8"
                },
                {
                  "internalType": "uint256",
                  "name": "startTime",
                  "type": "uint256"
                },
                {
                  "internalType": "uint256",
                  "name": "endTime",
                  "type": "uint256"
                },
                {
                  "internalType": "bytes32",
                  "name": "zoneHash",
                  "type": "bytes32"
                },
                {
                  "internalType": "uint256",
                  "name": "salt",
                  "type": "uint256"
                },
                {
                  "internalType": "bytes32",
                  "name": "conduitKey",
                  "type": "bytes32"
                },
                {
                  "internalType": "uint256",
                  "name": "totalOriginalConsiderationItems",
                  "type": "uint256"
                }
              ],
              "internalType": "struct OrderParameters",
              "name": "parameters",
              "type": "tuple"
            },
            {
              "internalType": "uint120",
              "name": "numerator",
              "type": "uint120"
            },
            {
              "internalType": "uint120",
              "name": "denominator",
              "type": "uint120"
            },
            {
              "internalType": "bytes",
              "name": "signature",
              "type": "bytes"
            },
            {
              "internalType": "bytes",
              "name": "extraData",
              "type": "bytes"
            }
          ],
          "internalType": "struct AdvancedOrder",
          "name": "advancedOrder",
          "type": "tuple"
        },
        {
          "components": [
            {
              "internalType": "uint256",
              "name": "orderIndex",
              "type": "uint256"
            },
            {
              "internalType": "enum Side",
              "name": "side",
              "type": "uint8"
            },
            {
              "internalType": "uint256",
              "name": "index",
              "type": "uint256"
            },
            {
              "internalType": "uint256",
              "name": "identifier",
              "type": "uint256"
            },
            {
              "internalType": "bytes32[]",
              "name": "criteriaProof",
              "type": "bytes32[]"
            }
          ],
          "internalType": "struct CriteriaResolver[]",
          "name": "criteriaResolvers",
          "type": "tuple[]"
        },
        {
          "internalType": "bytes32",
          "name": "fulfillerConduitKey",
          "type": "bytes32"
        },
        {
          "internalType": "address",
          "name": "recipient",
          "type": "address"
        }
      ],
      "name": "fulfillAdvancedOrder",
      "outputs": [
        {
          "internalType": "bool",
          "name": "fulfilled",
          "type": "bool"
        }
      ],
      "stateMutability": "payable",
      "type": "function"
    },
    {
      "inputs": [
        {
          "components": [
            {
              "components": [
                {
                  "internalType": "address",
                  "name": "offerer",
                  "type": "address"
                },
                {
                  "internalType": "address",
                  "name": "zone",
                  "type": "address"
                },
                {
                  "components": [
                    {
                      "internalType": "enum ItemType",
                      "name": "itemType",
                      "type": "uint8"
                    },
                    {
                      "internalType": "address",
                      "name": "token",
                      "type": "address"
                    },
                    {
                      "internalType": "uint256",
                      "name": "identifierOrCriteria",
                      "type": "uint256"
                    },
                    {
                      "internalType": "uint256",
                      "name": "startAmount",
                      "type": "uint256"
                    },
                    {
                      "internalType": "uint256",
                      "name": "endAmount",
                      "type": "uint256"
                    }
                  ],
                  "internalType": "struct OfferItem[]",
                  "name": "offer",
                  "type": "tuple[]"
                },
                {
                  "components": [
                    {
                      "internalType": "enum ItemType",
                      "name": "itemType",
                      "type": "uint8"
                    },
                    {
                      "internalType": "address",
                      "name": "token",
                      "type": "address"
                    },
                    {
                      "internalType": "uint256",
                      "name": "identifierOrCriteria",
                      "type": "uint256"
                    },
                    {
                      "internalType": "uint256",
                      "name": "startAmount",
                      "type": "uint256"
                    },
                    {
                      "internalType": "uint256",
                      "name": "endAmount",
                      "type": "uint256"
                    },
                    {
                      "internalType": "address payable",
                      "name": "recipient",
                      "type": "address"
                    }
                  ],
                  "internalType": "struct ConsiderationItem[]",
                  "name": "consideration",
                  "type": "tuple[]"
                },
                {
                  "internalType": "enum OrderType",
                  "name": "orderType",
                  "type": "uint8"
                },
                {
                  "internalType": "uint256",
                  "name": "startTime",
                  "type": "uint256"
                },
                {
                  "internalType": "uint256",
                  "name": "endTime",
                  "type": "uint256"
                },
                {
                  "internalType": "bytes32",
                  "name": "zoneHash",
                  "type": "bytes32"
                },
                {
                  "internalType": "uint256",
                  "name": "salt",
                  "type": "uint256"
                },
                {
                  "internalType": "bytes32",
                  "name": "conduitKey",
                  "type": "bytes32"
                },
                {
                  "internalType": "uint256",
                  "name": "totalOriginalConsiderationItems",
                  "type": "uint256"
                }
              ],
              "internalType": "struct OrderParameters",
              "name": "parameters",
              "type": "tuple"
            },
            {
              "internalType": "uint120",
              "name": "numerator",
              "type": "uint120"
            },
            {
              "internalType": "uint120",
              "name": "denominator",
              "type": "uint120"
            },
            {
              "internalType": "bytes",
              "name": "signature",
              "type": "bytes"
            },
            {
              "internalType": "bytes",
              "name": "extraData",
              "type": "bytes"
            }
          ],
          "internalType": "struct AdvancedOrder[]",
          "name": "advancedOrders",
          "type": "tuple[]"
        },
        {
          "components": [
            {
              "internalType": "uint256",
              "name": "orderIndex",
              "type": "uint256"
            },
            {
              "internalType": "enum Side",
              "name": "side",
              "type": "uint8"
            },
            {
              "internalType": "uint256",
              "name": "index",
              "type": "uint256"
            },
            {
              "internalType": "uint256",
              "name": "identifier",
              "type": "uint256"
            },
            {
              "internalType": "bytes32[]",
              "name": "criteriaProof",
              "type": "bytes32[]"
            }
          ],
          "internalType": "struct CriteriaResolver[]",
          "name": "criteriaResolvers",
          "type": "tuple[]"
        },
        {
          "components": [
            {
              "internalType": "uint256",
              "name": "orderIndex",
              "type": "uint256"
            },
            {
              "internalType": "uint256",
              "name": "itemIndex",
              "type": "uint256"
            }
          ],
          "internalType": "struct FulfillmentComponent[][]",
          "name": "offerFulfillments",
          "type": "tuple[][]"
        },
        {
          "components": [
            {
              "internalType": "uint256",
              "name": "orderIndex",
              "type": "uint256"
            },
            {
              "internalType": "uint256",
              "name": "itemIndex",
              "type": "uint256"
            }
          ],
          "internalType": "struct FulfillmentComponent[][]",
          "name": "considerationFulfillments",
          "type": "tuple[][]"
        },
        {
          "internalType": "bytes32",
          "name": "fulfillerConduitKey",
          "type": "bytes32"
        },
        {
          "internalType": "address",
          "name": "recipient",
          "type": "address"
        },
        {
          "internalType": "uint256",
          "name": "maximumFulfilled",
          "type": "uint256"
        }
      ],
      "name": "fulfillAvailableAdvancedOrders",
      "outputs": [
        {
          "internalType": "bool[]",
          "name": "availableOrders",
          "type": "bool[]"
        },
        {
          "components": [
            {
              "components": [
                {
                  "internalType": "enum ItemType",
                  "name": "itemType",
                  "type": "uint8"
                },
                {
                  "internalType": "address",
                  "name": "token",
                  "type": "address"
                },
                {
                  "internalType": "uint256",
                  "name": "identifier",
                  "type": "uint256"
                },
                {
                  "internalType": "uint256",
                  "name": "amount",
                  "type": "uint256"
                },
                {
                  "internalType": "address payable",
                  "name": "recipient",
                  "type": "address"
                }
              ],
              "internalType": "struct ReceivedItem",
              "name": "item",
              "type": "tuple"
            },
            {
              "internalType": "address",
              "name": "offerer",
              "type": "address"
            },
            {
              "internalType": "bytes32",
              "name": "conduitKey",
              "type": "bytes32"
            }
          ],
          "internalType": "struct Execution[]",
          "name": "executions",
          "type": "tuple[]"
        }
      ],
      "stateMutability": "payable",
      "type": "function"
    },
    {
      "inputs": [
        {
          "components": [
            {
              "components": [
                {
                  "internalType": "address",
                  "name": "offerer",
                  "type": "address"
                },
                {
                  "internalType": "address",
                  "name": "zone",
                  "type": "address"
                },
                {
                  "components": [
                    {
                      "internalType": "enum ItemType",
                      "name": "itemType",
                      "type": "uint8"
                    },
                    {
                      "internalType": "address",
                      "name": "token",
                      "type": "address"
                    },
                    {
                      "internalType": "uint256",
                      "name": "identifierOrCriteria",
                      "type": "uint256"
                    },
                    {
                      "internalType": "uint256",
                      "name": "startAmount",
                      "type": "uint256"
                    },
                    {
                      "internalType": "uint256",
                      "name": "endAmount",
                      "type": "uint256"
                    }
                  ],
                  "internalType": "struct OfferItem[]",
                  "name": "offer",
                  "type": "tuple[]"
                },
                {
                  "components": [
                    {
                      "internalType": "enum ItemType",
                      "name": "itemType",
                      "type": "uint8"
                    },
                    {
                      "internalType": "address",
                      "name": "token",
                      "type": "address"
                    },
                    {
                      "internalType": "uint256",
                      "name": "identifierOrCriteria",
                      "type": "uint256"
                    },
                    {
                      "internalType": "uint256",
                      "name": "startAmount",
                      "type": "uint256"
                    },
                    {
                      "internalType": "uint256",
                      "name": "endAmount",
                      "type": "uint256"
                    },
                    {
                      "internalType": "address payable",
                      "name": "recipient",
                      "type": "address"
                    }
                  ],
                  "internalType": "struct ConsiderationItem[]",
                  "name": "consideration",
                  "type": "tuple[]"
                },
                {
                  "internalType": "enum OrderType",
                  "name": "orderType",
                  "type": "uint8"
                },
                {
                  "internalType": "uint256",
                  "name": "startTime",
                  "type": "uint256"
                },
                {
                  "internalType": "uint256",
                  "name": "endTime",
                  "type": "uint256"
                },
                {
                  "internalType": "bytes32",
                  "name": "zoneHash",
                  "type": "bytes32"
                },
                {
                  "internalType": "uint256",
                  "name": "salt",
                  "type": "uint256"
                },
                {
                  "internalType": "bytes32",
                  "name": "conduitKey",
                  "type": "bytes32"
                },
                {
                  "internalType": "uint256",
                  "name": "totalOriginalConsiderationItems",
                  "type": "uint256"
                }
              ],
              "internalType": "struct OrderParameters",
              "name": "parameters",
              "type": "tuple"
            },
            {
              "internalType": "bytes",
              "name": "signature",
              "type": "bytes"
            }
          ],
          "internalType": "struct Order[]",
          "name": "orders",
          "type": "tuple[]"
        },
        {
          "components": [
            {
              "internalType": "uint256",
              "name": "orderIndex",
              "type": "uint256"
            },
            {
              "internalType": "uint256",
              "name": "itemIndex",
              "type": "uint256"
            }
          ],
          "internalType": "struct FulfillmentComponent[][]",
          "name": "offerFulfillments",
          "type": "tuple[][]"
        },
        {
          "components": [
            {
              "internalType": "uint256",
              "name": "orderIndex",
              "type": "uint256"
            },
            {
              "internalType": "uint256",
              "name": "itemIndex",
              "type": "uint256"
            }
          ],
          "internalType": "struct FulfillmentComponent[][]",
          "name": "considerationFulfillments",
          "type": "tuple[][]"
        },
        {
          "internalType": "bytes32",
          "name": "fulfillerConduitKey",
          "type": "bytes32"
        },
        {
          "internalType": "uint256",
          "name": "maximumFulfilled",
          "type": "uint256"
        }
      ],
      "name": "fulfillAvailableOrders",
      "outputs": [
        {
          "internalType": "bool[]",
          "name": "availableOrders",
          "type": "bool[]"
        },
        {
          "components": [
            {
              "components": [
                {
                  "internalType": "enum ItemType",
                  "name": "itemType",
                  "type": "uint8"
                },
                {
                  "internalType": "address",
                  "name": "token",
                  "type": "address"
                },
                {
                  "internalType": "uint256",
                  "name": "identifier",
                  "type": "uint256"
                },
                {
                  "internalType": "uint256",
                  "name": "amount",
                  "type": "uint256"
                },
                {
                  "internalType": "address payable",
                  "name": "recipient",
                  "type": "address"
                }
              ],
              "internalType": "struct ReceivedItem",
              "name": "item",
              "type": "tuple"
            },
            {
              "internalType": "address",
              "name": "offerer",
              "type": "address"
            },
            {
              "internalType": "bytes32",
              "name": "conduitKey",
              "type": "bytes32"
            }
          ],
          "internalType": "struct Execution[]",
          "name": "executions",
          "type": "tuple[]"
        }
      ],
      "stateMutability": "payable",
      "type": "function"
    },
    {
      "inputs": [
        {
          "components": [
            {
              "internalType": "address",
              "name": "considerationToken",
              "type": "address"
            },
            {
              "internalType": "uint256",
              "name": "considerationIdentifier",
              "type": "uint256"
            },
            {
              "internalType": "uint256",
              "name": "considerationAmount",
              "type": "uint256"
            },
            {
              "internalType": "address payable",
              "name": "offerer",
              "type": "address"
            },
            {
              "internalType": "address",
              "name": "zone",
              "type": "address"
            },
            {
              "internalType": "address",
              "name": "offerToken",
              "type": "address"
            },
            {
              "internalType": "uint256",
              "name": "offerIdentifier",
              "type": "uint256"
            },
            {
              "internalType": "uint256",
              "name": "offerAmount",
              "type": "uint256"
            },
            {
              "internalType": "enum BasicOrderType",
              "name": "basicOrderType",
              "type": "uint8"
            },
            {
              "internalType": "uint256",
              "name": "startTime",
              "type": "uint256"
            },
            {
              "internalType": "uint256",
              "name": "endTime",
              "type": "uint256"
            },
            {
              "internalType": "bytes32",
              "name": "zoneHash",
              "type": "bytes32"
            },
            {
              "internalType": "uint256",
              "name": "salt",
              "type": "uint256"
            },
            {
              "internalType": "bytes32",
              "name": "offererConduitKey",
              "type": "bytes32"
            },
            {
              "internalType": "bytes32",
              "name": "fulfillerConduitKey",
              "type": "bytes32"
            },
            {
              "internalType": "uint256",
              "name": "totalOriginalAdditionalRecipients",
              "type": "uint256"
            },
            {
              "components": [
                {
                  "internalType": "uint256",
                  "name": "amount",
                  "type": "uint256"
                },
                {
                  "internalType": "address payable",
                  "name": "recipient",
                  "type": "address"
                }
              ],
              "internalType": "struct AdditionalRecipient[]",
              "name": "additionalRecipients",
              "type": "tuple[]"
            },
            {
              "internalType": "bytes",
              "name": "signature",
              "type": "bytes"
            }
          ],
          "internalType": "struct BasicOrderParameters",
          "name": "parameters",
          "type": "tuple"
        }
      ],
      "name": "fulfillBasicOrder",
      "outputs": [
        {
          "internalType": "bool",
          "name": "fulfilled",
          "type": "bool"
        }
      ],
      "stateMutability": "payable",
      "type": "function"
    },
    {
      "inputs": [
        {
          "components": [
            {
              "components": [
                {
                  "internalType": "address",
                  "name": "offerer",
                  "type": "address"
                },
                {
                  "internalType": "address",
                  "name": "zone",
                  "type": "address"
                },
                {
                  "components": [
                    {
                      "internalType": "enum ItemType",
                      "name": "itemType",
                      "type": "uint8"
                    },
                    {
                      "internalType": "address",
                      "name": "token",
                      "type": "address"
                    },
                    {
                      "internalType": "uint256",
                      "name": "identifierOrCriteria",
                      "type": "uint256"
                    },
                    {
                      "internalType": "uint256",
                      "name": "startAmount",
                      "type": "uint256"
                    },
                    {
                      "internalType": "uint256",
                      "name": "endAmount",
                      "type": "uint256"
                    }
                  ],
                  "internalType": "struct OfferItem[]",
                  "name": "offer",
                  "type": "tuple[]"
                },
                {
                  "components": [
                    {
                      "internalType": "enum ItemType",
                      "name": "itemType",
                      "type": "uint8"
                    },
                    {
                      "internalType": "address",
                      "name": "token",
                      "type": "address"
                    },
                    {
                      "internalType": "uint256",
                      "name": "identifierOrCriteria",
                      "type": "uint256"
                    },
                    {
                      "internalType": "uint256",
                      "name": "startAmount",
                      "type": "uint256"
                    },
                    {
                      "internalType": "uint256",
                      "name": "endAmount",
                      "type": "uint256"
                    },
                    {
                      "internalType": "address payable",
                      "name": "recipient",
                      "type": "address"
                    }
                  ],
                  "internalType": "struct ConsiderationItem[]",
                  "name": "consideration",
                  "type": "tuple[]"
                },
                {
                  "internalType": "enum OrderType",
                  "name": "orderType",
                  "type": "uint8"
                },
                {
                  "internalType": "uint256",
                  "name": "startTime",
                  "type": "uint256"
                },
                {
                  "internalType": "uint256",
                  "name": "endTime",
                  "type": "uint256"
                },
                {
                  "internalType": "bytes32",
                  "name": "zoneHash",
                  "type": "bytes32"
                },
                {
                  "internalType": "uint256",
                  "name": "salt",
                  "type": "uint256"
                },
                {
                  "internalType": "bytes32",
                  "name": "conduitKey",
                  "type": "bytes32"
                },
                {
                  "internalType": "uint256",
                  "name": "totalOriginalConsiderationItems",
                  "type": "uint256"
                }
              ],
              "internalType": "struct OrderParameters",
              "name": "parameters",
              "type": "tuple"
            },
            {
              "internalType": "bytes",
              "name": "signature",
              "type": "bytes"
            }
          ],
          "internalType": "struct Order",
          "name": "order",
          "type": "tuple"
        },
        {
          "internalType": "bytes32",
          "name": "fulfillerConduitKey",
          "type": "bytes32"
        }
      ],
      "name": "fulfillOrder",
      "outputs": [
        {
          "internalType": "bool",
          "name": "fulfilled",
          "type": "bool"
        }
      ],
      "stateMutability": "payable",
      "type": "function"
    },
    {
      "inputs": [
        {
          "internalType": "address",
          "name": "offerer",
          "type": "address"
        }
      ],
      "name": "getCounter",
      "outputs": [
        {
          "internalType": "uint256",
          "name": "counter",
          "type": "uint256"
        }
      ],
      "stateMutability": "view",
      "type": "function"
    },
    {
      "inputs": [
        {
          "components": [
            {
              "internalType": "address",
              "name": "offerer",
              "type": "address"
            },
            {
              "internalType": "address",
              "name": "zone",
              "type": "address"
            },
            {
              "components": [
                {
                  "internalType": "enum ItemType",
                  "name": "itemType",
                  "type": "uint8"
                },
                {
                  "internalType": "address",
                  "name": "token",
                  "type": "address"
                },
                {
                  "internalType": "uint256",
                  "name": "identifierOrCriteria",
                  "type": "uint256"
                },
                {
                  "internalType": "uint256",
                  "name": "startAmount",
                  "type": "uint256"
                },
                {
                  "internalType": "uint256",
                  "name": "endAmount",
                  "type": "uint256"
                }
              ],
              "internalType": "struct OfferItem[]",
              "name": "offer",
              "type": "tuple[]"
            },
            {
              "components": [
                {
                  "internalType": "enum ItemType",
                  "name": "itemType",
                  "type": "uint8"
                },
                {
                  "internalType": "address",
                  "name": "token",
                  "type": "address"
                },
                {
                  "internalType": "uint256",
                  "name": "identifierOrCriteria",
                  "type": "uint256"
                },
                {
                  "internalType": "uint256",
                  "name": "startAmount",
                  "type": "uint256"
                },
                {
                  "internalType": "uint256",
                  "name": "endAmount",
                  "type": "uint256"
                },
                {
                  "internalType": "address payable",
                  "name": "recipient",
                  "type": "address"
                }
              ],
              "internalType": "struct ConsiderationItem[]",
              "name": "consideration",
              "type": "tuple[]"
            },
            {
              "internalType": "enum OrderType",
              "name": "orderType",
              "type": "uint8"
            },
            {
              "internalType": "uint256",
              "name": "startTime",
              "type": "uint256"
            },
            {
              "internalType": "uint256",
              "name": "endTime",
              "type": "uint256"
            },
            {
              "internalType": "bytes32",
              "name": "zoneHash",
              "type": "bytes32"
            },
            {
              "internalType": "uint256",
              "name": "salt",
              "type": "uint256"
            },
            {
              "internalType": "bytes32",
              "name": "conduitKey",
              "type": "bytes32"
            },
            {
              "internalType": "uint256",
              "name": "counter",
              "type": "uint256"
            }
          ],
          "internalType": "struct OrderComponents",
          "name": "order",
          "type": "tuple"
        }
      ],
      "name": "getOrderHash",
      "outputs": [
        {
          "internalType": "bytes32",
          "name": "orderHash",
          "type": "bytes32"
        }
      ],
      "stateMutability": "view",
      "type": "function"
    },
    {
      "inputs": [
        {
          "internalType": "bytes32",
          "name": "orderHash",
          "type": "bytes32"
        }
      ],
      "name": "getOrderStatus",
      "outputs": [
        {
          "internalType": "bool",
          "name": "isValidated",
          "type": "bool"
        },
        {
          "internalType": "bool",
          "name": "isCancelled",
          "type": "bool"
        },
        {
          "internalType": "uint256",
          "name": "totalFilled",
          "type": "uint256"
        },
        {
          "internalType": "uint256",
          "name": "totalSize",
          "type": "uint256"
        }
      ],
      "stateMutability": "view",
      "type": "function"
    },
    {
      "inputs": [],
      "name": "incrementCounter",
      "outputs": [
        {
          "internalType": "uint256",
          "name": "newCounter",
          "type": "uint256"
        }
      ],
      "stateMutability": "nonpayable",
      "type": "function"
    },
    {
      "inputs": [],
      "name": "information",
      "outputs": [
        {
          "internalType": "string",
          "name": "version",
          "type": "string"
        },
        {
          "internalType": "bytes32",
          "name": "domainSeparator",
          "type": "bytes32"
        },
        {
          "internalType": "address",
          "name": "conduitController",
          "type": "address"
        }
      ],
      "stateMutability": "view",
      "type": "function"
    },
    {
      "inputs": [
        {
          "components": [
            {
              "components": [
                {
                  "internalType": "address",
                  "name": "offerer",
                  "type": "address"
                },
                {
                  "internalType": "address",
                  "name": "zone",
                  "type": "address"
                },
                {
                  "components": [
                    {
                      "internalType": "enum ItemType",
                      "name": "itemType",
                      "type": "uint8"
                    },
                    {
                      "internalType": "address",
                      "name": "token",
                      "type": "address"
                    },
                    {
                      "internalType": "uint256",
                      "name": "identifierOrCriteria",
                      "type": "uint256"
                    },
                    {
                      "internalType": "uint256",
                      "name": "startAmount",
                      "type": "uint256"
                    },
                    {
                      "internalType": "uint256",
                      "name": "endAmount",
                      "type": "uint256"
                    }
                  ],
                  "internalType": "struct OfferItem[]",
                  "name": "offer",
                  "type": "tuple[]"
                },
                {
                  "components": [
                    {
                      "internalType": "enum ItemType",
                      "name": "itemType",
                      "type": "uint8"
                    },
                    {
                      "internalType": "address",
                      "name": "token",
                      "type": "address"
                    },
                    {
                      "internalType": "uint256",
                      "name": "identifierOrCriteria",
                      "type": "uint256"
                    },
                    {
                      "internalType": "uint256",
                      "name": "startAmount",
                      "type": "uint256"
                    },
                    {
                      "internalType": "uint256",
                      "name": "endAmount",
                      "type": "uint256"
                    },
                    {
                      "internalType": "address payable",
                      "name": "recipient",
                      "type": "address"
                    }
                  ],
                  "internalType": "struct ConsiderationItem[]",
                  "name": "consideration",
                  "type": "tuple[]"
                },
                {
                  "internalType": "enum OrderType",
                  "name": "orderType",
                  "type": "uint8"
                },
                {
                  "internalType": "uint256",
                  "name": "startTime",
                  "type": "uint256"
                },
                {
                  "internalType": "uint256",
                  "name": "endTime",
                  "type": "uint256"
                },
                {
                  "internalType": "bytes32",
                  "name": "zoneHash",
                  "type": "bytes32"
                },
                {
                  "internalType": "uint256",
                  "name": "salt",
                  "type": "uint256"
                },
                {
                  "internalType": "bytes32",
                  "name": "conduitKey",
                  "type": "bytes32"
                },
                {
                  "internalType": "uint256",
                  "name": "totalOriginalConsiderationItems",
                  "type": "uint256"
                }
              ],
              "internalType": "struct OrderParameters",
              "name": "parameters",
              "type": "tuple"
            },
            {
              "internalType": "uint120",
              "name": "numerator",
              "type": "uint120"
            },
            {
              "internalType": "uint120",
              "name": "denominator",
              "type": "uint120"
            },
            {
              "internalType": "bytes",
              "name": "signature",
              "type": "bytes"
            },
            {
              "internalType": "bytes",
              "name": "extraData",
              "type": "bytes"
            }
          ],
          "internalType": "struct AdvancedOrder[]",
          "name": "advancedOrders",
          "type": "tuple[]"
        },
        {
          "components": [
            {
              "internalType": "uint256",
              "name": "orderIndex",
              "type": "uint256"
            },
            {
              "internalType": "enum Side",
              "name": "side",
              "type": "uint8"
            },
            {
              "internalType": "uint256",
              "name": "index",
              "type": "uint256"
            },
            {
              "internalType": "uint256",
              "name": "identifier",
              "type": "uint256"
            },
            {
              "internalType": "bytes32[]",
              "name": "criteriaProof",
              "type": "bytes32[]"
            }
          ],
          "internalType": "struct CriteriaResolver[]",
          "name": "criteriaResolvers",
          "type": "tuple[]"
        },
        {
          "components": [
            {
              "components": [
                {
                  "internalType": "uint256",
                  "name": "orderIndex",
                  "type": "uint256"
                },
                {
                  "internalType": "uint256",
                  "name": "itemIndex",
                  "type": "uint256"
                }
              ],
              "internalType": "struct FulfillmentComponent[]",
              "name": "offerComponents",
              "type": "tuple[]"
            },
            {
              "components": [
                {
                  "internalType": "uint256",
                  "name": "orderIndex",
                  "type": "uint256"
                },
                {
                  "internalType": "uint256",
                  "name": "itemIndex",
                  "type": "uint256"
                }
              ],
              "internalType": "struct FulfillmentComponent[]",
              "name": "considerationComponents",
              "type": "tuple[]"
            }
          ],
          "internalType": "struct Fulfillment[]",
          "name": "fulfillments",
          "type": "tuple[]"
        }
      ],
      "name": "matchAdvancedOrders",
      "outputs": [
        {
          "components": [
            {
              "components": [
                {
                  "internalType": "enum ItemType",
                  "name": "itemType",
                  "type": "uint8"
                },
                {
                  "internalType": "address",
                  "name": "token",
                  "type": "address"
                },
                {
                  "internalType": "uint256",
                  "name": "identifier",
                  "type": "uint256"
                },
                {
                  "internalType": "uint256",
                  "name": "amount",
                  "type": "uint256"
                },
                {
                  "internalType": "address payable",
                  "name": "recipient",
                  "type": "address"
                }
              ],
              "internalType": "struct ReceivedItem",
              "name": "item",
              "type": "tuple"
            },
            {
              "internalType": "address",
              "name": "offerer",
              "type": "address"
            },
            {
              "internalType": "bytes32",
              "name": "conduitKey",
              "type": "bytes32"
            }
          ],
          "internalType": "struct Execution[]",
          "name": "executions",
          "type": "tuple[]"
        }
      ],
      "stateMutability": "payable",
      "type": "function"
    },
    {
      "inputs": [
        {
          "components": [
            {
              "components": [
                {
                  "internalType": "address",
                  "name": "offerer",
                  "type": "address"
                },
                {
                  "internalType": "address",
                  "name": "zone",
                  "type": "address"
                },
                {
                  "components": [
                    {
                      "internalType": "enum ItemType",
                      "name": "itemType",
                      "type": "uint8"
                    },
                    {
                      "internalType": "address",
                      "name": "token",
                      "type": "address"
                    },
                    {
                      "internalType": "uint256",
                      "name": "identifierOrCriteria",
                      "type": "uint256"
                    },
                    {
                      "internalType": "uint256",
                      "name": "startAmount",
                      "type": "uint256"
                    },
                    {
                      "internalType": "uint256",
                      "name": "endAmount",
                      "type": "uint256"
                    }
                  ],
                  "internalType": "struct OfferItem[]",
                  "name": "offer",
                  "type": "tuple[]"
                },
                {
                  "components": [
                    {
                      "internalType": "enum ItemType",
                      "name": "itemType",
                      "type": "uint8"
                    },
                    {
                      "internalType": "address",
                      "name": "token",
                      "type": "address"
                    },
                    {
                      "internalType": "uint256",
                      "name": "identifierOrCriteria",
                      "type": "uint256"
                    },
                    {
                      "internalType": "uint256",
                      "name": "startAmount",
                      "type": "uint256"
                    },
                    {
                      "internalType": "uint256",
                      "name": "endAmount",
                      "type": "uint256"
                    },
                    {
                      "internalType": "address payable",
                      "name": "recipient",
                      "type": "address"
                    }
                  ],
                  "internalType": "struct ConsiderationItem[]",
                  "name": "consideration",
                  "type": "tuple[]"
                },
                {
                  "internalType": "enum OrderType",
                  "name": "orderType",
                  "type": "uint8"
                },
                {
                  "internalType": "uint256",
                  "name": "startTime",
                  "type": "uint256"
                },
                {
                  "internalType": "uint256",
                  "name": "endTime",
                  "type": "uint256"
                },
                {
                  "internalType": "bytes32",
                  "name": "zoneHash",
                  "type": "bytes32"
                },
                {
                  "internalType": "uint256",
                  "name": "salt",
                  "type": "uint256"
                },
                {
                  "internalType": "bytes32",
                  "name": "conduitKey",
                  "type": "bytes32"
                },
                {
                  "internalType": "uint256",
                  "name": "totalOriginalConsiderationItems",
                  "type": "uint256"
                }
              ],
              "internalType": "struct OrderParameters",
              "name": "parameters",
              "type": "tuple"
            },
            {
              "internalType": "bytes",
              "name": "signature",
              "type": "bytes"
            }
          ],
          "internalType": "struct Order[]",
          "name": "orders",
          "type": "tuple[]"
        },
        {
          "components": [
            {
              "components": [
                {
                  "internalType": "uint256",
                  "name": "orderIndex",
                  "type": "uint256"
                },
                {
                  "internalType": "uint256",
                  "name": "itemIndex",
                  "type": "uint256"
                }
              ],
              "internalType": "struct FulfillmentComponent[]",
              "name": "offerComponents",
              "type": "tuple[]"
            },
            {
              "components": [
                {
                  "internalType": "uint256",
                  "name": "orderIndex",
                  "type": "uint256"
                },
                {
                  "internalType": "uint256",
                  "name": "itemIndex",
                  "type": "uint256"
                }
              ],
              "internalType": "struct FulfillmentComponent[]",
              "name": "considerationComponents",
              "type": "tuple[]"
            }
          ],
          "internalType": "struct Fulfillment[]",
          "name": "fulfillments",
          "type": "tuple[]"
        }
      ],
      "name": "matchOrders",
      "outputs": [
        {
          "components": [
            {
              "components": [
                {
                  "internalType": "enum ItemType",
                  "name": "itemType",
                  "type": "uint8"
                },
                {
                  "internalType": "address",
                  "name": "token",
                  "type": "address"
                },
                {
                  "internalType": "uint256",
                  "name": "identifier",
                  "type": "uint256"
                },
                {
                  "internalType": "uint256",
                  "name": "amount",
                  "type": "uint256"
                },
                {
                  "internalType": "address payable",
                  "name": "recipient",
                  "type": "address"
                }
              ],
              "internalType": "struct ReceivedItem",
              "name": "item",
              "type": "tuple"
            },
            {
              "internalType": "address",
              "name": "offerer",
              "type": "address"
            },
            {
              "internalType": "bytes32",
              "name": "conduitKey",
              "type": "bytes32"
            }
          ],
          "internalType": "struct Execution[]",
          "name": "executions",
          "type": "tuple[]"
        }
      ],
      "stateMutability": "payable",
      "type": "function"
    },
    {
      "inputs": [],
      "name": "name",
      "outputs": [
        {
          "internalType": "string",
          "name": "contractName",
          "type": "string"
        }
      ],
      "stateMutability": "pure",
      "type": "function"
    },
    {
      "inputs": [
        {
          "components": [
            {
              "components": [
                {
                  "internalType": "address",
                  "name": "offerer",
                  "type": "address"
                },
                {
                  "internalType": "address",
                  "name": "zone",
                  "type": "address"
                },
                {
                  "components": [
                    {
                      "internalType": "enum ItemType",
                      "name": "itemType",
                      "type": "uint8"
                    },
                    {
                      "internalType": "address",
                      "name": "token",
                      "type": "address"
                    },
                    {
                      "internalType": "uint256",
                      "name": "identifierOrCriteria",
                      "type": "uint256"
                    },
                    {
                      "internalType": "uint256",
                      "name": "startAmount",
                      "type": "uint256"
                    },
                    {
                      "internalType": "uint256",
                      "name": "endAmount",
                      "type": "uint256"
                    }
                  ],
                  "internalType": "struct OfferItem[]",
                  "name": "offer",
                  "type": "tuple[]"
                },
                {
                  "components": [
                    {
                      "internalType": "enum ItemType",
                      "name": "itemType",
                      "type": "uint8"
                    },
                    {
                      "internalType": "address",
                      "name": "token",
                      "type": "address"
                    },
                    {
                      "internalType": "uint256",
                      "name": "identifierOrCriteria",
                      "type": "uint256"
                    },
                    {
                      "internalType": "uint256",
                      "name": "startAmount",
                      "type": "uint256"
                    },
                    {
                      "internalType": "uint256",
                      "name": "endAmount",
                      "type": "uint256"
                    },
                    {
                      "internalType": "address payable",
                      "name": "recipient",
                      "type": "address"
                    }
                  ],
                  "internalType": "struct ConsiderationItem[]",
                  "name": "consideration",
                  "type": "tuple[]"
                },
                {
                  "internalType": "enum OrderType",
                  "name": "orderType",
                  "type": "uint8"
                },
                {
                  "internalType": "uint256",
                  "name": "startTime",
                  "type": "uint256"
                },
                {
                  "internalType": "uint256",
                  "name": "endTime",
                  "type": "uint256"
                },
                {
                  "internalType": "bytes32",
                  "name": "zoneHash",
                  "type": "bytes32"
                },
                {
                  "internalType": "uint256",
                  "name": "salt",
                  "type": "uint256"
                },
                {
                  "internalType": "bytes32",
                  "name": "conduitKey",
                  "type": "bytes32"
                },
                {
                  "internalType": "uint256",
                  "name": "totalOriginalConsiderationItems",
                  "type": "uint256"
                }
              ],
              "internalType": "struct OrderParameters",
              "name": "parameters",
              "type": "tuple"
            },
            {
              "internalType": "bytes",
              "name": "signature",
              "type": "bytes"
            }
          ],
          "internalType": "struct Order[]",
          "name": "orders",
          "type": "tuple[]"
        }
      ],
      "name": "validate",
      "outputs": [
        {
          "internalType": "bool",
          "name": "validated",
          "type": "bool"
        }
      ],
      "stateMutability": "nonpayable",
      "type": "function"
    }
  ],
  "bytecode": {
    "object": "0x6101c06040523480156200001257600080fd5b5060405162006a5938038062006a598339810160408190526200003591620005ca565b8080808080808080806200004862000130565b610120526101005260e05260c081815260a0838152608085815246610140819052604080516020818101979097528082019890985260608801969096529086015230858201528351808603909101815293019091528151910120610160526001600160a01b03811661018081905260408051630a96ad3960e01b81528151630a96ad39926004808401939192918290030181865afa158015620000ef573d6000803e3d6000fd5b505050506040513d601f19601f82011682018060405250810190620001159190620005fc565b506101a05250506001600055506200068c9650505050505050565b600080808080806200016260408051808201909152600d81526c21b7b739b4b232b930ba34b7b760991b602082015290565b80516020918201206040805180820182526003815262312e3160e81b90840152519097507f722c0e0c80487266e8c6a45e3a1a803aab23378a9c32e6ebe029d4fad7bfc96596506000916200026791016909ecccccae492e8cada560b31b81526e1d5a5b9d0e081a5d195b551e5c194b608a1b600a8201526d1859191c995cdcc81d1bdad95b8b60921b60198201527f75696e74323536206964656e7469666965724f7243726974657269612c00000060278201527f75696e74323536207374617274416d6f756e742c0000000000000000000000006044820152701d5a5b9d0c8d4d88195b99105b5bdd5b9d607a1b6058820152602960f81b6069820152606a0190565b60408051601f1981840301815282825271086dedce6d2c8cae4c2e8d2dedc92e8cada560731b60208401526e1d5a5b9d0e081a5d195b551e5c194b608a1b60328401526d1859191c995cdcc81d1bdad95b8b60921b60418401527f75696e74323536206964656e7469666965724f7243726974657269612c000000604f8401527f75696e74323536207374617274416d6f756e742c000000000000000000000000606c840152711d5a5b9d0c8d4d88195b99105b5bdd5b9d0b60721b6080840152701859191c995cdcc81c9958da5c1a595b9d607a1b6092840152602960f81b60a384018190528251808503608401815260a485019093526f09ee4c8cae486dedae0dedccadce8e6560831b60c48501526f1859191c995cdcc81bd999995c995c8b60821b60d48501526c1859191c995cdcc81e9bdb994b609a1b60e48501527113d999995c925d195b56d7481bd999995c8b60721b60f18501527f436f6e73696465726174696f6e4974656d5b5d20636f6e73696465726174696f610103850152611b8b60f21b6101238501526f1d5a5b9d0e081bdc99195c951e5c194b60821b610125850152711d5a5b9d0c8d4d881cdd185c9d151a5b594b60721b6101358501526f1d5a5b9d0c8d4d88195b99151a5b594b60821b61014785015270189e5d195ccccc881e9bdb9952185cda0b607a1b6101578501526c1d5a5b9d0c8d4d881cd85b1d0b609a1b6101688501527f6279746573333220636f6e647569744b65792c000000000000000000000000006101758501526e3ab4b73a191a9b1031b7bab73a32b960891b6101888501526101978401529250906000906101980160408051601f19818403018152908290526c08a92a06e626488dedac2d2dc5609b1b60208301526b1cdd1c9a5b99c81b985b594b60a21b602d8301526e1cdd1c9a5b99c81d995c9cda5bdb8b608a1b60398301526f1d5a5b9d0c8d4d8818da185a5b92590b60821b60488301527f6164647265737320766572696679696e67436f6e7472616374000000000000006058830152602960f81b6071830152915060720160408051601f19818403018152908290528051602091820120855186830120855186840120919a5098509650620005a791839185918791016200065f565b604051602081830303815290604052805190602001209350505050909192939495565b600060208284031215620005dd57600080fd5b81516001600160a01b0381168114620005f557600080fd5b9392505050565b600080604083850312156200061057600080fd5b505080516020909101519092909150565b6000815160005b8181101562000644576020818501810151868301520162000628565b8181111562000654576000828601525b509290920192915050565b6000620006836200067c62000675848862000621565b8662000621565b8462000621565b95945050505050565b60805160a05160c05160e05161010051610120516101405161016051610180516101a051616335620007246000396000613f94015260008181610e210152613f52015260006128c1015260006127f10152600081816109670152612adc0152600081816108ba015261292d0152600081816108350152612a480152600061281f0152600061286d0152600061284501526163356000f3fe6080604052600436106100e85760003560e01c8063a81744041161008a578063f07ec37311610059578063f07ec373146102a6578063f47b7740146102c6578063fb0f3ee1146102ea578063fd9f1e10146102fd57600080fd5b8063a81744041461025a578063b3a34c4c1461026d578063e7acab2414610280578063ed98a5741461029357600080fd5b80635b34b966116100c65780635b34b966146101c657806379df72bd146101e957806387201b4114610209578063881477321461022a57600080fd5b806306fdde03146100ed57806346423aa71461011857806355944a42146101a6575b600080fd5b3480156100f957600080fd5b5061010261031d565b60405161010f9190614c67565b60405180910390f35b34801561012457600080fd5b50610184610133366004614c7a565b60009081526002602052604090205460ff808216926101008304909116916effffffffffffffffffffffffffffff620100008204811692710100000000000000000000000000000000009092041690565b604080519415158552921515602085015291830152606082015260800161010f565b6101b96101b43660046152bd565b61032c565b60405161010f9190615456565b3480156101d257600080fd5b506101db61034f565b60405190815260200161010f565b3480156101f557600080fd5b506101db610204366004615469565b610359565b61021c6102173660046154a5565b61050a565b60405161010f929190615586565b34801561023657600080fd5b5061024a6102453660046155df565b61055d565b604051901515815260200161010f565b6101b9610268366004615621565b610570565b61024a61027b36600461568d565b6105ee565b61024a61028e3660046156d7565b610660565b61021c6102a1366004615767565b6106a1565b3480156102b257600080fd5b506101db6102c1366004615810565b61072b565b3480156102d257600080fd5b506102db610756565b60405161010f9392919061582d565b61024a6102f836600461586c565b61076e565b34801561030957600080fd5b5061024a6103183660046155df565b610779565b6060610327610785565b905090565b60606103438661033c86886158a8565b85856107a3565b90505b95945050505050565b60006103276107c0565b604080516101608101909152600090610504908061037a6020860186615810565b73ffffffffffffffffffffffffffffffffffffffff1681526020018460200160208101906103a89190615810565b73ffffffffffffffffffffffffffffffffffffffff1681526020016103d060408601866159dd565b808060200260200160405190810160405280939291908181526020016000905b8282101561041c5761040d60a08302860136819003810190615a44565b815260200190600101906103f0565b50505091835250506020016104346060860186615a60565b808060200260200160405190810160405280939291908181526020016000905b828210156104805761047160c08302860136819003810190615ac7565b81526020019060010190610454565b505050918352505060200161049b60a0860160808701615ae3565b60038111156104ac576104ac615352565b81526020018460a0013581526020018460c0013581526020018460e001358152602001846101000135815260200184610120013581526020018480606001906104f59190615a60565b9091525061014084013561081d565b92915050565b60608061054a8c61051b8c8e6158a8565b8b8b8b8b8b73ffffffffffffffffffffffffffffffffffffffff8c1615610542578b610544565b335b8b6109bd565b915091509a509a98505050505050505050565b600061056983836109ff565b9392505050565b60606105e361057f8686610b9c565b60408051600080825260208201909252906105db565b6105c86040805160a081019091526000808252602082019081526020016000815260200160008152602001606081525090565b8152602001906001900390816105955790505b5085856107a3565b90505b949350505050565b60006105696105fc84610c58565b6040805160008082526020820190925290610658565b6106456040805160a081019091526000808252602082019081526020016000815260200160008152602001606081525090565b8152602001906001900390816106125790505b508433610d13565b600061034361066e87615afe565b61067886886158a8565b8573ffffffffffffffffffffffffffffffffffffffff86161561069b5785610d13565b33610d13565b60608061071a6106b18b8b610b9c565b604080516000808252602082019092529061070d565b6106fa6040805160a081019091526000808252602082019081526020016000815260200160008152602001606081525090565b8152602001906001900390816106c75790505b508a8a8a8a8a338b6109bd565b915091509850989650505050505050565b73ffffffffffffffffffffffffffffffffffffffff8116600090815260016020526040812054610504565b6060600080610763610e00565b925092509250909192565b600061050482610e7b565b6000610569838361117a565b6060602080526d0d436f6e73696465726174696f6e604d5260606020f35b60606107b585856001885160006113f7565b6105e385848461176e565b60006107ca611907565b503360008181526001602081815260409283902080549092019182905591518181529092917f721c20121297512b72821b97f5326877ea8ecf4bb9948fea5bfcb6453074d37f910160405180910390a290565b610140820151604080519084015180516000939284927f000000000000000000000000000000000000000000000000000000000000000092602090910190845b818110156108a85782517fffffffffffffffffffffffffffffffffffffffffffffffffffffffffffffffe001805186825260c08220865290526020938401939092019160010161085d565b506020810260405120945050505060007f00000000000000000000000000000000000000000000000000000000000000009150604051602060608901510160005b868110156109345781517fffffffffffffffffffffffffffffffffffffffffffffffffffffffffffffffe001805186825260e0822085529052602092830192909101906001016108e9565b5050604080516020870290207fffffffffffffffffffffffffffffffffffffffffffffffffffffffffffffffe08a0180517f00000000000000000000000000000000000000000000000000000000000000008252928b01805197815260608c018051938152610140909c019a8b5261018082209390915295909552939097525050925250919050565b6060806109ce8b8b600086886113f7565b6109ed8b6109dc8a8c615b59565b6109e6898b615b59565b8888611945565b909c909b509950505050505050505050565b6000610a09611907565b6000808084815b81811015610b8e5736888883818110610a2b57610a2b615c2c565b9050602002810190610a3d9190615c5b565b905036610a4a8280615c99565b9050610a596020820182615810565b9450610a6c610a6782615ccd565b611bc6565b60008181526002602052604081209850909650610a8e90879089906001611c0e565b50865460ff16610b8457610ae48587610aaa6020860186615cd9565b8080601f016020809104026020016040519081016040528093929190818152602001838380828437600092019190915250611d3c92505050565b86547fffffffffffffffffffffffffffffffffffffffffffffffffffffffffffffff00166001178755610b1d6040820160208301615810565b73ffffffffffffffffffffffffffffffffffffffff168573ffffffffffffffffffffffffffffffffffffffff167ffde361574a066b44b3b5fe98a87108b7565e327327954c4faeea56a4e6491a0a88604051610b7b91815260200190565b60405180910390a35b5050600101610a10565b506001979650505050505050565b6060818067ffffffffffffffff811115610bb857610bb8614c93565b604051908082528060200260200182016040528015610bf157816020015b610bde614b31565b815260200190600190039081610bd65790505b50915060005b81811015610c5057610c2b858583818110610c1457610c14615c2c565b9050602002810190610c269190615c5b565b610c58565b838281518110610c3d57610c3d615c2c565b6020908102919091010152600101610bf7565b505092915050565b610c60614b31565b6040805160a0810190915280610c768480615c99565b610c7f90615ccd565b815260200160016effffffffffffffffffffffffffffff16815260200160016effffffffffffffffffffffffffffff168152602001838060200190610cc49190615cd9565b8080601f01602080910402602001604051908101604052809392919081815260200183838082843760009201829052509385525050604080516020818101909252928352909201525092915050565b6000610d1d611db9565b60606000806000610d318989600187611dc8565b604080516001808252818301909252939650919450925060009190816020015b610d59614b31565b815260200190600190039081610d515790505090508981600081518110610d8257610d82615c2c565b6020026020010181905250610d97818a612172565b600081600081518110610dac57610dac615c2c565b6020026020010151600001519050610dc78185858c8c61256e565b610de585826000015183602001518b8560400151866060015161276e565b610def6001600055565b5060019a9950505050505050505050565b6060600080610e0d6127ed565b6040805160038082528183019092529193507f0000000000000000000000000000000000000000000000000000000000000000925060208201818036833750507f312e3100000000000000000000000000000000000000000000000000000000006020830152509391925090565b600061012435600281901c90600316600182113415811480610ed0576040517fa61be9f00000000000000000000000000000000000000000000000000000000081523460048201526024015b60405180910390fd5b5060008060008060038711915060a082026024013593506002871460028811600289030201905060018101820260028615028801039250610f158987838888886128e3565b506101c46020820201356000856005811115610f3357610f33615352565b03610ffc5760208901803590610f49908b615810565b73ffffffffffffffffffffffffffffffffffffffff161715610f97576040517f6ab37ce700000000000000000000000000000000000000000000000000000000815260040160405180910390fd5b610fcc83610fab60c08c0160a08d01615810565b610fbb60808d0160608e01615810565b338d60c001358e60e0013587612c26565b610ff760408a0135610fe460808c0160608d01615810565b610ff26102008d018d615d3e565b612d0c565b611161565b604080516020808252818301909252600091602082018180368337019050509050600288600581111561103157611031615352565b036110705761106b61104960c08c0160a08d01615810565b61105960808d0160608e01615810565b338d60c001358e60e001358787612df9565b61113b565b600388600581111561108457611084615352565b036110be5761106b61109c60c08c0160a08d01615810565b6110ac60808d0160608e01615810565b338d60c001358e60e001358787612e5f565b60048860058111156110d2576110d2615352565b036111095761106b6110e760208c018c615810565b336110f860808e0160608f01615810565b8d602001358e604001358787612df9565b61113b61111960208c018c615810565b3361112a60808e0160608f01615810565b8d602001358e604001358787612e5f565b61115661114e60808c0160608d01615810565b8b8584612e95565b61115f81612fcf565b505b61116b6001600055565b50600198975050505050505050565b6000611184611907565b6000808084815b81811015610b8e57368888838181106111a6576111a6615c2c565b90506020028101906111b89190615c99565b90506111c76020820182615810565b94506111d96040820160208301615810565b93503373ffffffffffffffffffffffffffffffffffffffff86161480159061121757503373ffffffffffffffffffffffffffffffffffffffff851614155b1561124e576040517f80ec737400000000000000000000000000000000000000000000000000000000815260040160405180910390fd5b60006113576040518061016001604052808873ffffffffffffffffffffffffffffffffffffffff1681526020018773ffffffffffffffffffffffffffffffffffffffff1681526020018480604001906112a791906159dd565b808060200260200160405190810160405280939291908181526020016000905b828210156112f3576112e460a08302860136819003810190615a44565b815260200190600101906112c7565b505050918352505060200161130b6060860186615a60565b808060200260200160405190810160405280939291908181526020016000905b828210156104805761134860c08302860136819003810190615ac7565b8152602001906001019061132b565b6000818152600260205260409081902080547fffffffffffffffffffffffffffffffffffffffffffffffffffffffffffff000016610100178155905190985090915073ffffffffffffffffffffffffffffffffffffffff80871691908816907f6bacc01dbe442496068f7d234edd811f1a5f833243e0aec824f86ab861f3c90d906113e59085815260200190565b60405180910390a3505060010161118b565b6113ff611db9565b845160008167ffffffffffffffff81111561141c5761141c614c93565b604051908082528060200260200182016040528015611445578160200160208202803683370190505b506000808252909150601d6045823560e01c061160011b905b8381101561168c57600089828151811061147a5761147a615c2c565b602002602001015190508660000361149f576000602090910152600181018352611684565b60008060006114b0848d8d8a611dc8565b925092509250600185018752816000036114d7575050600060209092019190915250611684565b828786815181106114ea576114ea615c2c565b6020908102919091010152835160a081015160c082015160409092015180517fffffffffffffffffffffffffffffffffffffffffffffffffffffffffffffffff909d019c91929160005b818110156115d057600083828151811061155057611550615c2c565b602002602001015190508051158c179b50600061157289898460800151612ff8565b9050816080015182606001510361158f57606082018190526115a4565b61159e89898460600151612ff8565b60608301525b6080820181905260608201516115be908289896000613053565b60609092019190915250600101611534565b50875160600151805160005b818110156116785760008382815181106115f8576115f8615c2c565b6020026020010151905060006116138b8b8460800151612ff8565b905081608001518260600151036116305760608201819052611645565b61163f8b8b8460600151612ff8565b60608301525b60808201819052606082015161165f90828b8b6001613053565b60608301525060a08101516080909101526001016115dc565b50505050505050505050505b60010161145e565b50806003036116c7576040517f12d3f5a300000000000000000000000000000000000000000000000000000000815260040160405180910390fd5b6116d18888612172565b60005b83811015611763576000801b8382815181106116f2576116f2615c2c565b6020026020010151031561175b57600089828151811061171457611714615c2c565b602002602001015160000151905061175984838151811061173757611737615c2c565b602002602001015182600001518360200151898560400151866060015161276e565b505b6001016116d4565b505050505050505050565b6060818067ffffffffffffffff81111561178a5761178a614c93565b60405190808252806020026020018201604052801561181657816020015b60408051610100810182526000606082018181526080830182905260a0830182905260c0830182905260e08301829052825260208083018290529282015282527fffffffffffffffffffffffffffffffffffffffffffffffffffffffffffffffff9092019101816117a85790505b5091506000805b828110156118e5573686868381811061183857611838615c2c565b905060200281019061184a9190615c5b565b9050600061186e8961185c8480615d3e565b6118696020870187615d3e565b6130a8565b9050806020015173ffffffffffffffffffffffffffffffffffffffff1681600001516080015173ffffffffffffffffffffffffffffffffffffffff16036118ba578360010193506118db565b8086858503815181106118cf576118cf615c2c565b60200260200101819052505b505060010161181d565b5080156118f3578083510383525b506118fe8583613456565b50509392505050565b600160005414611943576040517f7fa8a98700000000000000000000000000000000000000000000000000000000815260040160405180910390fd5b565b8351835160609182916119588183615da6565b67ffffffffffffffff81111561197057611970614c93565b6040519080825280602002602001820160405280156119fc57816020015b60408051610100810182526000606082018181526080830182905260a0830182905260c0830182905260e08301829052825260208083018290529282015282527fffffffffffffffffffffffffffffffffffffffffffffffffffffffffffffffff90920191018161198e5790505b5092506000805b83811015611ab05760008a8281518110611a1f57611a1f615c2c565b602002602001015190506000611a398d6000848d8d6136ab565b9050806020015173ffffffffffffffffffffffffffffffffffffffff1681600001516080015173ffffffffffffffffffffffffffffffffffffffff1603611a8557836001019350611aa6565b808785850381518110611a9a57611a9a615c2c565b60200260200101819052505b5050600101611a03565b5060005b82811015611b64576000898281518110611ad057611ad0615c2c565b602002602001015190506000611aeb8d6001848d60006136ab565b9050806020015173ffffffffffffffffffffffffffffffffffffffff1681600001516080015173ffffffffffffffffffffffffffffffffffffffff1603611b3757836001019350611b5a565b8087858886010381518110611b4e57611b4e615c2c565b60200260200101819052505b5050600101611ab4565b508015611b72578084510384525b508251600003611bae576040517fd5da9a1b00000000000000000000000000000000000000000000000000000000815260040160405180910390fd5b611bb88984613456565b935050509550959350505050565b6000611bdc8260600151518361014001516137ae565b815173ffffffffffffffffffffffffffffffffffffffff1660009081526001602052604090205461050490839061081d565b8254600090610100900460ff1615611c63578115611c5b576040517f1a51557400000000000000000000000000000000000000000000000000000000815260048101869052602401610ec7565b5060006105e6565b83546201000090046effffffffffffffffffffffffffffff168015611d30578315611cbd576040517fee9e0e6300000000000000000000000000000000000000000000000000000000815260048101879052602401610ec7565b84547101000000000000000000000000000000000090046effffffffffffffffffffffffffffff168110611d30578215611d26576040517f10fda3e100000000000000000000000000000000000000000000000000000000815260048101879052602401610ec7565b60009150506105e6565b50600195945050505050565b3373ffffffffffffffffffffffffffffffffffffffff841603611d5e57505050565b6000611da6611d6b6127ed565b7f1901000000000000000000000000000000000000000000000000000000000000600090815260029190915260228581526042822091905290565b9050611db38482846137e8565b50505050565b611dc1611907565b6002600055565b60008060008087600001519050611de88160a001518260c0015188613a01565b611dfc575060009250829150819050612168565b602088015160408901516effffffffffffffffffffffffffffff918216911680821180611e27575081155b15611e5e576040517f5a052b3200000000000000000000000000000000000000000000000000000000815260040160405180910390fd5b8082108015611e7257506080830151600116155b15611ea9576040517fa11b63ff00000000000000000000000000000000000000000000000000000000815260040160405180910390fd5b611eb283611bc6565b9550611ed48a8a89898760e00151886080015189600001518a60200151613a60565b600086815260026020526040812090611ef190889083908c611c0e565b611f0657506000945084935061216892505050565b805460ff16611f2257611f228460000151888d60600151611d3c565b80546effffffffffffffffffffffffffffff6201000082048116917101000000000000000000000000000000000090041680156120ea5783600103611f6c57809450809350611f98565b838114611f9857611f7d8483615dbe565b9150611f898186615dbe565b9450611f958185615dbe565b93505b83611fa38684615da6565b1115611faf5781840394505b611fb98583615da6565b91506effffffffffffffffffffffffffffff84116effffffffffffffffffffffffffffff8311171561207357612004565b60005b8215611ffe57908290069190611fed565b50919050565b6120176120118584611fea565b86611fea565b80150194859004949384900493909104906effffffffffffffffffffffffffffff8083119085111715612073577f4e487b7100000000000000000000000000000000000000000000000000000000600052601160045260246000fd5b82546effffffffffffffffffffffffffffff858116710100000000000000000000000000000000000270ffffffffffffffffffffffffffffffffff91851662010000027fffffffffffffffffffffffffffffff0000000000000000000000000000000000909316929092176001171617835561215d565b82546effffffffffffffffffffffffffffff858116710100000000000000000000000000000000000270ffffffffffffffffffffffffffffffffff91881662010000027fffffffffffffffffffffffffffffff000000000000000000000000000000000090931692909217600117161783555b509295509093505050505b9450945094915050565b8051825160005b8281101561242557600084828151811061219557612195615c2c565b602002602001015190506000816000015190508381106121e1576040517f869586c400000000000000000000000000000000000000000000000000000000815260040160405180910390fd5b8681815181106121f3576121f3615c2c565b6020026020010151602001516effffffffffffffffffffffffffffff1660000361221e57505061241d565b600087828151811061223257612232615c2c565b6020908102919091010151516040840151909150600080808660200151600181111561226057612260615352565b03612313576040840151805184106122a4576040517fbfb3f8ce00000000000000000000000000000000000000000000000000000000815260040160405180910390fd5b60008185815181106122b8576122b8615c2c565b6020908102919091010151805160408201519095509350905060048414600303818160058111156122eb576122eb615352565b908160058111156122fe576122fe615352565b905250506060880151604090910152506123bd565b606084015180518410612352576040517f6088d7de00000000000000000000000000000000000000000000000000000000815260040160405180910390fd5b600081858151811061236657612366615c2c565b60209081029190910101518051604082015190955093509050600484146003038181600581111561239957612399615352565b908160058111156123ac576123ac615352565b905250506060880151604090910152505b6123c78260031090565b6123fd576040517f94eb6af600000000000000000000000000000000000000000000000000000000815260040160405180910390fd5b8015612416576124168660600151828860800151613ba5565b5050505050505b600101612179565b5060005b8181101561256757600085828151811061244557612445615c2c565b6020026020010151905080602001516effffffffffffffffffffffffffffff16600003612472575061255f565b805160608101515160005b818110156124ef576124b08360600151828151811061249e5761249e615c2c565b60200260200101516000015160031090565b156124e7576040517fff75a34000000000000000000000000000000000000000000000000000000000815260040160405180910390fd5b60010161247d565b505060408101515160005b8181101561255a5761251b8360400151828151811061249e5761249e615c2c565b15612552576040517fa6cfc67300000000000000000000000000000000000000000000000000000000815260040160405180910390fd5b6001016124fa565b505050505b600101612429565b5050505050565b60a085015160c0860151604080516020808252818301909252600091602082018180368337505050604089015151909150613c219060005b818110156126755760008b6040015182815181106125c6576125c6615c2c565b60200260200101519050600060058111156125e3576125e3615352565b815160058111156125f6576125f6615352565b0361262d576040517f12d3f5a300000000000000000000000000000000000000000000000000000000815260040160405180910390fd5b6000612647826060015183608001518e8e8c8c6000613d72565b606083015250608081018890528b516101208d015161266c9183918863ffffffff8916565b506001016125a6565b5050506060880151513490613c219060005b818110156127525760008c6060015182815181106126a7576126a7615c2c565b6020026020010151905060006126cb826060015183608001518f8f8d8d6001613d72565b6060830181905260a0830151608084015290506000825160058111156126f3576126f3615352565b036127385785811115612732576040517f1a783b8d00000000000000000000000000000000000000000000000000000000815260040160405180910390fd5b80860395505b61274882338d8a8963ffffffff16565b5050600101612687565b50505061275e82612fcf565b8015611763576117633382613dbc565b606082905060608290508573ffffffffffffffffffffffffffffffffffffffff168773ffffffffffffffffffffffffffffffffffffffff167f9d9af8e38d66c62e2c12f0225249fd9d721c54b83f48d9352c97c6cacdcb6f318a8886866040516127db9493929190615e35565b60405180910390a35050505050505050565b60007f000000000000000000000000000000000000000000000000000000000000000046146128be57610327604080517f000000000000000000000000000000000000000000000000000000000000000060208201527f0000000000000000000000000000000000000000000000000000000000000000918101919091527f000000000000000000000000000000000000000000000000000000000000000060608201524660808201523060a082015260009060c00160405160208183030381529060405280519060200120905090565b507f000000000000000000000000000000000000000000000000000000000000000090565b6128eb611db9565b6129018661012001358761014001356001613a01565b5061290a613e36565b61292861291b610200880188615d3e565b9050876101e001356137ae565b6000807f00000000000000000000000000000000000000000000000000000000000000009050806080528560a0526060602460c037604060646101203760e06080206101605261026435602081026102a0016001610264350181526020810190508781526080602460208301376101608760a0528660c052600060e05261020435925060005b838110156129f9578060400261028401602081610100376040816101203760208301925060e0608020835260a0840193508984528860208501526040816060860137506001016129ae565b60206001850102610160206060526102643593505b83811015612a3f578060400261028401915060a0830192508883528760208401526040826060850137600101612a0e565b505050505060007f00000000000000000000000000000000000000000000000000000000000000009050806080528260a052606060c460c03760206101046101203760c0608020600052602060002060e052602061026435026102000160018152836020820152606060c46040830137505060843573ffffffffffffffffffffffffffffffffffffffff81166000908152600160205260408120547f000000000000000000000000000000000000000000000000000000000000000060808190529091506040608460a03760605161010052886101205260a061014461014037816101e0526101806080209350505050602061026435026101800181815233602082015260806040820152610120606082015260a061026435026101e00160a4356084357f9d9af8e38d66c62e2c12f0225249fd9d721c54b83f48d9352c97c6cacdcb6f318385a350506000606052612bc181886101600135888a6060016020810190612bac9190615810565b612bbc60a08d0160808e01615810565b613e98565b612c1d81612bd560808a0160608b01615810565b612be36102208b018b615cd9565b8080601f016020809104026020016040519081016040528093929190818152602001838380828437600092019190915250613f0292505050565b50505050505050565b8015612c9b57600060405190507f4ce34aa200000000000000000000000000000000000000000000000000000000815260206004820152600160248201528760448201528660648201528560848201528460a48201528360c48201528260e4820152612c958282610104613f4c565b50612c1d565b6002876005811115612caf57612caf615352565b03612cff5781600114612cee576040517fefcc00b100000000000000000000000000000000000000000000000000000000815260040160405180910390fd5b612cfa868686866140e0565b612c1d565b612c1d86868686866141ef565b348160005b81811015612d985736858583818110612d2c57612d2c615c2c565b60400291909101915050803584811115612d72576040517f1a783b8d00000000000000000000000000000000000000000000000000000000815260040160405180910390fd5b612d8b612d856040840160208501615810565b82613dbc565b9093039250600101612d11565b5081861115612dd3576040517f1a783b8d00000000000000000000000000000000000000000000000000000000815260040160405180910390fd5b612ddd8587613dbc565b85821115612df157612df133878403613dbc565b505050505050565b612e038183614321565b81612e4e5782600114612e42576040517fefcc00b100000000000000000000000000000000000000000000000000000000815260040160405180910390fd5b612cfa878787876140e0565b612c1d828260028a8a8a8a8a614340565b612e68836143d9565b612e728183614321565b81612e8457612cfa87878787876141ef565b612c1d828260038a8a8a8a8a614340565b60008060008060008615612ecc57889450339350612eb960c0890160a08a01615810565b9250505060e086013560c0870135612eee565b339450889350612edf6020890189615810565b92505050604086013560208701355b8015612f26576040517f6ab37ce700000000000000000000000000000000000000000000000000000000815260040160405180910390fd5b50602086026101e403356000612f406102008a018a615d3e565b9050905060005b81811015612fb45736612f5e6102008c018c615d3e565b83818110612f6e57612f6e615c2c565b6040029190910191505080358a15612f8d57612f8a8187615edd565b95505b612faa878a612fa26040860160208701615810565b84898f614413565b5050600101612f47565b50612fc384878786868c614413565b50505050505050505050565b6040815114612fdb5750565b6000612fe8826020015190565b9050612ff4818361444e565b5050565b6000828403613008575080610569565b828483091561303b577fc63cf0890000000000000000000000000000000000000000000000000000000060005260046000fd5b60006130478584615dbe565b93909304949350505050565b600084861461309e57838303428590038082036000613072838a615dbe565b61307c838c615dbe565b6130869190615da6565b90508584878303040181151502945050505050610346565b5092949350505050565b60408051610100810182526000606082018181526080830182905260a0830182905260c0830182905260e08301829052825260208201819052918101919091528315806130f3575081155b1561312a576040517f98e9db6e00000000000000000000000000000000000000000000000000000000815260040160405180910390fd5b60408051610100810182526000606082018181526080830182905260a0830182905260c0830182905260e08301829052825260208201819052918101919091526131c7878585808060200260200160405190810160405280939291908181526020016000905b828210156131bc576131ad60408302860136819003810190615ef4565b81526020019060010190613190565b505050505083614472565b805160408051602080890282018101909252878152613226918a91908a908a90819060009085015b8282101561321b5761320c60408302860136819003810190615ef4565b815260200190600101906131ef565b505050505085614660565b8051600581111561323957613239615352565b835151600581111561324d5761324d615352565b1415806132925750806020015173ffffffffffffffffffffffffffffffffffffffff1683600001516020015173ffffffffffffffffffffffffffffffffffffffff1614155b806132a95750806040015183600001516040015114155b156132e0576040517f09cfb45500000000000000000000000000000000000000000000000000000000815260040160405180910390fd5b8260000151606001518160600151111561338e5760008585600081811061330957613309615c2c565b90506040020180360381019061331f9190615ef4565b90508360000151606001518260600151038982600001518151811061334657613346615c2c565b6020026020010151600001516060015182602001518151811061336b5761336b615c2c565b602090810291909101015160609081019190915284518101519083015250613429565b6000878760008181106133a3576133a3615c2c565b9050604002018036038101906133b99190615ef4565b9050816060015184600001516060015103898260000151815181106133e0576133e0615c2c565b6020026020010151600001516040015182602001518151811061340557613405615c2c565b60200260200101516060018181525050816060015184600001516060018181525050505b608090810151835173ffffffffffffffffffffffffffffffffffffffff9091169101525095945050505050565b81516060908067ffffffffffffffff81111561347457613474614c93565b60405190808252806020026020018201604052801561349d578160200160208202803683370190505b50915060005b818110156135a65760008582815181106134bf576134bf615c2c565b6020026020010151905080602001516effffffffffffffffffffffffffffff166000036134ec575061359e565b600184838151811061350057613500615c2c565b91151560209283029190910190910152805160600151805160005b8181101561359957600083828151811061353757613537615c2c565b602002602001015160600151905080600014613590576040517fa5f54208000000000000000000000000000000000000000000000000000000008152600481018790526024810183905260448101829052606401610ec7565b5060010161351b565b505050505b6001016134a3565b5060408051602080825281830190925234916000919060208201818036833701905050855190915060005b8181101561367d5760008782815181106135ed576135ed615c2c565b6020908102919091010151805190915060008151600581111561361257613612615352565b0361365f578581606001511115613655576040517f1a783b8d00000000000000000000000000000000000000000000000000000000815260040160405180910390fd5b8060600151860395505b613673818360200151846040015188613c21565b50506001016135d1565b5061368782612fcf565b8215613697576136973384613dbc565b6136a16001600055565b5050505092915050565b60408051610100810182526000606082018181526080830182905260a0830182905260c0830182905260e0830182905282526020820181905291810191909152835160000361372857846040517f375c24c1000000000000000000000000000000000000000000000000000000008152600401610ec79190615f20565b600085600181111561373c5761373c615352565b0361377057805173ffffffffffffffffffffffffffffffffffffffff831660809091015261376b868583614660565b613789565b61377b868583614472565b336020820152604081018390525b8051606001516000036103465760006020820181905281516080015295945050505050565b80821015612ff4576040517f466aa61600000000000000000000000000000000000000000000000000000000815260040160405180910390fd5b600080600052600082516020840380518260410360006001821161386f576040880151606089015160001a9650821561384d57601b8160ff1c0196507f7fffffffffffffffffffffffffffffffffffffffffffffffffffffffffffffff811660408a01525b8689528985526020600060808760015afa508385528589526040890152506000515b89148915151695508590506139c657604082526044860380516040880380517f1626ba7e0000000000000000000000000000000000000000000000000000000084528a82526020600060648901868f5afa985088156139bc577f1626ba7e00000000000000000000000000000000000000000000000000000000600051146139bc578b3b15613922577f4f7fb80d0000000000000000000000000000000000000000000000000000000060005260046000fd5b6001876041031115613958577f8baa579f0000000000000000000000000000000000000000000000000000000060005260046000fd5b640101000000881a613992577f1f003d0a000000000000000000000000000000000000000000000000000000006000528760045260246000fd5b7f815e1d640000000000000000000000000000000000000000000000000000000060005260046000fd5b8486529190925290525b5050505080611db3576139d761480a565b7f4f7fb80d0000000000000000000000000000000000000000000000000000000060005260046000fd5b600042841180613a115750428311155b15613a56578115613a4e576040517f6f7eac2600000000000000000000000000000000000000000000000000000000815260040160405180910390fd5b506000610569565b5060019392505050565b6001836003811115613a7457613a74615352565b118015613a9757503373ffffffffffffffffffffffffffffffffffffffff821614155b8015613ab957503373ffffffffffffffffffffffffffffffffffffffff831614155b15613b9b57608088015151158015613ad057508651155b15613ae657613ae181868487614852565b613b9b565b6000613b8f82633313157060e01b88338d8c8e604051602401613b0d9594939291906160fa565b604080517fffffffffffffffffffffffffffffffffffffffffffffffffffffffffffffffe08184030181529190526020810180517bffffffffffffffffffffffffffffffffffffffffffffffffffffffff167fffffffff00000000000000000000000000000000000000000000000000000000909316929092179091526148c4565b905061176381876148d9565b5050505050505050565b600083600052602060002060208301835160051b81015b80821015613be457815180841160051b93845260209384185260406000209290910190613bbc565b50508314905080611db3576040517f09bde33900000000000000000000000000000000000000000000000000000000815260040160405180910390fd5b600084516005811115613c3657613c36615352565b03613caa576040840151602085015173ffffffffffffffffffffffffffffffffffffffff161715613c93576040517f6ab37ce700000000000000000000000000000000000000000000000000000000815260040160405180910390fd5b613ca584608001518560600151613dbc565b611db3565b600184516005811115613cbf57613cbf615352565b03613d1a57604084015115613d00576040517f6ab37ce700000000000000000000000000000000000000000000000000000000815260040160405180910390fd5b613ca5846020015184866080015187606001518686614413565b600284516005811115613d2f57613d2f615352565b03613d5357613ca58460200151848660800151876040015188606001518787612df9565b611db38460200151848660800151876040015188606001518787612e5f565b6000868803613d8d57613d86868689612ff8565b9050613db1565b613dae613d9b87878b612ff8565b613da688888b612ff8565b868686613053565b90505b979650505050505050565b613dc5816143d9565b600080600080600085875af1905080613e3157613de061480a565b6040517f470c7c1d00000000000000000000000000000000000000000000000000000000815273ffffffffffffffffffffffffffffffffffffffff8416600482015260248101839052604401610ec7565b505050565b6018610124351061024435610260610264356040020114600435602014610224356102401416161680613e95576040517f39f3e3fd00000000000000000000000000000000000000000000000000000000815260040160405180910390fd5b50565b6001836003811115613eac57613eac615352565b118015613ecf57503373ffffffffffffffffffffffffffffffffffffffff821614155b8015613ef157503373ffffffffffffffffffffffffffffffffffffffff831614155b156125675761256781868487614852565b6000838152600260205260409020613f1d8482600180611c0e565b50805460ff16613f3257613f32838584611d3c565b710100000000000000000000000000000100019055505050565b604080517f000000000000000000000000000000000000000000000000000000000000000074ff000000000000000000000000000000000000000017600090815260208690527f000000000000000000000000000000000000000000000000000000000000000083526055600b209190925273ffffffffffffffffffffffffffffffffffffffff169050600080600080526020600085876000875af1915060005190508161404657613ffc61480a565b6040517fd13d53d400000000000000000000000000000000000000000000000000000000815273ffffffffffffffffffffffffffffffffffffffff84166004820152602401610ec7565b7fffffffff0000000000000000000000000000000000000000000000000000000081167f4ce34aa20000000000000000000000000000000000000000000000000000000014612df1576040517f1cf99b260000000000000000000000000000000000000000000000000000000081526004810187905273ffffffffffffffffffffffffffffffffffffffff84166024820152604401610ec7565b833b614114577f5f15d672000000000000000000000000000000000000000000000000000000006000528360045260246000fd5b6040517f23b872dd000000000000000000000000000000000000000000000000000000006000528360045282602452816044526000806064600080895af1806141e0573d156141a1576020601f3d010460208304816003028183111561418857818303600302610200838002858002030401015b5a60208201101561419d573d6000803e3d6000fd5b5050505b7ff486bc870000000000000000000000000000000000000000000000000000000060005285600452846024528360445282606452600160845260a46000fd5b50604052505060006060525050565b843b614223577f5f15d672000000000000000000000000000000000000000000000000000000006000528460045260246000fd5b60405160805160a05160c0517ff242432a000000000000000000000000000000000000000000000000000000006000528760045286602452856044528460645260a0608452600060a45260008060c46000808d5af180614305573d156142c7576020601f3d01046020860481600302818311156142ae57818303600302610200838002858002030401015b5a6020820110156142c3573d6000803e3d6000fd5b5050505b7ff486bc8700000000000000000000000000000000000000000000000000000000600052896004528860245287604452866064528560845260a46000fd5b5060809290925260a05260c05260405250506000606052505050565b600061432e836020015190565b9050818114613e3157613e3183612fcf565b600060208851036143945750604080885260208089018a90527f4ce34aa2000000000000000000000000000000000000000000000000000000009189019190915260448801526001606488018190526143a3565b50606487018051600101908190525b603c60c082028901038781528660208201528560408201528460608201528360808201528260a082015250505050505050505050565b80600003613e95576040517f91b3e51400000000000000000000000000000000000000000000000000000000815260040160405180910390fd5b61441c836143d9565b6144268183614321565b8161443c576144378686868661497e565b612df1565b612df18282600189898960008a614340565b6064810151604082019060c002604401614469848383613f4c565b50506020905250565b6144d0565b7f7fda72790000000000000000000000000000000000000000000000000000000060005260046000fd5b7f4e487b7100000000000000000000000000000000000000000000000000000000600052601160045260246000fd5b60208201805151845181106144e7576144e7614477565b602081026020860101516060815101516020845101518151811061450d5761450d614477565b60208102602083010151600080602086015115614534575050606081018051600090915280155b885183518152602084015160208201526040840151604082015260a084015160808201526060812060208c51028c015b808b101561460b5760208b019a508a515199508d518a1061458757614587614477565b60208a0260208f010151985060208901511561456457606089510151975060208b5101519650875187106145bd576145bd614477565b602087026020890101519550606086018051860181511587821060011b1786179550809650506000815250606086208214608084015160a0880151141661460657614606614477565b614564565b50506060018290528015614653576001810361464b577f91b3e5140000000000000000000000000000000000000000000000000000000060005260046000fd5b6146536144a1565b5050505050505050505050565b602082018051518451811061467757614677614477565b60208102602086010151805160408101516020855101518151811061469e5761469e614477565b602081026020830101516000806020870151156146c5575050606081018051600090915280155b8951835181526020840151602082015260408401516040820152865160208c015261012087015160408c015260608120905060208c51028c015b808b10156147b35760208b019a508a515199508d518a1061472257614722614477565b60208a0260208f01015198506020890151156146ff57885197506040880151965060208b51015195508651861061475b5761475b614477565b602086026020880101519450606085018051850181511586821060011b178517945080955050600081525060608520821460408d01516101208a01511460208e01518a511416166147ae576147ae614477565b6146ff565b50508160608b51015280156147fc57600181036147f4577f91b3e5140000000000000000000000000000000000000000000000000000000060005260046000fd5b6147fc6144a1565b505050505050505050505050565b3d15611943576020601f3d0104602060405104816003028183111561483d57818303600302610200838002858002030401015b5a602082011015613e31573d6000803e3d6000fd5b6040516024810184905233604482015273ffffffffffffffffffffffffffffffffffffffff83166064820152608481018290526000906148b89086907f0e1d31dc000000000000000000000000000000000000000000000000000000009060a401613b0d565b905061256781856148d9565b6000806000835160208501865afa9392505050565b8161491b576148e661480a565b6040517ffb5014fc00000000000000000000000000000000000000000000000000000000815260048101829052602401610ec7565b6149447f0e1d31dc00000000000000000000000000000000000000000000000000000000614aeb565b15612ff4576040517ffb5014fc00000000000000000000000000000000000000000000000000000000815260048101829052602401610ec7565b6040517f23b872dd00000000000000000000000000000000000000000000000000000000600052836004528260245281604452602060006064600080895af1803d15601f3d116001600051141617163d15158116614adb5780873b151516614adb5780614aad5781614a73573d15614a34576020601f3d0104602084048160030281831115614a1b57818303600302610200838002858002030401015b5a602082011015614a30573d6000803e3d6000fd5b5050505b7ff486bc870000000000000000000000000000000000000000000000000000000060005286600452856024528460445260006064528360845260a46000fd5b7f98891923000000000000000000000000000000000000000000000000000000006000528660045285602452846044528360645260846000fd5b7f5f15d672000000000000000000000000000000000000000000000000000000006000528660045260246000fd5b5050604052505060006060525050565b60008060203d03614b015760206000803e506000515b7fffffffff0000000000000000000000000000000000000000000000000000000090811692169190911415919050565b6040518060a00160405280614b44614b65565b81526000602082018190526040820152606080820181905260809091015290565b604051806101600160405280600073ffffffffffffffffffffffffffffffffffffffff168152602001600073ffffffffffffffffffffffffffffffffffffffff168152602001606081526020016060815260200160006003811115614bcc57614bcc615352565b815260006020820181905260408201819052606082018190526080820181905260a0820181905260c09091015290565b6000815180845260005b81811015614c2257602081850181015186830182015201614c06565b81811115614c34576000602083870101525b50601f017fffffffffffffffffffffffffffffffffffffffffffffffffffffffffffffffe0169290920160200192915050565b6020815260006105696020830184614bfc565b600060208284031215614c8c57600080fd5b5035919050565b7f4e487b7100000000000000000000000000000000000000000000000000000000600052604160045260246000fd5b60405160a0810167ffffffffffffffff81118282101715614ce557614ce5614c93565b60405290565b604051610160810167ffffffffffffffff81118282101715614ce557614ce5614c93565b604051601f82017fffffffffffffffffffffffffffffffffffffffffffffffffffffffffffffffe016810167ffffffffffffffff81118282101715614d5657614d56614c93565b604052919050565b600067ffffffffffffffff821115614d7857614d78614c93565b5060051b60200190565b73ffffffffffffffffffffffffffffffffffffffff81168114613e9557600080fd5b8035614daf81614d82565b919050565b803560068110614daf57600080fd5b600060a08284031215614dd557600080fd5b614ddd614cc2565b9050614de882614db4565b81526020820135614df881614d82565b8060208301525060408201356040820152606082013560608201526080820135608082015292915050565b600082601f830112614e3457600080fd5b81356020614e49614e4483614d5e565b614d0f565b82815260a09283028501820192828201919087851115614e6857600080fd5b8387015b85811015614e8b57614e7e8982614dc3565b8452928401928101614e6c565b5090979650505050505050565b600060c08284031215614eaa57600080fd5b60405160c0810181811067ffffffffffffffff82111715614ecd57614ecd614c93565b604052905080614edc83614db4565b81526020830135614eec81614d82565b8060208301525060408301356040820152606083013560608201526080830135608082015260a0830135614f1f81614d82565b60a0919091015292915050565b600082601f830112614f3d57600080fd5b81356020614f4d614e4483614d5e565b82815260c09283028501820192828201919087851115614f6c57600080fd5b8387015b85811015614e8b57614f828982614e98565b8452928401928101614f70565b803560048110614daf57600080fd5b60006101608284031215614fb157600080fd5b614fb9614ceb565b9050614fc482614da4565b8152614fd260208301614da4565b6020820152604082013567ffffffffffffffff80821115614ff257600080fd5b614ffe85838601614e23565b6040840152606084013591508082111561501757600080fd5b5061502484828501614f2c565b60608301525061503660808301614f8f565b608082015260a082013560a082015260c082013560c082015260e082013560e082015261010080830135818301525061012080830135818301525061014080830135818301525092915050565b80356effffffffffffffffffffffffffffff81168114614daf57600080fd5b600082601f8301126150b357600080fd5b813567ffffffffffffffff8111156150cd576150cd614c93565b6150fe60207fffffffffffffffffffffffffffffffffffffffffffffffffffffffffffffffe0601f84011601614d0f565b81815284602083860101111561511357600080fd5b816020850160208301376000918101602001919091529392505050565b600060a0828403121561514257600080fd5b61514a614cc2565b9050813567ffffffffffffffff8082111561516457600080fd5b61517085838601614f9e565b835261517e60208501615083565b602084015261518f60408501615083565b604084015260608401359150808211156151a857600080fd5b6151b4858386016150a2565b606084015260808401359150808211156151cd57600080fd5b506151da848285016150a2565b60808301525092915050565b600082601f8301126151f757600080fd5b81356020615207614e4483614d5e565b82815260059290921b8401810191818101908684111561522657600080fd5b8286015b8481101561526657803567ffffffffffffffff81111561524a5760008081fd5b6152588986838b0101615130565b84525091830191830161522a565b509695505050505050565b60008083601f84011261528357600080fd5b50813567ffffffffffffffff81111561529b57600080fd5b6020830191508360208260051b85010111156152b657600080fd5b9250929050565b6000806000806000606086880312156152d557600080fd5b853567ffffffffffffffff808211156152ed57600080fd5b6152f989838a016151e6565b9650602088013591508082111561530f57600080fd5b61531b89838a01615271565b9096509450604088013591508082111561533457600080fd5b5061534188828901615271565b969995985093965092949392505050565b7f4e487b7100000000000000000000000000000000000000000000000000000000600052602160045260246000fd5b6006811061539157615391615352565b9052565b6153a0828251615381565b602081015173ffffffffffffffffffffffffffffffffffffffff8082166020850152604083015160408501526060830151606085015280608084015116608085015250505050565b600081518084526020808501945080840160005b8381101561544b578151615411888251615395565b8084015173ffffffffffffffffffffffffffffffffffffffff1660a08901526040015160c088015260e090960195908201906001016153fc565b509495945050505050565b60208152600061056960208301846153e8565b60006020828403121561547b57600080fd5b813567ffffffffffffffff81111561549257600080fd5b8201610160818503121561056957600080fd5b60008060008060008060008060008060e08b8d0312156154c457600080fd5b8a3567ffffffffffffffff808211156154dc57600080fd5b6154e88e838f016151e6565b9b5060208d01359150808211156154fe57600080fd5b61550a8e838f01615271565b909b50995060408d013591508082111561552357600080fd5b61552f8e838f01615271565b909950975060608d013591508082111561554857600080fd5b506155558d828e01615271565b90965094505060808b0135925061556e60a08c01614da4565b915060c08b013590509295989b9194979a5092959850565b604080825283519082018190526000906020906060840190828701845b828110156155c15781511515845292840192908401906001016155a3565b505050838103828501526155d581866153e8565b9695505050505050565b600080602083850312156155f257600080fd5b823567ffffffffffffffff81111561560957600080fd5b61561585828601615271565b90969095509350505050565b6000806000806040858703121561563757600080fd5b843567ffffffffffffffff8082111561564f57600080fd5b61565b88838901615271565b9096509450602087013591508082111561567457600080fd5b5061568187828801615271565b95989497509550505050565b600080604083850312156156a057600080fd5b823567ffffffffffffffff8111156156b757600080fd5b8301604081860312156156c957600080fd5b946020939093013593505050565b6000806000806000608086880312156156ef57600080fd5b853567ffffffffffffffff8082111561570757600080fd5b9087019060a0828a03121561571b57600080fd5b9095506020870135908082111561573157600080fd5b5061573e88828901615271565b90955093505060408601359150606086013561575981614d82565b809150509295509295909350565b60008060008060008060008060a0898b03121561578357600080fd5b883567ffffffffffffffff8082111561579b57600080fd5b6157a78c838d01615271565b909a50985060208b01359150808211156157c057600080fd5b6157cc8c838d01615271565b909850965060408b01359150808211156157e557600080fd5b506157f28b828c01615271565b999c989b509699959896976060870135966080013595509350505050565b60006020828403121561582257600080fd5b813561056981614d82565b6060815260006158406060830186614bfc565b905083602083015273ffffffffffffffffffffffffffffffffffffffff83166040830152949350505050565b60006020828403121561587e57600080fd5b813567ffffffffffffffff81111561589557600080fd5b8201610240818503121561056957600080fd5b60006158b6614e4484614d5e565b83815260208082019190600586811b8601368111156158d457600080fd5b865b818110156159d057803567ffffffffffffffff808211156158f75760008081fd5b818a01915060a0823603121561590d5760008081fd5b615915614cc2565b82358152868301356002811061592b5760008081fd5b818801526040838101359082015260608084013590820152608080840135838111156159575760008081fd5b939093019236601f85011261596e57600092508283fd5b8335925061597e614e4484614d5e565b83815292871b8401880192888101903685111561599b5760008081fd5b948901945b848610156159b9578535825294890194908901906159a0565b9183019190915250885250509483019483016158d6565b5092979650505050505050565b60008083357fffffffffffffffffffffffffffffffffffffffffffffffffffffffffffffffe1843603018112615a1257600080fd5b83018035915067ffffffffffffffff821115615a2d57600080fd5b602001915060a0810236038213156152b657600080fd5b600060a08284031215615a5657600080fd5b6105698383614dc3565b60008083357fffffffffffffffffffffffffffffffffffffffffffffffffffffffffffffffe1843603018112615a9557600080fd5b83018035915067ffffffffffffffff821115615ab057600080fd5b602001915060c0810236038213156152b657600080fd5b600060c08284031215615ad957600080fd5b6105698383614e98565b600060208284031215615af557600080fd5b61056982614f8f565b60006105043683615130565b600060408284031215615b1c57600080fd5b6040516040810181811067ffffffffffffffff82111715615b3f57615b3f614c93565b604052823581526020928301359281019290925250919050565b6000615b67614e4484614d5e565b80848252602080830192508560051b850136811115615b8557600080fd5b855b81811015615c2057803567ffffffffffffffff811115615ba75760008081fd5b870136601f820112615bb95760008081fd5b8035615bc7614e4482614d5e565b81815260069190911b82018501908581019036831115615be75760008081fd5b928601925b82841015615c1057615bfe3685615b0a565b82528682019150604084019350615bec565b8852505050938201938201615b87565b50919695505050505050565b7f4e487b7100000000000000000000000000000000000000000000000000000000600052603260045260246000fd5b600082357fffffffffffffffffffffffffffffffffffffffffffffffffffffffffffffffc1833603018112615c8f57600080fd5b9190910192915050565b600082357ffffffffffffffffffffffffffffffffffffffffffffffffffffffffffffffea1833603018112615c8f57600080fd5b60006105043683614f9e565b60008083357fffffffffffffffffffffffffffffffffffffffffffffffffffffffffffffffe1843603018112615d0e57600080fd5b83018035915067ffffffffffffffff821115615d2957600080fd5b6020019150368190038213156152b657600080fd5b60008083357fffffffffffffffffffffffffffffffffffffffffffffffffffffffffffffffe1843603018112615d7357600080fd5b83018035915067ffffffffffffffff821115615d8e57600080fd5b6020019150600681901b36038213156152b657600080fd5b60008219821115615db957615db96144a1565b500190565b6000817fffffffffffffffffffffffffffffffffffffffffffffffffffffffffffffffff0483118215151615615df657615df66144a1565b500290565b600081518084526020808501945080840160005b8381101561544b57615e22878351615395565b60a0969096019590820190600101615e0f565b60006080808301878452602073ffffffffffffffffffffffffffffffffffffffff808916828701526040848188015283895180865260a089019150848b01955060005b81811015615eb9578651615e8d848251615381565b808701518616848801528481015185850152606090810151908401529585019591870191600101615e78565b50508781036060890152615ecd818a615dfb565b9c9b505050505050505050505050565b600082821015615eef57615eef6144a1565b500390565b600060408284031215615f0657600080fd5b6105698383615b0a565b6002811061539157615391615352565b602081016105048284615f10565b600081518084526020808501945080840160005b8381101561544b578151615f57888251615381565b8084015173ffffffffffffffffffffffffffffffffffffffff168885015260408082015190890152606080820151908901526080908101519088015260a09096019590820190600101615f42565b600081518084526020808501945080840160005b8381101561544b578151615fce888251615381565b8084015173ffffffffffffffffffffffffffffffffffffffff90811689860152604080830151908a0152606080830151908a0152608080830151908a015260a091820151169088015260c09096019590820190600101615fb9565b6004811061539157615391615352565b600081518084526020808501945080840160005b8381101561544b5781518752958201959082019060010161604d565b600081518084526020808501808196508360051b8101915082860160005b858110156160ed578284038952815160a081518652868201516160ac88880182615f10565b5060408281015190870152606080830151908701526080918201519186018190526160d981870183616039565b9a87019a9550505090840190600101616087565b5091979650505050505050565b85815273ffffffffffffffffffffffffffffffffffffffff8516602082015260a060408201526000610140855160a08085015261614f828501825173ffffffffffffffffffffffffffffffffffffffff169052565b60208101516101606161788187018373ffffffffffffffffffffffffffffffffffffffff169052565b6040830151915080610180870152506161956102a0860182615f2e565b905060608201517ffffffffffffffffffffffffffffffffffffffffffffffffffffffffffffffec0868303016101a08701526161d18282615fa5565b91505060808201516161e76101c0870182616029565b5060a08201516101e086015260c082015161020086015260e082015161022086015261010080830151610240870152610120808401516102608801528484015161028088015260208a0151945061625160c08801866effffffffffffffffffffffffffffff169052565b60408a01516effffffffffffffffffffffffffffff1660e088015260608a01518784037fffffffffffffffffffffffffffffffffffffffffffffffffffffffffffffff60908101848a015290955093506162ab8386614bfc565b945060808a0151925083878603018188015250506162c98382614bfc565b9250505082810360608401526162df8186616039565b905082810360808401526162f38185616069565b9897505050505050505056fea2646970667358221220f612ac480a91b2a141c612d0764cbfa0174e3eeddc3a09a312ff206621db887064736f6c634300080e0033",
    "linkReferences": {}
  },
  "methodIdentifiers": {
    "cancel((address,address,(uint8,address,uint256,uint256,uint256)[],(uint8,address,uint256,uint256,uint256,address)[],uint8,uint256,uint256,bytes32,uint256,bytes32,uint256)[])": "fd9f1e10",
    "fulfillAdvancedOrder(((address,address,(uint8,address,uint256,uint256,uint256)[],(uint8,address,uint256,uint256,uint256,address)[],uint8,uint256,uint256,bytes32,uint256,bytes32,uint256),uint120,uint120,bytes,bytes),(uint256,uint8,uint256,uint256,bytes32[])[],bytes32,address)": "e7acab24",
    "fulfillAvailableAdvancedOrders(((address,address,(uint8,address,uint256,uint256,uint256)[],(uint8,address,uint256,uint256,uint256,address)[],uint8,uint256,uint256,bytes32,uint256,bytes32,uint256),uint120,uint120,bytes,bytes)[],(uint256,uint8,uint256,uint256,bytes32[])[],(uint256,uint256)[][],(uint256,uint256)[][],bytes32,address,uint256)": "87201b41",
    "fulfillAvailableOrders(((address,address,(uint8,address,uint256,uint256,uint256)[],(uint8,address,uint256,uint256,uint256,address)[],uint8,uint256,uint256,bytes32,uint256,bytes32,uint256),bytes)[],(uint256,uint256)[][],(uint256,uint256)[][],bytes32,uint256)": "ed98a574",
    "fulfillBasicOrder((address,uint256,uint256,address,address,address,uint256,uint256,uint8,uint256,uint256,bytes32,uint256,bytes32,bytes32,uint256,(uint256,address)[],bytes))": "fb0f3ee1",
    "fulfillOrder(((address,address,(uint8,address,uint256,uint256,uint256)[],(uint8,address,uint256,uint256,uint256,address)[],uint8,uint256,uint256,bytes32,uint256,bytes32,uint256),bytes),bytes32)": "b3a34c4c",
    "getCounter(address)": "f07ec373",
    "getOrderHash((address,address,(uint8,address,uint256,uint256,uint256)[],(uint8,address,uint256,uint256,uint256,address)[],uint8,uint256,uint256,bytes32,uint256,bytes32,uint256))": "79df72bd",
    "getOrderStatus(bytes32)": "46423aa7",
    "incrementCounter()": "5b34b966",
    "information()": "f47b7740",
    "matchAdvancedOrders(((address,address,(uint8,address,uint256,uint256,uint256)[],(uint8,address,uint256,uint256,uint256,address)[],uint8,uint256,uint256,bytes32,uint256,bytes32,uint256),uint120,uint120,bytes,bytes)[],(uint256,uint8,uint256,uint256,bytes32[])[],((uint256,uint256)[],(uint256,uint256)[])[])": "55944a42",
    "matchOrders(((address,address,(uint8,address,uint256,uint256,uint256)[],(uint8,address,uint256,uint256,uint256,address)[],uint8,uint256,uint256,bytes32,uint256,bytes32,uint256),bytes)[],((uint256,uint256)[],(uint256,uint256)[])[])": "a8174404",
    "name()": "06fdde03",
    "validate(((address,address,(uint8,address,uint256,uint256,uint256)[],(uint8,address,uint256,uint256,uint256,address)[],uint8,uint256,uint256,bytes32,uint256,bytes32,uint256),bytes)[])": "88147732"
  },
  "id": 30
}