{
  "abi": [
    {
      "inputs": [
        {
          "internalType": "contract Authority",
          "name": "_AUTHORITY",
          "type": "address"
        },
        {
          "internalType": "address",
          "name": "_WETH",
          "type": "address"
        },
        {
          "internalType": "address",
          "name": "_COLLATERAL_TOKEN",
          "type": "address"
        },
        {
          "internalType": "address",
          "name": "_LIEN_TOKEN",
          "type": "address"
        },
        {
          "internalType": "address",
          "name": "_TRANSFER_PROXY",
          "type": "address"
        },
        {
          "internalType": "address",
          "name": "_VAULT_IMPL",
          "type": "address"
        },
        {
          "internalType": "address",
          "name": "_SOLO_IMPL",
          "type": "address"
        }
      ],
      "stateMutability": "nonpayable",
      "type": "constructor"
    },
    {
      "inputs": [],
      "name": "CreateFail",
      "type": "error"
    },
    {
      "inputs": [
        {
          "internalType": "address",
          "name": "",
          "type": "address"
        }
      ],
      "name": "InvalidAddress",
      "type": "error"
    },
    {
      "inputs": [
        {
          "internalType": "uint256",
          "name": "",
          "type": "uint256"
        }
      ],
      "name": "InvalidRefinanceDuration",
      "type": "error"
    },
    {
      "inputs": [
        {
          "internalType": "uint256",
          "name": "",
          "type": "uint256"
        }
      ],
      "name": "InvalidRefinanceRate",
      "type": "error"
    },
    {
      "anonymous": false,
      "inputs": [
        {
          "indexed": true,
          "internalType": "address",
          "name": "user",
          "type": "address"
        },
        {
          "indexed": true,
          "internalType": "contract Authority",
          "name": "newAuthority",
          "type": "address"
        }
      ],
      "name": "AuthorityUpdated",
      "type": "event"
    },
    {
      "anonymous": false,
      "inputs": [
        {
          "indexed": false,
          "internalType": "uint256",
          "name": "rate",
          "type": "uint256"
        },
        {
          "indexed": false,
          "internalType": "uint256",
          "name": "bps",
          "type": "uint256"
        }
      ],
      "name": "Data",
      "type": "event"
    },
    {
      "anonymous": false,
      "inputs": [
        {
          "indexed": false,
          "internalType": "uint256",
          "name": "collateralId",
          "type": "uint256"
        },
        {
          "indexed": false,
          "internalType": "uint256",
          "name": "position",
          "type": "uint256"
        },
        {
          "indexed": false,
          "internalType": "uint256",
          "name": "reserve",
          "type": "uint256"
        }
      ],
      "name": "Liquidation",
      "type": "event"
    },
    {
      "anonymous": false,
      "inputs": [
        {
          "indexed": false,
          "internalType": "address",
          "name": "appraiser",
          "type": "address"
        },
        {
          "indexed": false,
          "internalType": "address",
          "name": "vault",
          "type": "address"
        }
      ],
      "name": "NewVault",
      "type": "event"
    },
    {
      "anonymous": false,
      "inputs": [
        {
          "indexed": true,
          "internalType": "address",
          "name": "user",
          "type": "address"
        },
        {
          "indexed": true,
          "internalType": "address",
          "name": "newOwner",
          "type": "address"
        }
      ],
      "name": "OwnerUpdated",
      "type": "event"
    },
    {
      "anonymous": false,
      "inputs": [
        {
          "indexed": false,
          "internalType": "address",
          "name": "account",
          "type": "address"
        }
      ],
      "name": "Paused",
      "type": "event"
    },
    {
      "anonymous": false,
      "inputs": [
        {
          "indexed": false,
          "internalType": "address",
          "name": "account",
          "type": "address"
        }
      ],
      "name": "Unpaused",
      "type": "event"
    },
    {
      "inputs": [],
      "name": "COLLATERAL_TOKEN",
      "outputs": [
        {
          "internalType": "contract ICollateralToken",
          "name": "",
          "type": "address"
        }
      ],
      "stateMutability": "view",
      "type": "function"
    },
    {
      "inputs": [],
      "name": "LIEN_TOKEN",
      "outputs": [
        {
          "internalType": "contract ILienToken",
          "name": "",
          "type": "address"
        }
      ],
      "stateMutability": "view",
      "type": "function"
    },
    {
      "inputs": [],
      "name": "LIQUIDATION_FEE_PERCENT",
      "outputs": [
        {
          "internalType": "uint256",
          "name": "",
          "type": "uint256"
        }
      ],
      "stateMutability": "view",
      "type": "function"
    },
    {
      "inputs": [],
      "name": "LIQUIDATION_IMPLEMENTATION",
      "outputs": [
        {
          "internalType": "address",
          "name": "",
          "type": "address"
        }
      ],
      "stateMutability": "view",
      "type": "function"
    },
    {
      "inputs": [],
      "name": "MAX_EPOCH_LENGTH",
      "outputs": [
        {
          "internalType": "uint256",
          "name": "",
          "type": "uint256"
        }
      ],
      "stateMutability": "view",
      "type": "function"
    },
    {
      "inputs": [],
      "name": "MIN_DURATION_INCREASE",
      "outputs": [
        {
          "internalType": "uint64",
          "name": "",
          "type": "uint64"
        }
      ],
      "stateMutability": "view",
      "type": "function"
    },
    {
      "inputs": [],
      "name": "MIN_EPOCH_LENGTH",
      "outputs": [
        {
          "internalType": "uint256",
          "name": "",
          "type": "uint256"
        }
      ],
      "stateMutability": "view",
      "type": "function"
    },
    {
      "inputs": [],
      "name": "MIN_INTEREST_BPS",
      "outputs": [
        {
          "internalType": "uint256",
          "name": "",
          "type": "uint256"
        }
      ],
      "stateMutability": "view",
      "type": "function"
    },
    {
      "inputs": [],
      "name": "PROTOCOL_FEE_BASE",
      "outputs": [
        {
          "internalType": "uint256",
          "name": "",
          "type": "uint256"
        }
      ],
      "stateMutability": "view",
      "type": "function"
    },
    {
      "inputs": [],
      "name": "PROTOCOL_FEE_NUMERATOR",
      "outputs": [
        {
          "internalType": "uint256",
          "name": "",
          "type": "uint256"
        }
      ],
      "stateMutability": "view",
      "type": "function"
    },
    {
      "inputs": [],
      "name": "SOLO_IMPLEMENTATION",
      "outputs": [
        {
          "internalType": "address",
          "name": "",
          "type": "address"
        }
      ],
      "stateMutability": "view",
      "type": "function"
    },
    {
      "inputs": [],
      "name": "STRATEGIST_ORIGINATION_FEE_BASE",
      "outputs": [
        {
          "internalType": "uint256",
          "name": "",
          "type": "uint256"
        }
      ],
      "stateMutability": "view",
      "type": "function"
    },
    {
      "inputs": [],
      "name": "STRATEGIST_ORIGINATION_FEE_NUMERATOR",
      "outputs": [
        {
          "internalType": "uint256",
          "name": "",
          "type": "uint256"
        }
      ],
      "stateMutability": "view",
      "type": "function"
    },
    {
      "inputs": [],
      "name": "TRANSFER_PROXY",
      "outputs": [
        {
          "internalType": "contract ITransferProxy",
          "name": "",
          "type": "address"
        }
      ],
      "stateMutability": "view",
      "type": "function"
    },
    {
      "inputs": [],
      "name": "VAULT_IMPLEMENTATION",
      "outputs": [
        {
          "internalType": "address",
          "name": "",
          "type": "address"
        }
      ],
      "stateMutability": "view",
      "type": "function"
    },
    {
      "inputs": [],
      "name": "WETH",
      "outputs": [
        {
          "internalType": "contract ERC20",
          "name": "",
          "type": "address"
        }
      ],
      "stateMutability": "view",
      "type": "function"
    },
    {
      "inputs": [],
      "name": "WITHDRAW_IMPLEMENTATION",
      "outputs": [
        {
          "internalType": "address",
          "name": "",
          "type": "address"
        }
      ],
      "stateMutability": "view",
      "type": "function"
    },
    {
      "inputs": [],
      "name": "__emergencyPause",
      "outputs": [],
      "stateMutability": "nonpayable",
      "type": "function"
    },
    {
      "inputs": [],
      "name": "__emergencyUnpause",
      "outputs": [],
      "stateMutability": "nonpayable",
      "type": "function"
    },
    {
      "inputs": [],
      "name": "authority",
      "outputs": [
        {
          "internalType": "contract Authority",
          "name": "",
          "type": "address"
        }
      ],
      "stateMutability": "view",
      "type": "function"
    },
    {
      "inputs": [
        {
          "components": [
            {
              "components": [
                {
                  "internalType": "address",
                  "name": "tokenContract",
                  "type": "address"
                },
                {
                  "internalType": "uint256",
                  "name": "tokenId",
                  "type": "uint256"
                },
                {
                  "components": [
                    {
                      "components": [
                        {
                          "internalType": "uint8",
                          "name": "version",
                          "type": "uint8"
                        },
                        {
                          "internalType": "address",
                          "name": "strategist",
                          "type": "address"
                        },
                        {
                          "internalType": "uint256",
                          "name": "nonce",
                          "type": "uint256"
                        },
                        {
                          "internalType": "uint256",
                          "name": "deadline",
                          "type": "uint256"
                        },
                        {
                          "internalType": "address",
                          "name": "vault",
                          "type": "address"
                        }
                      ],
                      "internalType": "struct IAstariaRouter.StrategyDetails",
                      "name": "strategy",
                      "type": "tuple"
                    },
                    {
                      "internalType": "uint8",
                      "name": "nlrType",
                      "type": "uint8"
                    },
                    {
                      "internalType": "bytes",
                      "name": "nlrDetails",
                      "type": "bytes"
                    },
                    {
                      "components": [
                        {
                          "internalType": "bytes32",
                          "name": "root",
                          "type": "bytes32"
                        },
                        {
                          "internalType": "bytes32[]",
                          "name": "proof",
                          "type": "bytes32[]"
                        },
                        {
                          "internalType": "bool[]",
                          "name": "flags",
                          "type": "bool[]"
                        }
                      ],
                      "internalType": "struct IAstariaRouter.MultiMerkleData",
                      "name": "merkle",
                      "type": "tuple"
                    },
                    {
                      "internalType": "uint256",
                      "name": "amount",
                      "type": "uint256"
                    },
                    {
                      "internalType": "uint8",
                      "name": "v",
                      "type": "uint8"
                    },
                    {
                      "internalType": "bytes32",
                      "name": "r",
                      "type": "bytes32"
                    },
                    {
                      "internalType": "bytes32",
                      "name": "s",
                      "type": "bytes32"
                    }
                  ],
                  "internalType": "struct IAstariaRouter.NewLienRequest",
                  "name": "lienRequest",
                  "type": "tuple"
                }
              ],
              "internalType": "struct IAstariaRouter.Commitment[]",
              "name": "commitments",
              "type": "tuple[]"
            },
            {
              "internalType": "address",
              "name": "invoker",
              "type": "address"
            },
            {
              "internalType": "uint256",
              "name": "purchasePrice",
              "type": "uint256"
            },
            {
              "internalType": "bytes",
              "name": "purchaseData",
              "type": "bytes"
            },
            {
              "internalType": "address",
              "name": "receiver",
              "type": "address"
            }
          ],
          "internalType": "struct IAstariaRouter.BorrowAndBuyParams",
          "name": "params",
          "type": "tuple"
        }
      ],
      "name": "borrowAndBuy",
      "outputs": [],
      "stateMutability": "nonpayable",
      "type": "function"
    },
    {
      "inputs": [
        {
          "internalType": "uint256",
          "name": "position",
          "type": "uint256"
        },
        {
          "components": [
            {
              "internalType": "address",
              "name": "tokenContract",
              "type": "address"
            },
            {
              "internalType": "uint256",
              "name": "tokenId",
              "type": "uint256"
            },
            {
              "components": [
                {
                  "components": [
                    {
                      "internalType": "uint8",
                      "name": "version",
                      "type": "uint8"
                    },
                    {
                      "internalType": "address",
                      "name": "strategist",
                      "type": "address"
                    },
                    {
                      "internalType": "uint256",
                      "name": "nonce",
                      "type": "uint256"
                    },
                    {
                      "internalType": "uint256",
                      "name": "deadline",
                      "type": "uint256"
                    },
                    {
                      "internalType": "address",
                      "name": "vault",
                      "type": "address"
                    }
                  ],
                  "internalType": "struct IAstariaRouter.StrategyDetails",
                  "name": "strategy",
                  "type": "tuple"
                },
                {
                  "internalType": "uint8",
                  "name": "nlrType",
                  "type": "uint8"
                },
                {
                  "internalType": "bytes",
                  "name": "nlrDetails",
                  "type": "bytes"
                },
                {
                  "components": [
                    {
                      "internalType": "bytes32",
                      "name": "root",
                      "type": "bytes32"
                    },
                    {
                      "internalType": "bytes32[]",
                      "name": "proof",
                      "type": "bytes32[]"
                    },
                    {
                      "internalType": "bool[]",
                      "name": "flags",
                      "type": "bool[]"
                    }
                  ],
                  "internalType": "struct IAstariaRouter.MultiMerkleData",
                  "name": "merkle",
                  "type": "tuple"
                },
                {
                  "internalType": "uint256",
                  "name": "amount",
                  "type": "uint256"
                },
                {
                  "internalType": "uint8",
                  "name": "v",
                  "type": "uint8"
                },
                {
                  "internalType": "bytes32",
                  "name": "r",
                  "type": "bytes32"
                },
                {
                  "internalType": "bytes32",
                  "name": "s",
                  "type": "bytes32"
                }
              ],
              "internalType": "struct IAstariaRouter.NewLienRequest",
              "name": "lienRequest",
              "type": "tuple"
            }
          ],
          "internalType": "struct IAstariaRouter.Commitment",
          "name": "incomingTerms",
          "type": "tuple"
        }
      ],
      "name": "buyoutLien",
      "outputs": [],
      "stateMutability": "nonpayable",
      "type": "function"
    },
    {
      "inputs": [
        {
          "internalType": "uint256",
          "name": "collateralId",
          "type": "uint256"
        },
        {
          "internalType": "uint256",
          "name": "position",
          "type": "uint256"
        }
      ],
      "name": "canLiquidate",
      "outputs": [
        {
          "internalType": "bool",
          "name": "",
          "type": "bool"
        }
      ],
      "stateMutability": "view",
      "type": "function"
    },
    {
      "inputs": [
        {
          "components": [
            {
              "internalType": "address",
              "name": "tokenContract",
              "type": "address"
            },
            {
              "internalType": "uint256",
              "name": "tokenId",
              "type": "uint256"
            },
            {
              "components": [
                {
                  "components": [
                    {
                      "internalType": "uint8",
                      "name": "version",
                      "type": "uint8"
                    },
                    {
                      "internalType": "address",
                      "name": "strategist",
                      "type": "address"
                    },
                    {
                      "internalType": "uint256",
                      "name": "nonce",
                      "type": "uint256"
                    },
                    {
                      "internalType": "uint256",
                      "name": "deadline",
                      "type": "uint256"
                    },
                    {
                      "internalType": "address",
                      "name": "vault",
                      "type": "address"
                    }
                  ],
                  "internalType": "struct IAstariaRouter.StrategyDetails",
                  "name": "strategy",
                  "type": "tuple"
                },
                {
                  "internalType": "uint8",
                  "name": "nlrType",
                  "type": "uint8"
                },
                {
                  "internalType": "bytes",
                  "name": "nlrDetails",
                  "type": "bytes"
                },
                {
                  "components": [
                    {
                      "internalType": "bytes32",
                      "name": "root",
                      "type": "bytes32"
                    },
                    {
                      "internalType": "bytes32[]",
                      "name": "proof",
                      "type": "bytes32[]"
                    },
                    {
                      "internalType": "bool[]",
                      "name": "flags",
                      "type": "bool[]"
                    }
                  ],
                  "internalType": "struct IAstariaRouter.MultiMerkleData",
                  "name": "merkle",
                  "type": "tuple"
                },
                {
                  "internalType": "uint256",
                  "name": "amount",
                  "type": "uint256"
                },
                {
                  "internalType": "uint8",
                  "name": "v",
                  "type": "uint8"
                },
                {
                  "internalType": "bytes32",
                  "name": "r",
                  "type": "bytes32"
                },
                {
                  "internalType": "bytes32",
                  "name": "s",
                  "type": "bytes32"
                }
              ],
              "internalType": "struct IAstariaRouter.NewLienRequest",
              "name": "lienRequest",
              "type": "tuple"
            }
          ],
          "internalType": "struct IAstariaRouter.Commitment[]",
          "name": "commitments",
          "type": "tuple[]"
        }
      ],
      "name": "commitToLiens",
      "outputs": [
        {
          "internalType": "uint256",
          "name": "totalBorrowed",
          "type": "uint256"
        }
      ],
      "stateMutability": "nonpayable",
      "type": "function"
    },
    {
      "inputs": [],
      "name": "feeTo",
      "outputs": [
        {
          "internalType": "address",
          "name": "",
          "type": "address"
        }
      ],
      "stateMutability": "view",
      "type": "function"
    },
    {
      "inputs": [
        {
          "internalType": "bytes32",
          "name": "what",
          "type": "bytes32"
        },
        {
          "internalType": "bytes",
          "name": "data",
          "type": "bytes"
        }
      ],
      "name": "file",
      "outputs": [],
      "stateMutability": "nonpayable",
      "type": "function"
    },
    {
      "inputs": [
        {
          "internalType": "bytes32[]",
          "name": "what",
          "type": "bytes32[]"
        },
        {
          "internalType": "bytes[]",
          "name": "data",
          "type": "bytes[]"
        }
      ],
      "name": "fileBatch",
      "outputs": [],
      "stateMutability": "nonpayable",
      "type": "function"
    },
    {
      "inputs": [
        {
          "internalType": "uint256",
          "name": "amountIn",
          "type": "uint256"
        }
      ],
      "name": "getProtocolFee",
      "outputs": [
        {
          "internalType": "uint256",
          "name": "",
          "type": "uint256"
        }
      ],
      "stateMutability": "view",
      "type": "function"
    },
    {
      "inputs": [
        {
          "internalType": "uint256",
          "name": "amountIn",
          "type": "uint256"
        }
      ],
      "name": "getStrategistFee",
      "outputs": [
        {
          "internalType": "uint256",
          "name": "",
          "type": "uint256"
        }
      ],
      "stateMutability": "view",
      "type": "function"
    },
    {
      "inputs": [],
      "name": "incrementNonce",
      "outputs": [],
      "stateMutability": "nonpayable",
      "type": "function"
    },
    {
      "inputs": [
        {
          "components": [
            {
              "internalType": "uint256",
              "name": "amount",
              "type": "uint256"
            },
            {
              "internalType": "uint256",
              "name": "collateralId",
              "type": "uint256"
            },
            {
              "internalType": "address",
              "name": "token",
              "type": "address"
            },
            {
              "internalType": "uint256",
              "name": "rate",
              "type": "uint256"
            },
            {
              "internalType": "uint32",
              "name": "start",
              "type": "uint32"
            },
            {
              "internalType": "uint32",
              "name": "last",
              "type": "uint32"
            },
            {
              "internalType": "address",
              "name": "vault",
              "type": "address"
            },
            {
              "internalType": "uint32",
              "name": "duration",
              "type": "uint32"
            },
            {
              "internalType": "uint8",
              "name": "position",
              "type": "uint8"
            },
            {
              "internalType": "bool",
              "name": "active",
              "type": "bool"
            }
          ],
          "internalType": "struct ILienBase.Lien",
          "name": "lien",
          "type": "tuple"
        },
        {
          "components": [
            {
              "internalType": "uint256",
              "name": "maxAmount",
              "type": "uint256"
            },
            {
              "internalType": "uint256",
              "name": "rate",
              "type": "uint256"
            },
            {
              "internalType": "uint256",
              "name": "duration",
              "type": "uint256"
            },
            {
              "internalType": "uint256",
              "name": "maxPotentialDebt",
              "type": "uint256"
            }
          ],
          "internalType": "struct IAstariaRouter.LienDetails",
          "name": "newLien",
          "type": "tuple"
        }
      ],
      "name": "isValidRefinance",
      "outputs": [
        {
          "internalType": "bool",
          "name": "",
          "type": "bool"
        }
      ],
      "stateMutability": "nonpayable",
      "type": "function"
    },
    {
      "inputs": [
        {
          "internalType": "address",
          "name": "vault",
          "type": "address"
        }
      ],
      "name": "isValidVault",
      "outputs": [
        {
          "internalType": "bool",
          "name": "",
          "type": "bool"
        }
      ],
      "stateMutability": "view",
      "type": "function"
    },
    {
      "inputs": [
        {
          "internalType": "address",
          "name": "vault",
          "type": "address"
        },
        {
          "internalType": "uint256",
          "name": "amount",
          "type": "uint256"
        }
      ],
      "name": "lendToVault",
      "outputs": [],
      "stateMutability": "nonpayable",
      "type": "function"
    },
    {
      "inputs": [
        {
          "internalType": "uint256",
          "name": "collateralId",
          "type": "uint256"
        },
        {
          "internalType": "uint256",
          "name": "position",
          "type": "uint256"
        }
      ],
      "name": "liquidate",
      "outputs": [
        {
          "internalType": "uint256",
          "name": "reserve",
          "type": "uint256"
        }
      ],
      "stateMutability": "nonpayable",
      "type": "function"
    },
    {
      "inputs": [
        {
          "internalType": "uint256",
          "name": "epochLength",
          "type": "uint256"
        },
        {
          "internalType": "address",
          "name": "delegate",
          "type": "address"
        }
      ],
      "name": "newPublicVault",
      "outputs": [
        {
          "internalType": "address",
          "name": "",
          "type": "address"
        }
      ],
      "stateMutability": "nonpayable",
      "type": "function"
    },
    {
      "inputs": [
        {
          "internalType": "address",
          "name": "delegate",
          "type": "address"
        }
      ],
      "name": "newVault",
      "outputs": [
        {
          "internalType": "address",
          "name": "",
          "type": "address"
        }
      ],
      "stateMutability": "nonpayable",
      "type": "function"
    },
    {
      "inputs": [],
      "name": "owner",
      "outputs": [
        {
          "internalType": "address",
          "name": "",
          "type": "address"
        }
      ],
      "stateMutability": "view",
      "type": "function"
    },
    {
      "inputs": [],
      "name": "paused",
      "outputs": [
        {
          "internalType": "bool",
          "name": "",
          "type": "bool"
        }
      ],
      "stateMutability": "view",
      "type": "function"
    },
    {
      "inputs": [
        {
          "components": [
            {
              "internalType": "address",
              "name": "tokenContract",
              "type": "address"
            },
            {
              "internalType": "uint256",
              "name": "tokenId",
              "type": "uint256"
            },
            {
              "components": [
                {
                  "components": [
                    {
                      "internalType": "uint8",
                      "name": "version",
                      "type": "uint8"
                    },
                    {
                      "internalType": "address",
                      "name": "strategist",
                      "type": "address"
                    },
                    {
                      "internalType": "uint256",
                      "name": "nonce",
                      "type": "uint256"
                    },
                    {
                      "internalType": "uint256",
                      "name": "deadline",
                      "type": "uint256"
                    },
                    {
                      "internalType": "address",
                      "name": "vault",
                      "type": "address"
                    }
                  ],
                  "internalType": "struct IAstariaRouter.StrategyDetails",
                  "name": "strategy",
                  "type": "tuple"
                },
                {
                  "internalType": "uint8",
                  "name": "nlrType",
                  "type": "uint8"
                },
                {
                  "internalType": "bytes",
                  "name": "nlrDetails",
                  "type": "bytes"
                },
                {
                  "components": [
                    {
                      "internalType": "bytes32",
                      "name": "root",
                      "type": "bytes32"
                    },
                    {
                      "internalType": "bytes32[]",
                      "name": "proof",
                      "type": "bytes32[]"
                    },
                    {
                      "internalType": "bool[]",
                      "name": "flags",
                      "type": "bool[]"
                    }
                  ],
                  "internalType": "struct IAstariaRouter.MultiMerkleData",
                  "name": "merkle",
                  "type": "tuple"
                },
                {
                  "internalType": "uint256",
                  "name": "amount",
                  "type": "uint256"
                },
                {
                  "internalType": "uint8",
                  "name": "v",
                  "type": "uint8"
                },
                {
                  "internalType": "bytes32",
                  "name": "r",
                  "type": "bytes32"
                },
                {
                  "internalType": "bytes32",
                  "name": "s",
                  "type": "bytes32"
                }
              ],
              "internalType": "struct IAstariaRouter.NewLienRequest",
              "name": "lienRequest",
              "type": "tuple"
            }
          ],
          "internalType": "struct IAstariaRouter.Commitment",
          "name": "params",
          "type": "tuple"
        }
      ],
      "name": "requestLienPosition",
      "outputs": [
        {
          "internalType": "uint256",
          "name": "",
          "type": "uint256"
        }
      ],
      "stateMutability": "nonpayable",
      "type": "function"
    },
    {
      "inputs": [
        {
          "internalType": "contract Authority",
          "name": "newAuthority",
          "type": "address"
        }
      ],
      "name": "setAuthority",
      "outputs": [],
      "stateMutability": "nonpayable",
      "type": "function"
    },
    {
      "inputs": [
        {
          "internalType": "address",
          "name": "newOwner",
          "type": "address"
        }
      ],
      "name": "setOwner",
      "outputs": [],
      "stateMutability": "nonpayable",
      "type": "function"
    },
    {
      "inputs": [
        {
          "internalType": "address",
          "name": "",
          "type": "address"
        }
      ],
      "name": "strategistNonce",
      "outputs": [
        {
          "internalType": "uint256",
          "name": "",
          "type": "uint256"
        }
      ],
      "stateMutability": "view",
      "type": "function"
    },
    {
      "inputs": [
        {
          "internalType": "uint16",
          "name": "",
          "type": "uint16"
        }
      ],
      "name": "strategyValidators",
      "outputs": [
        {
          "internalType": "address",
          "name": "",
          "type": "address"
        }
      ],
      "stateMutability": "view",
      "type": "function"
    },
    {
      "inputs": [
        {
          "components": [
            {
              "internalType": "address",
              "name": "tokenContract",
              "type": "address"
            },
            {
              "internalType": "uint256",
              "name": "tokenId",
              "type": "uint256"
            },
            {
              "components": [
                {
                  "components": [
                    {
                      "internalType": "uint8",
                      "name": "version",
                      "type": "uint8"
                    },
                    {
                      "internalType": "address",
                      "name": "strategist",
                      "type": "address"
                    },
                    {
                      "internalType": "uint256",
                      "name": "nonce",
                      "type": "uint256"
                    },
                    {
                      "internalType": "uint256",
                      "name": "deadline",
                      "type": "uint256"
                    },
                    {
                      "internalType": "address",
                      "name": "vault",
                      "type": "address"
                    }
                  ],
                  "internalType": "struct IAstariaRouter.StrategyDetails",
                  "name": "strategy",
                  "type": "tuple"
                },
                {
                  "internalType": "uint8",
                  "name": "nlrType",
                  "type": "uint8"
                },
                {
                  "internalType": "bytes",
                  "name": "nlrDetails",
                  "type": "bytes"
                },
                {
                  "components": [
                    {
                      "internalType": "bytes32",
                      "name": "root",
                      "type": "bytes32"
                    },
                    {
                      "internalType": "bytes32[]",
                      "name": "proof",
                      "type": "bytes32[]"
                    },
                    {
                      "internalType": "bool[]",
                      "name": "flags",
                      "type": "bool[]"
                    }
                  ],
                  "internalType": "struct IAstariaRouter.MultiMerkleData",
                  "name": "merkle",
                  "type": "tuple"
                },
                {
                  "internalType": "uint256",
                  "name": "amount",
                  "type": "uint256"
                },
                {
                  "internalType": "uint8",
                  "name": "v",
                  "type": "uint8"
                },
                {
                  "internalType": "bytes32",
                  "name": "r",
                  "type": "bytes32"
                },
                {
                  "internalType": "bytes32",
                  "name": "s",
                  "type": "bytes32"
                }
              ],
              "internalType": "struct IAstariaRouter.NewLienRequest",
              "name": "lienRequest",
              "type": "tuple"
            }
          ],
          "internalType": "struct IAstariaRouter.Commitment",
          "name": "commitment",
          "type": "tuple"
        }
      ],
      "name": "validateCommitment",
      "outputs": [
        {
          "internalType": "bool",
          "name": "valid",
          "type": "bool"
        },
        {
          "components": [
            {
              "internalType": "uint256",
              "name": "maxAmount",
              "type": "uint256"
            },
            {
              "internalType": "uint256",
              "name": "rate",
              "type": "uint256"
            },
            {
              "internalType": "uint256",
              "name": "duration",
              "type": "uint256"
            },
            {
              "internalType": "uint256",
              "name": "maxPotentialDebt",
              "type": "uint256"
            }
          ],
          "internalType": "struct IAstariaRouter.LienDetails",
          "name": "ld",
          "type": "tuple"
        }
      ],
      "stateMutability": "nonpayable",
      "type": "function"
    },
    {
      "inputs": [
        {
          "internalType": "address",
          "name": "",
          "type": "address"
        }
      ],
      "name": "vaults",
      "outputs": [
        {
          "internalType": "address",
          "name": "",
          "type": "address"
        }
      ],
      "stateMutability": "view",
      "type": "function"
    }
  ],
  "bytecode": {
    "object": "0x610100346200023257601f620048c638819003918201601f19168301916001600160401b03831184841017620002375780849260e094604052833981010312620002325780516001600160a01b038082169291839003620002325762000068602083016200024d565b918162000078604083016200024d565b918162000088606083016200024d565b8162000097608085016200024d565b9181620000b560c0620000ad60a089016200024d565b97016200024d565b978160018060a01b03199b338d60005416176000556001549d6040519e33337f8292fce18fa69edf4db7b94ea2e58241df0ae57f97e0a6c9b29067028bf92d76600080a381337fa3396fd7f6e0a21b50e5089d2da70d5ac0a3bbbd1f617a93f134b76389980198600080a360018060a81b03191617600155166080521660a0521660c0521660e0521683600254161760025516906003541617600355600d60075562f1ed2f600c5560c86008556103e86009556212750060018060401b0319600d541617600d5561466390816200026382396080518181816104e5015281816107ba015281816112070152818161185e015281816123f801526135b6015260a0518181816104890152818161075d01528181611d8701528181611fa9015281816120e70152818161257d015281816131bb01528181613e8e0152818161415f01526141c7015260c05181818161102801528181611b5b015281816138d00152613a84015260e0518181816111e3015281816117d801526124220152f35b600080fd5b634e487b7160e01b600052604160045260246000fd5b51906001600160a01b0382168203620002325756fe60806040526004361015610013575b600080fd5b60003560e01c8063017e7e581461039757806308a9376d1461038e5780630a036a0a146103855780630ac2581b1461037c5780630df5e782146103735780630f0245ad1461036a57806313af4035146103615780631f9b5aaf146103585780632fa8df591461034f578063334e836714610346578063379bd5531461033d57806341700b971461033457806343dc02a71461032b57806348e639f8146103225780634c03d3ed1461031957806351a1d308146103105780635247e37a14610307578063554f0763146102fe5780635c975abb146102f55780635d8e656d146102ec578063627cdcb9146102e35780636322be99146102da57806364219450146102d15780637a9e5e4b146102c85780637b925698146102bf5780638da5cb5b146102b65780638e674622146102ad5780638f7afcac146102a457806396d6401d1461029b578063a622ee7c14610292578063ad5c464814610289578063b4fb7e3914610280578063bb36e16914610277578063bce1e58b1461026e578063bd21c4b014610265578063bf7e214f1461025c578063c631d84b14610253578063c65a7ecf1461024a578063d249cd3114610241578063d296d1f114610238578063d84335d71461022f578063d96bf2d314610226578063d9f5e0341461021d578063da95f78b146102145763f5f1f1a71461020c57600080fd5b61000e612566565b5061000e6123a3565b5061000e6122e6565b5061000e612233565b5061000e6121e2565b5061000e611b22565b5061000e611a72565b5061000e6119c6565b5061000e61199a565b5061000e611970565b5061000e611951565b5061000e6118cb565b5061000e6118ac565b5061000e61188d565b5061000e611847565b5061000e611807565b5061000e6117c1565b5061000e6117a2565b5061000e611778565b5061000e61174e565b5061000e611625565b5061000e6114bd565b5061000e61147b565b5061000e611425565b5061000e6113f4565b5061000e6113ca565b5061000e6113a3565b5061000e611384565b5061000e61135a565b5061000e6111a4565b5061000e61117c565b5061000e61113e565b5061000e611065565b5061000e611011565b5061000e610feb565b5061000e610fcc565b5061000e610eb0565b5061000e610a34565b5061000e6109b1565b5061000e610983565b5061000e6106da565b5061000e6106bb565b5061000e61042c565b5061000e6103d5565b5061000e6103ab565b600091031261000e57565b503461000e57600036600319011261000e576006546040516001600160a01b039091168152602090f35b503461000e57600036600319011261000e576020600e54604051908152f35b6001600160a01b0381160361000e57565b60443590610412826103f4565b565b60c43590610412826103f4565b3590610412826103f4565b503461000e5760208060031936011261000e5760043561044b816103f4565b61045d60ff60015460a01c16156126d7565b6003546001600160a01b0316604051634226b1bf60e01b81526001600160a01b039161056d91610561917f000000000000000000000000000000000000000000000000000000000000000085168783600481845afa9283156106ae575b60009361067b575b5060405133606090811b6bffffffffffffffffffffffff199081168b84019081527f00000000000000000000000000000000000000000000000000000000000000008a16831b8216601482015293821b8116602885015230821b8116603c850152948816901b909316605082015242606482015260006084820152600160a482015261055c90839060c4015b03601f198101845283610ae6565b613d61565b6001600160a01b031690565b9081169161058b61057c610b66565b6001600160a01b039092168252565b823b1561000e57604051633cfffd3960e01b815290516001600160a01b031660048201527f4241302c393c713e690702c4a45a57e93cef59aa8c6e2358495853b3420551d89161064a9160008160248183895af1801561066e575b610655575b506001600160a01b038116600090815260106020526040902061062a9033905b80546001600160a01b0319166001600160a01b03909216919091179055565b604080513381526001600160a01b03909216602083015290918291820190565b0390a1604051908152f35b8061066261066892610ab8565b806103a0565b386105eb565b6106766125cc565b6105e6565b61055c9193506106a090893d8b116106a7575b6106988183610ae6565b810190612d24565b92906104c2565b503d61068e565b6106b66125cc565b6104ba565b503461000e57600036600319011261000e576020600754604051908152f35b503461000e5760408060031936011261000e57600435602435916106fd836103f4565b61070f60ff60015460a01c16156126d7565b811561095757600e54821080159061094b575b61072b90613cc9565b60025461082690610561906001600160a01b0316936002945b8451634226b1bf60e01b81526001600160a01b039690927f000000000000000000000000000000000000000000000000000000000000000088169190602085600481865afa94851561093e575b600095610912575b50875133606090811b6bffffffffffffffffffffffff1990811660208401527f00000000000000000000000000000000000000000000000000000000000000008c16821b8116603484015294811b8516604883015230811b8516605c830152958a1690951b909216607085015242608485015260a484019190915260c483015261055c8260e4810161054e565b91821691610844610835610b66565b6001600160a01b039095168552565b823b1561000e578151633cfffd3960e01b815293516001600160a01b031660048501526020937f4241302c393c713e690702c4a45a57e93cef59aa8c6e2358495853b3420551d8916108e991600081602481838a5af18015610905575b6108f2575b506001600160a01b03811660009081526010602052604090206108ca90339061060b565b83513381526001600160a01b0390911660208201529081906040820190565b0390a151908152f35b806106626108ff92610ab8565b386108a6565b61090d6125cc565b6108a1565b61054e9195509161093461055c949360203d81116106a7576106988183610ae6565b9591509192610799565b6109466125cc565b610791565b50600f54821115610722565b60035461082690610561906001600160a01b031693600194610744565b9081602091031261000e573590565b503461000e57602036600319011261000e5760206109a9600a54600b5490600435613c07565b604051908152f35b503461000e57602036600319011261000e576004356109cf816103f4565b6000906109ef6109ea83356001600160e01b0319163361261b565b6125e0565b81546001600160a01b0319166001600160a01b03919091169081178255337f8292fce18fa69edf4db7b94ea2e58241df0ae57f97e0a6c9b29067028bf92d768380a380f35b503461000e57600036600319011261000e576002546040516001600160a01b039091168152602090f35b50634e487b7160e01b600052604160045260246000fd5b60a081019081106001600160401b03821117610a9057604052565b610a98610a5e565b604052565b606081019081106001600160401b03821117610a9057604052565b6001600160401b038111610a9057604052565b608081019081106001600160401b03821117610a9057604052565b90601f801991011681019081106001600160401b03821117610a9057604052565b6040519061010082018281106001600160401b03821117610a9057604052565b6040519061014082018281106001600160401b03821117610a9057604052565b6040519060e082018281106001600160401b03821117610a9057604052565b60405190602082018281106001600160401b03821117610a9057604052565b6020906001600160401b038111610b9e575b60051b0190565b610ba6610a5e565b610b97565b60ff81160361000e57565b610104359061041282610bab565b359061041282610bab565b91908260a091031261000e57604051610be781610a75565b60808082948035610bf781610bab565b84526020810135610c07816103f4565b60208501526040810135604085015260608101356060850152013591610c2c836103f4565b0152565b81601f8201121561000e578035906001600160401b038211610c87575b60405192610c65601f8401601f191660200185610ae6565b8284526020838301011161000e57816000926020809301838601378301015290565b610c8f610a5e565b610c4d565b81601f8201121561000e57803591610cab83610b85565b92610cb96040519485610ae6565b808452602092838086019260051b82010192831161000e578301905b828210610ce3575050505090565b81358152908301908301610cd5565b8015150361000e57565b610124359061041282610cf2565b919060608382031261000e57604051610d2281610a9d565b80938035825260209081810135906001600160401b039182811161000e5785610d4c918301610c94565b83850152604081013591821161000e57019280601f8501121561000e578335610d7481610b85565b94610d826040519687610ae6565b818652838087019260051b82010192831161000e578301905b828210610dac575050505060400152565b8380918335610dba81610cf2565b815201910190610d9b565b919060608382031261000e5760405192610dde84610a9d565b838135610dea816103f4565b81526020820135602082015260408201356001600160401b039283821161000e5701926101808482031261000e57610e20610b07565b93610e2b8282610bcf565b8552610e3960a08201610bc4565b602086015260c081013584811161000e5782610e56918301610c30565b604086015260e081013593841161000e57610e78610160926040958301610d0a565b60608601526101008101356080860152610e956101208201610bc4565b60a086015261014081013560c0860152013560e08401520152565b503461000e576003196020368201811361000e576004356001600160401b039283821161000e5760a090823603011261000e5760405191610ef083610a75565b816004013584811161000e5782013660238201121561000e57600481013590610f1882610b85565b90610f266040519283610ae6565b8282528382016024809460051b8301019136831161000e57848101915b838310610fa6575050505090610f5c9185528301610421565b9083015260448101356040830152606481013592831161000e576084610f9a91610f8f610fa49560043691840101610c30565b606085015201610421565b6080820152613547565b005b82358a811161000e578791610fc18392893691870101610dc5565b815201920191610f43565b503461000e57600036600319011261000e576020600a54604051908152f35b503461000e57602036600319011261000e5760206109a960085460095490600435613c07565b503461000e57600036600319011261000e576040517f00000000000000000000000000000000000000000000000000000000000000006001600160a01b03168152602090f35b9081606091031261000e5790565b503461000e57604036600319011261000e576024356001600160401b03811161000e57611096903690600401611057565b6110a860ff60015460a01c16156126d7565b60806110b76040830183612c31565b01356110c2816103f4565b6001600160a01b0316906110e36110d882612c85565b6020830135906142b6565b90823b1561000e576111139260009283604051809681958294631962dc5560e01b84526004359060048501613723565b03925af18015611131575b61112457005b80610662610fa492610ab8565b6111396125cc565b61111e565b503461000e57602036600319011261000e5760043561115c816103f4565b60018060a01b031660005260116020526020604060002054604051908152f35b503461000e57600036600319011261000e5760206001600160401b03600d5416604051908152f35b503461000e57604036600319011261000e576004356111c2816103f4565b602435906111d860ff60015460a01c16156126d7565b6001600160a01b03917f00000000000000000000000000000000000000000000000000000000000000008316917f000000000000000000000000000000000000000000000000000000000000000091833b1561000e5760405163f3913e6960e01b81528386166001600160a01b03166004820152336024820152306044820152606481018290526020946112f4946112c8928492869291906000908290608490829084905af1801561134d575b61133a575b506112c3896112bb6112ae8560018060a01b03166000526010602052604060002090565b546001600160a01b031690565b161515613932565b61338f565b604051636e553f6560e01b81526004810191909152336024820152938492839160009183906044820190565b0393165af1801561132d575b61130657005b610fa49060203d8111611326575b61131e8183610ae6565b810190613782565b503d611314565b6113356125cc565b611300565b8061066261134792610ab8565b3861128a565b6113556125cc565b611285565b503461000e57600036600319011261000e576004546040516001600160a01b039091168152602090f35b503461000e57600036600319011261000e576020600954604051908152f35b503461000e57600036600319011261000e57602060ff60015460a01c166040519015158152f35b503461000e57600036600319011261000e576003546040516001600160a01b039091168152602090f35b503461000e576000806003193601126114225733815260116020526040812061141d8154612770565b905580f35b80fd5b503461000e57604036600319011261000e576024356001600160401b0380821161000e573660238301121561000e57816004013590811161000e57366024828401011161000e576024610fa492016004356127ec565b503461000e57602036600319011261000e57602060043561149b816103f4565b60018060a01b0380911660005260108252604060002054161515604051908152f35b503461000e57602036600319011261000e576004356114db816103f4565b600080549091906114f4906001600160a01b0316610561565b33148015611552575b611506906125d9565b600180546001600160a01b0319166001600160a01b0383161790556001600160a01b0316337fa3396fd7f6e0a21b50e5089d2da70d5ac0a3bbbd1f617a93f134b763899801988380a380f35b506001546115069061156c906001600160a01b0316610561565b60405163b700961360e01b81523360048201523060248201526001600160e01b0319853516604482015290602090829060649082905afa9081156115e8575b84916115ba575b5090506114fd565b6115db915060203d81116115e1575b6115d38183610ae6565b8101906125b7565b386115b2565b503d6115c9565b6115f06125cc565b6115ab565b9181601f8401121561000e578235916001600160401b03831161000e576020808501948460051b01011161000e57565b503461000e57604036600319011261000e576001600160401b0360043581811161000e57611657903690600401610c94565b60243582811161000e5761166f9036906004016115f5565b60009161168a6109ea84356001600160e01b0319163361261b565b8184510361171257825b845181101561170e576116a781866127ca565b5183821015611701575b8160051b830135601e19843603018112156116fd578301908135918883116116f9576020019082360382136116f957916116ef916116f494936127ec565b612770565b611694565b8680fd5b8580fd5b61170961278c565b6116b1565b8380f35b60405162461bcd60e51b81526020600482015260146024820152730c8c2e8c240d8cadccee8d040dad2e6dac2e8c6d60631b6044820152606490fd5b503461000e57600036600319011261000e576000546040516001600160a01b039091168152602090f35b503461000e57600036600319011261000e576005546040516001600160a01b039091168152602090f35b503461000e57600036600319011261000e576020600c54604051908152f35b503461000e57600036600319011261000e576040517f00000000000000000000000000000000000000000000000000000000000000006001600160a01b03168152602090f35b503461000e57602036600319011261000e576020600435611827816103f4565b60018060a01b038091166000526010825260406000205416604051908152f35b503461000e57600036600319011261000e576040517f00000000000000000000000000000000000000000000000000000000000000006001600160a01b03168152602090f35b503461000e57600036600319011261000e576020600854604051908152f35b503461000e57600036600319011261000e576020600f54604051908152f35b503461000e57600080600319360112611422576118f66109ea82356001600160e01b0319163361261b565b60015461191260ff8260a01c161561190d816126d7565b6126d7565b60ff60a01b1916600160a01b176001556040513381527f62e78cea01bee320cd4e420270b5ea74000d11b0c9f74754ebdbfc544b05a25890602090a180f35b503461000e57600036600319011261000e576020600b54604051908152f35b503461000e57600036600319011261000e576001546040516001600160a01b039091168152602090f35b503461000e57604036600319011261000e5760206119bc602435600435613a54565b6040519015158152f35b503461000e57600080600319360112611422576119f16109ea82356001600160e01b0319163361261b565b600154611a0c60ff8260a01c16611a0781612716565b612716565b60ff60a01b19166001556040513381527f5db9ee0a495bf2e6ff9c91a7834c1ba4fdd244a5e8aa4e537bd38aeae4b073aa90602090a180f35b602060031982011261000e57600435906001600160401b03821161000e57611a6f91600401611057565b90565b503461000e57611a8136611a45565b611a9360ff60015460a01c16156126d7565b336000908152601060205260409020546001600160a01b031615611ad157611abd611acd9161380e565b6040519081529081906020820190565b0390f35b60405162461bcd60e51b815260206004820152602360248201527f74686973207661756c7420686173206e6f74206265656e20696e697469616c696044820152621e995960ea1b6064820152608490fd5b503461000e5760408060031936011261000e5760049081359060243592611b51611b4c8585613a54565b613b23565b60018060a01b03807f0000000000000000000000000000000000000000000000000000000000000000169183516319e8f9f760e21b8152600096878280611b9f8a8783019190602083019252565b0381885afa9182156121d5575b88926121b1575b50875b82518110156120a257611bc981846127ca565b51908751632085db6160e11b815261014090818180611bef878b83019190602083019252565b03818c5afa918215612095575b8c92612068575b50508a60c0820193878b8187818d611c27610561610561855160018060a01b031690565b906002865180936378305c5760e11b82528160209a8b9687935afa90811561205b575b8b9161203e575b50149384611f57575b50505050611c78575b505050505050611c739150612770565b611bb6565b87838281611c96610561610561611cf89c9e5160018060a01b031690565b8651635cbeecf160e11b815292839182905afa908115611f4a575b8891611f1d575b508251611ccf90610561906001600160a01b031681565b855180809b8194636793100160e11b83528883019190916001600160401b036020820193169052565b03915afa968715611f10575b8697611ef1575b508c871615611e7e575b5050508a3b15611e7a5788818b808f978f8882611d6192611dbf9a838a8f51968795869485936343e9324d60e11b855284019092916020906040830194835260018060a01b0316910152565b03925af18015611e6d575b611e5a575b50169851965192838092633741500760e21b82527f0000000000000000000000000000000000000000000000000000000000000000165afa918215611e4d575b8492611e30575b505061336a565b843b15611e2c578a516359a13ae560e01b81528089019384526020840191909152611c7394909283919082908490829060400103925af18015611e1f575b611e0c575b8a81808b89611c63565b80610662611e1992610ab8565b38611e02565b611e276125cc565b611dfd565b5080fd5b611e469250803d106113265761131e8183610ae6565b3880611db8565b611e556125cc565b611db1565b80610662611e6792610ab8565b38611d71565b611e756125cc565b611d6c565b8280fd5b51929550849286929190611e9c90610561906001600160a01b031681565b915180948193633b63ea8360e01b83525af1908115611ee4575b8391611ec7575b50928b8938611d15565b611ede9150843d86116106a7576106988183610ae6565b38611ebd565b611eec6125cc565b611eb6565b611f09919750843d86116106a7576106988183610ae6565b9538611d0b565b611f186125cc565b611d04565b611f3d9150823d8411611f43575b611f358183610ae6565b810190613be8565b38611cb8565b503d611f2b565b611f526125cc565b611cb1565b5192935083928290611f7390610561906001600160a01b031681565b875163200298bf60e01b815294859182905afa928315612031575b8993612012575b508551633741500760e21b815293849182907f0000000000000000000000000000000000000000000000000000000000000000165afa918215612005575b8792611fe6575b50111581848e8b611c5a565b611ffe919250853d87116113265761131e8183610ae6565b9038611fda565b61200d6125cc565b611fd3565b61202a919350823d84116113265761131e8183610ae6565b9138611f95565b6120396125cc565b611f8e565b6120559150843d86116113265761131e8183610ae6565b38611c51565b6120636125cc565b611c4a565b6120879250803d1061208e575b61207f8183610ae6565b810190613993565b3880611c03565b503d612075565b61209d6125cc565b611bfc565b6007548751633b3ddc2160e21b81528086018a8152336020828101919091526040820193909352611acd928c928b9287928e929182908d9082908990829060600103927f0000000000000000000000000000000000000000000000000000000000000000165af19485156121a4575b94612160575b5082519081526020810191909152604081018390527fc5cb827645ffa2009bf4c45a58df393302651bf85a1f49ba3bd75c05032bcde290606090a1519081529081906020820190565b7fc5cb827645ffa2009bf4c45a58df393302651bf85a1f49ba3bd75c05032bcde29291945061219c9060203d81116113265761131e8183610ae6565b939091612117565b6121ac6125cc565b612111565b6121ce9192503d808a833e6121c68183610ae6565b810190613b6f565b9038611bb3565b6121dd6125cc565b611bac565b503461000e5760a06122316121fe6121f936611a45565b61309a565b60409291925192151583526020830190606080918051845260208101516020850152604081015160408501520151910152565bf35b503461000e57602036600319011261000e5760043561ffff811680910361000e576000526012602052602060018060a01b0360406000205416604051908152f35b63ffffffff81160361000e57565b6084359061041282612274565b60a4359061041282612274565b60e4359061041282612274565b60809061014319011261000e57604051906122c382610acb565b6101443582526101643560208301526101843560408301526101a4356060830152565b503461000e5736600319016101c0811261000e576101401361000e57611acd612391612310610b27565b60043581526024356020820152612325610405565b6040820152606435606082015261233a612282565b608082015261234761228f565b60a0820152612354610414565b60c082015261236161229c565b60e082015261236e610bb6565b61010082015261237c610cfc565b61012082015261238b366122a9565b90613c1f565b60405190151581529081906020820190565b503461000e5760208060031936011261000e576004356001600160401b03811161000e576123d59036906004016115f5565b90916123e960ff60015460a01c16156126d7565b60009283925b8084106124d8577f0000000000000000000000000000000000000000000000000000000000000000856001600160a01b037f000000000000000000000000000000000000000000000000000000000000000081169061244f83838661338f565b813b1561000e5760405163f3913e6960e01b815293166001600160a01b0316600484015230602484015233604484015260648301829052611acd929060009082908183816084810103925af180156124cb575b6124b8575b506040519081529081906020820190565b806106626124c592610ab8565b826124a7565b6124d36125cc565b6124a2565b9091929361252e61255e9161250d6124f96124f4898789613339565b612c85565b876125058a888a613339565b01359061412c565b61252861252361251e898789613339565b61335f565b613e56565b90613382565b946116ef6125406124f4838688613339565b61255933918861255186898b613339565b0135906142b6565b6141bc565b9291906123ef565b503461000e57600036600319011261000e576040517f00000000000000000000000000000000000000000000000000000000000000006001600160a01b03168152602090f35b519061041282610cf2565b9081602091031261000e5751611a6f81610cf2565b506040513d6000823e3d90fd5b1561000e57565b156125e757565b60405162461bcd60e51b815260206004820152600c60248201526b15539055551213d49256915160a21b6044820152606490fd5b6001546001600160a01b0390811680151593908461264f575b5050821561264157505090565b809192506000541691161490565b60405163b700961360e01b81526001600160a01b03851660048201523060248201526001600160e01b031992909216604483015291935090602090829060649082905afa9081156126ca575b6000916126ac575b50913880612634565b6126c4915060203d81116115e1576115d38183610ae6565b386126a3565b6126d26125cc565b61269b565b156126de57565b60405162461bcd60e51b815260206004820152601060248201526f14185d5cd8589b194e881c185d5cd95960821b6044820152606490fd5b1561271d57565b60405162461bcd60e51b815260206004820152601460248201527314185d5cd8589b194e881b9bdd081c185d5cd95960621b6044820152606490fd5b50634e487b7160e01b600052601160045260246000fd5b6001906000198114612780570190565b612788612759565b0190565b50634e487b7160e01b600052603260045260246000fd5b6020908051156127b1570190565b61278861278c565b6040908051600110156127b1570190565b60209181518110156127df575b60051b010190565b6127e761278c565b6127d7565b6128056109ea6000356001600160e01b0319163361261b565b7f4c49515549444154494f4e5f4645455f50455243454e5400000000000000000081036128425750806104129261283d920190610974565b600755565b6f4d494e5f494e5445524553545f42505360801b81036128725750806104129261286d920190610974565b600c55565b7220a8282920a4a9a2a92fa72aa6a2a920aa27a960691b81036128a5575080610412926128a0920190610974565b600855565b7f4150505241495345525f4f524947494e4154494f4e5f4645455f42415345000081036128e2575080610412926128dd920190610974565b600955565b744d494e5f4455524154494f4e5f494e43524541534560581b810361293d57506129158161041293612921930190610974565b6001600160401b031690565b6001600160401b03166001600160401b0319600d541617600d55565b7f57495448445241575f494d504c454d454e544154494f4e000000000000000000810361299557506105618161041293612978930190612bd9565b60018060a01b03166001600160601b0360a01b6004541617600455565b7f4c49515549444154494f4e5f494d504c454d454e544154494f4e00000000000081036129ed575061056181610412936129d0930190612bd9565b60018060a01b03166001600160601b0360a01b6005541617600555565b732b20aaa62a2fa4a6a82622a6a2a72a20aa24a7a760611b8103612a3c57506105618161041293612a1f930190612bd9565b60018060a01b03166001600160601b0360a01b6002541617600255565b7229a7a627afa4a6a82622a6a2a72a20aa24a7a760691b8103612a8a57506105618161041293612a6d930190612bd9565b60018060a01b03166001600160601b0360a01b6003541617600355565b6f09a929cbe8aa09e8690be988a9c8ea8960831b8103612aba57508061041292612ab5920190610974565b600e55565b6f09a82b0be8aa09e8690be988a9c8ea8960831b8103612aea57508061041292612ae5920190610974565b600f55565b64666565546f60d81b8103612b2a57506105618161041293612b0d930190612bd9565b60018060a01b03166001600160601b0360a01b6006541617600655565b7339b2ba29ba3930ba32b3bcab30b634b230ba37b960611b03612b7c57612b5a816104129361060b930190612bb4565b60ff90911660009081526012602052604090206001600160a01b039190911691565b60405162461bcd60e51b815260206004820152601060248201526f756e737570706f727465642f66696c6560801b6044820152606490fd5b919082604091031261000e5760208235612bcd81610bab565b920135611a6f816103f4565b9081602091031261000e5735611a6f816103f4565b60405190608082018281106001600160401b03821117612c24575b60405260006060838281528260208201528260408201520152565b612c2c610a5e565b612c09565b90359061017e198136030182121561000e570190565b15612c4e57565b60405162461bcd60e51b815260206004820152600f60248201526e191958591b1a5b99481c185cdcd959608a1b6044820152606490fd5b35611a6f816103f4565b15612c9657565b60405162461bcd60e51b815260206004820152600d60248201526c696e76616c6964206e6f6e636560981b6044820152606490fd5b35611a6f81610bab565b15612cdc57565b60405162461bcd60e51b8152602060048201526015602482015274696e76616c6964207374726174656779207479706560581b6044820152606490fd5b5190610412826103f4565b9081602091031261000e5751611a6f816103f4565b919082608091031261000e57604051612d5181610acb565b60608082948051845260208101516020850152604081015160408501520151910152565b919060a08382031261000e5782516001600160401b03811161000e57830181601f8201121561000e57805190612daa82610b85565b90612db86040519283610ae6565b828252602092838084019160051b8301019185831161000e578401905b828210612dec5750505090611a6f92919401612d39565b81518152908401908401612dd5565b9035601e198236030181121561000e5701602081359101916001600160401b03821161000e57813603831361000e57565b908060209392818452848401376000828201840152601f01601f1916010190565b9035605e198236030181121561000e570190565b9035601e198236030181121561000e5701602081359101916001600160401b03821161000e578160051b3603831361000e57565b803582526020612ea781830183612e61565b60608584018190528501819052906001600160fb1b03821161000e5760a09160059493941b809160808701378401612ee760808201936040810190612e61565b9386604060808794998603019101525201929160005b828110612f0b575050505090565b9091929382806001928735612f1f81610cf2565b1515815201950193929101612efd565b9060ff8235612f3d81610bab565b1681526020820135612f4e816103f4565b6001600160a01b03908116602083015260408381013590830152606080840135908301526080830135612f80816103f4565b166080820152612f9f612f9560a08401610bc4565b60ff1660a0830152565b612fdd612fc3612fb260c0850185612dfb565b6101808060c0870152850191612e2c565b612fd060e0850185612e4d565b83820360e0850152612e95565b916101008082013590830152613003610120612ffa818401610bc4565b60ff1690840152565b61014080820135908301526101608091013591015290565b909161303560609396959496608084526080840190612f2f565b6001600160a01b039182166020840152951660408201520152565b903590605e198136030182121561000e570190565b903590601e198136030182121561000e57018035906001600160401b03821161000e57602001918160051b3603831361000e57565b906130a3612bee565b5060408201906130c260606130b88486612c31565b0135421115612c47565b60406130ce8385612c31565b01359261310f6020946131086130ee876130e88887612c31565b01612c85565b6001600160a01b0316600090815260116020526040902090565b5414612c8f565b6001600160a01b03906131528261314a6112ae61313760a06131318a88612c31565b01612ccb565b60ff166000526012602052604060002090565b161515612cd5565b600061316f6105616105616112ae61313760a06131318b89612c31565b6131798684612c31565b906131b78861318786612c85565b966131968288013580996142b6565b9060405180809581946331a9108f60e11b8352600483019190602083019252565b03917f0000000000000000000000000000000000000000000000000000000000000000165afa90811561332c575b849161330f575b50836131f786612c85565b9361321860405198899687958694639f293d1b60e01b86526004860161301b565b03925af1938415613302575b60009283956132d4575b506132726132a3949596613241856127a3565b5161324b866127b9565b51106132a7575b61326961325f8486612c31565b60e0810190613050565b90810190613065565b61329c61325f61329461328a61325f87899799612c31565b6040810190613065565b959094612c31565b35936143d9565b9190565b6132b0856127a3565b516132ba866127b9565b516132c4876127a3565b526132ce866127b9565b52613252565b6132a39495506132f990613272943d8091833e6132f18183610ae6565b810190612d75565b9594509261322e565b61330a6125cc565b613224565b6133269150893d8b116106a7576106988183610ae6565b386131ec565b6133346125cc565b6131e5565b9091611a6f92811015613352575b60051b810190613050565b61335a61278c565b613347565b611a6f903690610dc5565b9062015180820180921161337a57565b610412612759565b9190820180921161337a57565b600091826044926020956040519363095ea7b360e01b8552600485015260248401525af13d15601f3d11600160005114161716156133c957565b60405162461bcd60e51b815260206004820152600e60248201526d1054141493d59157d1905253115160921b6044820152606490fd5b1561340657565b60405162461bcd60e51b815260206004820152603a60248201527f70757263686173652070726963652063616e6e6f7420626520666f72206d6f7260448201527f65207468616e20796f757220616767726567617465206c6f616e0000000000006064820152608490fd5b919082519283825260005b84811061349d575050826000602080949584010152601f8019910116010190565b60208183018101518483018201520161347c565b9294936134c960609392608086526080860190613471565b6001600160a01b039283166020860152604085019690965216910152565b156134ee57565b60405162461bcd60e51b8152602060048201526015602482015274189bdc9c9bddc8185b9908189d5e4819985a5b1959605a1b6044820152606490fd5b60001981019190821161337a57565b9190820391821161337a57565b600090815b81518051841015613598576135929161357161356b8661358c946127ca565b51613e56565b50608060406135818787516127ca565b510151015190613382565b92612770565b9161354c565b509150604081016135ac83825111156133ff565b61365c61364260207f000000000000000000000000000000000000000000000000000000000000000094606061360d6105616105618585016136006135f7825160018060a01b031690565b8b51908d61338f565b516001600160a01b031690565b910151855160405163150f88b960e11b81529485939284926000928492909133916001600160a01b038e1690600486016134b1565b03925af19081156136a5575b600091613687575b506134e7565b61366781518461353a565b61367057505050565b6104129261367f91519061353a565b9033906136b2565b61369f915060203d81116115e1576115d38183610ae6565b38613656565b6136ad6125cc565b61364e565b600091826044926020956040519363a9059cbb60e01b8552600485015260248401525af13d15601f3d11600160005114161716156136ec57565b60405162461bcd60e51b815260206004820152600f60248201526e1514905394d1915497d19052531151608a1b6044820152606490fd5b9291908352602083015260606040830152803561373f816103f4565b6001600160a01b03166060830152602081013560808301526040810135903681900361017e190182121561000e5760c083606060a0611a6f960152019101612f2f565b9081602091031261000e575190565b91909161012060c061014083019460018060a01b03808251168552602082015160208601526137e660408301516040870190606080918051845260208101516020850152604081015160408501520151910152565b606082015183860152608082015160e086015260a08201511661010085015201511515910152565b60206138ca9161381c612bee565b506138a96138298261309a565b92905061383581612c85565b92604082019061384861325f8385612c31565b35908661386960806130e8610100613860888a612c31565b01359688612c31565b94613884613875610b47565b6001600160a01b039099168952565b0135868801526040860152606085015260808401526001600160a01b031660a0830152565b600160c08201526040518093819263024f768560e11b835260048301613791565b038160007f00000000000000000000000000000000000000000000000000000000000000006001600160a01b03165af1908115613925575b60009161390d575090565b611a6f915060203d81116113265761131e8183610ae6565b61392d6125cc565b613902565b1561393957565b606460405162461bcd60e51b815260206004820152602060248201527f6c656e64546f5661756c743a207661756c7420646f65736e27742065786973746044820152fd5b519061041282612274565b519061041282610bab565b908161014091031261000e576139a7610b27565b9080518252602081015160208301526139c260408201612d19565b6040830152606081015160608301526139dd6080820161397d565b60808301526139ee60a0820161397d565b60a08301526139ff60c08201612d19565b60c0830152613a1060e0820161397d565b60e0830152610100613a23818301613988565b90830152613a356101208092016125ac565b9082015290565b91909163ffffffff8080941691160191821161337a57565b6040516362acb39360e11b8152600481019190915260248101919091526101409081816044816001600160a01b037f0000000000000000000000000000000000000000000000000000000000000000165afa918215613b16575b600092613af9575b5050613add613acc608083015163ffffffff1690565b60e083015163ffffffff1690613a3c565b63ffffffff42911611159081613af1575090565b905051151590565b613b0f9250803d1061208e5761207f8183610ae6565b3880613ab6565b613b1e6125cc565b613aae565b15613b2a57565b60405162461bcd60e51b815260206004820152601c60248201527f6c69717569646174653a20626f72726f77206973206865616c746879000000006044820152606490fd5b602090818184031261000e578051906001600160401b03821161000e57019180601f8401121561000e578251613ba481610b85565b93613bb26040519586610ae6565b818552838086019260051b82010192831161000e578301905b828210613bd9575050505090565b81518152908301908301613bcb565b9081602091031261000e57516001600160401b038116810361000e5790565b8181029181830414901517821515161561000e570490565b6060810151600c548103908111613cbc575b602083015111159182613c4357505090565b613c899250613c8060e06040612528930151420193844211613caf575b63ffffffff6080820151168503948511613ca2575b015163ffffffff1690565b63ffffffff1690565b613c9e612915600d546001600160401b031690565b1090565b613caa612759565b613c75565b613cb7612759565b613c60565b613cc4612759565b613c31565b15613cd057565b60405162461bcd60e51b815260206004820152605c60248201527f65706f63684c656e677468206d7573742062652067726561746572207468616e60448201527f206f7220657175616c20746f204d494e5f45504f43485f4c454e47544820616e60648201527f64206c657373207468616e204d41585f45504f43485f4c454e47544800000000608482015260a490fd5b8151604051606160f81b81526039820160f090811b60018301526f3d81600a3d39f33d3d3d3d363d3d376160801b600383015260028301901b601382018190526560373639366160d01b6015830152601b82015262013d7360e81b601d82015260609290921b6020808401919091526c5af43d3d93803e603557fd5bf360981b603484015293926041830190829086015b86821015613e405760439495968260001991036101000a011990511682528260f01b91015201906000f0906001600160a01b03821615613e2e57565b604051631d7fde3160e31b8152600490fd5b8051835291860191601f19909101908601613df2565b805160208201516001600160a01b0391613e72919083166142b6565b604051906331a9108f60e11b82526004820152602081602481857f0000000000000000000000000000000000000000000000000000000000000000165afa908115613f36575b600091613f18575b50163303613ed357611a6f903090613fc7565b60405162461bcd60e51b815260206004820152601f60248201527f696e76616c69642073656e64657220666f7220636f6c6c61746572616c4964006044820152606490fd5b613f30915060203d81116106a7576106988183610ae6565b38613ec0565b613f3e6125cc565b613eb8565b606082018151835260209182810151916060848601528251809152836080860193019060005b818110613fb3575050506040015192604081830391015281808451928381520193019160005b828110613f9d575050505090565b8351151585529381019392810192600101613f8f565b825185529385019391850191600101613f69565b60408101805151608001519092916001600160a01b03918216803b1561000e57602091600091604051938492630888a7f760e11b8452604060048501528681511660448501520151606483015281838189516060608483015261406460a48301825160809060ff81511683528160018060a01b03918260208201511660208601526040810151604086015260608101516060860152015116910152565b602081015160ff1661014483015260e06140aa6140936040840151610180610164870152610224860190613471565b606084015185820360a31901610184870152613f43565b60808301516101a485015260a083015160ff166101c48501529160c08101516101e485015201516102048301526001600160a01b038a16602483015203925af1801561411f575b61410c575b501630146141045750600090565b516080015190565b8061066261411992610ab8565b386140f6565b6141276125cc565b6140f1565b6001600160a01b0390811691823b1561000e5760a4600092836040519586948593635c46a7ef60e11b85523360048601527f00000000000000000000000000000000000000000000000000000000000000001660248501526044840152608060648401528160848401525af180156141af575b6141a65750565b61041290610ab8565b6141b76125cc565b61419f565b906001600160a01b037f00000000000000000000000000000000000000000000000000000000000000008116803b1561000e576000928360649260405196879586946323b872dd60e01b865230600487015216602485015260448401525af180156141af576141a65750565b1561422f57565b60405162461bcd60e51b81526020600482015260136024820152726d75737420737570706f72742065726337323160681b6044820152606490fd5b1561427157565b60405162461bcd60e51b815260206004820152601860248201527f6d75737420626520612076616c696420746f6b656e20696400000000000000006044820152606490fd5b6040516301ffc9a760e01b81526380ac58cd60e01b600482015290919061437f90602090614346906001600160a01b03908187169061430d908581602481865afa9081156143cc575b6000916143af575b50614228565b6040516331a9108f60e11b815260048101879052908490829060249082905afa9081156143a2575b600091614385575b5016151561426a565b6143716040519384928301958690916034926001600160601b03199060601b16825260148201520190565b03601f198101835282610ae6565b51902090565b61439c9150843d86116106a7576106988183610ae6565b3861433d565b6143aa6125cc565b614335565b6143c69150863d88116115e1576115d38183610ae6565b38614307565b6143d46125cc565b6142ff565b906143e7949593929161449c565b1490565b156143f257565b60405162461bcd60e51b815260206004820152601f60248201527f4d65726b6c6550726f6f663a20696e76616c6964206d756c746970726f6f66006044820152606490fd5b9061444182610b85565b61444e6040519182610ae6565b828152809261445f601f1991610b85565b0190602036910137565b90156144725790565b611a6f61278c565b919081101561448a5760051b0190565b610ba661278c565b35611a6f81610cf2565b9391929382516144be866144b86144b38685613382565b61352b565b146143eb565b6144c786614437565b946000908186838a815b81831061452457501594506144ff935050505057505050506144f56144fb9261352b565b906127ca565b5190565b92945090925090156145165750506144fb906127a3565b6145209250614469565b3590565b8b888210156145e1575061455283614549836145436145579591612770565b976127ca565b51935b8861447a565b614492565b156145be578a878410156145a15750906145896145999261458161457a86612770565b958d6127ca565b515b90614607565b614593828d6127ca565b52612770565b8a89926144d1565b9361459992916145b8826145436145899491612770565b51614583565b90614589614599926145da6145d289612770565b988c8c61447a565b3590614607565b9461455791945083614600826145fa6145529491612770565b986127ca565b519361454c565b6000828210156146205750600052602052604060002090565b906040928252602052209056fea2646970667358221220dbc2a4f6a078b1557f74f6156f6e2134f27f7feadfe79bbd5390acef716d389164736f6c63430008110033",
    "linkReferences": {}
  },
  "methodIdentifiers": {
    "COLLATERAL_TOKEN()": "f5f1f1a7",
    "LIEN_TOKEN()": "41700b97",
    "LIQUIDATION_FEE_PERCENT()": "0ac2581b",
    "LIQUIDATION_IMPLEMENTATION()": "8e674622",
    "MAX_EPOCH_LENGTH()": "bb36e169",
    "MIN_DURATION_INCREASE()": "4c03d3ed",
    "MIN_EPOCH_LENGTH()": "08a9376d",
    "MIN_INTEREST_BPS()": "8f7afcac",
    "PROTOCOL_FEE_BASE()": "bd21c4b0",
    "PROTOCOL_FEE_NUMERATOR()": "334e8367",
    "SOLO_IMPLEMENTATION()": "5d8e656d",
    "STRATEGIST_ORIGINATION_FEE_BASE()": "554f0763",
    "STRATEGIST_ORIGINATION_FEE_NUMERATOR()": "b4fb7e39",
    "TRANSFER_PROXY()": "96d6401d",
    "VAULT_IMPLEMENTATION()": "1f9b5aaf",
    "WETH()": "ad5c4648",
    "WITHDRAW_IMPLEMENTATION()": "5247e37a",
    "__emergencyPause()": "bce1e58b",
    "__emergencyUnpause()": "c65a7ecf",
    "authority()": "bf7e214f",
    "borrowAndBuy(((address,uint256,((uint8,address,uint256,uint256,address),uint8,bytes,(bytes32,bytes32[],bool[]),uint256,uint8,bytes32,bytes32))[],address,uint256,bytes,address))": "2fa8df59",
    "buyoutLien(uint256,(address,uint256,((uint8,address,uint256,uint256,address),uint8,bytes,(bytes32,bytes32[],bool[]),uint256,uint8,bytes32,bytes32)))": "43dc02a7",
    "canLiquidate(uint256,uint256)": "c631d84b",
    "commitToLiens((address,uint256,((uint8,address,uint256,uint256,address),uint8,bytes,(bytes32,bytes32[],bool[]),uint256,uint8,bytes32,bytes32))[])": "da95f78b",
    "feeTo()": "017e7e58",
    "file(bytes32,bytes)": "6322be99",
    "fileBatch(bytes32[],bytes[])": "7b925698",
    "getProtocolFee(uint256)": "0f0245ad",
    "getStrategistFee(uint256)": "379bd553",
    "incrementNonce()": "627cdcb9",
    "isValidRefinance((uint256,uint256,address,uint256,uint32,uint32,address,uint32,uint8,bool),(uint256,uint256,uint256,uint256))": "d9f5e034",
    "isValidVault(address)": "64219450",
    "lendToVault(address,uint256)": "51a1d308",
    "liquidate(uint256,uint256)": "d296d1f1",
    "newPublicVault(uint256,address)": "0df5e782",
    "newVault(address)": "0a036a0a",
    "owner()": "8da5cb5b",
    "paused()": "5c975abb",
    "requestLienPosition((address,uint256,((uint8,address,uint256,uint256,address),uint8,bytes,(bytes32,bytes32[],bool[]),uint256,uint8,bytes32,bytes32)))": "d249cd31",
    "setAuthority(address)": "7a9e5e4b",
    "setOwner(address)": "13af4035",
    "strategistNonce(address)": "48e639f8",
    "strategyValidators(uint16)": "d96bf2d3",
    "validateCommitment((address,uint256,((uint8,address,uint256,uint256,address),uint8,bytes,(bytes32,bytes32[],bool[]),uint256,uint8,bytes32,bytes32)))": "d84335d7",
    "vaults(address)": "a622ee7c"
  },
  "id": 32
}