{
  "abi": [
    {
      "inputs": [
        {
          "internalType": "address",
          "name": "weth_",
          "type": "address"
        },
        {
          "internalType": "address",
          "name": "AUTHORITY_",
          "type": "address"
        },
        {
          "internalType": "address",
          "name": "COLLATERAL_TOKEN_",
          "type": "address"
        },
        {
          "internalType": "address",
          "name": "LIEN_TOKEN_",
          "type": "address"
        },
        {
          "internalType": "address",
          "name": "transferProxy_",
          "type": "address"
        }
      ],
      "stateMutability": "nonpayable",
      "type": "constructor"
    },
    {
      "anonymous": false,
      "inputs": [
        {
          "indexed": true,
          "internalType": "uint256",
          "name": "tokenId",
          "type": "uint256"
        },
        {
          "indexed": false,
          "internalType": "address",
          "name": "sender",
          "type": "address"
        },
        {
          "indexed": false,
          "internalType": "uint256",
          "name": "value",
          "type": "uint256"
        },
        {
          "indexed": false,
          "internalType": "bool",
          "name": "firstBid",
          "type": "bool"
        },
        {
          "indexed": false,
          "internalType": "bool",
          "name": "extended",
          "type": "bool"
        }
      ],
      "name": "AuctionBid",
      "type": "event"
    },
    {
      "anonymous": false,
      "inputs": [
        {
          "indexed": true,
          "internalType": "uint256",
          "name": "tokenId",
          "type": "uint256"
        }
      ],
      "name": "AuctionCanceled",
      "type": "event"
    },
    {
      "anonymous": false,
      "inputs": [
        {
          "indexed": true,
          "internalType": "uint256",
          "name": "tokenId",
          "type": "uint256"
        },
        {
          "indexed": false,
          "internalType": "uint256",
          "name": "duration",
          "type": "uint256"
        },
        {
          "indexed": false,
          "internalType": "uint256",
          "name": "reservePrice",
          "type": "uint256"
        }
      ],
      "name": "AuctionCreated",
      "type": "event"
    },
    {
      "anonymous": false,
      "inputs": [
        {
          "indexed": true,
          "internalType": "uint256",
          "name": "tokenId",
          "type": "uint256"
        },
        {
          "indexed": false,
          "internalType": "uint256",
          "name": "duration",
          "type": "uint256"
        }
      ],
      "name": "AuctionDurationExtended",
      "type": "event"
    },
    {
      "anonymous": false,
      "inputs": [
        {
          "indexed": true,
          "internalType": "uint256",
          "name": "tokenId",
          "type": "uint256"
        },
        {
          "indexed": false,
          "internalType": "address",
          "name": "winner",
          "type": "address"
        },
        {
          "indexed": false,
          "internalType": "uint256",
          "name": "winningBid",
          "type": "uint256"
        },
        {
          "indexed": false,
          "internalType": "uint256[]",
          "name": "recipients",
          "type": "uint256[]"
        }
      ],
      "name": "AuctionEnded",
      "type": "event"
    },
    {
      "anonymous": false,
      "inputs": [
        {
          "indexed": true,
          "internalType": "uint256",
          "name": "tokenId",
          "type": "uint256"
        },
        {
          "indexed": false,
          "internalType": "uint256",
          "name": "reservePrice",
          "type": "uint256"
        }
      ],
      "name": "AuctionReservePriceUpdated",
      "type": "event"
    },
    {
      "anonymous": false,
      "inputs": [
        {
          "indexed": true,
          "internalType": "address",
          "name": "user",
          "type": "address"
        },
        {
          "indexed": true,
          "internalType": "contract Authority",
          "name": "newAuthority",
          "type": "address"
        }
      ],
      "name": "AuthorityUpdated",
      "type": "event"
    },
    {
      "anonymous": false,
      "inputs": [
        {
          "indexed": true,
          "internalType": "address",
          "name": "user",
          "type": "address"
        },
        {
          "indexed": true,
          "internalType": "address",
          "name": "newOwner",
          "type": "address"
        }
      ],
      "name": "OwnerUpdated",
      "type": "event"
    },
    {
      "inputs": [
        {
          "internalType": "uint256",
          "name": "tokenId",
          "type": "uint256"
        }
      ],
      "name": "auctionExists",
      "outputs": [
        {
          "internalType": "bool",
          "name": "",
          "type": "bool"
        }
      ],
      "stateMutability": "view",
      "type": "function"
    },
    {
      "inputs": [],
      "name": "authority",
      "outputs": [
        {
          "internalType": "contract Authority",
          "name": "",
          "type": "address"
        }
      ],
      "stateMutability": "view",
      "type": "function"
    },
    {
      "inputs": [
        {
          "internalType": "uint256",
          "name": "auctionId",
          "type": "uint256"
        },
        {
          "internalType": "address",
          "name": "canceledBy",
          "type": "address"
        }
      ],
      "name": "cancelAuction",
      "outputs": [],
      "stateMutability": "nonpayable",
      "type": "function"
    },
    {
      "inputs": [
        {
          "internalType": "uint256",
          "name": "tokenId",
          "type": "uint256"
        },
        {
          "internalType": "uint256",
          "name": "duration",
          "type": "uint256"
        },
        {
          "internalType": "address",
          "name": "initiator",
          "type": "address"
        },
        {
          "internalType": "uint256",
          "name": "initiatorFee",
          "type": "uint256"
        }
      ],
      "name": "createAuction",
      "outputs": [
        {
          "internalType": "uint256",
          "name": "reserve",
          "type": "uint256"
        }
      ],
      "stateMutability": "nonpayable",
      "type": "function"
    },
    {
      "inputs": [
        {
          "internalType": "uint256",
          "name": "tokenId",
          "type": "uint256"
        },
        {
          "internalType": "uint256",
          "name": "amount",
          "type": "uint256"
        }
      ],
      "name": "createBid",
      "outputs": [],
      "stateMutability": "nonpayable",
      "type": "function"
    },
    {
      "inputs": [
        {
          "internalType": "uint256",
          "name": "auctionId",
          "type": "uint256"
        }
      ],
      "name": "endAuction",
      "outputs": [
        {
          "internalType": "address",
          "name": "winner",
          "type": "address"
        }
      ],
      "stateMutability": "nonpayable",
      "type": "function"
    },
    {
      "inputs": [
        {
          "internalType": "uint256",
          "name": "_auctionId",
          "type": "uint256"
        }
      ],
      "name": "getAuctionData",
      "outputs": [
        {
          "internalType": "uint256",
          "name": "amount",
          "type": "uint256"
        },
        {
          "internalType": "uint256",
          "name": "duration",
          "type": "uint256"
        },
        {
          "internalType": "uint256",
          "name": "firstBidTime",
          "type": "uint256"
        },
        {
          "internalType": "uint256",
          "name": "reservePrice",
          "type": "uint256"
        },
        {
          "internalType": "address",
          "name": "bidder",
          "type": "address"
        }
      ],
      "stateMutability": "view",
      "type": "function"
    },
    {
      "inputs": [],
      "name": "owner",
      "outputs": [
        {
          "internalType": "address",
          "name": "",
          "type": "address"
        }
      ],
      "stateMutability": "view",
      "type": "function"
    },
    {
      "inputs": [
        {
          "internalType": "contract Authority",
          "name": "newAuthority",
          "type": "address"
        }
      ],
      "name": "setAuthority",
      "outputs": [],
      "stateMutability": "nonpayable",
      "type": "function"
    },
    {
      "inputs": [
        {
          "internalType": "uint8",
          "name": "newMax",
          "type": "uint8"
        }
      ],
      "name": "setMaxActiveAuctionsPerUnderlying",
      "outputs": [],
      "stateMutability": "nonpayable",
      "type": "function"
    },
    {
      "inputs": [
        {
          "internalType": "address",
          "name": "newOwner",
          "type": "address"
        }
      ],
      "name": "setOwner",
      "outputs": [],
      "stateMutability": "nonpayable",
      "type": "function"
    }
  ],
  "bytecode": {
    "object": "0x346200008c57620017b8388190036080601f8201601f19168101906001600160401b03821190821017620000915760a0928291604052608039126200008c576200007c6200004c620000a7565b62000056620000be565b62000060620000d5565b6200006a620000ec565b916200007562000103565b936200011b565b6040516114b59081620003038239f35b600080fd5b634e487b7160e01b600052604160045260246000fd5b608051906001600160a01b03821682036200008c57565b60a051906001600160a01b03821682036200008c57565b60c051906001600160a01b03821682036200008c57565b60e051906001600160a01b03821682036200008c57565b61010051906001600160a01b03821682036200008c57565b9062000216949392620001f49260018060a01b038096818095169260018060a01b031993600033868254161781558186600154161760015533337f8292fce18fa69edf4db7b94ea2e58241df0ae57f97e0a6c9b29067028bf92d768380a37fa3396fd7f6e0a21b50e5089d2da70d5ac0a3bbbd1f617a93f134b76389980198339180a36003805462010000600160b01b03191660109290921b62010000600160b01b0316919091179055600480549093169116179055600680546001600160a01b0319166001600160a01b039390921692909216179055565b60058054919092166001600160a01b03166001600160a01b0319909116179055565b62000222610384600255565b62000235600560ff196003541617600355565b6200024a61030061ff00196003541617600355565b6003546200028e90620002709060101c6001600160a01b03165b6001600160a01b031690565b60055462000287906001600160a01b031662000264565b9062000290565b565b6044602092600080936040519263095ea7b360e01b84526004840152811960248401525af13d15601f3d1160016000511416171615620002cc57565b60405162461bcd60e51b815260206004820152600e60248201526d1054141493d59157d1905253115160921b6044820152606490fdfe6040608081526004908136101561001557600080fd5b6000918235908160e01c91826313af403514610cf65782633489d28814610ca75782633c0868f014610c7057826344f27e3014610b4a5782634e8eaa1314610a415782637a9e5e4b1461092c5782638da5cb5b14610903578263b1cb48ef14610676578263b7751c7114610265578263b9a2de3a146100ca57505063bf7e214f1461009f57600080fd5b346100c657816003193601126100c65760015490516001600160a01b039091168152602090f35b5080fd5b849084346102165760209384600319360112610261576100fd6100f882359463ffffffff60e01b16336113c5565b610d6d565b828452600785528184206001015467ffffffffffffffff90610127908083169060801c8316610ecb565b16421061022057828452600785528184209360018060a01b0393807f89da46a285f7f6d06627a114a939143310e3c63bbb5b057844b88b605c777eba8660068901541697881560001461021a5787600782015416985b6101a1825492895193849384528d84015260608a8401526003606084019101610ef4565b0390a2846005541692833b156102165781602484928388519788948593636b59c1f160e11b85528401525af1801561020c57908492916101f4575b6101ed935081526007875220610f31565b5191168152f35b91506102008193610da8565b6100c6578183916101dc565b84513d84823e3d90fd5b8280fd5b8861017d565b84606492519162461bcd60e51b8352820152601860248201527f41756374696f6e206861736e277420636f6d706c6574656400000000000000006044820152fd5b8380fd5b848285346102165780600319360112610216578135808452600760208181528386206006810154600191820154949693959294929367ffffffffffffffff936001600160a01b039283169260809260243592841c8716158015610654575b1561061f578a8c52898952878c205460035491906102f19060646102ea60ff861683610e60565b0490610ebe565b84106105b8578c8b95938d95938c938b8b8e8a87528b88528b610317828920548b610ee7565b8c8952985286200154881c166104f357505050848152858b528990208701805467ffffffffffffffff60801b1916428a1660801b67ffffffffffffffff60801b16179055610368905b339085610fa1565b828c5283895280888d20556006888d2001336bffffffffffffffffffffffff60a01b8254161790558b8689898c84986103be6103b58487878a2001548b1c168588888b2001541690610ecb565b84429116610ee7565b91600254809310610452575b5050505090507fac7b4956ef620044e10f430450c0069d356507570c460567101eebac99165c0a949596915051913383528a83015215888201528415156060820152a2610415578680f35b7f8fdd260941d3b80e0b9ee888471b99a809d93315f1c2ccd41ac35dbfd64f22699486885284528287200154169051908152a28180808080808680f35b8987525282852084015461048f918184169161048991429161048491859161047f91908e1c891690610ee7565b610ebe565b610ee7565b90610ebe565b16928681528d8d528a838383200154831c168411156104b3575b928a908e8e6103ca565b2001805467ffffffffffffffff191690911790558593507fac7b4956ef620044e10f430450c0069d356507570c460567101eebac99165c0a84898e6104a9565b89939293610509575b5050505061036890610360565b9193809698508561051d9294969850610ee7565b908481541691823b156105b4578c5163f3913e6960e01b81526001600160a01b0360109590951c909616841691860191825233602083015292891660408201526060810192909252839182908490829060800103925af180156105aa5761058d575b91899391838d818e966104fc565b916103688a94929c61059f8d95610da8565b9c929450509161057f565b88513d8e823e3d90fd5b8480fd5b608490898b81519262461bcd60e51b845283015260248201527f4d7573742073656e64206d6f7265207468616e206c617374206269642062792060448201527f6d696e426964496e6372656d656e7450657263656e7461676520616d6f756e746064820152fd5b875162461bcd60e51b8152908101899052600f60248201526e105d58dd1a5bdb88195e1c1a5c9959608a1b6044820152606490fd5b50878c20860154879061066e9080831690871c8316610ecb565b1642106102c3565b8385913461021657608036600319011261021657833590602435906001600160a01b0360443581811692908390036108ff578692916106c26100f8859363ffffffff60e01b16336113c5565b600554166024875180998193632119cc8560e21b8352898d8401525af19081156108f5578296839261088d575b508483526020976007895286842092600184019267ffffffffffffffff9182881667ffffffffffffffff198654161785558a600287015583860181519184831161087a5768010000000000000000831161087a578d9082548484558481811061084b575b5050019088528c88208d89905b84821061083757505050506007860180546001600160a01b031916909217909155506064356008850155825467ffffffffffffffff60801b19164290911660801b67ffffffffffffffff60801b1617825562015180850190818611610824575081546fffffffffffffffff0000000000000000191690871b6fffffffffffffffff0000000000000000161790555582519081528481018490527fd6eddd1118d71820909c1197aa966dbc15ed6f508554252169cc3d5ccac756ca908390a251908152f35b634e487b7160e01b855260119052602484fd5b90600191845194019381840155018e610760565b50838b5284838c2091820191015b818110610867575084610753565b6001919293508b815501908f9291610859565b634e487b7160e01b895260418652602489fd5b965090503d8083883e6108a08188610dd2565b860160608782031261021657865190602088015167ffffffffffffffff908181116108f157826108d1918b01610df4565b98888101519182116108f1576108e8929101610df4565b509590886106ef565b8580fd5b85513d84823e3d90fd5b8680fd5b505050346100c657816003193601126100c657905490516001600160a01b039091168152602090f35b90915034610261576020366003190112610261576001600160a01b038235818116949193908590036108f1578386541633149283156109aa575b5050509050156100c657600180546001600160a01b03191682179055337fa3396fd7f6e0a21b50e5089d2da70d5ac0a3bbbd1f617a93f134b763899801988380a380f35b600154835163b700961360e01b815233938101938452306020808601919091526001600160e01b0319939093166040850152939593945090928492839003606001918391165afa918215610a3857508391610a0a575b5080388080610966565b610a2b915060203d8111610a31575b610a238183610dd2565b8101906113ad565b38610a00565b503d610a19565b513d85823e3d90fd5b8484833461021657816003193601126102165760243593813591906001600160a01b03861686036105b457610a84906100f8906001600160e01b031916336113c5565b818452600760205282842054600284862001541115610af15750610abb839482610aee955260076020526002848720015483610fa1565b807f28601d865dccc9f113e15a7185c1b38c085d598c71250d3337916a428536d7718580a2835260076020528220610f31565b80f35b608490602084519162461bcd60e51b8352820152602d60248201527f63616e63656c41756374696f6e3a2041756374696f6e206973206174206f722060448201526c61626f7665207265736572766560981b6064820152fd5b50828434610c6d576020366003190112610c6d5782358152600760205281812090825192610160840167ffffffffffffffff9285821084831117610c5a57509060a0959181528354855260018401549280602087019681861688528186851c168482015281606082019660801c168652610be2610bfa600289015496608084019788526003610be98b610be28a518094819301610ef4565b0382610dd2565b8c8501528651928380928c01610ef4565b60c082015260086001808b1b03978860058201541660e08401528860068201541698896101008501526007820154166101208401520154610140820152519651169351169151928151958652602086015284015260608301526080820152f35b634e487b7160e01b815260418752602490fd5b80fd5b50905034610216576020366003190112610216573582526007602081815292829020015490516001600160a01b0390911615158152f35b84913461021657602036600319011261021657359060ff8216820361021657610cde906100f8906001600160e01b031916336113c5565b61ff006003549160081b169061ff0019161760035580f35b84913461021657602036600319011261021657356001600160a01b038116919082900361021657610d35906100f8906001600160e01b031916336113c5565b81546001600160a01b03191681178255337f8292fce18fa69edf4db7b94ea2e58241df0ae57f97e0a6c9b29067028bf92d768380a380f35b15610d7457565b60405162461bcd60e51b815260206004820152600c60248201526b15539055551213d49256915160a21b6044820152606490fd5b67ffffffffffffffff8111610dbc57604052565b634e487b7160e01b600052604160045260246000fd5b90601f8019910116810190811067ffffffffffffffff821117610dbc57604052565b9080601f83011215610e5b5781519067ffffffffffffffff8211610dbc578160051b60405193602093610e2985840187610dd2565b85528380860192820101928311610e5b578301905b828210610e4c575050505090565b81518152908301908301610e3e565b600080fd5b81810292918115918404141715610e7357565b634e487b7160e01b600052601160045260246000fd5b80549060009081815582610e9c57505050565b815260208120918201915b828110610eb357505050565b818155600101610ea7565b91908201809211610e7357565b91909167ffffffffffffffff80809416911601918211610e7357565b91908203918211610e7357565b90815480825260208092019260005281600020916000905b828210610f1a575050505090565b835485529384019360019384019390910190610f0c565b6008600091828155826001820155826002820155610f5160038201610e89565b610f5d60048201610e89565b8260058201558260068201558260078201550155565b8054821015610f8b5760005260206000200190600090565b634e487b7160e01b600052603260045260246000fd5b60009291801561137257818452600760205260408420906064610fc8600884015483610e60565b60045460035460078601549390920493926001600160a01b0390811692911690813b156111af5760405163f3913e6960e01b81526001600160a01b0360109290921c8216600482015288821660248201529216604483015260648201849052879082908183816084810103925af180156111a45761135b575b509061104c91610ee7565b600482015490929015611241576005546040516319e8f9f760e21b815260048101929092528590829060249082906001600160a01b03165afa9081156112365785916111f5575b506110a48151600484015490610ee7565b81518110156111ed5760208160051b830101516110c48260048601610f73565b905460039190911b1c85106111b3576110f16110e38360048701610f73565b90549060031b1c8096610ee7565b946110ff8360048701610f73565b8154906000199060031b1b191690555b8061113c575b50506000198114611128576001016110a4565b634e487b7160e01b86526011600452602486fd5b6005546001600160a01b031691823b156111af57906064899283604051958694859363fc3f5dff60e01b85526004850152602484015260018060a01b038c1660448401525af180156111a457908791156111155761119990610da8565b6108f1578538611115565b6040513d89823e3d90fd5b8880fd5b8487956111c38460048801610f73565b6111d7829392549160031b9282841c610ee7565b600019831b801992909216921b1617905561110f565b505050505050565b90503d8086833e6112068183610dd2565b8101906020818303126108f15780519067ffffffffffffffff82116108ff57611230929101610df4565b38611093565b6040513d87823e3d90fd5b600480546003546006546040516331a9108f60e11b815293840194909452949591946001600160a01b039182169450919260109290921c81169160209186916024918391165afa93841561135057869461130c575b50823b156108f15760405163f3913e6960e01b81526001600160a01b039182166004820152918116602483015292909216604483015260648201929092529082908290608490829084905af18015611301576112f0575050565b6112fa8291610da8565b610c6d5750565b6040513d84823e3d90fd5b9093506020813d602011611348575b8161132860209383610dd2565b810103126108f157516001600160a01b03811681036108f1579238611296565b3d915061131b565b6040513d88823e3d90fd5b9561136a61104c939297610da8565b959091611041565b60405162461bcd60e51b815260206004820152601360248201527263616e6e6f742073656e64206e6f7468696e6760681b6044820152606490fd5b90816020910312610e5b57518015158103610e5b5790565b6001546001600160a01b039081168015159390846113f9575b505082156113eb57505090565b809192506000541691161490565b60405163b700961360e01b81526001600160a01b03851660048201523060248201526001600160e01b031992909216604483015291935090602090829060649082905afa90811561147357600091611455575b509138806113de565b61146d915060203d8111610a3157610a238183610dd2565b3861144c565b6040513d6000823e3d90fdfea26469706673582212202281b3d7da5dc5f90a2d92603f2a59db6046a90bfa97c31cfef999109e63a05864736f6c63430008110033",
    "linkReferences": {}
  },
  "methodIdentifiers": {
    "auctionExists(uint256)": "3c0868f0",
    "authority()": "bf7e214f",
    "cancelAuction(uint256,address)": "4e8eaa13",
    "createAuction(uint256,uint256,address,uint256)": "b1cb48ef",
    "createBid(uint256,uint256)": "b7751c71",
    "endAuction(uint256)": "b9a2de3a",
    "getAuctionData(uint256)": "44f27e30",
    "owner()": "8da5cb5b",
    "setAuthority(address)": "7a9e5e4b",
    "setMaxActiveAuctionsPerUnderlying(uint8)": "3489d288",
    "setOwner(address)": "13af4035"
  },
  "id": 10
}