{
  "abi": [
    {
      "inputs": [
        {
          "internalType": "contract Authority",
          "name": "AUTHORITY_",
          "type": "address"
        },
        {
          "internalType": "address",
          "name": "TRANSFER_PROXY_",
          "type": "address"
        },
        {
          "internalType": "address",
          "name": "LIEN_TOKEN_",
          "type": "address"
        }
      ],
      "stateMutability": "nonpayable",
      "type": "constructor"
    },
    {
      "inputs": [
        {
          "internalType": "address",
          "name": "",
          "type": "address"
        }
      ],
      "name": "AssetNotSupported",
      "type": "error"
    },
    {
      "inputs": [
        {
          "internalType": "uint256",
          "name": "",
          "type": "uint256"
        }
      ],
      "name": "AuctionStartedForCollateral",
      "type": "error"
    },
    {
      "anonymous": false,
      "inputs": [
        {
          "indexed": true,
          "internalType": "address",
          "name": "owner",
          "type": "address"
        },
        {
          "indexed": true,
          "internalType": "address",
          "name": "approved",
          "type": "address"
        },
        {
          "indexed": true,
          "internalType": "uint256",
          "name": "tokenId",
          "type": "uint256"
        }
      ],
      "name": "Approval",
      "type": "event"
    },
    {
      "anonymous": false,
      "inputs": [
        {
          "indexed": true,
          "internalType": "address",
          "name": "owner",
          "type": "address"
        },
        {
          "indexed": true,
          "internalType": "address",
          "name": "operator",
          "type": "address"
        },
        {
          "indexed": false,
          "internalType": "bool",
          "name": "approved",
          "type": "bool"
        }
      ],
      "name": "ApprovalForAll",
      "type": "event"
    },
    {
      "anonymous": false,
      "inputs": [
        {
          "indexed": true,
          "internalType": "address",
          "name": "user",
          "type": "address"
        },
        {
          "indexed": true,
          "internalType": "contract Authority",
          "name": "newAuthority",
          "type": "address"
        }
      ],
      "name": "AuthorityUpdated",
      "type": "event"
    },
    {
      "anonymous": false,
      "inputs": [
        {
          "indexed": true,
          "internalType": "address",
          "name": "tokenContract",
          "type": "address"
        },
        {
          "indexed": true,
          "internalType": "uint256",
          "name": "tokenId",
          "type": "uint256"
        },
        {
          "indexed": true,
          "internalType": "uint256",
          "name": "collateralId",
          "type": "uint256"
        },
        {
          "indexed": false,
          "internalType": "address",
          "name": "depositedFor",
          "type": "address"
        }
      ],
      "name": "Deposit721",
      "type": "event"
    },
    {
      "anonymous": false,
      "inputs": [
        {
          "indexed": true,
          "internalType": "address",
          "name": "user",
          "type": "address"
        },
        {
          "indexed": true,
          "internalType": "address",
          "name": "newOwner",
          "type": "address"
        }
      ],
      "name": "OwnerUpdated",
      "type": "event"
    },
    {
      "anonymous": false,
      "inputs": [
        {
          "indexed": true,
          "internalType": "address",
          "name": "underlyingAsset",
          "type": "address"
        },
        {
          "indexed": false,
          "internalType": "uint256",
          "name": "assetId",
          "type": "uint256"
        },
        {
          "indexed": true,
          "internalType": "address",
          "name": "to",
          "type": "address"
        }
      ],
      "name": "ReleaseTo",
      "type": "event"
    },
    {
      "anonymous": false,
      "inputs": [
        {
          "indexed": true,
          "internalType": "address",
          "name": "from",
          "type": "address"
        },
        {
          "indexed": true,
          "internalType": "address",
          "name": "to",
          "type": "address"
        },
        {
          "indexed": true,
          "internalType": "uint256",
          "name": "tokenId",
          "type": "uint256"
        }
      ],
      "name": "Transfer",
      "type": "event"
    },
    {
      "inputs": [],
      "name": "ASTARIA_ROUTER",
      "outputs": [
        {
          "internalType": "contract IAstariaRouter",
          "name": "",
          "type": "address"
        }
      ],
      "stateMutability": "view",
      "type": "function"
    },
    {
      "inputs": [],
      "name": "AUCTION_HOUSE",
      "outputs": [
        {
          "internalType": "contract IAuctionHouse",
          "name": "",
          "type": "address"
        }
      ],
      "stateMutability": "view",
      "type": "function"
    },
    {
      "inputs": [],
      "name": "AUCTION_WINDOW",
      "outputs": [
        {
          "internalType": "uint256",
          "name": "",
          "type": "uint256"
        }
      ],
      "stateMutability": "view",
      "type": "function"
    },
    {
      "inputs": [],
      "name": "LIEN_TOKEN",
      "outputs": [
        {
          "internalType": "contract ILienToken",
          "name": "",
          "type": "address"
        }
      ],
      "stateMutability": "view",
      "type": "function"
    },
    {
      "inputs": [],
      "name": "TRANSFER_PROXY",
      "outputs": [
        {
          "internalType": "contract ITransferProxy",
          "name": "",
          "type": "address"
        }
      ],
      "stateMutability": "view",
      "type": "function"
    },
    {
      "inputs": [
        {
          "internalType": "address",
          "name": "spender",
          "type": "address"
        },
        {
          "internalType": "uint256",
          "name": "id",
          "type": "uint256"
        }
      ],
      "name": "approve",
      "outputs": [],
      "stateMutability": "nonpayable",
      "type": "function"
    },
    {
      "inputs": [
        {
          "internalType": "uint256",
          "name": "collateralId",
          "type": "uint256"
        },
        {
          "internalType": "address",
          "name": "liquidator",
          "type": "address"
        },
        {
          "internalType": "uint256",
          "name": "liquidationFee",
          "type": "uint256"
        }
      ],
      "name": "auctionVault",
      "outputs": [
        {
          "internalType": "uint256",
          "name": "reserve",
          "type": "uint256"
        }
      ],
      "stateMutability": "nonpayable",
      "type": "function"
    },
    {
      "inputs": [],
      "name": "authority",
      "outputs": [
        {
          "internalType": "contract Authority",
          "name": "",
          "type": "address"
        }
      ],
      "stateMutability": "view",
      "type": "function"
    },
    {
      "inputs": [
        {
          "internalType": "address",
          "name": "owner",
          "type": "address"
        }
      ],
      "name": "balanceOf",
      "outputs": [
        {
          "internalType": "uint256",
          "name": "",
          "type": "uint256"
        }
      ],
      "stateMutability": "view",
      "type": "function"
    },
    {
      "inputs": [
        {
          "internalType": "uint256",
          "name": "tokenId",
          "type": "uint256"
        }
      ],
      "name": "cancelAuction",
      "outputs": [],
      "stateMutability": "nonpayable",
      "type": "function"
    },
    {
      "inputs": [
        {
          "internalType": "uint256",
          "name": "tokenId",
          "type": "uint256"
        }
      ],
      "name": "endAuction",
      "outputs": [],
      "stateMutability": "nonpayable",
      "type": "function"
    },
    {
      "inputs": [
        {
          "internalType": "bytes32",
          "name": "what",
          "type": "bytes32"
        },
        {
          "internalType": "bytes",
          "name": "data",
          "type": "bytes"
        }
      ],
      "name": "file",
      "outputs": [],
      "stateMutability": "nonpayable",
      "type": "function"
    },
    {
      "inputs": [
        {
          "internalType": "contract IFlashAction",
          "name": "receiver",
          "type": "address"
        },
        {
          "internalType": "uint256",
          "name": "collateralId",
          "type": "uint256"
        },
        {
          "internalType": "bytes",
          "name": "data",
          "type": "bytes"
        }
      ],
      "name": "flashAction",
      "outputs": [],
      "stateMutability": "nonpayable",
      "type": "function"
    },
    {
      "inputs": [
        {
          "internalType": "uint256",
          "name": "",
          "type": "uint256"
        }
      ],
      "name": "getApproved",
      "outputs": [
        {
          "internalType": "address",
          "name": "",
          "type": "address"
        }
      ],
      "stateMutability": "view",
      "type": "function"
    },
    {
      "inputs": [
        {
          "internalType": "uint256",
          "name": "collateralId",
          "type": "uint256"
        }
      ],
      "name": "getUnderlying",
      "outputs": [
        {
          "internalType": "address",
          "name": "",
          "type": "address"
        },
        {
          "internalType": "uint256",
          "name": "",
          "type": "uint256"
        }
      ],
      "stateMutability": "view",
      "type": "function"
    },
    {
      "inputs": [
        {
          "internalType": "address",
          "name": "",
          "type": "address"
        },
        {
          "internalType": "address",
          "name": "",
          "type": "address"
        }
      ],
      "name": "isApprovedForAll",
      "outputs": [
        {
          "internalType": "bool",
          "name": "",
          "type": "bool"
        }
      ],
      "stateMutability": "view",
      "type": "function"
    },
    {
      "inputs": [],
      "name": "name",
      "outputs": [
        {
          "internalType": "string",
          "name": "",
          "type": "string"
        }
      ],
      "stateMutability": "view",
      "type": "function"
    },
    {
      "inputs": [
        {
          "internalType": "address",
          "name": "operator_",
          "type": "address"
        },
        {
          "internalType": "address",
          "name": "from_",
          "type": "address"
        },
        {
          "internalType": "uint256",
          "name": "tokenId_",
          "type": "uint256"
        },
        {
          "internalType": "bytes",
          "name": "data_",
          "type": "bytes"
        }
      ],
      "name": "onERC721Received",
      "outputs": [
        {
          "internalType": "bytes4",
          "name": "",
          "type": "bytes4"
        }
      ],
      "stateMutability": "nonpayable",
      "type": "function"
    },
    {
      "inputs": [],
      "name": "owner",
      "outputs": [
        {
          "internalType": "address",
          "name": "",
          "type": "address"
        }
      ],
      "stateMutability": "view",
      "type": "function"
    },
    {
      "inputs": [
        {
          "internalType": "uint256",
          "name": "id",
          "type": "uint256"
        }
      ],
      "name": "ownerOf",
      "outputs": [
        {
          "internalType": "address",
          "name": "owner",
          "type": "address"
        }
      ],
      "stateMutability": "view",
      "type": "function"
    },
    {
      "inputs": [
        {
          "internalType": "uint256",
          "name": "collateralId",
          "type": "uint256"
        },
        {
          "internalType": "address",
          "name": "releaseTo",
          "type": "address"
        }
      ],
      "name": "releaseToAddress",
      "outputs": [],
      "stateMutability": "nonpayable",
      "type": "function"
    },
    {
      "inputs": [
        {
          "internalType": "address",
          "name": "from",
          "type": "address"
        },
        {
          "internalType": "address",
          "name": "to",
          "type": "address"
        },
        {
          "internalType": "uint256",
          "name": "id",
          "type": "uint256"
        }
      ],
      "name": "safeTransferFrom",
      "outputs": [],
      "stateMutability": "nonpayable",
      "type": "function"
    },
    {
      "inputs": [
        {
          "internalType": "address",
          "name": "from",
          "type": "address"
        },
        {
          "internalType": "address",
          "name": "to",
          "type": "address"
        },
        {
          "internalType": "uint256",
          "name": "id",
          "type": "uint256"
        },
        {
          "internalType": "bytes",
          "name": "data",
          "type": "bytes"
        }
      ],
      "name": "safeTransferFrom",
      "outputs": [],
      "stateMutability": "nonpayable",
      "type": "function"
    },
    {
      "inputs": [
        {
          "internalType": "address",
          "name": "",
          "type": "address"
        }
      ],
      "name": "securityHooks",
      "outputs": [
        {
          "internalType": "address",
          "name": "",
          "type": "address"
        }
      ],
      "stateMutability": "view",
      "type": "function"
    },
    {
      "inputs": [
        {
          "internalType": "address",
          "name": "operator",
          "type": "address"
        },
        {
          "internalType": "bool",
          "name": "approved",
          "type": "bool"
        }
      ],
      "name": "setApprovalForAll",
      "outputs": [],
      "stateMutability": "nonpayable",
      "type": "function"
    },
    {
      "inputs": [
        {
          "internalType": "contract Authority",
          "name": "newAuthority",
          "type": "address"
        }
      ],
      "name": "setAuthority",
      "outputs": [],
      "stateMutability": "nonpayable",
      "type": "function"
    },
    {
      "inputs": [
        {
          "internalType": "address",
          "name": "newOwner",
          "type": "address"
        }
      ],
      "name": "setOwner",
      "outputs": [],
      "stateMutability": "nonpayable",
      "type": "function"
    },
    {
      "inputs": [
        {
          "internalType": "bytes4",
          "name": "interfaceId",
          "type": "bytes4"
        }
      ],
      "name": "supportsInterface",
      "outputs": [
        {
          "internalType": "bool",
          "name": "",
          "type": "bool"
        }
      ],
      "stateMutability": "view",
      "type": "function"
    },
    {
      "inputs": [],
      "name": "symbol",
      "outputs": [
        {
          "internalType": "string",
          "name": "",
          "type": "string"
        }
      ],
      "stateMutability": "view",
      "type": "function"
    },
    {
      "inputs": [
        {
          "internalType": "uint256",
          "name": "collateralId",
          "type": "uint256"
        }
      ],
      "name": "tokenURI",
      "outputs": [
        {
          "internalType": "string",
          "name": "",
          "type": "string"
        }
      ],
      "stateMutability": "view",
      "type": "function"
    },
    {
      "inputs": [
        {
          "internalType": "address",
          "name": "from",
          "type": "address"
        },
        {
          "internalType": "address",
          "name": "to",
          "type": "address"
        },
        {
          "internalType": "uint256",
          "name": "id",
          "type": "uint256"
        }
      ],
      "name": "transferFrom",
      "outputs": [],
      "stateMutability": "nonpayable",
      "type": "function"
    }
  ],
  "bytecode": {
    "object": "0x6080346200045c57601f19601f6200282a3881900391820183168401916001600160401b0383118584101762000351578085926060946040528339810103126200045c5781516001600160a01b03811692908390036200045c576200007560406200006d6020840162000481565b920162000481565b916200008062000461565b601881527f4173746172696120436f6c6c61746572616c20546f6b656e00000000000000006020820152620000b462000461565b9460038652621050d560ea1b60208701523360018060a01b031960005416176000558060018060a01b0319600154161760015533337f8292fce18fa69edf4db7b94ea2e58241df0ae57f97e0a6c9b29067028bf92d76600080a3337fa3396fd7f6e0a21b50e5089d2da70d5ac0a3bbbd1f617a93f134b76389980198600080a38051906001600160401b038211620003515760025490600182811c9216801562000451575b6020831014620003305781601f849311620003ed575b50602090601f8311600114620003735760009262000367575b50508160011b916000199060031b1c1916176002555b8351906001600160401b0382116200035157600354600181811c9116801562000346575b60208210146200033057601f8111620002c6575b50602090601f83116001146200025c57508192939460009262000250575b50508160011b916000199060031b1c1916176003555b600a80546001600160a01b039283166001600160a01b031991821617909155600b80549390921692169190911790556202a300600e556040516123739081620004978239f35b015190503880620001f4565b821690600360005260206000209160005b818110620002ad5750958360019596971062000293575b505050811b016003556200020a565b015160001960f88460031b161c1916905538808062000284565b9192602060018192868b0151815501940192016200026d565b60036000527fc2575a0e9e593c00f959f8c92f12db2869c3395a3b0502d05e2516446f71f85b601f840160051c8101916020851062000325575b601f0160051c01905b818110620003185750620001d6565b6000815560010162000309565b909150819062000300565b634e487b7160e01b600052602260045260246000fd5b90607f1690620001c2565b634e487b7160e01b600052604160045260246000fd5b01519050388062000188565b6002600090815293506000805160206200280a83398151915291905b8584168510620003d157600194508386811610620003b7575b505050811b016002556200019e565b015160001960f88460031b161c19169055388080620003a8565b818101518355602094850194600190930192909101906200038f565b60026000529091506000805160206200280a833981519152601f840160051c8101916020851062000446575b90601f859493920160051c01905b8181106200043657506200016f565b6000815584935060010162000427565b909150819062000419565b91607f169162000159565b600080fd5b60408051919082016001600160401b038111838210176200035157604052565b51906001600160a01b03821682036200045c5756fe608060408181526004908136101561001657600080fd5b6000918235938460e01c90816301ffc9a714611acc575080630330e35b1461189d57806306fdde03146117a9578063081812fc14611777578063095ea7b3146116cc57806313af403514611655578063150b7a021461131057806323b872dd146112f85780633398b637146112cf57806341700b97146112a65780634226b1bf1461127d57806342842e0e146111bf5780636322be99146110025780636352211e14610fd157806370a0823114610f5e5780637a9e5e4b14610e5a57806388803a9f14610a135780638da5cb5b146109eb57806395d89b41146108eb57806396b5a755146107f757806396d6401d146107ce578063a22cb4651461074b578063b88d4fde14610661578063b9a2de3a14610573578063bf7e214f1461054a578063c87b56dd1461048b578063d68265c314610450578063dd05401c14610431578063e71d541e146103eb578063e985e9c5146103975763ecf770841461017b57600080fd5b34610393576060366003190112610393578035610196611b4a565b9160018060a01b0380600d54169685518098635c975abb60e01b8252818560209b8c935afa90811561038957889161036c575b50610334576101eb906101e6906001600160e01b03191633611fd1565b611f96565b858782600c541660248851809481936303c0868f60e41b835289898401525af190811561032a5787916102fd575b506102ae578692918682608493600c541690600e54978951988997889663b1cb48ef60e01b8852870152602486015216604484015260443560648401525af19283156102a357809361026e575b505051908152f35b909192508382813d831161029c575b6102878183611bd3565b81010312610299575051903880610266565b80fd5b503d61027d565b8251903d90823e3d90fd5b845162461bcd60e51b81528083018890526024808201527f61756374696f6e5661756c743a2061756374696f6e20616c72656164792065786044820152636973747360e01b6064820152608490fd5b61031d9150883d8a11610323575b6103158183611bd3565b810190611f7e565b38610219565b503d61030b565b86513d89823e3d90fd5b855162461bcd60e51b815280840189905260126024820152711c1c9bdd1bd8dbdb081a5cc81c185d5cd95960721b6044820152606490fd5b6103839150893d8b11610323576103158183611bd3565b386101c9565b87513d8a823e3d90fd5b8280fd5b5050346103e757806003193601126103e7576020916103b4611b65565b826103bd611b4a565b9260018060a01b03809316815260078652209116600052825260ff81600020541690519015158152f35b5080fd5b509134610299576020366003190112610299575061040c61042d92356122b0565b91516001600160a01b03909116815260208101919091529081906040820190565b0390f35b5050346103e757816003193601126103e757602090600e549051908152f35b5050346103e75760203660031901126103e7576020916001600160a01b039082908261047a611b65565b168152600985522054169051908152f35b509250346103e75760203660031901126103e7578160246104ac85356122b0565b845163c87b56dd60e01b81529687015285919082906001600160a01b03165afa91821561053f5780926104e7575b81518061042d8582611c17565b9091503d8082853e6104f98185611bd3565b8301926020818503126103e7578051906001600160401b03821161039357019083601f83011215610299575061042d92816020610538935191016120d7565b90386104da565b9051903d90823e3d90fd5b5050346103e757816003193601126103e75760015490516001600160a01b039091168152602090f35b5034610393576020908160031936011261065d5780359060018060a01b03858482600c541660248851809481936303c0868f60e41b835289898401525af1801561032a5785926105ce60249287948b91610640575b506122f9565b600c5416938888519586948593635cd16f1d60e11b85528401525af19283156106365761060494508593610607575b5050612173565b80f35b610627929350803d1061062f575b61061f8183611bd3565b810190612154565b9084806105fd565b503d610615565b84513d87823e3d90fd5b6106579150863d8811610323576103158183611bd3565b8b6105c8565b8380fd5b50346103935761067036611c70565b610681838587989694959997611dd7565b87823b15968715610697575b5061060487611f1e565b602095975086986106e0975197889687958693630a85bd0160e11b9c8d8652339086015260018060a01b0380961660248601526044850152608060648501526084840191611f5d565b0393165af190811561073e5761060493508491610710575b506001600160e01b031916148380808080878161068d565b610731915060203d8111610737575b6107298183611bd3565b810190611efe565b846106f8565b503d61071f565b50505051903d90823e3d90fd5b5050346103e757806003193601126103e757610765611b65565b906024359081151580920361065d5733845260076020528084209260018060a01b031692836000526020528060002060ff1981541660ff8416179055519081527f17307eab39ab6107e8899845ad3d59bd9653f200f220920489ca2b5937696c3160203392a380f35b5050346103e757816003193601126103e757600a5490516001600160a01b039091168152602090f35b508291346108e75760203660031901126108e75781359161081783611d34565b6001600160a01b039061082d908216331461208b565b84602082600c541660248651809481936303c0868f60e41b83528a898401525af19081156108dd57906108669187916108bf57506122f9565b600c541692833b156108bb57604485928385519687948593634e8eaa1360e01b85528401523360248401525af19081156108b257506108a25750f35b6108ab90611bc0565b6102995780f35b513d84823e3d90fd5b8480fd5b6108d7915060203d8111610323576103158183611bd3565b886105c8565b84513d88823e3d90fd5b5050fd5b50913461029957806003193601126102995750805190600092600354600181811c9181811680156109e1575b60209485851082146109ce57508387529081156109ae5750600114610953575b5050506109498261042d940383611bd3565b5191829182611c17565b600360009081529295507fc2575a0e9e593c00f959f8c92f12db2869c3395a3b0502d05e2516446f71f85b5b82841061099b575050508261042d946109499282010194610937565b805486850188015292860192810161097f565b60ff1916868501525050151560051b83010192506109498261042d610937565b634e487b7160e01b895260229052602488fd5b92607f1692610917565b5050346103e757816003193601126103e757905490516001600160a01b039091168152602090f35b509034610393576060366003190112610393576001600160a01b0390839083358381169081900361039357602493843591604435906001600160401b038211610e5657610a66610a839236908a01611c43565b929094610a7e610a7582611d34565b8616331461208b565b6122b0565b92909184831695606092878a52868960209b60098d52205416610de1575b8c883b156102995789516323b872dd60e01b815230818f019081526001600160a01b038616602082015260408101899052909190829081906060010381838d5af18015610dd557610dad575b508592878e8a8f948f968f97918f9283610b42945195610b0c87611b8f565b86528a86019b8c52519a8b998a988997631752a96560e11b89525116908701525190850152606060448501526064840191611f5d565b03925af18015610da3578b90610d52575b7faa25e84734a4b82484cf83d828b61c4d597ef4bdc387f66fbb53e460a4de6f86915003610d1057908987939286825260098552858883205416610c2f575b505050868551809581936331a9108f60e11b83528b8301525afa918215610c25578792610c06575b5030911603610bc7578480f35b5162461bcd60e51b815292830152601d908201527f666c617368416374696f6e3a204e4654206e6f742072657475726e65640000006044820152606490fd5b610c1e919250843d861161062f5761061f8183611bd3565b9087610bba565b83513d89823e3d90fd5b8051940193909320868420548751631782048560e31b81526001600160a01b03909316838c01908152602081018590529394919383918716908290819060400103915afa908115610d06578a91610ce4575b5086815191012003610c97578490898981610b92565b835162461bcd60e51b81528088018690526022818801527f666c617368416374696f6e3a2044617461206d757374206265207468652073616044820152616d6560f01b6064820152608490fd5b610d0091503d808c833e610cf88183611bd3565b81019061211b565b8a610c81565b86513d8c823e3d90fd5b855162461bcd60e51b8152808a01889052601c818a01527f666c617368416374696f6e3a2063616c6c6261636b206661696c6564000000006044820152606490fd5b508781813d8311610d9c575b610d688183611bd3565b81010312610d98577faa25e84734a4b82484cf83d828b61c4d597ef4bdc387f66fbb53e460a4de6f869051610b53565b8a80fd5b503d610d5e565b87513d8d823e3d90fd5b92878c8e939f8c8e968d92610dc28d9a611bc0565b9f50969e9f5050509c9e92505092610aed565b8e8b51903d90823e3d90fd5b888d20548951631782048560e31b81526001600160a01b0387168e820190815260208101899052929550918e9183918290036040019082908b165afa908115610e4c578d91610e32575b5092610aa1565b610e4691503d808f833e610cf88183611bd3565b8d610e2b565b89513d8f823e3d90fd5b8580fd5b50833461065d57602036600319011261065d576001600160a01b03823581811694919390859003610e5657838654163314928315610ed7575b5050509050156103e757600180546001600160a01b03191682179055337fa3396fd7f6e0a21b50e5089d2da70d5ac0a3bbbd1f617a93f134b763899801988380a380f35b600154835163b700961360e01b815233938101938452306020808601919091526001600160e01b0319939093166040850152939593945090928492839003606001918391165afa918215610f5557508391610f37575b5080848080610e93565b610f4f915060203d8111610323576103158183611bd3565b83610f2d565b513d85823e3d90fd5b508290346103e75760203660031901126103e7576001600160a01b03610f82611b65565b16908115610f9f5760208480858581526005845220549051908152f35b606490602085519162461bcd60e51b8352820152600c60248201526b5a45524f5f4144445245535360a01b6044820152fd5b5091346102995760203660031901126102995750610ff160209235611d34565b90516001600160a01b039091168152f35b5083903461065d578260031936011261065d576024359080356001600160401b038311610e565761104e61103c6101e69436908501611c43565b94909563ffffffff60e01b1633611fd1565b6d41554354494f4e5f57494e444f5760901b810361107e57505081925090602091810103126103e75735600e5580f35b6f39b2ba20b9ba30b934b0a937baba32b960811b81036110d257505081925090602091810103126103e7576001600160a01b03906110bb90611b7b565b166001600160601b0360a01b600d541617600d5580f35b6e73657441756374696f6e486f75736560881b810361112557505081925090602091810103126103e7576001600160a01b039061110e90611b7b565b166001600160601b0360a01b600c541617600c5580f35b6e7365745365637572697479486f6f6b60881b036111895750818391810103126103935761115e602061115783611b7b565b9201611b7b565b6001600160a01b039182168452600960205291832080546001600160a01b0319169190921617905580f35b606490602085519162461bcd60e51b8352820152601060248201526f756e737570706f727465642f66696c6560801b6044820152fd5b5034610393576111ce36611cc6565b9291906111dc848284611dd7565b803b159384156111f1575b8661060486611f1e565b60209293945060a4908787519586948593630a85bd0160e11b998a8652339086015260018060a01b038093166024860152604485015260806064850152826084850152165af190811561073e576106049350849161125f575b506001600160e01b03191614838080806111e7565b611277915060203d8111610737576107298183611bd3565b8461124a565b5050346103e757816003193601126103e757600c5490516001600160a01b039091168152602090f35b5050346103e757816003193601126103e757600b5490516001600160a01b039091168152602090f35b5050346103e757816003193601126103e757600d5490516001600160a01b039091168152602090f35b83346102995761060461130a36611cc6565b91611dd7565b5091346102995761132036611c70565b50509192903033148015611641575b6115ef5784516301ffc9a760e01b81526380ac58cd60e01b878201526020966024939188818681335afa9081156115905783916115d2575b501561159a5786516331a9108f60e11b81528181018690529288848681335afa938415611590578394611571575b506001600160a01b039384161561152f578751898101903360601b825287603482015260348152606081018181106001600160401b0382111761151d578a5251902096846113e2896122b0565b5016156113fa575b8851630a85bd0160e11b81528a90f35b849180831682841603611515575b501693611416851515611d97565b8683528189528388842054166114e25750906001918482526005895287822083815401905586825288528681206001600160601b0360a01b9085828254161790558751938786847fddf252ad1be2c89b69c2b068fc378daa952ba7f163c4a11628f55a4df523b3ef8180a461148a85611b8f565b338552888a86019388855289815260088c5220945116908454161783555191015583519081527fd6b6bfb15fe5be5c1a8af879e26df8c0e2470c4ad95a47a1397868b45910e853853392a482808080808080806113ea565b875162461bcd60e51b8152918201899052600e908201526d1053149150511657d3525395115160921b6044820152606490fd5b90508a611408565b634e487b7160e01b8652604185528786fd5b875162461bcd60e51b81528083018a90526018818701527f6d75737420626520612076616c696420746f6b656e20696400000000000000006044820152606490fd5b611589919450893d8b1161062f5761061f8183611bd3565b9289611395565b88513d85823e3d90fd5b865162461bcd60e51b8152908101889052601381850152726d75737420737570706f72742065726337323160681b6044820152606490fd5b6115e99150893d8b11610323576103158183611bd3565b89611367565b845162461bcd60e51b8152602081880152602660248201527f73797374656d2061737365747320617265206e6f742076616c696420636f6c6c604482015265185d195c985b60d21b6064820152608490fd5b50600b546001600160a01b0316331461132f565b8385346103e75760203660031901126103e7576116876101e6611676611b65565b926001600160e01b03191633611fd1565b81546001600160a01b0319166001600160a01b03919091169081178255337f8292fce18fa69edf4db7b94ea2e58241df0ae57f97e0a6c9b29067028bf92d768380a380f35b5090346103935780600319360112610393576116e6611b65565b906024359283855260205260018060a01b03808286205416918233148015611758575b61171290611d5a565b84865260066020528520921691826001600160601b0360a01b8254161790557f8c5be1e5ebec7d5bd14f71427d1e84f3dd0314c0f7b2291e5b200ac8c7c3b9258480a480f35b508286526007602090815281872033885290528086205460ff16611709565b50346103935760203660031901126103935735825260066020908152918190205490516001600160a01b039091168152f35b509034610393578260031936011261039357805191836002549060019082821c928281168015611893575b6020958686108214611880575084885290811561185e5750600114611805575b61042d8686610949828b0383611bd3565b929550600283527f405787fa12a823e0f2b7631cc41b3ba8828b3321ca811111fa75cd3aa3bb5ace5b82841061184b575050508261042d946109499282010194866117f4565b805486850188015292860192810161182e565b60ff191687860152505050151560051b83010192506109498261042d866117f4565b634e487b7160e01b845260229052602483fd5b93607f16936117d4565b508290346103e757826003193601126103e75780356118ba611b4a565b9160018060a01b0360248582600b54168851928380926319e8f9f760e21b825288888301525afa908115611a14578691611a1e575b505115806119bf575b1561196a5761190683611d34565b16330361191857509061060491612173565b608490602086519162461bcd60e51b8352820152602660248201527f596f7520646f6e27742068617665207065726d697373696f6e20746f2063616c6044820152656c207468697360d01b6064820152fd5b855162461bcd60e51b8152602081840152602960248201527f6d757374206265206e6f206c69656e73206f722061756374696f6e7320746f2060448201526863616c6c207468697360b81b6064820152608490fd5b5084602082600c541660248951809481936303c0868f60e41b835289898401525af1908115611a145786916119f6575b50156118f8565b611a0e915060203d8111610323576103158183611bd3565b876119ef565b87513d88823e3d90fd5b90503d8087833e611a2f8183611bd3565b81016020908183820312611ac85782516001600160401b0393848211611aad570181601f82011215611ac4578051938411611ab1578360051b908a5194611a7885840187611bd3565b85528380860192820101928311611aad578301905b828210611a9e5750505050876118ef565b81518152908301908301611a8d565b8980fd5b634e487b7160e01b895260418652602489fd5b8880fd5b8780fd5b92505034610393576020366003190112610393573563ffffffff60e01b811680910361039357602092508015908115611b07575b5015158152f35b6301ffc9a760e01b811491508115611b39575b8115611b28575b5083611b00565b635b5e139f60e01b14905083611b21565b6380ac58cd60e01b81149150611b1a565b602435906001600160a01b0382168203611b6057565b600080fd5b600435906001600160a01b0382168203611b6057565b35906001600160a01b0382168203611b6057565b604081019081106001600160401b03821117611baa57604052565b634e487b7160e01b600052604160045260246000fd5b6001600160401b038111611baa57604052565b90601f801991011681019081106001600160401b03821117611baa57604052565b60005b838110611c075750506000910152565b8181015183820152602001611bf7565b60409160208252611c378151809281602086015260208686019101611bf4565b601f01601f1916010190565b9181601f84011215611b60578235916001600160401b038311611b605760208381860195010111611b6057565b906080600319830112611b60576001600160a01b03916004358381168103611b6057926024359081168103611b60579160443591606435906001600160401b038211611b6057611cc291600401611c43565b9091565b6060906003190112611b60576001600160a01b03906004358281168103611b6057916024359081168103611b60579060443590565b15611d0257565b60405162461bcd60e51b815260206004820152600a6024820152691393d517d3525395115160b21b6044820152606490fd5b6000908152600460205260409020546001600160a01b031690611d58821515611cfb565b565b15611d6157565b60405162461bcd60e51b815260206004820152600e60248201526d1393d517d055551213d49256915160921b6044820152606490fd5b15611d9e57565b60405162461bcd60e51b81526020600482015260116024820152701253959053125117d49150d25412515395607a1b6044820152606490fd5b6000838152600460209081526040808320546001600160a01b0395948616949086168503611ecd5790611e4d867fddf252ad1be2c89b69c2b068fc378daa952ba7f163c4a11628f55a4df523b3ef9594931696611e35881515611d97565b863314908115611eb0575b8115611e9a575b50611d5a565b84835260058252808320600019815401905585835280832060018154019055868352600482526006818420926001600160601b0360a01b93888582541617905552822090815416905580a4565b9050888552600684528285205416331438611e47565b8786526007855283862033875285528386205460ff169150611e40565b815162461bcd60e51b815260048101849052600a60248201526957524f4e475f46524f4d60b01b6044820152606490fd5b90816020910312611b6057516001600160e01b031981168103611b605790565b15611f2557565b60405162461bcd60e51b815260206004820152601060248201526f155394d0519157d49150d2541251539560821b6044820152606490fd5b908060209392818452848401376000828201840152601f01601f1916010190565b90816020910312611b6057518015158103611b605790565b15611f9d57565b60405162461bcd60e51b815260206004820152600c60248201526b15539055551213d49256915160a21b6044820152606490fd5b6001546001600160a01b03908116801515939084612005575b50508215611ff757505090565b809192506000541691161490565b60405163b700961360e01b81526001600160a01b03851660048201523060248201526001600160e01b031992909216604483015291935090602090829060649082905afa90811561207f57600091612061575b50913880611fea565b612079915060203d8111610323576103158183611bd3565b38612058565b6040513d6000823e3d90fd5b1561209257565b60405162461bcd60e51b815260206004820152601960248201527f6f6e6c794f776e65723a206f6e6c7920746865206f776e6572000000000000006044820152606490fd5b909291926001600160401b038111611baa5760405191612101601f8301601f191660200184611bd3565b829482845282820111611b60576020611d58930190611bf4565b602081830312611b60578051906001600160401b038211611b6057019080601f83011215611b60578151612151926020016120d7565b90565b90816020910312611b6057516001600160a01b0381168103611b605790565b919061217e836122b0565b936001600160a01b0391821691823b15611b6057604080516323b872dd60e01b81523060048201526001600160a01b0386166024820152604481018890529690946000939091908489606481838a5af19889156122a6577fef3539ded9c4dd21e2549099e61175b76a6090b26b0ea7bea4e25c9d8ab8b41896979899612293575b50808552602094600886528060018a82208281550155600486528489822054169861222b8a1515611cfb565b8982526005875280822080546000190190558282526004875280822080546001600160a01b0319908116909155600688528183208054909116905551987fddf252ad1be2c89b69c2b068fc378daa952ba7f163c4a11628f55a4df523b3ef8280a486521693a3565b61229f90959195611bc0565b93386121ff565b87513d87823e3d90fd5b60005260086020526040600020906040519160408301928084106001600160401b03851117611baa576020936040526001808060a01b0383541692838352015493849101529190565b1561230057565b60405162461bcd60e51b8152602060048201526015602482015274105d58dd1a5bdb88191bd95cdb89dd08195e1a5cdd605a1b6044820152606490fdfea26469706673582212205f98ab24bcfd848c979ba74776e5cf2ccc7f0bfba9735a5ee19ce8060658c53364736f6c63430008110033405787fa12a823e0f2b7631cc41b3ba8828b3321ca811111fa75cd3aa3bb5ace",
    "linkReferences": {}
  },
  "methodIdentifiers": {
    "ASTARIA_ROUTER()": "3398b637",
    "AUCTION_HOUSE()": "4226b1bf",
    "AUCTION_WINDOW()": "dd05401c",
    "LIEN_TOKEN()": "41700b97",
    "TRANSFER_PROXY()": "96d6401d",
    "approve(address,uint256)": "095ea7b3",
    "auctionVault(uint256,address,uint256)": "ecf77084",
    "authority()": "bf7e214f",
    "balanceOf(address)": "70a08231",
    "cancelAuction(uint256)": "96b5a755",
    "endAuction(uint256)": "b9a2de3a",
    "file(bytes32,bytes)": "6322be99",
    "flashAction(address,uint256,bytes)": "88803a9f",
    "getApproved(uint256)": "081812fc",
    "getUnderlying(uint256)": "e71d541e",
    "isApprovedForAll(address,address)": "e985e9c5",
    "name()": "06fdde03",
    "onERC721Received(address,address,uint256,bytes)": "150b7a02",
    "owner()": "8da5cb5b",
    "ownerOf(uint256)": "6352211e",
    "releaseToAddress(uint256,address)": "0330e35b",
    "safeTransferFrom(address,address,uint256)": "42842e0e",
    "safeTransferFrom(address,address,uint256,bytes)": "b88d4fde",
    "securityHooks(address)": "d68265c3",
    "setApprovalForAll(address,bool)": "a22cb465",
    "setAuthority(address)": "7a9e5e4b",
    "setOwner(address)": "13af4035",
    "supportsInterface(bytes4)": "01ffc9a7",
    "symbol()": "95d89b41",
    "tokenURI(uint256)": "c87b56dd",
    "transferFrom(address,address,uint256)": "23b872dd"
  },
  "id": 33
}