{
  "abi": [
    {
      "anonymous": false,
      "inputs": [
        {
          "components": [
            {
              "internalType": "uint8",
              "name": "version",
              "type": "uint8"
            },
            {
              "internalType": "address",
              "name": "strategist",
              "type": "address"
            },
            {
              "internalType": "uint256",
              "name": "nonce",
              "type": "uint256"
            },
            {
              "internalType": "uint256",
              "name": "deadline",
              "type": "uint256"
            },
            {
              "internalType": "address",
              "name": "vault",
              "type": "address"
            }
          ],
          "indexed": false,
          "internalType": "struct IAstariaRouter.StrategyDetails",
          "name": "",
          "type": "tuple"
        }
      ],
      "name": "LogStrategy",
      "type": "event"
    },
    {
      "inputs": [],
      "name": "MAX_TOKENS",
      "outputs": [
        {
          "internalType": "uint16",
          "name": "",
          "type": "uint16"
        }
      ],
      "stateMutability": "view",
      "type": "function"
    },
    {
      "inputs": [
        {
          "components": [
            {
              "components": [
                {
                  "internalType": "uint8",
                  "name": "version",
                  "type": "uint8"
                },
                {
                  "internalType": "address",
                  "name": "strategist",
                  "type": "address"
                },
                {
                  "internalType": "uint256",
                  "name": "nonce",
                  "type": "uint256"
                },
                {
                  "internalType": "uint256",
                  "name": "deadline",
                  "type": "uint256"
                },
                {
                  "internalType": "address",
                  "name": "vault",
                  "type": "address"
                }
              ],
              "internalType": "struct IAstariaRouter.StrategyDetails",
              "name": "strategy",
              "type": "tuple"
            },
            {
              "internalType": "uint8",
              "name": "nlrType",
              "type": "uint8"
            },
            {
              "internalType": "bytes",
              "name": "nlrDetails",
              "type": "bytes"
            },
            {
              "components": [
                {
                  "internalType": "bytes32",
                  "name": "root",
                  "type": "bytes32"
                },
                {
                  "internalType": "bytes32[]",
                  "name": "proof",
                  "type": "bytes32[]"
                },
                {
                  "internalType": "bool[]",
                  "name": "flags",
                  "type": "bool[]"
                }
              ],
              "internalType": "struct IAstariaRouter.MultiMerkleData",
              "name": "merkle",
              "type": "tuple"
            },
            {
              "internalType": "uint256",
              "name": "amount",
              "type": "uint256"
            },
            {
              "internalType": "uint8",
              "name": "v",
              "type": "uint8"
            },
            {
              "internalType": "bytes32",
              "name": "r",
              "type": "bytes32"
            },
            {
              "internalType": "bytes32",
              "name": "s",
              "type": "bytes32"
            }
          ],
          "internalType": "struct IAstariaRouter.NewLienRequest",
          "name": "params",
          "type": "tuple"
        },
        {
          "internalType": "address",
          "name": "borrower",
          "type": "address"
        },
        {
          "internalType": "address",
          "name": "collateralTokenContract",
          "type": "address"
        },
        {
          "internalType": "uint256",
          "name": "collateralTokenId",
          "type": "uint256"
        }
      ],
      "name": "validateAndParse",
      "outputs": [
        {
          "internalType": "bytes32[]",
          "name": "leaves",
          "type": "bytes32[]"
        },
        {
          "components": [
            {
              "internalType": "uint256",
              "name": "maxAmount",
              "type": "uint256"
            },
            {
              "internalType": "uint256",
              "name": "rate",
              "type": "uint256"
            },
            {
              "internalType": "uint256",
              "name": "duration",
              "type": "uint256"
            },
            {
              "internalType": "uint256",
              "name": "maxPotentialDebt",
              "type": "uint256"
            }
          ],
          "internalType": "struct IAstariaRouter.LienDetails",
          "name": "ld",
          "type": "tuple"
        }
      ],
      "stateMutability": "nonpayable",
      "type": "function"
    }
  ],
  "bytecode": {
    "object": "0x608080604052346100165761080f908161001c8239f35b600080fdfe6080604052600436101561001257600080fd5b60003560e01c80639f293d1b146100535763f47c84c51461003257600080fd5b3461004e57600036600319011261004e57602060405160648152f35b600080fd5b3461004e5760031960803682011261004e5767ffffffffffffffff6004351161004e578060043536030161018080821261004e576101809160a01361004e57610220828110610636576040526100ad600435600401610766565b82526100bd602460043501610774565b6101a05260043560448101356101c05260648101356101e0526100e290608401610774565b90608001526080526100f860a460043501610766565b60a05260043560c4013567ffffffffffffffff811161004e57600435013660238201121561004e57600481013567ffffffffffffffff8111610636576040519161014c601f8301601f191660200184610744565b818352366024838301011161004e5781600092602460209301838601378301015260c05260043560e401359067ffffffffffffffff821161004e5760609082600435013603011261004e57604051906060820182811067ffffffffffffffff821117610636576040526004803582019081013583526024013567ffffffffffffffff811161004e578160043501013660238201121561004e5760048101356101f381610788565b916102016040519384610744565b81835260208301903660248460051b8301011161004e579060248201915b60248460051b8201018310610713575050505060208301526044816004350101359067ffffffffffffffff821161004e5760043501013660238201121561004e5760048101359061026f82610788565b9161027d6040519384610744565b80835260208301913660248360051b8301011161004e579160248301925b60248360051b82010184106106f3576040860185905260e0869052600435610104810135610100526102d09061012401610766565b61012052600435610144810135610140526101640135610160526024356001600160a01b038116810361004e57604435906001600160a01b038216820361004e576103196107a0565b50604051916060830183811067ffffffffffffffff821117610636576040526002835260403660208501376040608001519160405161035781610728565b60008152600060208201526000604082015260606103736107a0565b9101528280518101039260e0841261004e576040519361039285610728565b60208201519060ff8216820361004e5760809186526103b3604084016107c5565b60208701526103c4606084016107c5565b6040870152605f19011261004e5760e0604051916103e183610728565b6080810151835260a0810151602084015260c0810151604084015201516060820152606084015260018060a01b03604084015116908161068a575b505060208201516001600160a01b0391821691160361064c576080517f405f7b7eb794e824da6e908b6bcdb1a2124f9ce0f7d68837d05d69d19075edaf604051806104a48482919091608060a082019360ff81511683528160018060a01b03918260208201511660208601526040810151604086015260608101516060860152015116910152565b0390a1604051610507816104f9602082019485919091608060a082019360ff81511683528160018060a01b03918260208201511660208601526040810151604086015260608101516060860152015116910152565b03601f198101835282610744565b519020825115610620576020830152604051602081019060ff835116825260018060a01b03602084015116604082015260018060a01b03604084015116606082015261057960608401516080830190606080918051845260208101516020850152604081015160408501520151910152565b60e08152610100810181811067ffffffffffffffff821117610636576040525190208251916001928310156106205760609160408501520151916040519160a083019060a084528251809252602060c0850193019160005b81811061060b578580866106078a6020840190606080918051845260208101516020850152604081015160408501520151910152565b0390f35b835185526020948501949093019282016105d1565b634e487b7160e01b600052603260045260246000fd5b634e487b7160e01b600052604160045260246000fd5b60405162461bcd60e51b81526020600482015260166024820152751a5b9d985b1a59081d1bdad95b8818dbdb9d1c9858dd60521b6044820152606490fd5b6001600160a01b03160361069f57838061041c565b60405162461bcd60e51b815260206004820152602660248201527f696e76616c696420626f72726f7765722072657175657374696e6720636f6d6d6044820152651a5d1b595b9d60d21b6064820152608490fd5b8335151584350361004e576020806024938635815201940193915061029b565b6020806024938535815201930192915061021f565b6080810190811067ffffffffffffffff82111761063657604052565b90601f8019910116810190811067ffffffffffffffff82111761063657604052565b359060ff8216820361004e57565b35906001600160a01b038216820361004e57565b67ffffffffffffffff81116106365760051b60200190565b604051906107ad82610728565b60006060838281528260208201528260408201520152565b51906001600160a01b038216820361004e5756fea26469706673582212207026d9e2e1d4501fe1e7b86a146381876ea79e6fb82796a41aa69886e5bc6b0264736f6c63430008110033",
    "linkReferences": {}
  },
  "methodIdentifiers": {
    "MAX_TOKENS()": "f47c84c5",
    "validateAndParse(((uint8,address,uint256,uint256,address),uint8,bytes,(bytes32,bytes32[],bool[]),uint256,uint8,bytes32,bytes32),address,address,uint256)": "9f293d1b"
  },
  "id": 53
}