{
  "abi": [
    {
      "inputs": [
        {
          "internalType": "contract Authority",
          "name": "_AUTHORITY",
          "type": "address"
        },
        {
          "internalType": "address",
          "name": "_TRANSFER_PROXY",
          "type": "address"
        },
        {
          "internalType": "address",
          "name": "_WETH",
          "type": "address"
        }
      ],
      "stateMutability": "nonpayable",
      "type": "constructor"
    },
    {
      "anonymous": false,
      "inputs": [
        {
          "indexed": true,
          "internalType": "address",
          "name": "owner",
          "type": "address"
        },
        {
          "indexed": true,
          "internalType": "address",
          "name": "approved",
          "type": "address"
        },
        {
          "indexed": true,
          "internalType": "uint256",
          "name": "tokenId",
          "type": "uint256"
        }
      ],
      "name": "Approval",
      "type": "event"
    },
    {
      "anonymous": false,
      "inputs": [
        {
          "indexed": true,
          "internalType": "address",
          "name": "owner",
          "type": "address"
        },
        {
          "indexed": true,
          "internalType": "address",
          "name": "operator",
          "type": "address"
        },
        {
          "indexed": false,
          "internalType": "bool",
          "name": "approved",
          "type": "bool"
        }
      ],
      "name": "ApprovalForAll",
      "type": "event"
    },
    {
      "anonymous": false,
      "inputs": [
        {
          "indexed": true,
          "internalType": "address",
          "name": "user",
          "type": "address"
        },
        {
          "indexed": true,
          "internalType": "contract Authority",
          "name": "newAuthority",
          "type": "address"
        }
      ],
      "name": "AuthorityUpdated",
      "type": "event"
    },
    {
      "anonymous": false,
      "inputs": [
        {
          "indexed": true,
          "internalType": "address",
          "name": "buyer",
          "type": "address"
        },
        {
          "indexed": false,
          "internalType": "uint256",
          "name": "lienId",
          "type": "uint256"
        },
        {
          "indexed": false,
          "internalType": "uint256",
          "name": "buyout",
          "type": "uint256"
        }
      ],
      "name": "BuyoutLien",
      "type": "event"
    },
    {
      "anonymous": false,
      "inputs": [
        {
          "indexed": false,
          "internalType": "uint256",
          "name": "lienId",
          "type": "uint256"
        },
        {
          "components": [
            {
              "internalType": "uint256",
              "name": "amount",
              "type": "uint256"
            },
            {
              "internalType": "uint256",
              "name": "collateralId",
              "type": "uint256"
            },
            {
              "internalType": "address",
              "name": "token",
              "type": "address"
            },
            {
              "internalType": "uint256",
              "name": "rate",
              "type": "uint256"
            },
            {
              "internalType": "uint32",
              "name": "start",
              "type": "uint32"
            },
            {
              "internalType": "uint32",
              "name": "last",
              "type": "uint32"
            },
            {
              "internalType": "address",
              "name": "vault",
              "type": "address"
            },
            {
              "internalType": "uint32",
              "name": "duration",
              "type": "uint32"
            },
            {
              "internalType": "uint8",
              "name": "position",
              "type": "uint8"
            },
            {
              "internalType": "bool",
              "name": "active",
              "type": "bool"
            }
          ],
          "indexed": false,
          "internalType": "struct ILienBase.Lien",
          "name": "lien",
          "type": "tuple"
        }
      ],
      "name": "NewLien",
      "type": "event"
    },
    {
      "anonymous": false,
      "inputs": [
        {
          "indexed": true,
          "internalType": "address",
          "name": "user",
          "type": "address"
        },
        {
          "indexed": true,
          "internalType": "address",
          "name": "newOwner",
          "type": "address"
        }
      ],
      "name": "OwnerUpdated",
      "type": "event"
    },
    {
      "anonymous": false,
      "inputs": [
        {
          "indexed": false,
          "internalType": "uint256",
          "name": "lienId",
          "type": "uint256"
        },
        {
          "indexed": false,
          "internalType": "uint256",
          "name": "amount",
          "type": "uint256"
        }
      ],
      "name": "Payment",
      "type": "event"
    },
    {
      "anonymous": false,
      "inputs": [
        {
          "indexed": false,
          "internalType": "uint256",
          "name": "lienId",
          "type": "uint256"
        }
      ],
      "name": "RemovedLiens",
      "type": "event"
    },
    {
      "anonymous": false,
      "inputs": [
        {
          "indexed": true,
          "internalType": "address",
          "name": "from",
          "type": "address"
        },
        {
          "indexed": true,
          "internalType": "address",
          "name": "to",
          "type": "address"
        },
        {
          "indexed": true,
          "internalType": "uint256",
          "name": "tokenId",
          "type": "uint256"
        }
      ],
      "name": "Transfer",
      "type": "event"
    },
    {
      "inputs": [],
      "name": "ASTARIA_ROUTER",
      "outputs": [
        {
          "internalType": "contract IAstariaRouter",
          "name": "",
          "type": "address"
        }
      ],
      "stateMutability": "view",
      "type": "function"
    },
    {
      "inputs": [],
      "name": "AUCTION_HOUSE",
      "outputs": [
        {
          "internalType": "contract IAuctionHouse",
          "name": "",
          "type": "address"
        }
      ],
      "stateMutability": "view",
      "type": "function"
    },
    {
      "inputs": [],
      "name": "COLLATERAL_TOKEN",
      "outputs": [
        {
          "internalType": "contract ICollateralToken",
          "name": "",
          "type": "address"
        }
      ],
      "stateMutability": "view",
      "type": "function"
    },
    {
      "inputs": [],
      "name": "TRANSFER_PROXY",
      "outputs": [
        {
          "internalType": "contract ITransferProxy",
          "name": "",
          "type": "address"
        }
      ],
      "stateMutability": "view",
      "type": "function"
    },
    {
      "inputs": [],
      "name": "WETH",
      "outputs": [
        {
          "internalType": "address",
          "name": "",
          "type": "address"
        }
      ],
      "stateMutability": "view",
      "type": "function"
    },
    {
      "inputs": [
        {
          "internalType": "address",
          "name": "spender",
          "type": "address"
        },
        {
          "internalType": "uint256",
          "name": "id",
          "type": "uint256"
        }
      ],
      "name": "approve",
      "outputs": [],
      "stateMutability": "nonpayable",
      "type": "function"
    },
    {
      "inputs": [],
      "name": "authority",
      "outputs": [
        {
          "internalType": "contract Authority",
          "name": "",
          "type": "address"
        }
      ],
      "stateMutability": "view",
      "type": "function"
    },
    {
      "inputs": [
        {
          "internalType": "address",
          "name": "owner",
          "type": "address"
        }
      ],
      "name": "balanceOf",
      "outputs": [
        {
          "internalType": "uint256",
          "name": "",
          "type": "uint256"
        }
      ],
      "stateMutability": "view",
      "type": "function"
    },
    {
      "inputs": [],
      "name": "buyoutDenominator",
      "outputs": [
        {
          "internalType": "uint256",
          "name": "",
          "type": "uint256"
        }
      ],
      "stateMutability": "view",
      "type": "function"
    },
    {
      "inputs": [
        {
          "components": [
            {
              "components": [
                {
                  "internalType": "address",
                  "name": "tokenContract",
                  "type": "address"
                },
                {
                  "internalType": "uint256",
                  "name": "tokenId",
                  "type": "uint256"
                },
                {
                  "components": [
                    {
                      "components": [
                        {
                          "internalType": "uint8",
                          "name": "version",
                          "type": "uint8"
                        },
                        {
                          "internalType": "address",
                          "name": "strategist",
                          "type": "address"
                        },
                        {
                          "internalType": "uint256",
                          "name": "nonce",
                          "type": "uint256"
                        },
                        {
                          "internalType": "uint256",
                          "name": "deadline",
                          "type": "uint256"
                        },
                        {
                          "internalType": "address",
                          "name": "vault",
                          "type": "address"
                        }
                      ],
                      "internalType": "struct IAstariaRouter.StrategyDetails",
                      "name": "strategy",
                      "type": "tuple"
                    },
                    {
                      "internalType": "uint8",
                      "name": "nlrType",
                      "type": "uint8"
                    },
                    {
                      "internalType": "bytes",
                      "name": "nlrDetails",
                      "type": "bytes"
                    },
                    {
                      "components": [
                        {
                          "internalType": "bytes32",
                          "name": "root",
                          "type": "bytes32"
                        },
                        {
                          "internalType": "bytes32[]",
                          "name": "proof",
                          "type": "bytes32[]"
                        },
                        {
                          "internalType": "bool[]",
                          "name": "flags",
                          "type": "bool[]"
                        }
                      ],
                      "internalType": "struct IAstariaRouter.MultiMerkleData",
                      "name": "merkle",
                      "type": "tuple"
                    },
                    {
                      "internalType": "uint256",
                      "name": "amount",
                      "type": "uint256"
                    },
                    {
                      "internalType": "uint8",
                      "name": "v",
                      "type": "uint8"
                    },
                    {
                      "internalType": "bytes32",
                      "name": "r",
                      "type": "bytes32"
                    },
                    {
                      "internalType": "bytes32",
                      "name": "s",
                      "type": "bytes32"
                    }
                  ],
                  "internalType": "struct IAstariaRouter.NewLienRequest",
                  "name": "lienRequest",
                  "type": "tuple"
                }
              ],
              "internalType": "struct IAstariaRouter.Commitment",
              "name": "incoming",
              "type": "tuple"
            },
            {
              "internalType": "uint256",
              "name": "position",
              "type": "uint256"
            },
            {
              "internalType": "address",
              "name": "receiver",
              "type": "address"
            }
          ],
          "internalType": "struct ILienBase.LienActionBuyout",
          "name": "params",
          "type": "tuple"
        }
      ],
      "name": "buyoutLien",
      "outputs": [],
      "stateMutability": "nonpayable",
      "type": "function"
    },
    {
      "inputs": [],
      "name": "buyoutNumerator",
      "outputs": [
        {
          "internalType": "uint256",
          "name": "",
          "type": "uint256"
        }
      ],
      "stateMutability": "view",
      "type": "function"
    },
    {
      "inputs": [
        {
          "internalType": "uint256",
          "name": "lienId",
          "type": "uint256"
        }
      ],
      "name": "calculateSlope",
      "outputs": [
        {
          "internalType": "uint256",
          "name": "",
          "type": "uint256"
        }
      ],
      "stateMutability": "view",
      "type": "function"
    },
    {
      "inputs": [
        {
          "internalType": "uint256",
          "name": "lienId",
          "type": "uint256"
        },
        {
          "internalType": "uint256",
          "name": "paymentAmount",
          "type": "uint256"
        }
      ],
      "name": "changeInSlope",
      "outputs": [
        {
          "internalType": "uint256",
          "name": "slope",
          "type": "uint256"
        }
      ],
      "stateMutability": "view",
      "type": "function"
    },
    {
      "inputs": [
        {
          "components": [
            {
              "internalType": "address",
              "name": "tokenContract",
              "type": "address"
            },
            {
              "internalType": "uint256",
              "name": "tokenId",
              "type": "uint256"
            },
            {
              "components": [
                {
                  "internalType": "uint256",
                  "name": "maxAmount",
                  "type": "uint256"
                },
                {
                  "internalType": "uint256",
                  "name": "rate",
                  "type": "uint256"
                },
                {
                  "internalType": "uint256",
                  "name": "duration",
                  "type": "uint256"
                },
                {
                  "internalType": "uint256",
                  "name": "maxPotentialDebt",
                  "type": "uint256"
                }
              ],
              "internalType": "struct IAstariaRouter.LienDetails",
              "name": "terms",
              "type": "tuple"
            },
            {
              "internalType": "bytes32",
              "name": "obligationRoot",
              "type": "bytes32"
            },
            {
              "internalType": "uint256",
              "name": "amount",
              "type": "uint256"
            },
            {
              "internalType": "address",
              "name": "vault",
              "type": "address"
            },
            {
              "internalType": "bool",
              "name": "validateSlip",
              "type": "bool"
            }
          ],
          "internalType": "struct ILienBase.LienActionEncumber",
          "name": "params",
          "type": "tuple"
        }
      ],
      "name": "createLien",
      "outputs": [
        {
          "internalType": "uint256",
          "name": "lienId",
          "type": "uint256"
        }
      ],
      "stateMutability": "nonpayable",
      "type": "function"
    },
    {
      "inputs": [
        {
          "internalType": "bytes32",
          "name": "what",
          "type": "bytes32"
        },
        {
          "internalType": "bytes",
          "name": "data",
          "type": "bytes"
        }
      ],
      "name": "file",
      "outputs": [],
      "stateMutability": "nonpayable",
      "type": "function"
    },
    {
      "inputs": [
        {
          "internalType": "uint256",
          "name": "",
          "type": "uint256"
        }
      ],
      "name": "getApproved",
      "outputs": [
        {
          "internalType": "address",
          "name": "",
          "type": "address"
        }
      ],
      "stateMutability": "view",
      "type": "function"
    },
    {
      "inputs": [
        {
          "internalType": "uint256",
          "name": "collateralId",
          "type": "uint256"
        },
        {
          "internalType": "uint256",
          "name": "position",
          "type": "uint256"
        }
      ],
      "name": "getBuyout",
      "outputs": [
        {
          "internalType": "uint256",
          "name": "",
          "type": "uint256"
        },
        {
          "internalType": "uint256",
          "name": "",
          "type": "uint256"
        }
      ],
      "stateMutability": "nonpayable",
      "type": "function"
    },
    {
      "inputs": [
        {
          "internalType": "uint256",
          "name": "collateralId",
          "type": "uint256"
        }
      ],
      "name": "getImpliedRate",
      "outputs": [
        {
          "internalType": "uint256",
          "name": "impliedRate",
          "type": "uint256"
        }
      ],
      "stateMutability": "view",
      "type": "function"
    },
    {
      "inputs": [
        {
          "internalType": "uint256",
          "name": "collateralId",
          "type": "uint256"
        },
        {
          "internalType": "uint256",
          "name": "position",
          "type": "uint256"
        }
      ],
      "name": "getInterest",
      "outputs": [
        {
          "internalType": "uint256",
          "name": "",
          "type": "uint256"
        }
      ],
      "stateMutability": "view",
      "type": "function"
    },
    {
      "inputs": [
        {
          "internalType": "uint256",
          "name": "lienId",
          "type": "uint256"
        }
      ],
      "name": "getLien",
      "outputs": [
        {
          "components": [
            {
              "internalType": "uint256",
              "name": "amount",
              "type": "uint256"
            },
            {
              "internalType": "uint256",
              "name": "collateralId",
              "type": "uint256"
            },
            {
              "internalType": "address",
              "name": "token",
              "type": "address"
            },
            {
              "internalType": "uint256",
              "name": "rate",
              "type": "uint256"
            },
            {
              "internalType": "uint32",
              "name": "start",
              "type": "uint32"
            },
            {
              "internalType": "uint32",
              "name": "last",
              "type": "uint32"
            },
            {
              "internalType": "address",
              "name": "vault",
              "type": "address"
            },
            {
              "internalType": "uint32",
              "name": "duration",
              "type": "uint32"
            },
            {
              "internalType": "uint8",
              "name": "position",
              "type": "uint8"
            },
            {
              "internalType": "bool",
              "name": "active",
              "type": "bool"
            }
          ],
          "internalType": "struct ILienBase.Lien",
          "name": "",
          "type": "tuple"
        }
      ],
      "stateMutability": "view",
      "type": "function"
    },
    {
      "inputs": [
        {
          "internalType": "uint256",
          "name": "collateralId",
          "type": "uint256"
        },
        {
          "internalType": "uint256",
          "name": "position",
          "type": "uint256"
        }
      ],
      "name": "getLien",
      "outputs": [
        {
          "components": [
            {
              "internalType": "uint256",
              "name": "amount",
              "type": "uint256"
            },
            {
              "internalType": "uint256",
              "name": "collateralId",
              "type": "uint256"
            },
            {
              "internalType": "address",
              "name": "token",
              "type": "address"
            },
            {
              "internalType": "uint256",
              "name": "rate",
              "type": "uint256"
            },
            {
              "internalType": "uint32",
              "name": "start",
              "type": "uint32"
            },
            {
              "internalType": "uint32",
              "name": "last",
              "type": "uint32"
            },
            {
              "internalType": "address",
              "name": "vault",
              "type": "address"
            },
            {
              "internalType": "uint32",
              "name": "duration",
              "type": "uint32"
            },
            {
              "internalType": "uint8",
              "name": "position",
              "type": "uint8"
            },
            {
              "internalType": "bool",
              "name": "active",
              "type": "bool"
            }
          ],
          "internalType": "struct ILienBase.Lien",
          "name": "",
          "type": "tuple"
        }
      ],
      "stateMutability": "view",
      "type": "function"
    },
    {
      "inputs": [
        {
          "internalType": "uint256",
          "name": "collateralId",
          "type": "uint256"
        }
      ],
      "name": "getLiens",
      "outputs": [
        {
          "internalType": "uint256[]",
          "name": "",
          "type": "uint256[]"
        }
      ],
      "stateMutability": "view",
      "type": "function"
    },
    {
      "inputs": [
        {
          "internalType": "uint256",
          "name": "lienId",
          "type": "uint256"
        }
      ],
      "name": "getPayee",
      "outputs": [
        {
          "internalType": "address",
          "name": "",
          "type": "address"
        }
      ],
      "stateMutability": "view",
      "type": "function"
    },
    {
      "inputs": [
        {
          "internalType": "uint256",
          "name": "collateralId",
          "type": "uint256"
        }
      ],
      "name": "getTotalDebtForCollateralToken",
      "outputs": [
        {
          "internalType": "uint256",
          "name": "totalDebt",
          "type": "uint256"
        }
      ],
      "stateMutability": "view",
      "type": "function"
    },
    {
      "inputs": [
        {
          "internalType": "uint256",
          "name": "collateralId",
          "type": "uint256"
        },
        {
          "internalType": "uint256",
          "name": "timestamp",
          "type": "uint256"
        }
      ],
      "name": "getTotalDebtForCollateralToken",
      "outputs": [
        {
          "internalType": "uint256",
          "name": "totalDebt",
          "type": "uint256"
        }
      ],
      "stateMutability": "view",
      "type": "function"
    },
    {
      "inputs": [
        {
          "internalType": "address",
          "name": "",
          "type": "address"
        },
        {
          "internalType": "address",
          "name": "",
          "type": "address"
        }
      ],
      "name": "isApprovedForAll",
      "outputs": [
        {
          "internalType": "bool",
          "name": "",
          "type": "bool"
        }
      ],
      "stateMutability": "view",
      "type": "function"
    },
    {
      "inputs": [
        {
          "internalType": "uint256",
          "name": "",
          "type": "uint256"
        }
      ],
      "name": "lienData",
      "outputs": [
        {
          "internalType": "uint256",
          "name": "amount",
          "type": "uint256"
        },
        {
          "internalType": "uint256",
          "name": "collateralId",
          "type": "uint256"
        },
        {
          "internalType": "address",
          "name": "token",
          "type": "address"
        },
        {
          "internalType": "uint256",
          "name": "rate",
          "type": "uint256"
        },
        {
          "internalType": "uint32",
          "name": "start",
          "type": "uint32"
        },
        {
          "internalType": "uint32",
          "name": "last",
          "type": "uint32"
        },
        {
          "internalType": "address",
          "name": "vault",
          "type": "address"
        },
        {
          "internalType": "uint32",
          "name": "duration",
          "type": "uint32"
        },
        {
          "internalType": "uint8",
          "name": "position",
          "type": "uint8"
        },
        {
          "internalType": "bool",
          "name": "active",
          "type": "bool"
        }
      ],
      "stateMutability": "view",
      "type": "function"
    },
    {
      "inputs": [
        {
          "internalType": "uint256",
          "name": "",
          "type": "uint256"
        },
        {
          "internalType": "uint256",
          "name": "",
          "type": "uint256"
        }
      ],
      "name": "liens",
      "outputs": [
        {
          "internalType": "uint256",
          "name": "",
          "type": "uint256"
        }
      ],
      "stateMutability": "view",
      "type": "function"
    },
    {
      "inputs": [
        {
          "internalType": "uint256",
          "name": "collateralId",
          "type": "uint256"
        },
        {
          "internalType": "uint256",
          "name": "paymentAmount",
          "type": "uint256"
        },
        {
          "internalType": "uint256",
          "name": "position",
          "type": "uint256"
        }
      ],
      "name": "makePayment",
      "outputs": [],
      "stateMutability": "nonpayable",
      "type": "function"
    },
    {
      "inputs": [
        {
          "internalType": "uint256",
          "name": "collateralId",
          "type": "uint256"
        },
        {
          "internalType": "uint256",
          "name": "paymentAmount",
          "type": "uint256"
        }
      ],
      "name": "makePayment",
      "outputs": [],
      "stateMutability": "nonpayable",
      "type": "function"
    },
    {
      "inputs": [
        {
          "internalType": "uint256",
          "name": "collateralId",
          "type": "uint256"
        },
        {
          "internalType": "uint256",
          "name": "paymentAmount",
          "type": "uint256"
        },
        {
          "internalType": "address",
          "name": "payer",
          "type": "address"
        }
      ],
      "name": "makePayment",
      "outputs": [],
      "stateMutability": "nonpayable",
      "type": "function"
    },
    {
      "inputs": [],
      "name": "name",
      "outputs": [
        {
          "internalType": "string",
          "name": "",
          "type": "string"
        }
      ],
      "stateMutability": "view",
      "type": "function"
    },
    {
      "inputs": [],
      "name": "owner",
      "outputs": [
        {
          "internalType": "address",
          "name": "",
          "type": "address"
        }
      ],
      "stateMutability": "view",
      "type": "function"
    },
    {
      "inputs": [
        {
          "internalType": "uint256",
          "name": "id",
          "type": "uint256"
        }
      ],
      "name": "ownerOf",
      "outputs": [
        {
          "internalType": "address",
          "name": "owner",
          "type": "address"
        }
      ],
      "stateMutability": "view",
      "type": "function"
    },
    {
      "inputs": [
        {
          "internalType": "uint256",
          "name": "",
          "type": "uint256"
        }
      ],
      "name": "payees",
      "outputs": [
        {
          "internalType": "address",
          "name": "",
          "type": "address"
        }
      ],
      "stateMutability": "view",
      "type": "function"
    },
    {
      "inputs": [
        {
          "internalType": "uint256",
          "name": "collateralId",
          "type": "uint256"
        }
      ],
      "name": "removeLiens",
      "outputs": [],
      "stateMutability": "nonpayable",
      "type": "function"
    },
    {
      "inputs": [
        {
          "internalType": "address",
          "name": "from",
          "type": "address"
        },
        {
          "internalType": "address",
          "name": "to",
          "type": "address"
        },
        {
          "internalType": "uint256",
          "name": "id",
          "type": "uint256"
        }
      ],
      "name": "safeTransferFrom",
      "outputs": [],
      "stateMutability": "nonpayable",
      "type": "function"
    },
    {
      "inputs": [
        {
          "internalType": "address",
          "name": "from",
          "type": "address"
        },
        {
          "internalType": "address",
          "name": "to",
          "type": "address"
        },
        {
          "internalType": "uint256",
          "name": "id",
          "type": "uint256"
        },
        {
          "internalType": "bytes",
          "name": "data",
          "type": "bytes"
        }
      ],
      "name": "safeTransferFrom",
      "outputs": [],
      "stateMutability": "nonpayable",
      "type": "function"
    },
    {
      "inputs": [
        {
          "internalType": "address",
          "name": "operator",
          "type": "address"
        },
        {
          "internalType": "bool",
          "name": "approved",
          "type": "bool"
        }
      ],
      "name": "setApprovalForAll",
      "outputs": [],
      "stateMutability": "nonpayable",
      "type": "function"
    },
    {
      "inputs": [
        {
          "internalType": "contract Authority",
          "name": "newAuthority",
          "type": "address"
        }
      ],
      "name": "setAuthority",
      "outputs": [],
      "stateMutability": "nonpayable",
      "type": "function"
    },
    {
      "inputs": [
        {
          "internalType": "address",
          "name": "newOwner",
          "type": "address"
        }
      ],
      "name": "setOwner",
      "outputs": [],
      "stateMutability": "nonpayable",
      "type": "function"
    },
    {
      "inputs": [
        {
          "internalType": "uint256",
          "name": "lienId",
          "type": "uint256"
        },
        {
          "internalType": "address",
          "name": "newPayee",
          "type": "address"
        }
      ],
      "name": "setPayee",
      "outputs": [],
      "stateMutability": "nonpayable",
      "type": "function"
    },
    {
      "inputs": [
        {
          "internalType": "uint256",
          "name": "collateralId",
          "type": "uint256"
        }
      ],
      "name": "stopLiens",
      "outputs": [
        {
          "internalType": "uint256",
          "name": "reserve",
          "type": "uint256"
        },
        {
          "internalType": "uint256[]",
          "name": "amounts",
          "type": "uint256[]"
        },
        {
          "internalType": "uint256[]",
          "name": "lienIds",
          "type": "uint256[]"
        }
      ],
      "stateMutability": "nonpayable",
      "type": "function"
    },
    {
      "inputs": [
        {
          "internalType": "bytes4",
          "name": "interfaceId",
          "type": "bytes4"
        }
      ],
      "name": "supportsInterface",
      "outputs": [
        {
          "internalType": "bool",
          "name": "",
          "type": "bool"
        }
      ],
      "stateMutability": "view",
      "type": "function"
    },
    {
      "inputs": [],
      "name": "symbol",
      "outputs": [
        {
          "internalType": "string",
          "name": "",
          "type": "string"
        }
      ],
      "stateMutability": "view",
      "type": "function"
    },
    {
      "inputs": [
        {
          "internalType": "uint256",
          "name": "tokenId",
          "type": "uint256"
        }
      ],
      "name": "tokenURI",
      "outputs": [
        {
          "internalType": "string",
          "name": "",
          "type": "string"
        }
      ],
      "stateMutability": "view",
      "type": "function"
    },
    {
      "inputs": [
        {
          "internalType": "address",
          "name": "from",
          "type": "address"
        },
        {
          "internalType": "address",
          "name": "to",
          "type": "address"
        },
        {
          "internalType": "uint256",
          "name": "id",
          "type": "uint256"
        }
      ],
      "name": "transferFrom",
      "outputs": [],
      "stateMutability": "nonpayable",
      "type": "function"
    }
  ],
  "bytecode": {
    "object": "0x60c0346200046857601f1990601f620042d13881900391820184168301916001600160401b03831184841017620003645780849260609460405283398101031262000468578051906001600160a01b038216820362000468576200007460406200006c602084016200048d565b92016200048d565b906200007f6200046d565b601281527120b9ba30b934b0902634b2b7102a37b5b2b760711b6020820152620000a86200046d565b600381526210531560ea1b6020820152815190916001600160401b038211620003645760005490600182811c921680156200045d575b6020831014620003435781601f849311620003fa575b50602090601f831160011462000386576000926200037a575b50508160011b916000199060031b1c1916176000555b8051906001600160401b0382116200036457600154600181811c9116801562000359575b60208210146200034357601f8111620002d9575b50602095601f83116001146200026f575094819293949560009262000263575b50508160011b916000199060031b1c1916176001555b600680546001600160a01b031990811633908117909255600780549091166001600160a01b0386161790556040519390807f8292fce18fa69edf4db7b94ea2e58241df0ae57f97e0a6c9b29067028bf92d76600080a36001600160a01b0316337fa3396fd7f6e0a21b50e5089d2da70d5ac0a3bbbd1f617a93f134b76389980198600080a36001600160a01b031660a052608052600a600b556064600c55613e0e9081620004a38239608051818181611abe0152612c87015260a051818181611357015281816119e201526138730152f35b0151905038806200017b565b821695600160005260206000209160005b888110620002c057508360019596979810620002a6575b505050811b0160015562000191565b015160001960f88460031b161c1916905538808062000297565b9192602060018192868501518155019401920162000280565b60016000527fb10e2d527612073b26eecdfd717e6a320cf44b4afac2b0732d9fcbe2b7fa0cf6601f840160051c8101916020851062000338575b601f0160051c01905b8181106200032b57506200015b565b600081556001016200031c565b909150819062000313565b634e487b7160e01b600052602260045260246000fd5b90607f169062000147565b634e487b7160e01b600052604160045260246000fd5b0151905038806200010d565b6000808052600080516020620042b1833981519152938a16905b818110620003e15750908460019594939210620003c7575b505050811b0160005562000123565b015160001960f88460031b161c19169055388080620003b8565b92936020600181928786015181550195019301620003a0565b60008052909150600080516020620042b1833981519152601f840160051c8101916020851062000452575b90601f859493920160051c01905b818110620004425750620000f4565b6000815584935060010162000433565b909150819062000425565b91607f1691620000de565b600080fd5b60408051919082016001600160401b038111838210176200036457604052565b51906001600160a01b0382168203620004685756fe60806040526004361015610013575b600080fd5b60003560e01c806301ffc9a7146103bf578063049eed0a146103b657806306fdde03146103ad578063081812fc146103a4578063095ea7b31461039b57806313af40351461039257806319129fe71461038957806323b872dd146103805780633398b637146103775780633a7d59dd1461036e578063410bb6c2146103655780634226b1bf1461035c57806342842e0e146103535780634f1811c41461034a5780635222128e146103415780635466b5ff1461033857806363037b0c1461032f5780636322be99146103265780636352211e1461031d578063649e79a01461031457806367a3e7dc1461030b57806370a082311461030257806370e109d3146102f9578063728af7ec146102f05780637a9e5e4b146102e7578063816d0a31146102de57806384673214146102d557806387d2649a146102cc5780638da5cb5b146102c357806395d89b41146102ba57806396d6401d146102b1578063a22cb465146102a8578063ad5c46481461029f578063b4beb5f614610296578063b88d4fde1461028d578063bcab954214610284578063bf7e214f1461027b578063c559672614610272578063c60564ab14610269578063c87b56dd14610260578063d13136fd14610257578063d390f9741461024e578063d6b383e214610245578063e985e9c51461023c578063f2bb8fdc14610233578063f5f1f1a71461022a5763fc3f5dff1461022257600080fd5b61000e61204b565b5061000e612021565b5061000e611f68565b5061000e611eff565b5061000e611e69565b5061000e611dca565b5061000e611dab565b5061000e611d5c565b5061000e611ca0565b5061000e611c7d565b5061000e611c53565b5061000e611c21565b5061000e611b11565b5061000e611aed565b5061000e611aa7565b5061000e611a11565b5061000e6119cb565b5061000e611909565b5061000e6118df565b5061000e6117a9565b5061000e611692565b5061000e6111df565b5061000e6110a9565b5061000e611087565b5061000e611068565b5061000e610fe5565b5061000e610f6e565b5061000e610f07565b5061000e610ed6565b5061000e610d5a565b5061000e610cf8565b5061000e610c26565b5061000e610bde565b5061000e610b82565b5061000e610aa2565b5061000e610a78565b5061000e610a36565b5061000e610972565b5061000e610948565b5061000e61092e565b5061000e6108e3565b5061000e610860565b5061000e61079d565b5061000e610768565b5061000e610661565b5061000e61057b565b5061000e6103da565b6001600160e01b031981160361000e57565b503461000e57602036600319011261000e5760206004356103fa816103c8565b6001600160e01b0319168015908115610419575b506040519015158152f35b6301ffc9a760e01b81149150811561044b575b811561043a575b503861040e565b635b5e139f60e01b14905038610433565b6380ac58cd60e01b8114915061042c565b50634e487b7160e01b600052604160045260246000fd5b608081019081106001600160401b0382111761048e57604052565b61049661045c565b604052565b60e081019081106001600160401b0382111761048e57604052565b6001600160401b03811161048e57604052565b90601f801991011681019081106001600160401b0382111761048e57604052565b6040519061014082018281106001600160401b0382111761048e57604052565b6001600160a01b0381160361000e57565b61010435906105298261050a565b565b608090604319011261000e576040519061054482610473565b60443582526064356020830152608435604083015260a4356060830152565b8015150361000e57565b610124359061052982610563565b503461000e5761014036600319011261000e576106036105f36040516105a08161049b565b6004356105ac8161050a565b815260243560208201526105bf3661052b565b604082015260c435606082015260e43560808201526105dc61051b565b60a08201526105e961056d565b60c0820152612b67565b6040519081529081906020820190565b0390f35b600091031261000e57565b60005b8381106106255750506000910152565b8181015183820152602001610615565b604091602082526106558151809281602086015260208686019101610612565b601f01601f1916010190565b503461000e5760008060031936011261076557604051908080549060019180831c9280821692831561075b575b602092838610851461074757858852602088019490811561072657506001146106ce575b610603876106c2818903826104c9565b60405191829182610635565b6000805294509192917f290decd9548b62a8d60345a988386fc84ba6bc95484008f6362f93160ef3e5635b83861061071557505050910190506106c28261060338806106b2565b8054858701529482019481016106f9565b60ff191685525050505090151560051b0190506106c28261060338806106b2565b634e487b7160e01b82526022600452602482fd5b93607f169361068e565b80fd5b503461000e57602036600319011261000e576004356000526004602052602060018060a01b0360406000205416604051908152f35b503461000e57604036600319011261000e576004356107bb8161050a565b60243560008181526002602052604081205490926001600160a01b039182169190338314801561083d575b6107ef90612148565b83855260046020526040852080546001600160a01b0319166001600160a01b03831617905516907f8c5be1e5ebec7d5bd14f71427d1e84f3dd0314c0f7b2291e5b200ac8c7c3b9258480a480f35b50828552600560209081526040808720336000908152925290205460ff166107e6565b503461000e57602036600319011261000e5760043561087e8161050a565b61089c6108976000356001600160e01b03191633612431565b6123f6565b600680546001600160a01b0319166001600160a01b03929092169182179055337f8292fce18fa69edf4db7b94ea2e58241df0ae57f97e0a6c9b29067028bf92d76600080a3005b503461000e57600036600319011261000e576020600c54604051908152f35b606090600319011261000e5760043561091a8161050a565b906024356109278161050a565b9060443590565b503461000e5761094661094036610902565b916121c5565b005b503461000e57600036600319011261000e576009546040516001600160a01b039091168152602090f35b503461000e57602036600319011261000e576020610991600435613592565b604051908152f35b81518152602080830151908201526040808301516001600160a01b031690820152610140810192916105299190606081015160608301526109e76080820151608084019063ffffffff169052565b60a08181015163ffffffff169083015260c0818101516001600160a01b03169083015260e08181015163ffffffff16908301526101008181015160ff1690830152610120908101511515910152565b503461000e57602036600319011261000e57610a506133ce565b50600435600052600d602052610603610a6c604060002061296e565b60405191829182610999565b503461000e57600036600319011261000e576008546040516001600160a01b039091168152602090f35b503461000e57610946610ab436610902565b9091610ac18284836121c5565b823b15928315610ad4575b50505061237a565b604051630a85bd0160e11b8082523360048301526001600160a01b03938416602483015260448201949094526080606482015260006084820181905293945092602092849260a49284929091165af1908115610b75575b600091610b47575b506001600160e01b03191614388080610acc565b610b68915060203d8111610b6e575b610b6081836104c9565b810190612358565b38610b33565b503d610b56565b610b7d61236d565b610b2b565b503461000e57602036600319011261000e576020610991600435613614565b50634e487b7160e01b600052603260045260246000fd5b8054821015610bd1575b60005260206000200190600090565b610bd9610ba1565b610bc2565b503461000e57604036600319011261000e57602435600435600052600e6020526040600020805482101561000e57602091610c1891610bb8565b90546040519160031b1c8152f35b503461000e57604036600319011261000e5760243560006004358152602090600e825260408120916040518093849183825491828152019185528385209385905b828210610cde57505050610c7d925003836104c9565b916000925b8251841015610cd357610cc7610ccd91610cc184610cbc610cb7610ca68a8a612b45565b51600052600d602052604060002090565b61296e565b61377b565b906130a4565b93612b29565b92610c82565b604051908152602090f35b855484526001958601958895509381019390910190610c67565b503461000e57602036600319011261000e57600435600052600f602052602060018060a01b0360406000205416604051908152f35b9181601f8401121561000e578235916001600160401b03831161000e576020838186019501011161000e57565b503461000e57604036600319011261000e576004356024356001600160401b03811161000e57610d8e903690600401610d2d565b9091610da96108976000356001600160e01b03191633612431565b6e73657441756374696f6e486f75736560881b8103610e025750610dd9610dd983610de5936109469501906124ed565b6001600160a01b031690565b60018060a01b03166001600160601b0360a01b6008541617600855565b7139b2ba21b7b63630ba32b930b62a37b5b2b760711b8103610e525750610dd9610dd983610e35936109469501906124ed565b60018060a01b03166001600160601b0360a01b600a541617600a55565b6f39b2ba20b9ba30b934b0a937baba32b960811b03610e9e57610dd9610dd983610e81936109469501906124ed565b60018060a01b03166001600160601b0360a01b6009541617600955565b60405162461bcd60e51b815260206004820152601060248201526f756e737570706f727465642f66696c6560801b6044820152606490fd5b503461000e57602036600319011261000e576020610ef5600435612124565b6040516001600160a01b039091168152f35b503461000e57600036600319011261000e576020600b54604051908152f35b90815180825260208080930193019160005b828110610f46575050505090565b835185529381019392810192600101610f38565b906020610f6b928181520190610f26565b90565b503461000e5760208060031936011261000e57600435600052600e8152604060002090604051908181845491828152019360005281600020916000905b828210610fce5761060385610fc2818903826104c9565b60405191829182610f5a565b835486529485019460019384019390910190610fab565b503461000e57602036600319011261000e576004356110038161050a565b6001600160a01b03168015611034576000526003602052610603604060002054604051918291829190602083019252565b60405162461bcd60e51b815260206004820152600c60248201526b5a45524f5f4144445245535360a01b6044820152606490fd5b503461000e57602036600319011261000e5760206109916004356136a3565b503461000e57604036600319011261000e576020610991602435600435612a05565b503461000e57602036600319011261000e576004356110c78161050a565b6006546110dc906001600160a01b0316610dd9565b3314801561113a575b6110ee906123ef565b600780546001600160a01b0319166001600160a01b0383161790556001600160a01b0316337fa3396fd7f6e0a21b50e5089d2da70d5ac0a3bbbd1f617a93f134b76389980198600080a3005b506007546110ee90611154906001600160a01b0316610dd9565b60405163b700961360e01b81523360048201523060248201526001600160e01b031960003516604482015290602090829060649082905afa9081156111d2575b6000916111a4575b5090506110e5565b6111c5915060203d81116111cb575b6111bd81836104c9565b8101906123da565b3861119c565b503d6111b3565b6111da61236d565b611194565b503461000e576003196020368201811361000e57600480356001600160401b03811161000e57606081830194823603011261000e578361124061122d6112288361126998612502565b612517565b856112388480612502565b013590613cb5565b9261127861126e60248501356112568188613475565b999097600052600e602052604060002090565b610bb8565b90549060031b1c90565b600954909490611290906001600160a01b0316610dd9565b9661129b8480612502565b936112bc60a060409687518093819263d84335d760e01b835289830161269a565b03816000809e5af193841561165a575b8a918b95611624575b506112e390855111156127d6565b156115e05761134e6113358985611304610dd960095460018060a01b031690565b8d6113198d600052600d602052604060002090565b908a8c519687958694859363367d780d60e21b855284016128db565b03925af19081156115d3575b8b916115b6575b50612918565b60018060a01b037f00000000000000000000000000000000000000000000000000000000000000001694896113a060026113928b600052600d602052604060002090565b01546001600160a01b031690565b926113aa8a613b24565b97803b156115b2576114e18461152f988d6115899f6114d46114c361156e9f8f936114ae60809f956115299f8e6115209f9861151a9e6114ba9760039b8f9561142f96519687958694859363f3913e6960e01b855233908c86019094939291606092608083019660018060a01b03928380921685521660208401521660408201520152565b03925af180156115a5575b61158c575b5063ffffffff42169061148482826114618c600052600d602052604060002090565b019067ffffffff0000000082549160201b169067ffffffff000000001916179055565b61149889600052600d602052604060002090565b019063ffffffff1663ffffffff19825416179055565b86015163ffffffff1690565b63ffffffff1690565b92600052600d602052604060002090565b0155015163ffffffff1690565b886114f68d600052600d602052604060002090565b0180546001600160e01b031660e09290921b6001600160e01b031916919091179055565b80612502565b90810190612958565b01612517565b9061154485600052600d602052604060002090565b018054600160401b600160e01b03191660409290921b600160401b600160e01b0316919091179055565b611583604461157c84612124565b9201612517565b906122c7565b80f35b8061159961159f926104b6565b80610607565b3861143f565b6115ad61236d565b61143a565b8280fd5b6115cd91508a3d8c116111cb576111bd81836104c9565b38611348565b6115db61236d565b611341565b845162461bcd60e51b8152602081860181815260169181019190915275696e76616c696420696e636f6d696e67207465726d7360501b604082015281906060010390fd5b61164b9195506112e3925060a03d8111611653575b61164381836104c9565b810190612521565b9490916112d5565b503d611639565b61166261236d565b6112cc565b9161168490610f6b94928452606060208501526060840190610f26565b916040818403910152610f26565b503461000e5760208060031936011261000e576000906004356116c361089784356001600160e01b03191633612431565b8290808452600e835260408420604051908194859281835491828152019288528188209188905b82821061178e5750505050916117086117189261171e9403866104c9565b600052600e602052604060002090565b54612af7565b925b825181101561177c5780611772600561173f610ca66117779588612b45565b6117514261174c8361296e565b612a81565b81540180968183550195611765858a612b45565b5201805461ff0019169055565b612b29565b611720565b50906106039060405193849384611667565b835485528895509384019360019384019391909101906116ea565b503461000e57604036600319011261000e576109466024356118706004356117d08361050a565b611842600060206118276117ee610dd960085460018060a01b031690565b600161180487600052600d602052604060002090565b01546040519485809481936303c0868f60e41b8352600483019190602083019252565b03925af19081156118d2575b6000916118b4575b5015613b60565b61184e610dd982612124565b3314801561188f575b61186090613beb565b600052600f602052604060002090565b80546001600160a01b0319166001600160a01b03909216919091179055565b50600954611860906118ab90610dd9906001600160a01b031681565b33149050611857565b6118cc915060203d81116111cb576111bd81836104c9565b3861183b565b6118da61236d565b611833565b503461000e57600036600319011261000e576006546040516001600160a01b039091168152602090f35b503461000e57600080600319360112610765576040519080600190815480831c928082169283156119c1575b6020928386108514610747578588526020880194908115610726575060011461196857610603876106c2818903826104c9565b600160005294509192917fb10e2d527612073b26eecdfd717e6a320cf44b4afac2b0732d9fcbe2b7fa0cf65b8386106119b057505050910190506106c28261060338806106b2565b805485870152948201948101611994565b93607f1693611935565b503461000e57600036600319011261000e576040517f00000000000000000000000000000000000000000000000000000000000000006001600160a01b03168152602090f35b503461000e57604036600319011261000e57600435611a2f8161050a565b60243590611a3c82610563565b3360009081526005602090815260408083206001600160a01b038516845290915290209115159160ff1981541660ff841617905560405191825260018060a01b0316907f17307eab39ab6107e8899845ad3d59bd9653f200f220920489ca2b5937696c3160203392a3005b503461000e57600036600319011261000e576040517f00000000000000000000000000000000000000000000000000000000000000006001600160a01b03168152602090f35b503461000e57606036600319011261000e5761094633602435604435600435613786565b503461000e57608036600319011261000e57600435611b2f8161050a565b60243590611b3c8261050a565b606435916044356001600160401b03841161000e57611b62610946943690600401610d2d565b92611b6e8382876121c5565b803b15938415611b80575b868561237a565b611bcb9450600060209496604051809781968295630a85bd0160e11b9b8c855233600486015260018060a01b03809616602486015260448501526080606485015260848401916123b9565b0393165af1908115611c14575b600091611bf6575b506001600160e01b031916148038808080611b79565b611c0e915060203d8111610b6e57610b6081836104c9565b38611be0565b611c1c61236d565b611bd8565b503461000e57604036600319011261000e57611c41602435600435613475565b60408051928352602083019190915290f35b503461000e57600036600319011261000e576007546040516001600160a01b039091168152602090f35b503461000e57604036600319011261000e57610603610a6c602435600435613439565b503461000e57604036600319011261000e576106036105f360043580600052600d602052611d3c611cd4604060002061296e565b611d36611cfd63ffffffff611cf6816080860151168260e0870151169061356d565b1694613592565b93611d2481611d1f60608651966024358803978811611d4f575b015186612a66565b612a66565b928303928311611d42575b4290613585565b9061353f565b90613585565b611d4a612a4f565b611d2f565b611d57612a4f565b611d17565b503461000e57602036600319011261000e57610603604051602081018181106001600160401b03821117611d9e575b6040526000815260405191829182610635565b611da661045c565b611d8b565b503461000e57602036600319011261000e576020610ef5600435613b24565b503461000e57604036600319011261000e57600435602435600090828252602091600e835260408120926040518094859183825491828152019185528385209385905b828210611e4f57505050611e23925003846104c9565b80915b8351831015611e4b57611e3f611e459133908588613786565b92612b29565b91611e26565b5080f35b855484526001958601958995509381019390910190611e0d565b503461000e57602036600319011261000e576000600435611e9861089783356001600160e01b03191633612431565b808252600e6020526040822080549083815581611ee1575b60405183815284907f32fe8e9a49569c7371d5a011e1c65478a2c4b8286315b29c11f8c56b467e22d590602090a180f35b835260208320908101905b81811015611eb057838155600101611eec565b503461000e57604036600319011261000e57602060ff611f5c600435611f248161050a565b60243590611f318261050a565b60018060a01b03166000526005845260406000209060018060a01b0316600052602052604060002090565b54166040519015158152f35b503461000e57602036600319011261000e57600480356000908152600d60209081526040918290208054600182015460028301546003840154968401546005909401548651938452838601929092526001600160a01b0390811683870152606083019690965263ffffffff80841660808401529383901c90931660a08201529281901c90931660c083015260e092831c9282019290925260ff80831661010083015260089290921c909116151561012082015261014090f35b503461000e57600036600319011261000e57600a546040516001600160a01b039091168152602090f35b503461000e57606036600319011261000e5760443560043561206c8261050a565b602435600091808352602092600e845260408120936040518095869183825491828152019185528385209385905b8282106120d1575050506120b0925003856104c9565b80925b8451841015611e4b57610cc7866120cb928686613786565b926120b3565b855484526001958601958a9550938101939091019061209a565b156120f257565b60405162461bcd60e51b815260206004820152600a6024820152691393d517d3525395115160b21b6044820152606490fd5b6000908152600260205260409020546001600160a01b0316906105298215156120eb565b1561214f57565b60405162461bcd60e51b815260206004820152600e60248201526d1393d517d055551213d49256915160921b6044820152606490fd5b1561218c57565b60405162461bcd60e51b81526020600482015260116024820152701253959053125117d49150d25412515395607a1b6044820152606490fd5b6000838152600260205260409020546001600160a01b03939291908482169085168103612295576121fc6105299584161515612185565b3314801561224e575b801561221a575b61221590612148565b6122c7565b50612215612245610dd9612238866000526004602052604060002090565b546001600160a01b031690565b3314905061220c565b50612290612289336122728460018060a01b03166000526005602052604060002090565b9060018060a01b0316600052602052604060002090565b5460ff1690565b612205565b60405162461bcd60e51b815260206004820152600a60248201526957524f4e475f46524f4d60b01b6044820152606490fd5b7fddf252ad1be2c89b69c2b068fc378daa952ba7f163c4a11628f55a4df523b3ef60018060a01b038092169161233260009184835260036020526040832060001981540190558516948583526040832060018154019055611870876000526002602052604060002090565b612346856000526004602052604060002090565b80546001600160a01b031916905580a4565b9081602091031261000e5751610f6b816103c8565b506040513d6000823e3d90fd5b1561238157565b60405162461bcd60e51b815260206004820152601060248201526f155394d0519157d49150d2541251539560821b6044820152606490fd5b908060209392818452848401376000828201840152601f01601f1916010190565b9081602091031261000e5751610f6b81610563565b1561000e57565b156123fd57565b60405162461bcd60e51b815260206004820152600c60248201526b15539055551213d49256915160a21b6044820152606490fd5b6007546001600160a01b03908116801515939084612465575b5050821561245757505090565b809192506006541691161490565b60405163b700961360e01b81526001600160a01b03851660048201523060248201526001600160e01b031992909216604483015291935090602090829060649082905afa9081156124e0575b6000916124c2575b5091388061244a565b6124da915060203d81116111cb576111bd81836104c9565b386124b9565b6124e861236d565b6124b1565b9081602091031261000e5735610f6b8161050a565b903590605e198136030182121561000e570190565b35610f6b8161050a565b809291039160a0831261000e576080815161253b81610563565b93601f19011261000e5760806040519161255483610473565b6020810151835260408101516020840152606081015160408401520151606082015290565b359060ff8216820361000e57565b9035601e198236030181121561000e5701602081359101916001600160401b03821161000e57813603831361000e57565b9035605e198236030181121561000e570190565b9035601e198236030181121561000e5701602081359101916001600160401b03821161000e578160051b3603831361000e57565b803582526020612612818301836125cc565b60608584018190528501819052906001600160fb1b03821161000e5760a09160059493941b809160808701378401612652608082019360408101906125cc565b9386604060808794998603019101525201929160005b828110612676575050505090565b909192938280600192873561268a81610563565b1515815201950193929101612668565b602081528135916126aa8361050a565b60018060a01b0380931660208301526020810135604083015260408101359061017e198136030182121561000e576101e0910160608084015260ff6126ee82612579565b1660808401528360208201356127038161050a565b1660a0840152604081013560c0840152606081013560e084015260808101359361272c8561050a565b61010094168484015261274160a08201612579565b90612754610120928386019060ff169052565b6127ba6127c561276760c0840184612587565b929094612785610180966101409588878c01526102008b01916123b9565b956127ab61279660e08801886125b8565b9761016098607f198c8303018a8d0152612600565b99860135908901528401612579565b60ff166101a0870152565b8101356101c0850152013591015290565b156127dd57565b60405162461bcd60e51b815260206004820152602560248201527f4c69656e546f6b656e3a206275796f757420616d6f756e742065786365656473604482015264081bddd95960da1b6064820152608490fd5b805482526001810154602083015260028101546001600160a01b03166040830152610529919060ff9061012090600590600381015460608601526128c060048201546128a263ffffffff61288e60808a0182851663ffffffff169052565b60a08901908360201c1663ffffffff169052565b604081901c6001600160a01b031660c088015260e090811c90870152565b015460ff8382161661010085015292019160081c1615159052565b90929160606101a0916128f3846101c0810197612830565b8051610140850152602081015161016085015260408101516101808501520151910152565b1561291f57565b60405162461bcd60e51b8152602060048201526011602482015270696e76616c696420726566696e616e636560781b6044820152606490fd5b90359061017e198136030182121561000e570190565b9061052960ff600561297e6104ea565b855481526001860154602082015260028601546001600160a01b031660408201529460038101546060870152600481015463ffffffff8082166080890152602082901c1660a08801526129e990604081901c6001600160a01b031660c089015260e090811c90880152565b015460ff8282161661010086015260081c161515610120840152565b90612a1d906000928352600e60205260408320610bb8565b90549060031b1c8152600d60205260ff600560408320015460081c1615610f6b576040610f6b912061174c429161296e565b50634e487b7160e01b600052601160045260246000fd5b81810292918115918404141715612a7957565b610529612a4f565b612ac090612ab8670de0b6b3a76400009363ffffffff90818060a08601511691160390808211612ac4575b60608401519116612a66565b905190612a66565b0490565b612acc612a4f565b612aac565b6020906001600160401b038111612aea575b60051b0190565b612af261045c565b612ae3565b90612b0182612ad1565b612b0e60405191826104c9565b8281528092612b1f601f1991612ad1565b0190602036910137565b6001906000198114612b39570190565b612b41612a4f565b0190565b6020918151811015612b5a575b60051b010190565b612b62610ba1565b612b52565b612b806108976000356001600160e01b03191633612431565b80516001600160a01b0316612b9b6020918284015190613cb5565b600854909190612bb3906001600160a01b0316610dd9565b91612bfa60409383855180926303c0868f60e41b825281600081612bdf89600483019190602083019252565b03925af1908115612f86575b600091612f69575b5015612f93565b60c0840151612ed0575b612c27612c1082613614565b612c21612c1c846136a3565b613096565b90612a66565b612c49612c3c85870192868451015190612a66565b60608351015110156130b1565b60a0850180519095906001600160a01b03168251805181870151828901516060938401518a51808b018a81526001600160a01b0397881660208201527f0000000000000000000000000000000000000000000000000000000000000000978816604082015295860194909452608085019290925260a084015260c083015291959190612cff90612d0b90839060e00103612ceb601f19918281018652856104c9565b60608601518a51938491878301968761312e565b039081018352826104c9565b519020968795612d2861228987600052600e602052604060002090565b93612d6f88600486612d46610dd9610dd9895160018060a01b031690565b8d516319b400eb60e21b815292839182905afa908115612ec3575b600091612e96575b5061331b565b6080015194519083820151612d879063ffffffff1690565b92516001600160a01b03169263ffffffff91888b844216950151612dae9063ffffffff1690565b96612db76104ea565b998a528901526001600160a01b03168a88015216606086015263ffffffff8116608086015263ffffffff1660a08501526001600160a01b031660c084015263ffffffff1660e083015260ff166101008201526001610120820152612e2583600052600d602052604060002090565b90612e2f91613161565b612e4390600052600e602052604060002090565b90612e4d916132ba565b612e6182600052600d602052604060002090565b9051612e6f81928483613304565b037f988c7d0e8588fb5aa4b943aa9044d832ed15c91ef6533f9bb232198a626f873491a190565b612eb69150873d8911612ebc575b612eae81836104c9565b81019061314c565b38612d69565b503d612ea4565b612ecb61236d565b612d61565b600a54612f2990612ee9906001600160a01b0316610dd9565b845163738eaa0f60e11b815260048101849052908590829060249082905afa908115612f5c575b600091612f2e575b506001600160a01b03161515613024565b612c04565b612f4e9150853d8711612f55575b612f4681836104c9565b810190613005565b5038612f18565b503d612f3c565b612f6461236d565b612f10565b612f809150843d86116111cb576111bd81836104c9565b38612bf3565b612f8e61236d565b612beb565b15612f9a57565b60405162461bcd60e51b815260206004820152603760248201527f636f6c6c61746572616c4964206973206265696e67206c69717569646174656460448201527f2c2063616e6e6f74206f70656e206e6577206c69656e730000000000000000006064820152608490fd5b919082604091031261000e576020825161301e8161050a565b92015190565b1561302b57565b60405162461bcd60e51b815260206004820152603a60248201527f436f6c6c61746572616c206d757374206265206465706f73697465642062656660448201527f6f726520796f752063616e20726571756573742061206c69656e0000000000006064820152608490fd5b9060018201809211612a7957565b91908201809211612a7957565b156130b857565b60405162461bcd60e51b815260206004820152604260248201527f746f6f206d756368206465627420636f756c6420706f74656e7469616c6c792060448201527f6265206163637275656420616761696e7374207468697320636f6c6c61746572606482015261185b60f21b608482015260a490fd5b6020929190613144849282815194859201610612565b019081520190565b9081602091031261000e5751610f6b8161050a565b815181556020820151600182015560408201516002820180546001600160a01b0319166001600160a01b0390921691909117905561052991906132a4906101209060059060608501516003820155613279600482016131e06131ca608089015163ffffffff1690565b825463ffffffff191663ffffffff909116178255565b6132166131f460a089015163ffffffff1690565b825467ffffffff00000000191660209190911b67ffffffff0000000016178255565b60c087015161324e906001600160a01b03168254600160401b600160e01b03191660409190911b600160401b600160e01b0316178255565b60e087015163ffffffff1681546001600160e01b031660e09190911b6001600160e01b031916179055565b019261329d61328d61010083015160ff1690565b855460ff191660ff909116178555565b0151151590565b815461ff00191690151560081b61ff0016179055565b80546132dd91680100000000000000008210156132f7575b600182018155610bb8565b819291549060031b600019811b9283911b16911916179055565b6132ff61045c565b6132d2565b908152610160810192916105299160200190612830565b6001600160a01b0381811691613332831515612185565b6000918483526002602052604083205416613398576133729083835260036020526040832060018154019055611870856000526002602052604060002090565b7fddf252ad1be2c89b69c2b068fc378daa952ba7f163c4a11628f55a4df523b3ef8180a4565b60405162461bcd60e51b815260206004820152600e60248201526d1053149150511657d3525395115160921b6044820152606490fd5b6040519061014082018281106001600160401b0382111761342c575b604052816101206000918281528260208201528260408201528260608201528260808201528260a08201528260c08201528260e0820152826101008201520152565b61343461045c565b6133ea565b90613459916134466133ce565b50600052600e6020526040600020610bb8565b90549060031b1c600052600d602052610f6b604060002061296e565b9061347f91613439565b90610f6b61351761350b6134fd61349586613753565b95612ab86080820163ffffffff90816134cd818351168280806134c060e08b0194828651169061356d565b169551169151169061356d565b624f1a004201918291824211613532575b161161352a575b501642810390811161351d575b606083015190612a66565b670de0b6b3a7640000900490565b600b54600c5491613555565b836130a4565b613525612a4f565b6134f2565b9050386134e5565b61353a612a4f565b6134de565b600181800414811517821515161561000e570490565b8181029181830414901517821515161561000e570490565b91909163ffffffff80809416911601918211612a7957565b91908203918211612a7957565b600052600d602052610f6b6135aa604060002061296e565b63ffffffff90816135c8816080840151168260e0850151169061356d565b169160a06135e084611d1f8551606087015190612a66565b9280518403938411613607575b01511682039182111561353f57613602612a4f565b61353f565b61360f612a4f565b6135ed565b9060009182526020600e815260408320906040518092839183825491828152019187528387209387905b82821061368957505050613654925003826104c9565b825b815184101561368457610cc761367e91610cc1613679610cb7610ca68988612b45565b613753565b92613656565b925050565b85548452600195860195879550938101939091019061363e565b906136ad82613614565b906000928352602090600e825260408420916040518093849183825491828152019188528388209388905b828210613739575050506136ee925003836104c9565b835b82518510156137225761371c9061370d610cb7610ca68887612b45565b60608101519051020194612b29565b936136f0565b93509190508061372f5750565b610f6b919261353f565b8554845260019586019588955093810193909101906136d8565b61375d4282612a81565b8151908101918280921161376f575290565b613777612a4f565b5290565b9061375d9082612a81565b9192908315613a85576137b8610dd9610dd96137b361126e8561126989600052600e602052604060002090565b612124565b6040516301ffc9a760e01b8152633de7da1960e21b6004820152602081602481855afa908115613a78575b600091613a5a575b506139e1575b5061382061381061126e8361126987600052600e602052604060002090565b600052600d602052604060002090565b61382c6136798261296e565b858110156139895750613840858254613585565b815560048101805467ffffffff0000000019164260201b67ffffffff00000000161790555b600201546001600160a01b037f000000000000000000000000000000000000000000000000000000000000000081169116916138ba6138b561126e8361126989600052600e602052604060002090565b613b24565b91803b1561000e5760405163f3913e6960e01b81526001600160a01b0394851660048201529484166024860152919092166044840152606483018590527f7c3f93091d6a13e0438473f0d6ba31c52b56b0c08e0220f29ef563a5ab833a0a9385936139569361126e9390926112699290916000908290608490829084905af1801561397c575b613969575b50600052600e602052604060002090565b604080519182526020820192909252a190565b80611599613976926104b6565b38613945565b61398461236d565b613940565b909450936139b06139ab61126e8461126988600052600e602052604060002090565b613a8e565b6139dc6139cb8361126987600052600e602052604060002090565b8154906000199060031b1b19169055565b613865565b6139fc61126e8361126987600052600e602052604060002090565b90803b1561000e57604051633de7da1960e21b81526004810192909252602482018690526000908290604490829084905af18015613a4d575b156137f15780611599613a47926104b6565b386137f1565b613a5561236d565b613a35565b613a72915060203d81116111cb576111bd81836104c9565b386137eb565b613a8061236d565b6137e3565b50505050600090565b6000818152600260205260408120546001600160a01b0316613ab18115156120eb565b8082526003602052604082206000198154019055613ad9836000526002602052604060002090565b80546001600160a01b031990811690915560008481526004602052604090209081541690557fddf252ad1be2c89b69c2b068fc378daa952ba7f163c4a11628f55a4df523b3ef8280a4565b6000818152600f60205260409020546001600160a01b039190821615613b5657600052600f6020526040600020541690565b610f6b9150612124565b15613b6757565b60405162461bcd60e51b815260206004820152605060248201527f636f6c6c61746572616c4964206973206265696e67206c69717569646174656460448201527f2c2063616e6e6f74206368616e67652070617965652066726f6d204c6971756960648201526f19185d1a5bdb9058d8dbdd5b9d185b9d60821b608482015260a490fd5b15613bf257565b60405162461bcd60e51b815260206004820152600d60248201526c34b73b30b634b21037bbb732b960991b6044820152606490fd5b15613c2e57565b60405162461bcd60e51b81526020600482015260136024820152726d75737420737570706f72742065726337323160681b6044820152606490fd5b15613c7057565b60405162461bcd60e51b815260206004820152601860248201527f6d75737420626520612076616c696420746f6b656e20696400000000000000006044820152606490fd5b6040516301ffc9a760e01b81526380ac58cd60e01b6004820152909190613d7e90602090613d45906001600160a01b039081871690613d0c908581602481865afa908115613dcb575b600091613dae575b50613c27565b6040516331a9108f60e11b815260048101879052908490829060249082905afa908115613da1575b600091613d84575b50161515613c69565b613d706040519384928301958690916034926001600160601b03199060601b16825260148201520190565b03601f1981018352826104c9565b51902090565b613d9b9150843d8611612ebc57612eae81836104c9565b38613d3c565b613da961236d565b613d34565b613dc59150863d88116111cb576111bd81836104c9565b38613d06565b613dd361236d565b613cfe56fea26469706673582212207695054a5ce9173883a6796f81fe61bed49fe999f02d8d3bf26e268dc0e687af64736f6c63430008110033290decd9548b62a8d60345a988386fc84ba6bc95484008f6362f93160ef3e563",
    "linkReferences": {}
  },
  "methodIdentifiers": {
    "ASTARIA_ROUTER()": "3398b637",
    "AUCTION_HOUSE()": "4226b1bf",
    "COLLATERAL_TOKEN()": "f5f1f1a7",
    "TRANSFER_PROXY()": "96d6401d",
    "WETH()": "ad5c4648",
    "approve(address,uint256)": "095ea7b3",
    "authority()": "bf7e214f",
    "balanceOf(address)": "70a08231",
    "buyoutDenominator()": "19129fe7",
    "buyoutLien(((address,uint256,((uint8,address,uint256,uint256,address),uint8,bytes,(bytes32,bytes32[],bool[]),uint256,uint8,bytes32,bytes32)),uint256,address))": "816d0a31",
    "buyoutNumerator()": "649e79a0",
    "calculateSlope(uint256)": "3a7d59dd",
    "changeInSlope(uint256,uint256)": "c60564ab",
    "createLien((address,uint256,(uint256,uint256,uint256,uint256),bytes32,uint256,address,bool))": "049eed0a",
    "file(bytes32,bytes)": "6322be99",
    "getApproved(uint256)": "081812fc",
    "getBuyout(uint256,uint256)": "bcab9542",
    "getImpliedRate(uint256)": "70e109d3",
    "getInterest(uint256,uint256)": "728af7ec",
    "getLien(uint256)": "410bb6c2",
    "getLien(uint256,uint256)": "c5596726",
    "getLiens(uint256)": "67a3e7dc",
    "getPayee(uint256)": "d13136fd",
    "getTotalDebtForCollateralToken(uint256)": "4f1811c4",
    "getTotalDebtForCollateralToken(uint256,uint256)": "5466b5ff",
    "isApprovedForAll(address,address)": "e985e9c5",
    "lienData(uint256)": "f2bb8fdc",
    "liens(uint256,uint256)": "5222128e",
    "makePayment(uint256,uint256)": "d390f974",
    "makePayment(uint256,uint256,address)": "fc3f5dff",
    "makePayment(uint256,uint256,uint256)": "b4beb5f6",
    "name()": "06fdde03",
    "owner()": "8da5cb5b",
    "ownerOf(uint256)": "6352211e",
    "payees(uint256)": "63037b0c",
    "removeLiens(uint256)": "d6b383e2",
    "safeTransferFrom(address,address,uint256)": "42842e0e",
    "safeTransferFrom(address,address,uint256,bytes)": "b88d4fde",
    "setApprovalForAll(address,bool)": "a22cb465",
    "setAuthority(address)": "7a9e5e4b",
    "setOwner(address)": "13af4035",
    "setPayee(uint256,address)": "87d2649a",
    "stopLiens(uint256)": "84673214",
    "supportsInterface(bytes4)": "01ffc9a7",
    "symbol()": "95d89b41",
    "tokenURI(uint256)": "c87b56dd",
    "transferFrom(address,address,uint256)": "23b872dd"
  },
  "id": 34
}