{
  "abi": [
    {
      "inputs": [],
      "name": "LIEN_TOKEN",
      "outputs": [
        {
          "internalType": "address",
          "name": "",
          "type": "address"
        }
      ],
      "stateMutability": "view",
      "type": "function"
    },
    {
      "inputs": [],
      "name": "ROUTER",
      "outputs": [
        {
          "internalType": "address",
          "name": "",
          "type": "address"
        }
      ],
      "stateMutability": "view",
      "type": "function"
    },
    {
      "inputs": [],
      "name": "VAULT",
      "outputs": [
        {
          "internalType": "address",
          "name": "",
          "type": "address"
        }
      ],
      "stateMutability": "view",
      "type": "function"
    },
    {
      "inputs": [
        {
          "internalType": "address",
          "name": "proxy",
          "type": "address"
        }
      ],
      "name": "calculateWithdrawRatio",
      "outputs": [],
      "stateMutability": "nonpayable",
      "type": "function"
    },
    {
      "inputs": [],
      "name": "claim",
      "outputs": [],
      "stateMutability": "nonpayable",
      "type": "function"
    },
    {
      "inputs": [],
      "name": "finalAuctionEnd",
      "outputs": [
        {
          "internalType": "uint256",
          "name": "",
          "type": "uint256"
        }
      ],
      "stateMutability": "view",
      "type": "function"
    },
    {
      "inputs": [
        {
          "internalType": "uint256",
          "name": "newLienExpectedValue",
          "type": "uint256"
        },
        {
          "internalType": "uint256",
          "name": "finalAuctionTimestamp",
          "type": "uint256"
        }
      ],
      "name": "handleNewLiquidation",
      "outputs": [],
      "stateMutability": "nonpayable",
      "type": "function"
    },
    {
      "inputs": [],
      "name": "underlying",
      "outputs": [
        {
          "internalType": "address",
          "name": "",
          "type": "address"
        }
      ],
      "stateMutability": "view",
      "type": "function"
    }
  ],
  "bytecode": {
    "object": "0x6080806040523461001657610789908161001c8239f35b600080fdfe60806040526004361015610013575b600080fd5b6000803560e01c90816332fe7b26146100b657508063411557d1146100ad57806341700b97146100a45780634e71d92d1461009b57806359a13ae5146100925780636f307dc314610089578063877cd2e9146100805763992eafc21461007857600080fd5b61000e610581565b5061000e610436565b5061000e610403565b5061000e6103a9565b5061000e610156565b5061000e61012d565b5061000e6100f7565b346100e957806003193601126100e95760146100db6001198036013560f01c36030190565b013560601c60805260206080f35b80fd5b600091031261000e57565b503461000e57600036600319011261000e57602060286101206001198036013560f01c36030190565b013560601c604051908152f35b503461000e57600036600319011261000e576020603c6101206001198036013560f01c36030190565b503461000e576000806003193601126100e9576101806002548042119081156103a0575b506105a0565b806101946001198036013560f01c36030190565b6040516370a0823160e01b8082523060048301529161026891813560601c91602091602891908381602481885afa908115610393575b8891610376575b508754908161033b576101ec91508383013560601c866106db565b013560601c9360405192632763e3f360e21b84528284600481895afa93841561032e575b8794610303575b50600154604051928352306004840152610262936102529390928390829060249082905afa9283156102f6575b89936102c7575b5050610696565b61025c8654610688565b906106a3565b90610696565b813b156102c357604051638b041a7560e01b8152600481019190915291908290602490829084905af180156102b6575b6102a0575080f35b806102ad6102b3926105ec565b806100ec565b80f35b6102be610647565b610298565b5050fd5b6102e7929350803d106102ef575b6102df8183610616565b810190610638565b90388061024b565b503d6102d5565b6102fe610647565b610244565b839194509161032461025293610262953d85116102ef576102df8183610616565b9491935091610217565b610336610647565b610210565b610348816103719361066b565b6003549091906103639083906001600160a01b0316896106db565b038383013560601c866106db565b6101ec565b61038d9150843d86116102ef576102df8183610616565b386101d1565b61039b610647565b6101ca565b9050153861017a565b503461000e57604036600319011261000e5760146103d06001198036013560f01c36030190565b013560601c330361000e5760015460043581018091116103f6575b600155602435600255005b6103fe610654565b6103eb565b503461000e57600036600319011261000e57602061042a6001198036013560f01c36030190565b3560601c604051908152f35b503461000e5760208060031936011261000e57600435906001600160a01b03821680830361000e5760286104736001198036013560f01c36030190565b013560601c9061048482331461074c565b61048a57005b6104b36105249360018060a01b03166bffffffffffffffffffffffff60a01b6003541617600355565b6003546104d6906104ca906001600160a01b031681565b6001600160a01b031690565b90826040519281846004816318160ddd60e01b948582525afa938415610574575b600094610555575b5060046040518094819382525afa928315610548575b600093610529575b50506106b9565b600055005b610540929350803d106102ef576102df8183610616565b90388061051d565b610550610647565b610515565b61056d919450823d84116102ef576102df8183610616565b92386104ff565b61057c610647565b6104f7565b503461000e57600036600319011261000e576020600254604051908152f35b156105a757565b60405162461bcd60e51b815260206004820152601b60248201527f66696e616c2061756374696f6e20686173206e6f7420656e64656400000000006044820152606490fd5b67ffffffffffffffff811161060057604052565b634e487b7160e01b600052604160045260246000fd5b90601f8019910116810190811067ffffffffffffffff82111761060057604052565b9081602091031261000e575190565b506040513d6000823e3d90fd5b50634e487b7160e01b600052601160045260246000fd5b8181029291811591840414171561067e57565b610686610654565b565b600103906001821161067e57565b9190820391821161067e57565b81810291818304149015176001161561000e5790565b678ac7230489e80000908181029181830414901517821515161561000e570490565b600091826044926020956040519363a9059cbb60e01b8552600485015260248401525af13d15601f3d116001600051141617161561071557565b60405162461bcd60e51b815260206004820152600f60248201526e1514905394d1915497d19052531151608a1b6044820152606490fd5b1561000e5756fea2646970667358221220fd7dc5345dcfceae56b535737e59d99b81a881d96cddf9f7dbc294a7daf2673a64736f6c63430008110033",
    "linkReferences": {}
  },
  "methodIdentifiers": {
    "LIEN_TOKEN()": "41700b97",
    "ROUTER()": "32fe7b26",
    "VAULT()": "411557d1",
    "calculateWithdrawRatio(address)": "877cd2e9",
    "claim()": "4e71d92d",
    "finalAuctionEnd()": "992eafc2",
    "handleNewLiquidation(uint256,uint256)": "59a13ae5",
    "underlying()": "6f307dc3"
  },
  "id": 35
}