{
  "abi": [
    {
      "inputs": [],
      "name": "CreateFail",
      "type": "error"
    },
    {
      "anonymous": false,
      "inputs": [
        {
          "indexed": true,
          "internalType": "address",
          "name": "owner",
          "type": "address"
        },
        {
          "indexed": true,
          "internalType": "address",
          "name": "spender",
          "type": "address"
        },
        {
          "indexed": false,
          "internalType": "uint256",
          "name": "amount",
          "type": "uint256"
        }
      ],
      "name": "Approval",
      "type": "event"
    },
    {
      "anonymous": false,
      "inputs": [
        {
          "indexed": true,
          "internalType": "address",
          "name": "caller",
          "type": "address"
        },
        {
          "indexed": true,
          "internalType": "address",
          "name": "owner",
          "type": "address"
        },
        {
          "indexed": false,
          "internalType": "uint256",
          "name": "assets",
          "type": "uint256"
        },
        {
          "indexed": false,
          "internalType": "uint256",
          "name": "shares",
          "type": "uint256"
        }
      ],
      "name": "Deposit",
      "type": "event"
    },
    {
      "anonymous": false,
      "inputs": [
        {
          "indexed": false,
          "internalType": "bytes32",
          "name": "strategyRoot",
          "type": "bytes32"
        },
        {
          "indexed": false,
          "internalType": "address",
          "name": "tokenContract",
          "type": "address"
        },
        {
          "indexed": false,
          "internalType": "uint256",
          "name": "tokenId",
          "type": "uint256"
        },
        {
          "indexed": false,
          "internalType": "uint256",
          "name": "amount",
          "type": "uint256"
        }
      ],
      "name": "NewObligation",
      "type": "event"
    },
    {
      "anonymous": false,
      "inputs": [
        {
          "indexed": false,
          "internalType": "address",
          "name": "appraiser",
          "type": "address"
        },
        {
          "indexed": false,
          "internalType": "address",
          "name": "vault",
          "type": "address"
        }
      ],
      "name": "NewVault",
      "type": "event"
    },
    {
      "anonymous": false,
      "inputs": [
        {
          "indexed": false,
          "internalType": "uint256",
          "name": "collateralId",
          "type": "uint256"
        },
        {
          "indexed": false,
          "internalType": "uint256",
          "name": "index",
          "type": "uint256"
        },
        {
          "indexed": false,
          "internalType": "uint256",
          "name": "amount",
          "type": "uint256"
        }
      ],
      "name": "Payment",
      "type": "event"
    },
    {
      "anonymous": false,
      "inputs": [
        {
          "indexed": true,
          "internalType": "address",
          "name": "from",
          "type": "address"
        },
        {
          "indexed": true,
          "internalType": "address",
          "name": "to",
          "type": "address"
        },
        {
          "indexed": false,
          "internalType": "uint256",
          "name": "amount",
          "type": "uint256"
        }
      ],
      "name": "Transfer",
      "type": "event"
    },
    {
      "anonymous": false,
      "inputs": [
        {
          "indexed": true,
          "internalType": "address",
          "name": "caller",
          "type": "address"
        },
        {
          "indexed": true,
          "internalType": "address",
          "name": "receiver",
          "type": "address"
        },
        {
          "indexed": true,
          "internalType": "address",
          "name": "owner",
          "type": "address"
        },
        {
          "indexed": false,
          "internalType": "uint256",
          "name": "assets",
          "type": "uint256"
        },
        {
          "indexed": false,
          "internalType": "uint256",
          "name": "shares",
          "type": "uint256"
        }
      ],
      "name": "Withdraw",
      "type": "event"
    },
    {
      "inputs": [],
      "name": "AUCTION_HOUSE",
      "outputs": [
        {
          "internalType": "address",
          "name": "",
          "type": "address"
        }
      ],
      "stateMutability": "view",
      "type": "function"
    },
    {
      "inputs": [],
      "name": "COLLATERAL_TOKEN",
      "outputs": [
        {
          "internalType": "address",
          "name": "",
          "type": "address"
        }
      ],
      "stateMutability": "view",
      "type": "function"
    },
    {
      "inputs": [],
      "name": "DOMAIN_SEPARATOR",
      "outputs": [
        {
          "internalType": "bytes32",
          "name": "",
          "type": "bytes32"
        }
      ],
      "stateMutability": "view",
      "type": "function"
    },
    {
      "inputs": [],
      "name": "EPOCH_LENGTH",
      "outputs": [
        {
          "internalType": "uint256",
          "name": "",
          "type": "uint256"
        }
      ],
      "stateMutability": "view",
      "type": "function"
    },
    {
      "inputs": [],
      "name": "LIEN_TOKEN",
      "outputs": [
        {
          "internalType": "contract ILienToken",
          "name": "",
          "type": "address"
        }
      ],
      "stateMutability": "view",
      "type": "function"
    },
    {
      "inputs": [],
      "name": "ROUTER",
      "outputs": [
        {
          "internalType": "address",
          "name": "",
          "type": "address"
        }
      ],
      "stateMutability": "view",
      "type": "function"
    },
    {
      "inputs": [],
      "name": "START",
      "outputs": [
        {
          "internalType": "uint256",
          "name": "",
          "type": "uint256"
        }
      ],
      "stateMutability": "view",
      "type": "function"
    },
    {
      "inputs": [],
      "name": "VAULT_TYPE",
      "outputs": [
        {
          "internalType": "uint256",
          "name": "",
          "type": "uint256"
        }
      ],
      "stateMutability": "view",
      "type": "function"
    },
    {
      "inputs": [
        {
          "internalType": "address",
          "name": "",
          "type": "address"
        },
        {
          "internalType": "address",
          "name": "",
          "type": "address"
        }
      ],
      "name": "allowance",
      "outputs": [
        {
          "internalType": "uint256",
          "name": "",
          "type": "uint256"
        }
      ],
      "stateMutability": "view",
      "type": "function"
    },
    {
      "inputs": [
        {
          "internalType": "address",
          "name": "spender",
          "type": "address"
        },
        {
          "internalType": "uint256",
          "name": "amount",
          "type": "uint256"
        }
      ],
      "name": "approve",
      "outputs": [
        {
          "internalType": "bool",
          "name": "",
          "type": "bool"
        }
      ],
      "stateMutability": "nonpayable",
      "type": "function"
    },
    {
      "inputs": [
        {
          "internalType": "address",
          "name": "",
          "type": "address"
        }
      ],
      "name": "balanceOf",
      "outputs": [
        {
          "internalType": "uint256",
          "name": "",
          "type": "uint256"
        }
      ],
      "stateMutability": "view",
      "type": "function"
    },
    {
      "inputs": [
        {
          "internalType": "uint256",
          "name": "lienId",
          "type": "uint256"
        },
        {
          "internalType": "uint256",
          "name": "amount",
          "type": "uint256"
        }
      ],
      "name": "beforePayment",
      "outputs": [],
      "stateMutability": "nonpayable",
      "type": "function"
    },
    {
      "inputs": [
        {
          "internalType": "uint256",
          "name": "collateralId",
          "type": "uint256"
        },
        {
          "internalType": "uint256",
          "name": "position",
          "type": "uint256"
        },
        {
          "components": [
            {
              "internalType": "address",
              "name": "tokenContract",
              "type": "address"
            },
            {
              "internalType": "uint256",
              "name": "tokenId",
              "type": "uint256"
            },
            {
              "components": [
                {
                  "components": [
                    {
                      "internalType": "uint8",
                      "name": "version",
                      "type": "uint8"
                    },
                    {
                      "internalType": "address",
                      "name": "strategist",
                      "type": "address"
                    },
                    {
                      "internalType": "uint256",
                      "name": "nonce",
                      "type": "uint256"
                    },
                    {
                      "internalType": "uint256",
                      "name": "deadline",
                      "type": "uint256"
                    },
                    {
                      "internalType": "address",
                      "name": "vault",
                      "type": "address"
                    }
                  ],
                  "internalType": "struct IAstariaRouter.StrategyDetails",
                  "name": "strategy",
                  "type": "tuple"
                },
                {
                  "internalType": "uint8",
                  "name": "nlrType",
                  "type": "uint8"
                },
                {
                  "internalType": "bytes",
                  "name": "nlrDetails",
                  "type": "bytes"
                },
                {
                  "components": [
                    {
                      "internalType": "bytes32",
                      "name": "root",
                      "type": "bytes32"
                    },
                    {
                      "internalType": "bytes32[]",
                      "name": "proof",
                      "type": "bytes32[]"
                    },
                    {
                      "internalType": "bool[]",
                      "name": "flags",
                      "type": "bool[]"
                    }
                  ],
                  "internalType": "struct IAstariaRouter.MultiMerkleData",
                  "name": "merkle",
                  "type": "tuple"
                },
                {
                  "internalType": "uint256",
                  "name": "amount",
                  "type": "uint256"
                },
                {
                  "internalType": "uint8",
                  "name": "v",
                  "type": "uint8"
                },
                {
                  "internalType": "bytes32",
                  "name": "r",
                  "type": "bytes32"
                },
                {
                  "internalType": "bytes32",
                  "name": "s",
                  "type": "bytes32"
                }
              ],
              "internalType": "struct IAstariaRouter.NewLienRequest",
              "name": "lienRequest",
              "type": "tuple"
            }
          ],
          "internalType": "struct IAstariaRouter.Commitment",
          "name": "incomingTerms",
          "type": "tuple"
        }
      ],
      "name": "buyoutLien",
      "outputs": [],
      "stateMutability": "nonpayable",
      "type": "function"
    },
    {
      "inputs": [
        {
          "internalType": "uint256",
          "name": "collateralId",
          "type": "uint256"
        },
        {
          "internalType": "uint256",
          "name": "position",
          "type": "uint256"
        }
      ],
      "name": "canLiquidate",
      "outputs": [
        {
          "internalType": "bool",
          "name": "",
          "type": "bool"
        }
      ],
      "stateMutability": "view",
      "type": "function"
    },
    {
      "inputs": [
        {
          "components": [
            {
              "internalType": "address",
              "name": "tokenContract",
              "type": "address"
            },
            {
              "internalType": "uint256",
              "name": "tokenId",
              "type": "uint256"
            },
            {
              "components": [
                {
                  "components": [
                    {
                      "internalType": "uint8",
                      "name": "version",
                      "type": "uint8"
                    },
                    {
                      "internalType": "address",
                      "name": "strategist",
                      "type": "address"
                    },
                    {
                      "internalType": "uint256",
                      "name": "nonce",
                      "type": "uint256"
                    },
                    {
                      "internalType": "uint256",
                      "name": "deadline",
                      "type": "uint256"
                    },
                    {
                      "internalType": "address",
                      "name": "vault",
                      "type": "address"
                    }
                  ],
                  "internalType": "struct IAstariaRouter.StrategyDetails",
                  "name": "strategy",
                  "type": "tuple"
                },
                {
                  "internalType": "uint8",
                  "name": "nlrType",
                  "type": "uint8"
                },
                {
                  "internalType": "bytes",
                  "name": "nlrDetails",
                  "type": "bytes"
                },
                {
                  "components": [
                    {
                      "internalType": "bytes32",
                      "name": "root",
                      "type": "bytes32"
                    },
                    {
                      "internalType": "bytes32[]",
                      "name": "proof",
                      "type": "bytes32[]"
                    },
                    {
                      "internalType": "bool[]",
                      "name": "flags",
                      "type": "bool[]"
                    }
                  ],
                  "internalType": "struct IAstariaRouter.MultiMerkleData",
                  "name": "merkle",
                  "type": "tuple"
                },
                {
                  "internalType": "uint256",
                  "name": "amount",
                  "type": "uint256"
                },
                {
                  "internalType": "uint8",
                  "name": "v",
                  "type": "uint8"
                },
                {
                  "internalType": "bytes32",
                  "name": "r",
                  "type": "bytes32"
                },
                {
                  "internalType": "bytes32",
                  "name": "s",
                  "type": "bytes32"
                }
              ],
              "internalType": "struct IAstariaRouter.NewLienRequest",
              "name": "lienRequest",
              "type": "tuple"
            }
          ],
          "internalType": "struct IAstariaRouter.Commitment",
          "name": "params",
          "type": "tuple"
        },
        {
          "internalType": "address",
          "name": "receiver",
          "type": "address"
        }
      ],
      "name": "commitToLien",
      "outputs": [],
      "stateMutability": "nonpayable",
      "type": "function"
    },
    {
      "inputs": [
        {
          "internalType": "uint256",
          "name": "shares",
          "type": "uint256"
        }
      ],
      "name": "convertToAssets",
      "outputs": [
        {
          "internalType": "uint256",
          "name": "",
          "type": "uint256"
        }
      ],
      "stateMutability": "view",
      "type": "function"
    },
    {
      "inputs": [
        {
          "internalType": "uint256",
          "name": "assets",
          "type": "uint256"
        }
      ],
      "name": "convertToShares",
      "outputs": [
        {
          "internalType": "uint256",
          "name": "",
          "type": "uint256"
        }
      ],
      "stateMutability": "view",
      "type": "function"
    },
    {
      "inputs": [],
      "name": "delegate",
      "outputs": [
        {
          "internalType": "address",
          "name": "",
          "type": "address"
        }
      ],
      "stateMutability": "view",
      "type": "function"
    },
    {
      "inputs": [],
      "name": "deployLiquidationAccountant",
      "outputs": [
        {
          "internalType": "address",
          "name": "accountant",
          "type": "address"
        }
      ],
      "stateMutability": "nonpayable",
      "type": "function"
    },
    {
      "inputs": [
        {
          "internalType": "uint256",
          "name": "amount",
          "type": "uint256"
        },
        {
          "internalType": "address",
          "name": "receiver",
          "type": "address"
        }
      ],
      "name": "deposit",
      "outputs": [
        {
          "internalType": "uint256",
          "name": "",
          "type": "uint256"
        }
      ],
      "stateMutability": "nonpayable",
      "type": "function"
    },
    {
      "inputs": [],
      "name": "getCurrentEpoch",
      "outputs": [
        {
          "internalType": "uint64",
          "name": "",
          "type": "uint64"
        }
      ],
      "stateMutability": "view",
      "type": "function"
    },
    {
      "inputs": [],
      "name": "getLast",
      "outputs": [
        {
          "internalType": "uint256",
          "name": "",
          "type": "uint256"
        }
      ],
      "stateMutability": "view",
      "type": "function"
    },
    {
      "inputs": [
        {
          "internalType": "uint64",
          "name": "epoch",
          "type": "uint64"
        }
      ],
      "name": "getLiquidationAccountant",
      "outputs": [
        {
          "internalType": "address",
          "name": "",
          "type": "address"
        }
      ],
      "stateMutability": "view",
      "type": "function"
    },
    {
      "inputs": [],
      "name": "getSlope",
      "outputs": [
        {
          "internalType": "uint256",
          "name": "",
          "type": "uint256"
        }
      ],
      "stateMutability": "view",
      "type": "function"
    },
    {
      "inputs": [],
      "name": "getYIntercept",
      "outputs": [
        {
          "internalType": "uint256",
          "name": "",
          "type": "uint256"
        }
      ],
      "stateMutability": "view",
      "type": "function"
    },
    {
      "inputs": [
        {
          "internalType": "uint256[]",
          "name": "collateralIds",
          "type": "uint256[]"
        },
        {
          "internalType": "uint256[]",
          "name": "positions",
          "type": "uint256[]"
        }
      ],
      "name": "haveLiquidationsProcessed",
      "outputs": [
        {
          "internalType": "bool",
          "name": "",
          "type": "bool"
        }
      ],
      "stateMutability": "nonpayable",
      "type": "function"
    },
    {
      "inputs": [
        {
          "components": [
            {
              "internalType": "address",
              "name": "delegate",
              "type": "address"
            }
          ],
          "internalType": "struct VaultImplementation.InitParams",
          "name": "params",
          "type": "tuple"
        }
      ],
      "name": "init",
      "outputs": [],
      "stateMutability": "nonpayable",
      "type": "function"
    },
    {
      "inputs": [
        {
          "internalType": "uint64",
          "name": "",
          "type": "uint64"
        }
      ],
      "name": "liquidationAccountants",
      "outputs": [
        {
          "internalType": "address",
          "name": "",
          "type": "address"
        }
      ],
      "stateMutability": "view",
      "type": "function"
    },
    {
      "inputs": [
        {
          "internalType": "address",
          "name": "",
          "type": "address"
        }
      ],
      "name": "maxDeposit",
      "outputs": [
        {
          "internalType": "uint256",
          "name": "",
          "type": "uint256"
        }
      ],
      "stateMutability": "view",
      "type": "function"
    },
    {
      "inputs": [
        {
          "internalType": "address",
          "name": "",
          "type": "address"
        }
      ],
      "name": "maxMint",
      "outputs": [
        {
          "internalType": "uint256",
          "name": "",
          "type": "uint256"
        }
      ],
      "stateMutability": "view",
      "type": "function"
    },
    {
      "inputs": [
        {
          "internalType": "address",
          "name": "owner",
          "type": "address"
        }
      ],
      "name": "maxRedeem",
      "outputs": [
        {
          "internalType": "uint256",
          "name": "",
          "type": "uint256"
        }
      ],
      "stateMutability": "view",
      "type": "function"
    },
    {
      "inputs": [
        {
          "internalType": "address",
          "name": "owner",
          "type": "address"
        }
      ],
      "name": "maxWithdraw",
      "outputs": [
        {
          "internalType": "uint256",
          "name": "",
          "type": "uint256"
        }
      ],
      "stateMutability": "view",
      "type": "function"
    },
    {
      "inputs": [
        {
          "internalType": "uint256",
          "name": "shares",
          "type": "uint256"
        },
        {
          "internalType": "address",
          "name": "receiver",
          "type": "address"
        }
      ],
      "name": "mint",
      "outputs": [
        {
          "internalType": "uint256",
          "name": "assets",
          "type": "uint256"
        }
      ],
      "stateMutability": "nonpayable",
      "type": "function"
    },
    {
      "inputs": [],
      "name": "name",
      "outputs": [
        {
          "internalType": "string",
          "name": "",
          "type": "string"
        }
      ],
      "stateMutability": "view",
      "type": "function"
    },
    {
      "inputs": [
        {
          "internalType": "address",
          "name": "",
          "type": "address"
        }
      ],
      "name": "nonces",
      "outputs": [
        {
          "internalType": "uint256",
          "name": "",
          "type": "uint256"
        }
      ],
      "stateMutability": "view",
      "type": "function"
    },
    {
      "inputs": [
        {
          "internalType": "address",
          "name": "operator_",
          "type": "address"
        },
        {
          "internalType": "address",
          "name": "from_",
          "type": "address"
        },
        {
          "internalType": "uint256",
          "name": "tokenId_",
          "type": "uint256"
        },
        {
          "internalType": "bytes",
          "name": "data_",
          "type": "bytes"
        }
      ],
      "name": "onERC721Received",
      "outputs": [
        {
          "internalType": "bytes4",
          "name": "",
          "type": "bytes4"
        }
      ],
      "stateMutability": "pure",
      "type": "function"
    },
    {
      "inputs": [],
      "name": "owner",
      "outputs": [
        {
          "internalType": "address",
          "name": "",
          "type": "address"
        }
      ],
      "stateMutability": "view",
      "type": "function"
    },
    {
      "inputs": [
        {
          "internalType": "address",
          "name": "owner",
          "type": "address"
        },
        {
          "internalType": "address",
          "name": "spender",
          "type": "address"
        },
        {
          "internalType": "uint256",
          "name": "value",
          "type": "uint256"
        },
        {
          "internalType": "uint256",
          "name": "deadline",
          "type": "uint256"
        },
        {
          "internalType": "uint8",
          "name": "v",
          "type": "uint8"
        },
        {
          "internalType": "bytes32",
          "name": "r",
          "type": "bytes32"
        },
        {
          "internalType": "bytes32",
          "name": "s",
          "type": "bytes32"
        }
      ],
      "name": "permit",
      "outputs": [],
      "stateMutability": "nonpayable",
      "type": "function"
    },
    {
      "inputs": [
        {
          "internalType": "uint256",
          "name": "assets",
          "type": "uint256"
        }
      ],
      "name": "previewDeposit",
      "outputs": [
        {
          "internalType": "uint256",
          "name": "",
          "type": "uint256"
        }
      ],
      "stateMutability": "view",
      "type": "function"
    },
    {
      "inputs": [
        {
          "internalType": "uint256",
          "name": "shares",
          "type": "uint256"
        }
      ],
      "name": "previewMint",
      "outputs": [
        {
          "internalType": "uint256",
          "name": "",
          "type": "uint256"
        }
      ],
      "stateMutability": "view",
      "type": "function"
    },
    {
      "inputs": [
        {
          "internalType": "uint256",
          "name": "shares",
          "type": "uint256"
        }
      ],
      "name": "previewRedeem",
      "outputs": [
        {
          "internalType": "uint256",
          "name": "",
          "type": "uint256"
        }
      ],
      "stateMutability": "view",
      "type": "function"
    },
    {
      "inputs": [
        {
          "internalType": "uint256",
          "name": "assets",
          "type": "uint256"
        }
      ],
      "name": "previewWithdraw",
      "outputs": [
        {
          "internalType": "uint256",
          "name": "",
          "type": "uint256"
        }
      ],
      "stateMutability": "view",
      "type": "function"
    },
    {
      "inputs": [
        {
          "internalType": "uint256[]",
          "name": "collateralIds",
          "type": "uint256[]"
        },
        {
          "internalType": "uint256[]",
          "name": "positions",
          "type": "uint256[]"
        }
      ],
      "name": "processEpoch",
      "outputs": [],
      "stateMutability": "nonpayable",
      "type": "function"
    },
    {
      "inputs": [],
      "name": "recipient",
      "outputs": [
        {
          "internalType": "address",
          "name": "",
          "type": "address"
        }
      ],
      "stateMutability": "view",
      "type": "function"
    },
    {
      "inputs": [
        {
          "internalType": "uint256",
          "name": "shares",
          "type": "uint256"
        },
        {
          "internalType": "address",
          "name": "receiver",
          "type": "address"
        },
        {
          "internalType": "address",
          "name": "owner",
          "type": "address"
        }
      ],
      "name": "redeem",
      "outputs": [
        {
          "internalType": "uint256",
          "name": "assets",
          "type": "uint256"
        }
      ],
      "stateMutability": "nonpayable",
      "type": "function"
    },
    {
      "inputs": [
        {
          "internalType": "uint256",
          "name": "shares",
          "type": "uint256"
        },
        {
          "internalType": "address",
          "name": "receiver",
          "type": "address"
        },
        {
          "internalType": "address",
          "name": "owner",
          "type": "address"
        },
        {
          "internalType": "uint64",
          "name": "epoch",
          "type": "uint64"
        }
      ],
      "name": "redeemFutureEpoch",
      "outputs": [
        {
          "internalType": "uint256",
          "name": "assets",
          "type": "uint256"
        }
      ],
      "stateMutability": "nonpayable",
      "type": "function"
    },
    {
      "inputs": [
        {
          "internalType": "address",
          "name": "delegate_",
          "type": "address"
        }
      ],
      "name": "setDelegate",
      "outputs": [],
      "stateMutability": "nonpayable",
      "type": "function"
    },
    {
      "inputs": [
        {
          "internalType": "uint256",
          "name": "_yIntercept",
          "type": "uint256"
        }
      ],
      "name": "setYIntercept",
      "outputs": [],
      "stateMutability": "nonpayable",
      "type": "function"
    },
    {
      "inputs": [
        {
          "internalType": "bytes4",
          "name": "interfaceId",
          "type": "bytes4"
        }
      ],
      "name": "supportsInterface",
      "outputs": [
        {
          "internalType": "bool",
          "name": "",
          "type": "bool"
        }
      ],
      "stateMutability": "view",
      "type": "function"
    },
    {
      "inputs": [],
      "name": "symbol",
      "outputs": [
        {
          "internalType": "string",
          "name": "",
          "type": "string"
        }
      ],
      "stateMutability": "view",
      "type": "function"
    },
    {
      "inputs": [],
      "name": "timeToEpochEnd",
      "outputs": [
        {
          "internalType": "uint256",
          "name": "",
          "type": "uint256"
        }
      ],
      "stateMutability": "view",
      "type": "function"
    },
    {
      "inputs": [],
      "name": "totalAssets",
      "outputs": [
        {
          "internalType": "uint256",
          "name": "",
          "type": "uint256"
        }
      ],
      "stateMutability": "view",
      "type": "function"
    },
    {
      "inputs": [],
      "name": "totalSupply",
      "outputs": [
        {
          "internalType": "uint256",
          "name": "",
          "type": "uint256"
        }
      ],
      "stateMutability": "view",
      "type": "function"
    },
    {
      "inputs": [
        {
          "internalType": "address",
          "name": "to",
          "type": "address"
        },
        {
          "internalType": "uint256",
          "name": "amount",
          "type": "uint256"
        }
      ],
      "name": "transfer",
      "outputs": [
        {
          "internalType": "bool",
          "name": "",
          "type": "bool"
        }
      ],
      "stateMutability": "nonpayable",
      "type": "function"
    },
    {
      "inputs": [
        {
          "internalType": "address",
          "name": "from",
          "type": "address"
        },
        {
          "internalType": "address",
          "name": "to",
          "type": "address"
        },
        {
          "internalType": "uint256",
          "name": "amount",
          "type": "uint256"
        }
      ],
      "name": "transferFrom",
      "outputs": [
        {
          "internalType": "bool",
          "name": "",
          "type": "bool"
        }
      ],
      "stateMutability": "nonpayable",
      "type": "function"
    },
    {
      "inputs": [],
      "name": "transferWithdrawReserve",
      "outputs": [],
      "stateMutability": "nonpayable",
      "type": "function"
    },
    {
      "inputs": [],
      "name": "underlying",
      "outputs": [
        {
          "internalType": "address",
          "name": "",
          "type": "address"
        }
      ],
      "stateMutability": "view",
      "type": "function"
    },
    {
      "inputs": [
        {
          "internalType": "uint256",
          "name": "amount",
          "type": "uint256"
        }
      ],
      "name": "withdraw",
      "outputs": [],
      "stateMutability": "nonpayable",
      "type": "function"
    },
    {
      "inputs": [
        {
          "internalType": "uint256",
          "name": "assets",
          "type": "uint256"
        },
        {
          "internalType": "address",
          "name": "receiver",
          "type": "address"
        },
        {
          "internalType": "address",
          "name": "owner",
          "type": "address"
        }
      ],
      "name": "withdraw",
      "outputs": [
        {
          "internalType": "uint256",
          "name": "shares",
          "type": "uint256"
        }
      ],
      "stateMutability": "nonpayable",
      "type": "function"
    },
    {
      "inputs": [
        {
          "internalType": "uint64",
          "name": "",
          "type": "uint64"
        }
      ],
      "name": "withdrawProxies",
      "outputs": [
        {
          "internalType": "address",
          "name": "",
          "type": "address"
        }
      ],
      "stateMutability": "view",
      "type": "function"
    }
  ],
  "bytecode": {
    "object": "0x6080806040523461003057600a80546001600160401b03191690556000600b819055600c55614ca890816100368239f35b600080fdfe60806040526004361015610013575b600080fd5b60003560e01c806301e1d1141461049657806301ffc9a71461048d57806306fdde031461048457806307a2d13a146103e2578063095ea7b31461047b5780630a28a4771461047257806311114fee14610469578063150b7a021461046057806318160ddd146104575780631962dc551461044e578063200298bf1461044557806323b872dd1461043c57806324aa8d68146102ef5780632e1a7d4d1461043357806332fe7b261461042a5780633644e515146104215780633b63ea83146104185780633cfffd391461040f5780633fc88ee514610406578063402d267d1461031357806341700b97146103fd5780634226b1bf146103f45780634280b26b146103eb5780634cdad506146103e25780634d622831146103d957806364e4cf3b146103d057806366d003ac146103c75780636e553f65146103be5780636f307dc3146103b55780636fb9dd76146103ac57806370a08231146102dd57806379c84f9c146103a35780637ecebe001461039a5780638b041a75146103915780638da5cb5b1461038857806394bf804d1461037f57806395d89b41146103765780639d8f8fcc1461036d578063a3a911ba14610364578063a9059cbb1461035b578063ac4746ab14610352578063b3d7f6b914610349578063b460af9414610340578063b97dd9e214610337578063ba0876521461032e578063ba9a061a14610325578063c631d84b1461031c578063c63d75b614610313578063c6e6f592146102cb578063c89e43611461030a578063ca5eb5e114610301578063ce96cb77146102f8578063cf262002146102ef578063d505accf146102e6578063d905777e146102dd578063dd62ed3e146102d4578063ef8b30f7146102cb578063f060b8ae146102c2578063f5f1f1a7146102b95763f79f6864146102b157600080fd5b61000e611f72565b5061000e611f49565b5061000e611f20565b5061000e611b8a565b5061000e611ebc565b5061000e61151f565b5061000e611cbb565b5061000e610a64565b5061000e611c67565b5061000e611bd3565b5061000e611ba9565b5061000e610f74565b5061000e611ae4565b5061000e611abb565b5061000e611a8c565b5061000e611a64565b5061000e61195d565b5061000e611915565b5061000e6118e2565b5061000e611847565b5061000e6117fa565b5061000e6117db565b5061000e61173b565b5061000e611632565b5061000e6115ff565b5061000e6115ba565b5061000e61157c565b5061000e61155d565b5061000e611162565b5061000e611139565b5061000e61108c565b5061000e611070565b5061000e611056565b5061000e611037565b5061000e6106bc565b5061000e610ff4565b5061000e610fcb565b5061000e610f9d565b5061000e610f5a565b5061000e610d4d565b5061000e610b95565b5061000e610b79565b5061000e610b43565b5061000e610aa7565b5061000e610a0c565b5061000e6109f0565b5061000e610940565b5061000e610921565b5061000e6108b3565b5061000e6107a9565b5061000e61077c565b5061000e6106ec565b5061000e6105ee565b5061000e6104ce565b5061000e6104aa565b600091031261000e57565b503461000e57600036600319011261000e5760206104c66131e4565b604051908152f35b503461000e57602036600319011261000e5760043563ffffffff60e01b811680910361000e5761053990633de7da1960e21b8114908115610581575b8115610570575b811561055f575b811561054e575b811561053d575b5060405190151581529081906020820190565b0390f35b6301ffc9a760e01b14905038610526565b6301342f9f60e31b8114915061051f565b63043eff2d60e51b81149150610518565b63bf0acbaf60e01b81149150610511565b636e553f6560e01b8114915061050a565b60005b8381106105a55750506000910152565b8181015183820152602001610595565b906020916105ce81518092818552858086019101610592565b601f01601f1916010190565b9060206105eb9281815201906105b5565b90565b503461000e576000806003193601126106b95761066f61067d8260046105399460146106236001198036013560f01c36030190565b013560601c604051928380926395d89b4160e01b82525afa9182156106ac575b8092610689575b5050604051694153542d5661756c742d60b01b6020820152928391602a8301906125e8565b03601f198101835282610e43565b604051918291826105da565b6106a592503d8091833e61069d8183610e43565b810190612237565b388061064a565b6106b46121c3565b610643565b80fd5b503461000e57602036600319011261000e5760206104c6600435612460565b6001600160a01b0381160361000e57565b503461000e57604036600319011261000e5760043561070a816106db565b60243590336000526002602052816107388260406000209060018060a01b0316600052602052604060002090565b556040519182526001600160a01b03169033907f8c5be1e5ebec7d5bd14f71427d1e84f3dd0314c0f7b2291e5b200ac8c7c3b92590602090a3602060405160018152f35b503461000e57602036600319011261000e5760206104c660043561249c565b9081606091031261000e5790565b503461000e57604036600319011261000e576004356001600160401b03811161000e576107da90369060040161079b565b6024356107e6816106db565b6004602061080a603c6108026001198036013560f01c36030190565b013560601c90565b604051635c975abb60e01b815292839182905afa9081156108a6575b600091610878575b5061083e5761083c916132f9565b005b60405162461bcd60e51b81526020600482015260126024820152711c1c9bdd1bd8dbdb081a5cc81c185d5cd95960721b6044820152606490fd5b610899915060203d811161089f575b6108918183610e43565b810190612a7c565b3861082e565b503d610887565b6108ae6121c3565b610826565b503461000e57608036600319011261000e576108d06004356106db565b6108db6024356106db565b6064356001600160401b0380821161000e573660238301121561000e57816004013590811161000e573691016024011161000e57604051630a85bd0160e11b8152602090f35b503461000e57600036600319011261000e576020600054604051908152f35b503461000e57606036600319011261000e576044356001600160401b03811161000e5761097190369060040161079b565b6004602061098d603c6108026001198036013560f01c36030190565b604051635c975abb60e01b815292839182905afa9081156109e3575b6000916109c5575b5061083e5761083c90602435600435614681565b6109dd915060203d811161089f576108918183610e43565b386109b1565b6109eb6121c3565b6109a9565b503461000e57600036600319011261000e5760206104c661324a565b503461000e57606036600319011261000e576020610a44600435610a2f816106db565b602435610a3b816106db565b60443591612089565b6040519015158152f35b600435906001600160401b038216820361000e57565b503461000e57602036600319011261000e576001600160401b03610a86610a4e565b16600052600e602052602060018060a01b0360406000205416604051908152f35b503461000e57602036600319011261000e57610acc6001198036013560f01c36030190565b803560601c3303610aef5761083c9060043590339060143091013560601c6124fb565b60405162461bcd60e51b815260206004820152602660248201527f6f6e6c7920746865206170707261697365722063616e20657869742074686973604482015265081d985d5b1d60d21b6064820152608490fd5b503461000e57600036600319011261000e576020603c610b6c6001198036013560f01c36030190565b013560601c604051908152f35b503461000e57600036600319011261000e5760206104c6612295565b503461000e57600036600319011261000e57600a54610bf6906001600160a01b0390610bef90610be2906001600160401b03165b6001600160401b0316600052600e602052604060002090565b546001600160a01b031690565b1615612d19565b610539610cba610c53610c126001198036013560f01c36030190565b604051634733a31160e11b8152603c82013560601c602082600481845afa918215610d40575b600092610d0c575b50610cb590610ca7610c5f610c5361317b565b6001600160a01b031690565b6040516bffffffffffffffffffffffff1960149097013587166020820152606093841b8716603482015230841b87166048820152921b909416605c8201529283906070820190565b03601f198101845283610e43565b61297d565b610cf281610cd3610bc9600a546001600160401b031690565b80546001600160a01b0319166001600160a01b03909216919091179055565b6040516001600160a01b0390911681529081906020820190565b610cb5919250610d329060203d8111610d39575b610d2a8183610e43565b8101906126d6565b9190610c40565b503d610d20565b610d486121c3565b610c38565b503461000e57602036600319011261000e57603c610d746001198036013560f01c36030190565b013560601c3303610dbe576001600160a01b03610d8f6132b8565b16610d9657005b61083c610da16132b8565b60018060a01b03166001600160601b0360a01b6006541617600655565b60405162461bcd60e51b815260206004820152600b60248201526a37b7363c903937baba32b960a91b6044820152606490fd5b50634e487b7160e01b600052604160045260246000fd5b6001600160401b038111610e1b57604052565b610e23610df1565b604052565b606081019081106001600160401b03821117610e1b57604052565b90601f801991011681019081106001600160401b03821117610e1b57604052565b6040519061010082018281106001600160401b03821117610e1b57604052565b60405190610e9182610e28565b565b6020906001600160401b038111610eac575b60051b0190565b610eb4610df1565b610ea5565b81601f8201121561000e57803591610ed083610e93565b92610ede6040519485610e43565b808452602092838086019260051b82010192831161000e578301905b828210610f08575050505090565b81358152908301908301610efa565b90604060031983011261000e576001600160401b0360043581811161000e5783610f4391600401610eb9565b9260243591821161000e576105eb91600401610eb9565b503461000e576020610a44610f6e36610f17565b90612f91565b503461000e57602036600319011261000e57610f916004356106db565b60206040516000198152f35b503461000e57600036600319011261000e576020610fb961317b565b6040516001600160a01b039091168152f35b503461000e57600036600319011261000e5760206050610b6c6001198036013560f01c36030190565b503461000e57602036600319011261000e576001600160401b03611016610a4e565b16600052600d602052602060018060a01b0360406000205416604051908152f35b503461000e57600036600319011261000e576020600754604051908152f35b503461000e57600036600319011261000e5761083c612d8b565b503461000e57600036600319011261000e576020610fb961497a565b503461000e57604036600319011261000e576024356110aa816106db565b600460206110c6603c6108026001198036013560f01c36030190565b604051635c975abb60e01b815292839182905afa90811561112c575b60009161110e575b5061083e576110fe61053991600435612a91565b6040519081529081906020820190565b611126915060203d811161089f576108918183610e43565b386110ea565b6111346121c3565b6110e2565b503461000e57600036600319011261000e5760206014610b6c6001198036013560f01c36030190565b503461000e5761117136610f17565b6111846001198036013560f01c36030190565b6111ce6111c761119c600a546001600160401b031690565b9260646111bf6111ab86612643565b6001600160401b0360848501359116612bb0565b91013561238a565b4211612bc3565b6001600160401b0381166000908152600e602052604090206001600160a01b03906111f890610be2565b16611495575b50611207612d8b565b815190611252611218610c5361317b565b6040516370a0823160e01b815230600482015260209490918590839060249082905afa918215611488575b600092611469575b5014612c60565b61128b61126f61126a600a546001600160401b031690565b612cac565b6001600160401b03166001600160401b0319600a541617600a55565b6112956000600c55565b61129f6000600b55565b600a546001600160401b0316926112cf610c53610be2866001600160401b0316600052600d602052604060002090565b6112d557005b6112e7916112e291612f91565b612ccd565b600481611310610c53610c53610be2876001600160401b0316600052600d602052604060002090565b6040516318160ddd60e01b815292839182905afa91821561145c575b60009261142f575b5050611359610c53610be2846001600160401b0316600052600e602052604060002090565b61137a575b61083c915061137461136f82612460565b600b55565b306123ea565b6113c0610be26113a6610c53610c53610be2876001600160401b0316600052600e602052604060002090565b936001600160401b0316600052600d602052604060002090565b823b1561000e5760405163877cd2e960e01b81526001600160a01b0391909116600482015261083c926000908290602490829084905af18015611422575b611409575b5061135e565b8061141661141c92610e08565b8061049f565b38611403565b61142a6121c3565b6113fe565b61144e9250803d10611455575b6114468183610e43565b810190612c05565b3880611334565b503d61143c565b6114646121c3565b61132c565b611481919250853d8711611455576114468183610e43565b903861124b565b6114906121c3565b611243565b600460206114c2610c53610c53610be26114ee966001600160401b0316600052600e602052604060002090565b604051634c9757e160e11b815292839182905afa908115611512575b6000916114f4575b504211612c14565b386111fe565b61150c915060203d8111611455576114468183610e43565b386114e6565b61151a6121c3565b6114de565b503461000e57602036600319011261000e5760043561153d816106db565b60018060a01b031660005260016020526020604060002054604051908152f35b503461000e57600036600319011261000e576020600954604051908152f35b503461000e57602036600319011261000e5760043561159a816106db565b60018060a01b031660005260056020526020604060002054604051908152f35b503461000e57602036600319011261000e57600a546001600160401b03166000908152600e60205260408120546001600160a01b031633036106b95760043560085580f35b503461000e57600036600319011261000e5760206116266001198036013560f01c36030190565b3560601c604051908152f35b503461000e57604036600319011261000e57602435603c6020600435611657846106db565b6116608161247e565b936116746001198036013560f01c36030190565b91611688863033601487013560601c6124fb565b6116928183612397565b6040805187815260208101929092526001600160a01b03929092169133917fdcbc1c05240f31ff3ad067ef1ee35ce4997762752e3a095284754544f4c709d79190a3600460405180948193635c975abb60e01b8352013560601c5afa90811561172e575b600091611710575b5061083e57806110fe6105399261322b565b611728915060203d811161089f576108918183610e43565b386116fe565b6117366121c3565b6116f6565b503461000e576000806003193601126106b957610539906117656001198036013560f01c36030190565b6040516395d89b4160e01b81528281600481601486013560601c5afa9283156117ce575b80936117ac575b505061067d9061066f6040519384923560601c602084016125ff565b61067d929350906117c6913d8091833e61069d8183610e43565b919038611790565b6117d66121c3565b611789565b503461000e57600036600319011261000e576020600854604051908152f35b503461000e57608036600319011261000e57602435611818816106db565b60443590611825826106db565b6064356001600160401b038116810361000e576020926104c6926004356126eb565b503461000e57604036600319011261000e57600435611865816106db565b6024359033600052600160205260406000208054908382039182116118d5575b5560018060a01b0316908160005260016020526040600020818154019055600080516020614c53833981519152604051806118c63394829190602083019252565b0390a360405160018152602090f35b6118dd61205d565b611885565b503461000e57600036600319011261000e576020608461190b6001198036013560f01c36030190565b0135604051908152f35b503461000e57602036600319011261000e5760206104c660043561247e565b606090600319011261000e5760043590602435611950816106db565b906044356105eb816106db565b503461000e576105396110fe61197236611934565b92919061197e8261249c565b936001600160a01b038082169161199e908790338590036119f2576123ea565b60408051858152602081018890529184169133917ffbde797d201c681b91056529119e0b02407c7bb96a4a2c75c01fc9667232c8db91a46119ed60146108026001198036013560f01c36030190565b612577565b60008581526002602090815260408083203384529091529020548260018201611a1d575b50506123ea565b611a2691612074565b6001600160a01b0382166000908152600260205260409020611a5c9033905b9060018060a01b0316600052602052604060002090565b553882611a16565b503461000e57600036600319011261000e5760206001600160401b03600a5416604051908152f35b503461000e5760206104c6611aa036611934565b90611ab56001600160401b03600a5416612643565b926126eb565b503461000e57600036600319011261000e576020606461190b6001198036013560f01c36030190565b503461000e57604036600319011261000e57610539603c611b0e6001198036013560f01c36030190565b60405163c631d84b60e01b8152600480359082015260248035908201529160209183916044918391013560601c5afa908115611b7d575b600091611b5f575060405190151581529081906020820190565b611b77915060203d811161089f576108918183610e43565b38610526565b611b856121c3565b611b45565b503461000e57602036600319011261000e5760206104c6600435612441565b503461000e57600036600319011261000e576006546040516001600160a01b039091168152602090f35b503461000e57602036600319011261000e57600435611bf1816106db565b611c046001198036013560f01c36030190565b3560601c3303611c3057600680546001600160a01b0319166001600160a01b0392909216919091179055005b60405162461bcd60e51b815260206004820152600f60248201526e1bdb9b1e481cdd1c985d1959da5cdd608a1b6044820152606490fd5b503461000e57602036600319011261000e57600435611c85816106db565b60018060a01b0316600052600160205260206104c6604060002054612460565b60ff81160361000e57565b3590610e9182611ca5565b503461000e5760e036600319011261000e57600435611cd9816106db565b60243590611ce6826106db565b6044357f8c5be1e5ebec7d5bd14f71427d1e84f3dd0314c0f7b2291e5b200ac8c7c3b925606435936020611e3860843596611d2088611ca5565b611d2c42821015612177565b611dff611e0b611d3a612295565b9289611d588160018060a01b03166000526005602052604060002090565b805460018101909155604080517f6e71edae12b1b97f4d1f60370fef10105fa2faae0126114a169c64845d6126c98a82019081526001600160a01b039485166020820152938b1691840191909152606083018c9052608083019190915260a08201929092528160c082010391611dd6601f1993848101835282610e43565b5190206040519384918883019687909160429261190160f01b8352600283015260228201520190565b03908101835282610e43565b5190206040805191825260ff909816602082015260a4359781019790975260c43560608801526080870190565b866000978892838052039060015afa15611eaf575b84519083611e9082611a4560018060a01b0395611e768782168015159081611ea3575b506121d0565b6001600160a01b0316600090815260026020526040902090565b556040519384528116931691602090a380f35b9050888c161438611e70565b611eb76121c3565b611e4d565b503461000e57604036600319011261000e576020611f17600435611edf816106db565b60243590611eec826106db565b60018060a01b03166000526002835260406000209060018060a01b0316600052602052604060002090565b54604051908152f35b503461000e57600036600319011261000e57602060a461190b6001198036013560f01c36030190565b503461000e57600036600319011261000e5760206028610b6c6001198036013560f01c36030190565b503461000e57604036600319011261000e576024356001600160a01b03611f9761317b565b16330361000e5761201760006020611ffa61201c94611fb46131e4565b818103908111612050575b600855611fcd610c5361317b565b60405163c60564ab60e01b8152600480359082015260248101929092529093849283919082906044820190565b03925af1908115612043575b600091612025575b50600954612074565b600955565b61083c42600755565b61203d915060203d8111611455576114468183610e43565b3861200e565b61204b6121c3565b612006565b61205861205d565b611fbf565b50634e487b7160e01b600052601160045260246000fd5b9190820391821161208157565b610e9161205d565b6001600160a01b03808216600081815260026020908152604080832033845282529091209194600080516020614c538339815191529491939290916120ed915460018101612135575b506001600160a01b0316600090815260016020526040902090565b805490878203918211612128575b556001600160a01b03811660009081526001602052604090208681540190556040519586521693a3600190565b61213061205d565b6120fb565b88810390811161216a575b6001600160a01b0382166000908152600260205260409020612163903390611a45565b55386120d2565b61217261205d565b612140565b1561217e57565b60405162461bcd60e51b815260206004820152601760248201527f5045524d49545f444541444c494e455f455850495245440000000000000000006044820152606490fd5b506040513d6000823e3d90fd5b156121d757565b60405162461bcd60e51b815260206004820152600e60248201526d24a72b20a624a22fa9a4a3a722a960911b6044820152606490fd5b6020906001600160401b03811161222a575b601f01601f19160190565b612232610df1565b61221f565b60208183031261000e578051906001600160401b03821161000e570181601f8201121561000e5780516122698161220d565b926122776040519485610e43565b8184526020828401011161000e576105eb9160208085019101610592565b6040516306fdde0360e01b8152600081600481305afa90811561236f575b600091612356575b506020815191012060405160208101917f8b73c3c69bb8fe3d512ecc4cf759cc79239f7b179b0ffacaa9a75d522b39400f835260408201527fc89efdaa54c0f20c7adf612882df0950f5a951637e0307cdcb4c672f298b8bc660608201524660808201523060a082015260a0815260c081018181106001600160401b03821117612349575b60405251902090565b612351610df1565b612340565b612369913d8091833e61069d8183610e43565b386122bb565b6123776121c3565b6122b3565b906001820180921161208157565b9190820180921161208157565b600080516020614c53833981519152602060009283548581018091116123dd575b84556001600160a01b03168084526001825260408085208054870190555194855293a3565b6123e561205d565b6123b8565b6001600160a01b03166000818152600160209081526040822080549294600080516020614c53833981519152939091828203918211612434575b55808554038555604051908152a3565b61243c61205d565b612424565b6000548061244d575090565b906105eb9161245a6131e4565b916124bb565b6000548061246c575090565b6105eb916124786131e4565b906124bb565b6000548061248a575090565b6105eb916124966131e4565b906124d3565b600054806124a8575090565b906105eb916124b56131e4565b916124d3565b8181029181830414901517821515161561000e570490565b9190918281029281840414901517811515161561000e57600190600019830104019015150290565b9060006064926020958295604051946323b872dd60e01b86526004860152602485015260448401525af13d15601f3d116001600051141617161561253b57565b60405162461bcd60e51b81526020600482015260146024820152731514905394d1915497d19493d357d1905253115160621b6044820152606490fd5b600091826044926020956040519363a9059cbb60e01b8552600485015260248401525af13d15601f3d11600160005114161716156125b157565b60405162461bcd60e51b815260206004820152600f60248201526e1514905394d1915497d19052531151608a1b6044820152606490fd5b906125fb60209282815194859201610592565b0190565b601a92916420a9aa16ab60d91b82526001600160601b03199060601b166005820152602d60f81b601982015261263e8251809360208685019101610592565b010190565b9060016001600160401b038093160191821161208157565b1561266257565b60405162461bcd60e51b8152602060048201526012602482015271457869742065706f636820746f6f206c6f7760701b6044820152606490fd5b156126a357565b60405162461bcd60e51b815260206004820152600b60248201526a5a45524f5f41535345545360a81b6044820152606490fd5b9081602091031261000e57516105eb816106db565b91610c53610c53610be261275c97966127dc9460018060a01b036127638982841693843303612914575b61274a61273961272d600a546001600160401b031690565b6001600160401b031690565b6001600160401b038816101561265b565b61275382612460565b9d8e151561269c565b3090612089565b5080612785610be2856001600160401b0316600052600d602052604060002090565b1615612840575b604080518c8152602081018b90529189169133917ffbde797d201c681b91056529119e0b02407c7bb96a4a2c75c01fc9667232c8db91a46001600160401b0316600052600d602052604060002090565b91823b1561000e576040516340c10f1960e01b81526001600160a01b0390921660048301526024820152906000908290818381604481015b03925af18015612833575b6128265750565b80611416610e9192610e08565b61283b6121c3565b61281f565b6128de6128c1610c53601461285e6001198036013560f01c36030190565b604051632923f1bd60e11b815290602082600481603c85013560601c5afa918215612907575b6000926128e3575b506040516bffffffffffffffffffffffff193060601b811660208301529190930135166034830152610cb58260488101610ca7565b610cd3856001600160401b0316600052600d602052604060002090565b61278c565b610cb59192506129009060203d8111610d3957610d2a8183610e43565b919061288c565b61290f6121c3565b612884565b6001600160a01b0381166000908152600260205260409020612937903390611a45565b548260018201612949575b5050612715565b61295291612074565b6001600160a01b0382166000908152600260205260409020612975903390611a45565b553882612942565b8151604051606160f81b81526039820160f090811b60018301526f3d81600a3d39f33d3d3d3d363d3d376160801b600383015260028301901b601382018190526560373639366160d01b6015830152601b82015262013d7360e81b601d82015260609290921b6020808401919091526c5af43d3d93803e603557fd5bf360981b603484015293926041830190829086015b86821015612a5c5760439495968260001991036101000a011990511682528260f01b91015201906000f0906001600160a01b03821615612a4a57565b604051631d7fde3160e31b8152600490fd5b8051835291860191601f19909101908601612a0e565b8015150361000e57565b9081602091031261000e57516105eb81612a72565b919091612a9d81612441565b928315612b7d576020603c91612abc6001198036013560f01c36030190565b90612ad0853033601486013560601c6124fb565b612ada8782612397565b60408051868152602081018990526001600160a01b03929092169133917fdcbc1c05240f31ff3ad067ef1ee35ce4997762752e3a095284754544f4c709d791a3600460405180948193635c975abb60e01b8352013560601c5afa908115612b70575b600091612b52575b5061083e57610e919061322b565b612b6a915060203d811161089f576108918183610e43565b38612b44565b612b786121c3565b612b3c565b60405162461bcd60e51b815260206004820152600b60248201526a5a45524f5f53484152455360a81b6044820152606490fd5b8181029291811591840414171561208157565b15612bca57565b60405162461bcd60e51b8152602060048201526013602482015272115c1bd8da081a185cc81b9bdd08195b991959606a1b6044820152606490fd5b9081602091031261000e575190565b15612c1b57565b60405162461bcd60e51b815260206004820152601760248201527f46696e616c2061756374696f6e206e6f7420656e6465640000000000000000006044820152606490fd5b15612c6757565b60405162461bcd60e51b815260206004820152601e60248201527f70726f766964656420696473206c657373207468616e2062616c616e636500006044820152606490fd5b6001906001600160401b03809116908114612cc5570190565b6125fb61205d565b15612cd457565b60405162461bcd60e51b815260206004820152601a60248201527f6c69717569646174696f6e73206e6f742070726f6365737365640000000000006044820152606490fd5b15612d2057565b60405162461bcd60e51b815260206004820152603c60248201527f63616e6e6f74206465706c6f792074776f206c69717569646174696f6e20616360448201527f636f756e74616e747320666f72207468652073616d652065706f6368000000006064820152608490fd5b610e9161136f612da960146108026001198036013560f01c36030190565b6040516370a0823160e01b8152306004820152906001600160a01b03906020836024818585165afa928315612e85575b600093612e65575b50600b5483811115612e5d575b508290612e03600a546001600160401b031690565b92612e2c610be2612e1386612643565b6001600160401b0316600052600d602052604060002090565b16612e3d575b505050600b54612074565b612e4f610be2612e13612e5595612643565b90612577565b388181612e32565b925038612dee565b612e7e91935060203d8111611455576114468183610e43565b9138612de1565b612e8d6121c3565b612dd9565b6001906000198114612cc5570190565b8051821015612eb65760209160051b010190565b634e487b7160e01b600052603260045260246000fd5b602090818184031261000e578051906001600160401b03821161000e57019180601f8401121561000e578251612f0181610e93565b93612f0f6040519586610e43565b818552838086019260051b82010192831161000e578301905b828210612f36575050505090565b81518152908301908301612f28565b15612f4c57565b60405162461bcd60e51b815260206004820152601760248201527f6c69656e206e6f74206f776e6564206279207661756c740000000000000000006044820152606490fd5b600090612faf610c53603c6108026001198036013560f01c36030190565b915b815181101561317257612fc5610c5361317b565b612fcf8284612ea2565b519061305a6130256040926000845180926319e8f9f760e21b82528180612fff60049a8b83019190602083019252565b03915afa908115613165575b600091613144575b5061301e868a612ea2565b5190612ea2565b519261307f613035610c5361317b565b8451958680926331a9108f60e11b8252816020998a9889958983019190602083019252565b03915afa908115613137575b60009161311a575b506001600160a01b03163014612f45565b6130898587612ea2565b51906130be613098878b612ea2565b519451948593849363c631d84b60e01b8552840160209093929193604081019481520152565b0381885afa91821561310d575b6000926130f0575b50506130e7576130e290612e92565b612fb1565b50505050600090565b6131069250803d1061089f576108918183610e43565b38806130d3565b6131156121c3565b6130cb565b6131319150843d8611610d3957610d2a8183610e43565b3861306e565b61313f6121c3565b613066565b61315f913d8091833e6131578183610e43565b810190612ecc565b38613013565b61316d6121c3565b61300b565b50505050600190565b60046020603c6131946001198036013560f01c36030190565b013560601c604051928380926341700b9760e01b82525afa9081156131d7575b6000916131bf575090565b6105eb915060203d8111610d3957610d2a8183610e43565b6131df6121c3565b6131b4565b600754420342811161321e575b60095481810291818304149015176001161561000e5760085481018091116132165790565b6105eb61205d565b61322661205d565b6131f1565b60085490810180911161323d57600855565b61324561205d565b600855565b61325d6001198036013560f01c36030190565b6132876064820135916001600160401b03608461327d82600a5416612643565b9201359116612bb0565b81018091116132ab575b428110156132a55742034281116132165790565b50600090565b6132b361205d565b613291565b6004356105eb816106db565b356105eb816106db565b90359061017e198136030182121561000e570190565b903590605e198136030182121561000e570190565b60209061342e7f3191c048f15f87bddd8b0b66f6e65aed80428b644b77e700922529623949f4f89361332b8184613c58565b61333e6001198036013560f01c36030190565b906133d160405163d249cd3160e01b815286818061335f8960048301613894565b03816000603c89013560601c5af1908115613450575b600091613433575b506133ac60408701946101009460146133a18761339a8a8d6132ce565b01356149a5565b92013560601c612577565b6133c1836133ba86896132ce565b01356134d5565b6133cb84876132ce565b5061345d565b6133e86133de83866132ce565b60e08101906132e4565b35906133fd6133f6866132c4565b93866132ce565b01359160405195869501359185909493926060926080830196835260018060a01b0316602083015260408201520152565b0390a1565b61344a9150873d8111611455576114468183610e43565b3861337d565b6134586121c3565b613375565b60009060209060246001600160a01b0361347561317b565b16916040519485938492633a7d59dd60e01b845260048401525af19081156134c8575b6000916134aa575b5060095401600955565b6134c2915060203d8111611455576114468183610e43565b386134a0565b6134d06121c3565b613498565b610e91906135296134ef6001198036013560f01c36030190565b916040519063379bd55360e01b82526004820152602081602481603c87013560601c5afa908115613551575b600091613533575b50612441565b903560601c612397565b61354b915060203d8111611455576114468183610e43565b38613523565b6135596121c3565b61351b565b1561356557565b60405162461bcd60e51b815260206004820152600d60248201526c1a5b9d985b1a59081d985d5b1d609a1b6044820152606490fd5b156135a157565b60405162461bcd60e51b815260206004820152600f60248201526e1a5b9d985b1a59081c995c5d595cdd608a1b6044820152606490fd5b156135df57565b60405162461bcd60e51b815260206004820152604160248201527f63616e206f6e6c792069737375652066756e647320746f20616e206f7065726160448201527f746f72207468617420697320617070726f76656420627920746865206f776e656064820152603960f91b608482015260a490fd5b356105eb81611ca5565b1561366557565b60405162461bcd60e51b815260206004820152601f60248201527f73747261746567697374206d757374206d61746368207369676e6174757265006044820152606490fd5b156136b157565b60405162461bcd60e51b81526020600482015260126024820152711a5b9d985b1a59081cdd1c985d1959da5cdd60721b6044820152606490fd5b809291039160a0831261000e576080815161370581612a72565b93601f19011261000e576080604051918183018381106001600160401b03821117613753575b6040526020810151835260408101516020840152606081015160408401520151606082015290565b61375b610df1565b61372b565b9035601e198236030181121561000e5701602081359101916001600160401b03821161000e57813603831361000e57565b908060209392818452848401376000828201840152601f01601f1916010190565b9035605e198236030181121561000e570190565b9035601e198236030181121561000e5701602081359101916001600160401b03821161000e578160051b3603831361000e57565b80358252602061380c818301836137c6565b60608584018190528501819052906001600160fb1b03821161000e5760a09160059493941b80916080870137840161384c608082019360408101906137c6565b9386604060808794998603019101525201929160005b828110613870575050505090565b909192938280600192873561388481612a72565b1515815201950193929101613862565b602081528135916138a4836106db565b60018060a01b0380931660208301526020810135604083015260408101359061017e198136030182121561000e576101e0910160608084015260ff81356138ea81611ca5565b1660808401528360208201356138ff816106db565b1660a0840152604081013560c0840152606081013560e0840152608081013593613928856106db565b61010094168484015261393d60a08201611cb0565b90613950610120928386019060ff169052565b6139b66139c161396360c0840184613760565b929094613981610180966101409588878c01526102008b0191613791565b956139a761399260e08801886137b2565b9761016098607f198c8303018a8d01526137fa565b99860135908901528401611cb0565b60ff166101a0870152565b8101356101c0850152013591015290565b156139d957565b60405162461bcd60e51b815260206004820152606760248201527f5661756c742e5f76616c6964617465436f6d6d69746d656e7428293a2056657260448201527f696669636174696f6e206f662070726f7669646564206d65726b6c652062726160648201527f6e6368206661696c656420666f7220746865207661756c7420616e6420706172608482015266616d657465727360c81b60a482015260c490fd5b15613a8157565b60405162461bcd60e51b815260206004820152605e60248201527f5661756c742e5f76616c6964617465436f6d6d69746d656e7428293a2041747460448201527f656d7074696e6720746f20626f72726f77206d6f7265207468616e206d61784160648201527f6d6f756e7420617661696c61626c6520666f7220746869732061737365740000608482015260a490fd5b15613b1957565b60405162461bcd60e51b815260206004820152605d60248201527f5661756c742e5f76616c6964617465436f6d6d69746d656e7428293a2020417460448201527f74656d7074696e6720746f20626f72726f77206d6f7265207468616e2061766160648201527f696c61626c6520696e2074686520737065636966696564207661756c74000000608482015260a490fd5b15613bb157565b60405162461bcd60e51b815260206004820152606d60248201527f5661756c742e5f76616c6964617465436f6d6d69746d656e7428293a2041747460448201527f656d7074696e6720746f20696e6974696174652061206c6f616e20776974682060648201527f6465627420706f74656e7469616c6c7920686967686572207468616e206d617860848201526c141bdd195b9d1a585b1119589d609a1b60a482015260c490fd5b90613e2f90604080840191613c786080613c7285886132ce565b016132c4565b6001600160a01b039190613c8f908316301461355e565b613c98866132c4565b90602091613caa838901358092614b3d565b95613cbe6001198036013560f01c36030190565b916060976028840135891c9486888a519363020604bf60e21b8552600498898d858880613cf2878683019190602083019252565b0381865afa9788156141a7575b60009861417c575b50516331a9108f60e11b81529081019283529184918391829081906020015b03915afa90811561416f575b600091614152575b5016803303614140575b898084169182036140ad575b505091505060008b613d656133de86836132ce565b35613dc4613d7f610120613d7989866132ce565b01613654565b92610160613d9c89610140613d9482866132ce565b0135936132ce565b0135908d51948594859094939260ff6060936080840197845216602083015260408201520152565b838052039060015afa156140a0575b613e0d8a613df988613def610c538a613c7289600051976132ce565b921691821461365e565b84358a1c8114908115614081575b506136aa565b603c830135881c60a08b8951809c819263d84335d760e01b8352898301613894565b03816000855af1998a15614074575b600090819b614023575b50928087613ee088610e919f99968f9b8e9d9a97613f769f613e8c613f6c9f8f90613e73869f6139d2565b5190613e836101009c8d926132ce565b01351115613a7a565b516341700b9760e01b815293849182905afa918215614016575b600092613ff3575b50613ec190613ebc8c6132c4565b614b3d565b8c51998a809481936313c6047160e21b83528b83019190602083019252565b0392165afa958615613fe6575b600096613fac575b50613f3e601493613f5e9593613f108894613f669a9b6132ce565b0135938d8c519687809581946370a0823160e01b835230908301919091602081019260018060a01b03169052565b03930135901c5afa918215613f9f575b600092613f80575b501115613b12565b87015161237c565b90612bb0565b9084015190612bb0565b9101511015613baa565b613f98919250843d8611611455576114468183610e43565b9038613f56565b613fa76121c3565b613f4e565b613f669650601493613f5e9593613f108894613fd7613f3e95873d8911611455576114468183610e43565b9a509450509395509350613ef5565b613fee6121c3565b613eed565b613ec191925061400f90853d8711610d3957610d2a8183610e43565b9190613eae565b61401e6121c3565b613ea6565b87809c5085925087948e999692988c9b98959f9960a03d811161406d575b61404b8183610e43565b8101614056916136eb565b9290929f5096509850929550979c92959850613e48565b503d614041565b61407c6121c3565b613e3e565b600654909150614099906001600160a01b0316610c53565b1438613e07565b6140a86121c3565b613dd3565b6140c29416149182156140cc575b50506135d8565b3880868189613d50565b8a51630642194560e41b81526001600160a01b03909116888201908152909250829081906020010381603c8901358e1c5afa908115614133575b600091614116575b5086386140bb565b61412d9150873d891161089f576108918183610e43565b3861410e565b61413b6121c3565b614106565b61414d8a8516331461359a565b613d44565b6141699150833d8511610d3957610d2a8183610e43565b38613d3a565b6141776121c3565b613d32565b86939198509161419c613d269593853d8711610d3957610d2a8183610e43565b989193509193613d07565b6141af6121c3565b613cff565b919082604091031261000e576020825192015190565b156141d157565b60405162461bcd60e51b815260206004820152602260248201527f6e6f7420656e6f7567682062616c616e636520746f20627579206f7574206c6f60448201526130b760f11b6064820152608490fd5b91908260a091031261000e5760405160a081018181106001600160401b03821117614293575b6040526080808294803561425a81611ca5565b8452602081013561426a816106db565b6020850152604081013560408501526060810135606085015201359161428f836106db565b0152565b61429b610df1565b614247565b81601f8201121561000e578035906142b78261220d565b926142c56040519485610e43565b8284526020838301011161000e57816000926020809301838601378301015290565b81601f8201121561000e578035916142fe83610e93565b9261430c6040519485610e43565b808452602092838086019260051b82010192831161000e578301905b828210614336575050505090565b838091833561434481612a72565b815201910190614328565b919060608382031261000e576040519061436882610e28565b81938035835260209182820135926001600160401b039384811161000e5783019082601f8301121561000e578135916143a083610e93565b926143ae6040519485610e43565b808452828085019160051b8301019185831161000e5783809101915b8383106143f65750505050850152604082013592831161000e576040926143f192016142e7565b910152565b82358152918101918491016143ca565b919060608382031261000e576040519261441f84610e28565b83813561442b816106db565b81526020820135602082015260408201356001600160401b039283821161000e5701926101808482031261000e57614461610e64565b9361446c8282614221565b855261447a60a08201611cb0565b602086015260c081013584811161000e57826144979183016142a0565b604086015260e081013593841161000e576144b961016092604095830161434f565b606086015261010081013560808601526144d66101208201611cb0565b60a086015261014081013560c0860152013560e08401520152565b606082018151835260209182810151916060848601528251809152836080860193019060005b818110614561575050506040015192604081830391015281808451928381520193019160005b82811061454b575050505090565b835115158552938101939281019260010161453d565b825185529385019391850191600101614517565b6105eb90602081526060604080855183602086015260018060a01b038151166080860152602081015160a08601520151948260c08501526145f060e08501875160809060ff81511683528160018060a01b03918260208201511660208601526040810151604086015260608101516060860152015116910152565b60e061463b614625602089015161460f61018091828a019060ff169052565b858a0151906101a08901526102608801906105b5565b8886015187820360df19016101c08901526144f1565b60808801516101e087015260a088015160ff166102008701529660c0810151610220870152015161024085015260208101518285015201516001600160a01b0316910152565b916146956001198036013560f01c36030190565b92603c84013560601c8284604095869384516341700b9760e01b80825260209788928860049d8e86808583818c5afa9283159d60009b6147f89f9861470b986147b39a6148fd575b8e976148de575b5082519889928392635e55caa160e11b845288840160209093929193604081019481520152565b038160018060a01b039e8f8099165af19586156148d1575b60009661489d575b5084516370a0823160e01b8152308482019081526014929092013560601c9591614777919084908290819060200103818a5afa908115614890575b600091614873575b508711156141ca565b61478961478261497a565b809e613c58565b516396d6401d60e01b8152918290818b5afa908115614866575b600091614849575b50169061490a565b8a8a518094819382525afa90811561483c575b60009161481f575b5016936147e46147dc610e84565b963690614406565b86528501526001600160a01b031684840152565b803b1561000e5761281493600080945180968195829463816d0a3160e01b84528301614575565b6148369150863d8811610d3957610d2a8183610e43565b386147ce565b6148446121c3565b6147c6565b6148609150873d8911610d3957610d2a8183610e43565b386147ab565b61486e6121c3565b6147a3565b61488a9150843d8611611455576114468183610e43565b3861476e565b6148986121c3565b614766565b60149196506148c190863d88116148ca575b6148b98183610e43565b8101906141b4565b9050959061472b565b503d6148af565b6148d96121c3565b614723565b6148f6919750853d8711610d3957610d2a8183610e43565b95386146e4565b6149056121c3565b6146dd565b600091826044926020956040519363095ea7b360e01b8552600485015260248401525af13d15601f3d116001600051141617161561494457565b60405162461bcd60e51b815260206004820152600e60248201526d1054141493d59157d1905253115160921b6044820152606490fd5b61498d6001198036013560f01c36030190565b60a481013560020361499e57503090565b3560601c90565b6149b86001198036013560f01c36030190565b604051622fcfcb60e31b8152602090603c83013560601c82826004816000855af1918215614aa2575b600092614a83575b506001600160a01b038216614a00575b5050505090565b604051630f0245ad60e01b8152600481018690529394614a499490918490829060249082905afa938415614a76575b600094614a52575b5050826014910394013560601c612577565b388080806149f9565b60149294509081614a6e92903d10611455576114468183610e43565b929038614a37565b614a7e6121c3565b614a2f565b614a9b919250833d8511610d3957610d2a8183610e43565b90386149e9565b614aaa6121c3565b6149e1565b15614ab657565b60405162461bcd60e51b81526020600482015260136024820152726d75737420737570706f72742065726337323160681b6044820152606490fd5b15614af857565b60405162461bcd60e51b815260206004820152601860248201527f6d75737420626520612076616c696420746f6b656e20696400000000000000006044820152606490fd5b6040516301ffc9a760e01b81526380ac58cd60e01b6004820152909190614bf890602090614bcd906001600160a01b039081871690614b94908581602481865afa908115614c45575b600091614c28575b50614aaf565b6040516331a9108f60e11b815260048101879052908490829060249082905afa908115614c1b575b600091614bfe575b50161515614af1565b61066f6040519384928301958690916034926001600160601b03199060601b16825260148201520190565b51902090565b614c159150843d8611610d3957610d2a8183610e43565b38614bc4565b614c236121c3565b614bbc565b614c3f9150863d881161089f576108918183610e43565b38614b8e565b614c4d6121c3565b614b8656feddf252ad1be2c89b69c2b068fc378daa952ba7f163c4a11628f55a4df523b3efa26469706673582212204ee22f313d237352fccb407b75e8f4e6cc7cc24f3d520991f5f9b416555f972764736f6c63430008110033",
    "linkReferences": {}
  },
  "methodIdentifiers": {
    "AUCTION_HOUSE()": "4226b1bf",
    "COLLATERAL_TOKEN()": "f5f1f1a7",
    "DOMAIN_SEPARATOR()": "3644e515",
    "EPOCH_LENGTH()": "ac4746ab",
    "LIEN_TOKEN()": "41700b97",
    "ROUTER()": "32fe7b26",
    "START()": "ba9a061a",
    "VAULT_TYPE()": "f060b8ae",
    "allowance(address,address)": "dd62ed3e",
    "approve(address,uint256)": "095ea7b3",
    "balanceOf(address)": "70a08231",
    "beforePayment(uint256,uint256)": "f79f6864",
    "buyoutLien(uint256,uint256,(address,uint256,((uint8,address,uint256,uint256,address),uint8,bytes,(bytes32,bytes32[],bool[]),uint256,uint8,bytes32,bytes32)))": "1962dc55",
    "canLiquidate(uint256,uint256)": "c631d84b",
    "commitToLien((address,uint256,((uint8,address,uint256,uint256,address),uint8,bytes,(bytes32,bytes32[],bool[]),uint256,uint8,bytes32,bytes32)),address)": "11114fee",
    "convertToAssets(uint256)": "07a2d13a",
    "convertToShares(uint256)": "c6e6f592",
    "delegate()": "c89e4361",
    "deployLiquidationAccountant()": "3b63ea83",
    "deposit(uint256,address)": "6e553f65",
    "getCurrentEpoch()": "b97dd9e2",
    "getLast()": "4d622831",
    "getLiquidationAccountant(uint64)": "cf262002",
    "getSlope()": "79c84f9c",
    "getYIntercept()": "9d8f8fcc",
    "haveLiquidationsProcessed(uint256[],uint256[])": "3fc88ee5",
    "init((address))": "3cfffd39",
    "liquidationAccountants(uint64)": "24aa8d68",
    "maxDeposit(address)": "402d267d",
    "maxMint(address)": "c63d75b6",
    "maxRedeem(address)": "d905777e",
    "maxWithdraw(address)": "ce96cb77",
    "mint(uint256,address)": "94bf804d",
    "name()": "06fdde03",
    "nonces(address)": "7ecebe00",
    "onERC721Received(address,address,uint256,bytes)": "150b7a02",
    "owner()": "8da5cb5b",
    "permit(address,address,uint256,uint256,uint8,bytes32,bytes32)": "d505accf",
    "previewDeposit(uint256)": "ef8b30f7",
    "previewMint(uint256)": "b3d7f6b9",
    "previewRedeem(uint256)": "4cdad506",
    "previewWithdraw(uint256)": "0a28a477",
    "processEpoch(uint256[],uint256[])": "6fb9dd76",
    "recipient()": "66d003ac",
    "redeem(uint256,address,address)": "ba087652",
    "redeemFutureEpoch(uint256,address,address,uint64)": "a3a911ba",
    "setDelegate(address)": "ca5eb5e1",
    "setYIntercept(uint256)": "8b041a75",
    "supportsInterface(bytes4)": "01ffc9a7",
    "symbol()": "95d89b41",
    "timeToEpochEnd()": "200298bf",
    "totalAssets()": "01e1d114",
    "totalSupply()": "18160ddd",
    "transfer(address,uint256)": "a9059cbb",
    "transferFrom(address,address,uint256)": "23b872dd",
    "transferWithdrawReserve()": "64e4cf3b",
    "underlying()": "6f307dc3",
    "withdraw(uint256)": "2e1a7d4d",
    "withdraw(uint256,address,address)": "b460af94",
    "withdrawProxies(uint64)": "4280b26b"
  },
  "id": 36
}