{
  "abi": [
    {
      "anonymous": false,
      "inputs": [
        {
          "indexed": false,
          "internalType": "bytes32",
          "name": "strategyRoot",
          "type": "bytes32"
        },
        {
          "indexed": false,
          "internalType": "address",
          "name": "tokenContract",
          "type": "address"
        },
        {
          "indexed": false,
          "internalType": "uint256",
          "name": "tokenId",
          "type": "uint256"
        },
        {
          "indexed": false,
          "internalType": "uint256",
          "name": "amount",
          "type": "uint256"
        }
      ],
      "name": "NewObligation",
      "type": "event"
    },
    {
      "anonymous": false,
      "inputs": [
        {
          "indexed": false,
          "internalType": "address",
          "name": "appraiser",
          "type": "address"
        },
        {
          "indexed": false,
          "internalType": "address",
          "name": "vault",
          "type": "address"
        }
      ],
      "name": "NewVault",
      "type": "event"
    },
    {
      "anonymous": false,
      "inputs": [
        {
          "indexed": false,
          "internalType": "uint256",
          "name": "collateralId",
          "type": "uint256"
        },
        {
          "indexed": false,
          "internalType": "uint256",
          "name": "index",
          "type": "uint256"
        },
        {
          "indexed": false,
          "internalType": "uint256",
          "name": "amount",
          "type": "uint256"
        }
      ],
      "name": "Payment",
      "type": "event"
    },
    {
      "inputs": [],
      "name": "AUCTION_HOUSE",
      "outputs": [
        {
          "internalType": "address",
          "name": "",
          "type": "address"
        }
      ],
      "stateMutability": "view",
      "type": "function"
    },
    {
      "inputs": [],
      "name": "COLLATERAL_TOKEN",
      "outputs": [
        {
          "internalType": "address",
          "name": "",
          "type": "address"
        }
      ],
      "stateMutability": "view",
      "type": "function"
    },
    {
      "inputs": [],
      "name": "EPOCH_LENGTH",
      "outputs": [
        {
          "internalType": "uint256",
          "name": "",
          "type": "uint256"
        }
      ],
      "stateMutability": "view",
      "type": "function"
    },
    {
      "inputs": [],
      "name": "ROUTER",
      "outputs": [
        {
          "internalType": "address",
          "name": "",
          "type": "address"
        }
      ],
      "stateMutability": "view",
      "type": "function"
    },
    {
      "inputs": [],
      "name": "START",
      "outputs": [
        {
          "internalType": "uint256",
          "name": "",
          "type": "uint256"
        }
      ],
      "stateMutability": "view",
      "type": "function"
    },
    {
      "inputs": [],
      "name": "VAULT_TYPE",
      "outputs": [
        {
          "internalType": "uint256",
          "name": "",
          "type": "uint256"
        }
      ],
      "stateMutability": "view",
      "type": "function"
    },
    {
      "inputs": [
        {
          "internalType": "uint256",
          "name": "collateralId",
          "type": "uint256"
        },
        {
          "internalType": "uint256",
          "name": "position",
          "type": "uint256"
        },
        {
          "components": [
            {
              "internalType": "address",
              "name": "tokenContract",
              "type": "address"
            },
            {
              "internalType": "uint256",
              "name": "tokenId",
              "type": "uint256"
            },
            {
              "components": [
                {
                  "components": [
                    {
                      "internalType": "uint8",
                      "name": "version",
                      "type": "uint8"
                    },
                    {
                      "internalType": "address",
                      "name": "strategist",
                      "type": "address"
                    },
                    {
                      "internalType": "uint256",
                      "name": "nonce",
                      "type": "uint256"
                    },
                    {
                      "internalType": "uint256",
                      "name": "deadline",
                      "type": "uint256"
                    },
                    {
                      "internalType": "address",
                      "name": "vault",
                      "type": "address"
                    }
                  ],
                  "internalType": "struct IAstariaRouter.StrategyDetails",
                  "name": "strategy",
                  "type": "tuple"
                },
                {
                  "internalType": "uint8",
                  "name": "nlrType",
                  "type": "uint8"
                },
                {
                  "internalType": "bytes",
                  "name": "nlrDetails",
                  "type": "bytes"
                },
                {
                  "components": [
                    {
                      "internalType": "bytes32",
                      "name": "root",
                      "type": "bytes32"
                    },
                    {
                      "internalType": "bytes32[]",
                      "name": "proof",
                      "type": "bytes32[]"
                    },
                    {
                      "internalType": "bool[]",
                      "name": "flags",
                      "type": "bool[]"
                    }
                  ],
                  "internalType": "struct IAstariaRouter.MultiMerkleData",
                  "name": "merkle",
                  "type": "tuple"
                },
                {
                  "internalType": "uint256",
                  "name": "amount",
                  "type": "uint256"
                },
                {
                  "internalType": "uint8",
                  "name": "v",
                  "type": "uint8"
                },
                {
                  "internalType": "bytes32",
                  "name": "r",
                  "type": "bytes32"
                },
                {
                  "internalType": "bytes32",
                  "name": "s",
                  "type": "bytes32"
                }
              ],
              "internalType": "struct IAstariaRouter.NewLienRequest",
              "name": "lienRequest",
              "type": "tuple"
            }
          ],
          "internalType": "struct IAstariaRouter.Commitment",
          "name": "incomingTerms",
          "type": "tuple"
        }
      ],
      "name": "buyoutLien",
      "outputs": [],
      "stateMutability": "nonpayable",
      "type": "function"
    },
    {
      "inputs": [
        {
          "internalType": "uint256",
          "name": "collateralId",
          "type": "uint256"
        },
        {
          "internalType": "uint256",
          "name": "position",
          "type": "uint256"
        }
      ],
      "name": "canLiquidate",
      "outputs": [
        {
          "internalType": "bool",
          "name": "",
          "type": "bool"
        }
      ],
      "stateMutability": "view",
      "type": "function"
    },
    {
      "inputs": [
        {
          "components": [
            {
              "internalType": "address",
              "name": "tokenContract",
              "type": "address"
            },
            {
              "internalType": "uint256",
              "name": "tokenId",
              "type": "uint256"
            },
            {
              "components": [
                {
                  "components": [
                    {
                      "internalType": "uint8",
                      "name": "version",
                      "type": "uint8"
                    },
                    {
                      "internalType": "address",
                      "name": "strategist",
                      "type": "address"
                    },
                    {
                      "internalType": "uint256",
                      "name": "nonce",
                      "type": "uint256"
                    },
                    {
                      "internalType": "uint256",
                      "name": "deadline",
                      "type": "uint256"
                    },
                    {
                      "internalType": "address",
                      "name": "vault",
                      "type": "address"
                    }
                  ],
                  "internalType": "struct IAstariaRouter.StrategyDetails",
                  "name": "strategy",
                  "type": "tuple"
                },
                {
                  "internalType": "uint8",
                  "name": "nlrType",
                  "type": "uint8"
                },
                {
                  "internalType": "bytes",
                  "name": "nlrDetails",
                  "type": "bytes"
                },
                {
                  "components": [
                    {
                      "internalType": "bytes32",
                      "name": "root",
                      "type": "bytes32"
                    },
                    {
                      "internalType": "bytes32[]",
                      "name": "proof",
                      "type": "bytes32[]"
                    },
                    {
                      "internalType": "bool[]",
                      "name": "flags",
                      "type": "bool[]"
                    }
                  ],
                  "internalType": "struct IAstariaRouter.MultiMerkleData",
                  "name": "merkle",
                  "type": "tuple"
                },
                {
                  "internalType": "uint256",
                  "name": "amount",
                  "type": "uint256"
                },
                {
                  "internalType": "uint8",
                  "name": "v",
                  "type": "uint8"
                },
                {
                  "internalType": "bytes32",
                  "name": "r",
                  "type": "bytes32"
                },
                {
                  "internalType": "bytes32",
                  "name": "s",
                  "type": "bytes32"
                }
              ],
              "internalType": "struct IAstariaRouter.NewLienRequest",
              "name": "lienRequest",
              "type": "tuple"
            }
          ],
          "internalType": "struct IAstariaRouter.Commitment",
          "name": "params",
          "type": "tuple"
        },
        {
          "internalType": "address",
          "name": "receiver",
          "type": "address"
        }
      ],
      "name": "commitToLien",
      "outputs": [],
      "stateMutability": "nonpayable",
      "type": "function"
    },
    {
      "inputs": [],
      "name": "delegate",
      "outputs": [
        {
          "internalType": "address",
          "name": "",
          "type": "address"
        }
      ],
      "stateMutability": "view",
      "type": "function"
    },
    {
      "inputs": [
        {
          "internalType": "uint256",
          "name": "amount",
          "type": "uint256"
        },
        {
          "internalType": "address",
          "name": "",
          "type": "address"
        }
      ],
      "name": "deposit",
      "outputs": [
        {
          "internalType": "uint256",
          "name": "",
          "type": "uint256"
        }
      ],
      "stateMutability": "nonpayable",
      "type": "function"
    },
    {
      "inputs": [
        {
          "components": [
            {
              "internalType": "address",
              "name": "delegate",
              "type": "address"
            }
          ],
          "internalType": "struct VaultImplementation.InitParams",
          "name": "params",
          "type": "tuple"
        }
      ],
      "name": "init",
      "outputs": [],
      "stateMutability": "nonpayable",
      "type": "function"
    },
    {
      "inputs": [],
      "name": "name",
      "outputs": [
        {
          "internalType": "string",
          "name": "",
          "type": "string"
        }
      ],
      "stateMutability": "view",
      "type": "function"
    },
    {
      "inputs": [
        {
          "internalType": "address",
          "name": "operator_",
          "type": "address"
        },
        {
          "internalType": "address",
          "name": "from_",
          "type": "address"
        },
        {
          "internalType": "uint256",
          "name": "tokenId_",
          "type": "uint256"
        },
        {
          "internalType": "bytes",
          "name": "data_",
          "type": "bytes"
        }
      ],
      "name": "onERC721Received",
      "outputs": [
        {
          "internalType": "bytes4",
          "name": "",
          "type": "bytes4"
        }
      ],
      "stateMutability": "pure",
      "type": "function"
    },
    {
      "inputs": [],
      "name": "owner",
      "outputs": [
        {
          "internalType": "address",
          "name": "",
          "type": "address"
        }
      ],
      "stateMutability": "view",
      "type": "function"
    },
    {
      "inputs": [],
      "name": "recipient",
      "outputs": [
        {
          "internalType": "address",
          "name": "",
          "type": "address"
        }
      ],
      "stateMutability": "view",
      "type": "function"
    },
    {
      "inputs": [
        {
          "internalType": "address",
          "name": "delegate_",
          "type": "address"
        }
      ],
      "name": "setDelegate",
      "outputs": [],
      "stateMutability": "nonpayable",
      "type": "function"
    },
    {
      "inputs": [],
      "name": "symbol",
      "outputs": [
        {
          "internalType": "string",
          "name": "",
          "type": "string"
        }
      ],
      "stateMutability": "view",
      "type": "function"
    },
    {
      "inputs": [],
      "name": "underlying",
      "outputs": [
        {
          "internalType": "address",
          "name": "",
          "type": "address"
        }
      ],
      "stateMutability": "view",
      "type": "function"
    },
    {
      "inputs": [
        {
          "internalType": "uint256",
          "name": "amount",
          "type": "uint256"
        }
      ],
      "name": "withdraw",
      "outputs": [],
      "stateMutability": "nonpayable",
      "type": "function"
    }
  ],
  "bytecode": {
    "object": "0x6080806040523461001657612718908161001c8239f35b600080fdfe60806040526004361015610013575b600080fd5b60003560e01c806306fdde03146101a357806311114fee1461019a578063150b7a02146101915780631962dc55146101885780632e1a7d4d1461017f57806332fe7b26146101765780633cfffd391461016d5780634226b1bf1461016457806366d003ac1461015b5780636e553f65146101525780636f307dc3146101495780638da5cb5b1461014057806395d89b4114610137578063ac4746ab1461012e578063ba9a061a14610125578063c631d84b1461011c578063c89e436114610113578063ca5eb5e11461010a578063f060b8ae146101015763f5f1f1a7146100f957600080fd5b61000e610a9a565b5061000e610a71565b5061000e6109dd565b5061000e6109b3565b5061000e61090c565b5061000e6108e3565b5061000e6108b0565b5061000e610810565b5061000e6107dd565b5061000e6107b4565b5061000e6106f9565b5061000e6106cb565b5061000e6106a2565b5061000e6105fe565b5061000e6105c8565b5061000e61052c565b5061000e61047c565b5061000e61040e565b5061000e610304565b5061000e610213565b600091031261000e57565b60005b8381106101ca5750506000910152565b81810151838201526020016101ba565b906020916101f3815180928185528580860191016101b7565b601f01601f1916010190565b9060206102109281815201906101da565b90565b503461000e576000806003193601126102e2576102946102a28260046102ae9460146102486001198036013560f01c36030190565b013560601c604051928380926395d89b4160e01b82525afa9182156102d5575b80926102b2575b5050604051694153542d5661756c742d60b01b6020820152928391602a830190610bfa565b03601f198101835282610b15565b604051918291826101ff565b0390f35b6102ce92503d8091833e6102c68183610b15565b810190610b8f565b388061026f565b6102dd610bed565b610268565b80fd5b9081606091031261000e5790565b6001600160a01b0381160361000e57565b503461000e57604036600319011261000e576004356001600160401b03811161000e576103359036906004016102e5565b602435610341816102f3565b60046020610365603c61035d6001198036013560f01c36030190565b013560601c90565b604051635c975abb60e01b815292839182905afa908115610401575b6000916103d3575b506103995761039791610d31565b005b60405162461bcd60e51b81526020600482015260126024820152711c1c9bdd1bd8dbdb081a5cc81c185d5cd95960721b6044820152606490fd5b6103f4915060203d81116103fa575b6103ec8183610b15565b810190610cf1565b38610389565b503d6103e2565b610409610bed565b610381565b503461000e57608036600319011261000e5761042b6004356102f3565b6104366024356102f3565b6064356001600160401b0380821161000e573660238301121561000e57816004013590811161000e573691016024011161000e57604051630a85bd0160e11b8152602090f35b503461000e57606036600319011261000e576044356001600160401b03811161000e576104ad9036906004016102e5565b600460206104c9603c61035d6001198036013560f01c36030190565b604051635c975abb60e01b815292839182905afa90811561051f575b600091610501575b50610399576103979060243560043561206e565b610519915060203d81116103fa576103ec8183610b15565b386104ed565b610527610bed565b6104e5565b503461000e57602036600319011261000e576105516001198036013560f01c36030190565b803560601c3303610574576103979060043590339060143091013560601c610c55565b60405162461bcd60e51b815260206004820152602660248201527f6f6e6c7920746865206170707261697365722063616e20657869742074686973604482015265081d985d5b1d60d21b6064820152608490fd5b503461000e57600036600319011261000e576020603c6105f16001198036013560f01c36030190565b013560601c604051908152f35b503461000e57602036600319011261000e57603c6106256001198036013560f01c36030190565b013560601c330361066f576001600160a01b03610640610cd1565b1661064757005b610397610652610cd1565b60018060a01b03166001600160601b0360a01b6000541617600055565b60405162461bcd60e51b815260206004820152600b60248201526a37b7363c903937baba32b960a91b6044820152606490fd5b503461000e57600036600319011261000e57602060506105f16001198036013560f01c36030190565b503461000e57600036600319011261000e5760206106e7612399565b6040516001600160a01b039091168152f35b503461000e57604036600319011261000e576004356107196024356102f3565b61072c6001198036013560f01c36030190565b90813560601c330361076057610750816102ae93309060143391013560601c610c55565b6040519081529081906020820190565b60405162461bcd60e51b815260206004820152602660248201527f6f6e6c7920746865206170707261697365722063616e2066756e642074686973604482015265081d985d5b1d60d21b6064820152608490fd5b503461000e57600036600319011261000e57602060146105f16001198036013560f01c36030190565b503461000e57600036600319011261000e5760206108046001198036013560f01c36030190565b3560601c604051908152f35b503461000e576000806003193601126102e2576102ae9061083a6001198036013560f01c36030190565b6040516395d89b4160e01b81528281600481601486013560601c5afa9283156108a3575b8093610881575b50506102a2906102946040519384923560601c60208401610c11565b6102a29293509061089b913d8091833e6102c68183610b15565b919038610865565b6108ab610bed565b61085e565b503461000e57600036600319011261000e57602060846108d96001198036013560f01c36030190565b0135604051908152f35b503461000e57600036600319011261000e57602060646108d96001198036013560f01c36030190565b503461000e57604036600319011261000e576102ae603c6109366001198036013560f01c36030190565b60405163c631d84b60e01b8152600480359082015260248035908201529160209183916044918391013560601c5afa9081156109a6575b600091610988575b5060405190151581529081906020820190565b6109a0915060203d81116103fa576103ec8183610b15565b38610975565b6109ae610bed565b61096d565b503461000e57600036600319011261000e576000546040516001600160a01b039091168152602090f35b503461000e57602036600319011261000e576004356109fb816102f3565b610a0e6001198036013560f01c36030190565b3560601c3303610a3a57600080546001600160a01b0319166001600160a01b0392909216919091179055005b60405162461bcd60e51b815260206004820152600f60248201526e1bdb9b1e481cdd1c985d1959da5cdd608a1b6044820152606490fd5b503461000e57600036600319011261000e57602060a46108d96001198036013560f01c36030190565b503461000e57600036600319011261000e57602060286105f16001198036013560f01c36030190565b50634e487b7160e01b600052604160045260246000fd5b606081019081106001600160401b03821117610af557604052565b610afd610ac3565b604052565b6001600160401b038111610af557604052565b90601f801991011681019081106001600160401b03821117610af557604052565b6040519061010082018281106001600160401b03821117610af557604052565b60405190610b6382610ada565b565b6020906001600160401b038111610b82575b601f01601f19160190565b610b8a610ac3565b610b77565b60208183031261000e578051906001600160401b03821161000e570181601f8201121561000e578051610bc181610b65565b92610bcf6040519485610b15565b8184526020828401011161000e5761021091602080850191016101b7565b506040513d6000823e3d90fd5b90610c0d602092828151948592016101b7565b0190565b601a92916420a9aa16ab60d91b82526001600160601b03199060601b166005820152602d60f81b6019820152610c5082518093602086850191016101b7565b010190565b9060006064926020958295604051946323b872dd60e01b86526004860152602485015260448401525af13d15601f3d1160016000511416171615610c9557565b60405162461bcd60e51b81526020600482015260146024820152731514905394d1915497d19493d357d1905253115160621b6044820152606490fd5b600435610210816102f3565b35610210816102f3565b8015150361000e57565b9081602091031261000e575161021081610ce7565b90359061017e198136030182121561000e570190565b903590605e198136030182121561000e570190565b602090610e507f3191c048f15f87bddd8b0b66f6e65aed80428b644b77e700922529623949f4f893610d638184611603565b610d766001198036013560f01c36030190565b9060405163d249cd3160e01b8152858180610d9488600483016111f0565b03816000603c88013560601c5af18015610e82575b610e55575b50610ddd6040850192610100926014610dd285610dcb888b610d06565b0135612435565b92013560601c6123c4565b610de78285610d06565b50610df28285610d06565b50610e0a610e008386610d06565b60e0810190610d1c565b3590610e1f610e1886610cdd565b9386610d06565b01359160405195869501359185909493926060926080830196835260018060a01b0316602083015260408201520152565b0390a1565b610e7490863d8111610e7b575b610e6c8183610b15565b81019061146e565b5038610dae565b503d610e62565b610e8a610bed565b610da9565b15610e9657565b60405162461bcd60e51b815260206004820152600d60248201526c1a5b9d985b1a59081d985d5b1d609a1b6044820152606490fd5b9081602091031261000e5751610210816102f3565b15610ee757565b60405162461bcd60e51b815260206004820152600f60248201526e1a5b9d985b1a59081c995c5d595cdd608a1b6044820152606490fd5b15610f2557565b60405162461bcd60e51b815260206004820152604160248201527f63616e206f6e6c792069737375652066756e647320746f20616e206f7065726160448201527f746f72207468617420697320617070726f76656420627920746865206f776e656064820152603960f91b608482015260a490fd5b60ff81160361000e57565b3561021081610f9a565b15610fb657565b60405162461bcd60e51b815260206004820152601f60248201527f73747261746567697374206d757374206d61746368207369676e6174757265006044820152606490fd5b1561100257565b60405162461bcd60e51b81526020600482015260126024820152711a5b9d985b1a59081cdd1c985d1959da5cdd60721b6044820152606490fd5b809291039160a0831261000e576080815161105681610ce7565b93601f19011261000e576080604051918183018381106001600160401b038211176110a4575b6040526020810151835260408101516020840152606081015160408401520151606082015290565b6110ac610ac3565b61107c565b3590610b6382610f9a565b9035601e198236030181121561000e5701602081359101916001600160401b03821161000e57813603831361000e57565b908060209392818452848401376000828201840152601f01601f1916010190565b9035605e198236030181121561000e570190565b9035601e198236030181121561000e5701602081359101916001600160401b03821161000e578160051b3603831361000e57565b80358252602061116881830183611122565b60608584018190528501819052906001600160fb1b03821161000e5760a09160059493941b8091608087013784016111a860808201936040810190611122565b9386604060808794998603019101525201929160005b8281106111cc575050505090565b90919293828060019287356111e081610ce7565b15158152019501939291016111be565b60208152813591611200836102f3565b60018060a01b0380931660208301526020810135604083015260408101359061017e198136030182121561000e576101e0910160608084015260ff813561124681610f9a565b16608084015283602082013561125b816102f3565b1660a0840152604081013560c0840152606081013560e0840152608081013593611284856102f3565b61010094168484015261129960a082016110b1565b906112ac610120928386019060ff169052565b61131261131d6112bf60c08401846110bc565b9290946112dd610180966101409588878c01526102008b01916110ed565b956113036112ee60e088018861110e565b9761016098607f198c8303018a8d0152611156565b998601359089015284016110b1565b60ff166101a0870152565b8101356101c0850152013591015290565b1561133557565b60405162461bcd60e51b815260206004820152606760248201527f5661756c742e5f76616c6964617465436f6d6d69746d656e7428293a2056657260448201527f696669636174696f6e206f662070726f7669646564206d65726b6c652062726160648201527f6e6368206661696c656420666f7220746865207661756c7420616e6420706172608482015266616d657465727360c81b60a482015260c490fd5b156113dd57565b60405162461bcd60e51b815260206004820152605e60248201527f5661756c742e5f76616c6964617465436f6d6d69746d656e7428293a2041747460448201527f656d7074696e6720746f20626f72726f77206d6f7265207468616e206d61784160648201527f6d6f756e7420617661696c61626c6520666f7220746869732061737365740000608482015260a490fd5b9081602091031261000e575190565b1561148457565b60405162461bcd60e51b815260206004820152605d60248201527f5661756c742e5f76616c6964617465436f6d6d69746d656e7428293a2020417460448201527f74656d7074696e6720746f20626f72726f77206d6f7265207468616e2061766160648201527f696c61626c6520696e2074686520737065636966696564207661756c74000000608482015260a490fd5b50634e487b7160e01b600052601160045260246000fd5b906001820180921161153a57565b610b63611515565b8181029291811591840414171561153a57565b1561155c57565b60405162461bcd60e51b815260206004820152606d60248201527f5661756c742e5f76616c6964617465436f6d6d69746d656e7428293a2041747460448201527f656d7074696e6720746f20696e6974696174652061206c6f616e20776974682060648201527f6465627420706f74656e7469616c6c7920686967686572207468616e206d617860848201526c141bdd195b9d1a585b1119589d609a1b60a482015260c490fd5b906117e690604080840191611623608061161d8588610d06565b01610cdd565b6001600160a01b03919061163a9083163014610e8f565b61164386610cdd565b906020916116558389013580926125cd565b956116696001198036013560f01c36030190565b916060976028840135891c9486888a519363020604bf60e21b8552600498898d85888061169d878683019190602083019252565b0381865afa978815611b6e575b600098611b43575b50516331a9108f60e11b81529081019283529184918391829081906020015b03915afa908115611b36575b600091611b19575b5016803303611b07575b89808416918203611a74575b505091505060008b611710610e008683610d06565b3561176f61172a6101206117248986610d06565b01610fa5565b926101606117478961014061173f8286610d06565b013593610d06565b0135908d51948594859094939260ff6060936080840197845216602083015260408201520152565b838052039060015afa15611a67575b6117c48a6117b0886117a661179a8a61161d8960005197610d06565b6001600160a01b031690565b9216918214610faf565b84358a1c8114908115611a48575b50610ffb565b603c830135881c60a08b8951809c819263d84335d760e01b83528983016111f0565b03816000855af1998a15611a3b575b600090819b6119ea575b5092808761189788610b639f99968f9b8e9d9a9761192d9f6118436119239f8f9061182a869f61132e565b519061183a6101009c8d92610d06565b013511156113d6565b516341700b9760e01b815293849182905afa9182156119dd575b6000926119aa575b50611878906118738c610cdd565b6125cd565b8c51998a809481936313c6047160e21b83528b83019190602083019252565b0392165afa95861561199d575b600096611963575b506118f560149361191595936118c7889461191d9a9b610d06565b0135938d8c519687809581946370a0823160e01b835230908301919091602081019260018060a01b03169052565b03930135901c5afa918215611956575b600092611937575b50111561147d565b87015161152c565b90611542565b9084015190611542565b9101511015611555565b61194f919250843d8611610e7b57610e6c8183610b15565b903861190d565b61195e610bed565b611905565b61191d965060149361191595936118c7889461198e6118f595873d8911610e7b57610e6c8183610b15565b9a5094505093955093506118ac565b6119a5610bed565b6118a4565b6118789192506119cf90853d87116119d6575b6119c78183610b15565b810190610ecb565b9190611865565b503d6119bd565b6119e5610bed565b61185d565b87809c5085925087948e999692988c9b98959f9960a03d8111611a34575b611a128183610b15565b8101611a1d9161103c565b9290929f5096509850929550979c929598506117ff565b503d611a08565b611a43610bed565b6117f5565b600054909150611a60906001600160a01b031661179a565b14386117be565b611a6f610bed565b61177e565b611a89941614918215611a93575b5050610f1e565b38808681896116fb565b8a51630642194560e41b81526001600160a01b03909116888201908152909250829081906020010381603c8901358e1c5afa908115611afa575b600091611add575b508638611a82565b611af49150873d89116103fa576103ec8183610b15565b38611ad5565b611b02610bed565b611acd565b611b148a85163314610ee0565b6116ef565b611b309150833d85116119d6576119c78183610b15565b386116e5565b611b3e610bed565b6116dd565b869391985091611b636116d19593853d87116119d6576119c78183610b15565b9891935091936116b2565b611b76610bed565b6116aa565b919082604091031261000e576020825192015190565b15611b9857565b60405162461bcd60e51b815260206004820152602260248201527f6e6f7420656e6f7567682062616c616e636520746f20627579206f7574206c6f60448201526130b760f11b6064820152608490fd5b91908260a091031261000e5760405160a081018181106001600160401b03821117611c5a575b60405260808082948035611c2181610f9a565b84526020810135611c31816102f3565b60208501526040810135604085015260608101356060850152013591611c56836102f3565b0152565b611c62610ac3565b611c0e565b81601f8201121561000e57803590611c7e82610b65565b92611c8c6040519485610b15565b8284526020838301011161000e57816000926020809301838601378301015290565b6020906001600160401b038111611cc7575b60051b0190565b611ccf610ac3565b611cc0565b81601f8201121561000e57803591611ceb83611cae565b92611cf96040519485610b15565b808452602092838086019260051b82010192831161000e578301905b828210611d23575050505090565b8380918335611d3181610ce7565b815201910190611d15565b919060608382031261000e5760405190611d5582610ada565b81938035835260209182820135926001600160401b039384811161000e5783019082601f8301121561000e57813591611d8d83611cae565b92611d9b6040519485610b15565b808452828085019160051b8301019185831161000e5783809101915b838310611de35750505050850152604082013592831161000e57604092611dde9201611cd4565b910152565b8235815291810191849101611db7565b919060608382031261000e5760405192611e0c84610ada565b838135611e18816102f3565b81526020820135602082015260408201356001600160401b039283821161000e5701926101808482031261000e57611e4e610b36565b93611e598282611be8565b8552611e6760a082016110b1565b602086015260c081013584811161000e5782611e84918301611c67565b604086015260e081013593841161000e57611ea6610160926040958301611d3c565b60608601526101008101356080860152611ec361012082016110b1565b60a086015261014081013560c0860152013560e08401520152565b606082018151835260209182810151916060848601528251809152836080860193019060005b818110611f4e575050506040015192604081830391015281808451928381520193019160005b828110611f38575050505090565b8351151585529381019392810192600101611f2a565b825185529385019391850191600101611f04565b61021090602081526060604080855183602086015260018060a01b038151166080860152602081015160a08601520151948260c0850152611fdd60e08501875160809060ff81511683528160018060a01b03918260208201511660208601526040810151604086015260608101516060860152015116910152565b60e06120286120126020890151611ffc61018091828a019060ff169052565b858a0151906101a08901526102608801906101da565b8886015187820360df19016101c0890152611ede565b60808801516101e087015260a088015160ff166102008701529660c0810151610220870152015161024085015260208101518285015201516001600160a01b0316910152565b916120826001198036013560f01c36030190565b92603c84013560601c8284604095869384516341700b9760e01b80825260209788928860049d8e86808583818c5afa9283159d60009b6121e59f986120f8986121a09a61231c575b8e976122fd575b5082519889928392635e55caa160e11b845288840160209093929193604081019481520152565b038160018060a01b039e8f8099165af19586156122f0575b6000966122bc575b5084516370a0823160e01b8152308482019081526014929092013560601c9591612164919084908290819060200103818a5afa9081156122af575b600091612292575b50871115611b91565b61217661216f612399565b809e611603565b516396d6401d60e01b8152918290818b5afa908115612285575b600091612268575b501690612329565b8a8a518094819382525afa90811561225b575b60009161223e575b5016936121d16121c9610b56565b963690611df3565b86528501526001600160a01b031684840152565b803b1561000e5761220c93600080945180968195829463816d0a3160e01b84528301611f62565b03925af18015612231575b61221e5750565b8061222b610b6392610b02565b806101ac565b612239610bed565b612217565b6122559150863d88116119d6576119c78183610b15565b386121bb565b612263610bed565b6121b3565b61227f9150873d89116119d6576119c78183610b15565b38612198565b61228d610bed565b612190565b6122a99150843d8611610e7b57610e6c8183610b15565b3861215b565b6122b7610bed565b612153565b60149196506122e090863d88116122e9575b6122d88183610b15565b810190611b7b565b90509590612118565b503d6122ce565b6122f8610bed565b612110565b612315919750853d87116119d6576119c78183610b15565b95386120d1565b612324610bed565b6120ca565b600091826044926020956040519363095ea7b360e01b8552600485015260248401525af13d15601f3d116001600051141617161561236357565b60405162461bcd60e51b815260206004820152600e60248201526d1054141493d59157d1905253115160921b6044820152606490fd5b6123ac6001198036013560f01c36030190565b60a48101356002036123bd57503090565b3560601c90565b600091826044926020956040519363a9059cbb60e01b8552600485015260248401525af13d15601f3d11600160005114161716156123fe57565b60405162461bcd60e51b815260206004820152600f60248201526e1514905394d1915497d19052531151608a1b6044820152606490fd5b6124486001198036013560f01c36030190565b604051622fcfcb60e31b8152602090603c83013560601c82826004816000855af1918215612532575b600092612513575b506001600160a01b038216612490575b5050505090565b604051630f0245ad60e01b81526004810186905293946124d99490918490829060249082905afa938415612506575b6000946124e2575b5050826014910394013560601c6123c4565b38808080612489565b601492945090816124fe92903d10610e7b57610e6c8183610b15565b9290386124c7565b61250e610bed565b6124bf565b61252b919250833d85116119d6576119c78183610b15565b9038612479565b61253a610bed565b612471565b1561254657565b60405162461bcd60e51b81526020600482015260136024820152726d75737420737570706f72742065726337323160681b6044820152606490fd5b1561258857565b60405162461bcd60e51b815260206004820152601860248201527f6d75737420626520612076616c696420746f6b656e20696400000000000000006044820152606490fd5b6040516301ffc9a760e01b81526380ac58cd60e01b60048201529091906126889060209061265d906001600160a01b039081871690612624908581602481865afa9081156126d5575b6000916126b8575b5061253f565b6040516331a9108f60e11b815260048101879052908490829060249082905afa9081156126ab575b60009161268e575b50161515612581565b6102946040519384928301958690916034926001600160601b03199060601b16825260148201520190565b51902090565b6126a59150843d86116119d6576119c78183610b15565b38612654565b6126b3610bed565b61264c565b6126cf9150863d88116103fa576103ec8183610b15565b3861261e565b6126dd610bed565b61261656fea2646970667358221220f9b98b20b253d998cc52418ff12b56155667adf32686df41e6dd473b4031293064736f6c63430008110033",
    "linkReferences": {}
  },
  "methodIdentifiers": {
    "AUCTION_HOUSE()": "4226b1bf",
    "COLLATERAL_TOKEN()": "f5f1f1a7",
    "EPOCH_LENGTH()": "ac4746ab",
    "ROUTER()": "32fe7b26",
    "START()": "ba9a061a",
    "VAULT_TYPE()": "f060b8ae",
    "buyoutLien(uint256,uint256,(address,uint256,((uint8,address,uint256,uint256,address),uint8,bytes,(bytes32,bytes32[],bool[]),uint256,uint8,bytes32,bytes32)))": "1962dc55",
    "canLiquidate(uint256,uint256)": "c631d84b",
    "commitToLien((address,uint256,((uint8,address,uint256,uint256,address),uint8,bytes,(bytes32,bytes32[],bool[]),uint256,uint8,bytes32,bytes32)),address)": "11114fee",
    "delegate()": "c89e4361",
    "deposit(uint256,address)": "6e553f65",
    "init((address))": "3cfffd39",
    "name()": "06fdde03",
    "onERC721Received(address,address,uint256,bytes)": "150b7a02",
    "owner()": "8da5cb5b",
    "recipient()": "66d003ac",
    "setDelegate(address)": "ca5eb5e1",
    "symbol()": "95d89b41",
    "underlying()": "6f307dc3",
    "withdraw(uint256)": "2e1a7d4d"
  },
  "id": 36
}