{
  "abi": [
    {
      "anonymous": false,
      "inputs": [
        {
          "indexed": true,
          "internalType": "address",
          "name": "owner",
          "type": "address"
        },
        {
          "indexed": true,
          "internalType": "address",
          "name": "spender",
          "type": "address"
        },
        {
          "indexed": false,
          "internalType": "uint256",
          "name": "amount",
          "type": "uint256"
        }
      ],
      "name": "Approval",
      "type": "event"
    },
    {
      "anonymous": false,
      "inputs": [
        {
          "indexed": true,
          "internalType": "address",
          "name": "from",
          "type": "address"
        },
        {
          "indexed": true,
          "internalType": "address",
          "name": "to",
          "type": "address"
        },
        {
          "indexed": false,
          "internalType": "uint256",
          "name": "amount",
          "type": "uint256"
        }
      ],
      "name": "Transfer",
      "type": "event"
    },
    {
      "inputs": [],
      "name": "DOMAIN_SEPARATOR",
      "outputs": [
        {
          "internalType": "bytes32",
          "name": "",
          "type": "bytes32"
        }
      ],
      "stateMutability": "view",
      "type": "function"
    },
    {
      "inputs": [
        {
          "internalType": "address",
          "name": "",
          "type": "address"
        },
        {
          "internalType": "address",
          "name": "",
          "type": "address"
        }
      ],
      "name": "allowance",
      "outputs": [
        {
          "internalType": "uint256",
          "name": "",
          "type": "uint256"
        }
      ],
      "stateMutability": "view",
      "type": "function"
    },
    {
      "inputs": [
        {
          "internalType": "address",
          "name": "spender",
          "type": "address"
        },
        {
          "internalType": "uint256",
          "name": "amount",
          "type": "uint256"
        }
      ],
      "name": "approve",
      "outputs": [
        {
          "internalType": "bool",
          "name": "",
          "type": "bool"
        }
      ],
      "stateMutability": "nonpayable",
      "type": "function"
    },
    {
      "inputs": [
        {
          "internalType": "address",
          "name": "",
          "type": "address"
        }
      ],
      "name": "balanceOf",
      "outputs": [
        {
          "internalType": "uint256",
          "name": "",
          "type": "uint256"
        }
      ],
      "stateMutability": "view",
      "type": "function"
    },
    {
      "inputs": [
        {
          "internalType": "address",
          "name": "receiver",
          "type": "address"
        },
        {
          "internalType": "uint256",
          "name": "shares",
          "type": "uint256"
        }
      ],
      "name": "mint",
      "outputs": [],
      "stateMutability": "nonpayable",
      "type": "function"
    },
    {
      "inputs": [],
      "name": "name",
      "outputs": [
        {
          "internalType": "string",
          "name": "",
          "type": "string"
        }
      ],
      "stateMutability": "view",
      "type": "function"
    },
    {
      "inputs": [
        {
          "internalType": "address",
          "name": "",
          "type": "address"
        }
      ],
      "name": "nonces",
      "outputs": [
        {
          "internalType": "uint256",
          "name": "",
          "type": "uint256"
        }
      ],
      "stateMutability": "view",
      "type": "function"
    },
    {
      "inputs": [],
      "name": "owner",
      "outputs": [
        {
          "internalType": "address",
          "name": "",
          "type": "address"
        }
      ],
      "stateMutability": "view",
      "type": "function"
    },
    {
      "inputs": [
        {
          "internalType": "address",
          "name": "owner",
          "type": "address"
        },
        {
          "internalType": "address",
          "name": "spender",
          "type": "address"
        },
        {
          "internalType": "uint256",
          "name": "value",
          "type": "uint256"
        },
        {
          "internalType": "uint256",
          "name": "deadline",
          "type": "uint256"
        },
        {
          "internalType": "uint8",
          "name": "v",
          "type": "uint8"
        },
        {
          "internalType": "bytes32",
          "name": "r",
          "type": "bytes32"
        },
        {
          "internalType": "bytes32",
          "name": "s",
          "type": "bytes32"
        }
      ],
      "name": "permit",
      "outputs": [],
      "stateMutability": "nonpayable",
      "type": "function"
    },
    {
      "inputs": [],
      "name": "symbol",
      "outputs": [
        {
          "internalType": "string",
          "name": "",
          "type": "string"
        }
      ],
      "stateMutability": "view",
      "type": "function"
    },
    {
      "inputs": [],
      "name": "totalSupply",
      "outputs": [
        {
          "internalType": "uint256",
          "name": "",
          "type": "uint256"
        }
      ],
      "stateMutability": "view",
      "type": "function"
    },
    {
      "inputs": [
        {
          "internalType": "address",
          "name": "to",
          "type": "address"
        },
        {
          "internalType": "uint256",
          "name": "amount",
          "type": "uint256"
        }
      ],
      "name": "transfer",
      "outputs": [
        {
          "internalType": "bool",
          "name": "",
          "type": "bool"
        }
      ],
      "stateMutability": "nonpayable",
      "type": "function"
    },
    {
      "inputs": [
        {
          "internalType": "address",
          "name": "from",
          "type": "address"
        },
        {
          "internalType": "address",
          "name": "to",
          "type": "address"
        },
        {
          "internalType": "uint256",
          "name": "amount",
          "type": "uint256"
        }
      ],
      "name": "transferFrom",
      "outputs": [
        {
          "internalType": "bool",
          "name": "",
          "type": "bool"
        }
      ],
      "stateMutability": "nonpayable",
      "type": "function"
    },
    {
      "inputs": [],
      "name": "underlying",
      "outputs": [
        {
          "internalType": "address",
          "name": "",
          "type": "address"
        }
      ],
      "stateMutability": "view",
      "type": "function"
    },
    {
      "inputs": [
        {
          "internalType": "uint256",
          "name": "amount",
          "type": "uint256"
        }
      ],
      "name": "undoWithdraw",
      "outputs": [],
      "stateMutability": "nonpayable",
      "type": "function"
    },
    {
      "inputs": [
        {
          "internalType": "uint256",
          "name": "amount",
          "type": "uint256"
        }
      ],
      "name": "withdraw",
      "outputs": [],
      "stateMutability": "nonpayable",
      "type": "function"
    }
  ],
  "bytecode": {
    "object": "0x6080806040523461001657610fbc908161001c8239f35b600080fdfe60806040526004361015610013575b600080fd5b60003560e01c806306fdde0314610153578063095ea7b31461014a57806318160ddd1461014157806323b872dd146101385780632e1a7d4d1461012f5780633644e5151461012657806340c10f191461011d5780636f307dc31461011457806370a082311461010b5780637ecebe00146101025780638da5cb5b146100f957806393256e70146100f057806395d89b41146100e7578063a9059cbb146100de578063d505accf146100d55763dd62ed3e146100cd57600080fd5b61000e610af7565b5061000e6108fd565b5061000e610873565b5061000e6107d3565b5061000e610741565b5061000e61070e565b5061000e6106d3565b5061000e610698565b5061000e610662565b5061000e610596565b5061000e610572565b5061000e61047e565b5061000e61035c565b5061000e61033d565b5061000e6102b1565b5061000e6101ab565b60005b83811061016f5750506000910152565b818101518382015260200161015f565b6040916020825261019f815180928160208601526020868601910161015c565b601f01601f1916010190565b503461000e576000806003193601126102825761023461024282600461024e9460146101e06001198036013560f01c36030190565b013560601c604051928380926395d89b4160e01b82525afa918215610275575b8092610252575b5050604051714153542d57697468647261775661756c742d60701b60208201529283916032830190610dbc565b03601f198101835282610be1565b6040519182918261017f565b0390f35b61026e92503d8091833e6102668183610be1565b810190610c5a565b3880610207565b61027d610c10565b610200565b80fd5b600435906001600160a01b038216820361000e57565b602435906001600160a01b038216820361000e57565b503461000e57604036600319011261000e576102cb610285565b60243590336000526002602052816102f98260406000209060018060a01b0316600052602052604060002090565b556040519182526001600160a01b03169033907f8c5be1e5ebec7d5bd14f71427d1e84f3dd0314c0f7b2291e5b200ac8c7c3b92590602090a3602060405160018152f35b503461000e57600036600319011261000e576020600054604051908152f35b503461000e57606036600319011261000e57610376610285565b61037e61029b565b6001600160a01b0380831660008181526002602090815260408083203384529091529020604435949193600080516020610f67833981519152939290916103e591905460018101610429575b506001600160a01b0316600090815260016020526040902090565b6103f0868254610b67565b90556001600160a01b0381166000908152600160209081526040918290208054880190559051958652911693a360405160018152602090f35b878103908111610471575b6001600160a01b038216600090815260026020526040902061046a9033905b9060018060a01b0316600052602052604060002090565b55386103ca565b610479610b50565b610434565b503461000e57602036600319011261000e5733600090815260016020526040902061053390600435906104b5908290541015610e1c565b6104bf8133610e81565b61052b6104ef6104e560146104dd6001198036013560f01c36030190565b013560601c90565b9260005490610ed8565b6040516370a0823160e01b8152306004820152906020826024816001600160a01b0388165afa918215610565575b600092610535575b50610e6e565b903390610eee565b005b61055791925060203d811161055e575b61054f8183610be1565b810190610e5f565b9038610525565b503d610545565b61056d610c10565b61051d565b503461000e57600036600319011261000e57602061058e610cd4565b604051908152f35b503461000e57604036600319011261000e576105b0610285565b6024356105c66001198036013560f01c36030190565b3560601c330361062757602091600080516020610f678339815191526000938492835485810180911161061a575b84556001600160a01b03168084526001825260408085208054870190555194855293a380f35b610622610b50565b6105f4565b60405162461bcd60e51b81526020600482015260136024820152721bdb9b1e481bdddb995c8818d85b881b5a5b9d606a1b6044820152606490fd5b503461000e57600036600319011261000e576020601461068b6001198036013560f01c36030190565b013560601c604051908152f35b503461000e57602036600319011261000e576001600160a01b036106ba610285565b1660005260016020526020604060002054604051908152f35b503461000e57602036600319011261000e576001600160a01b036106f5610285565b1660005260056020526020604060002054604051908152f35b503461000e57600036600319011261000e5760206107356001198036013560f01c36030190565b3560601c604051908152f35b503461000e57602036600319011261000e5761053360246020601461076f6001198036013560f01c36030190565b013560601c604051928380926370a0823160e01b82523360048301525afa9081156107c6575b6000916107a8575b506004351115610f5f565b6107c0915060203d811161055e5761054f8183610be1565b3861079d565b6107ce610c10565b610795565b503461000e576000806003193601126102825761024e906107fd6001198036013560f01c36030190565b6040516395d89b4160e01b81528281600481601486013560601c5afa928315610866575b8093610844575b5050610242906102346040519384923560601c60208401610dd3565b6102429293509061085e913d8091833e6102668183610be1565b919038610828565b61086e610c10565b610821565b503461000e57604036600319011261000e5761088d610285565b6024359033600052600160205260406000208054908382039182116108f0575b5560018060a01b0316908160005260016020526040600020818154019055604051908152600080516020610f6783398151915260203392a3602060405160018152f35b6108f8610b50565b6108ad565b503461000e5760e036600319011261000e57610917610285565b61091f61029b565b906044356064356084359360ff8516850361000e576020610a737f8c5be1e5ebec7d5bd14f71427d1e84f3dd0314c0f7b2291e5b200ac8c7c3b9259361096742821015610b7e565b610a3a610a46610975610cd4565b92896109938160018060a01b03166000526005602052604060002090565b805460018101909155604080517f6e71edae12b1b97f4d1f60370fef10105fa2faae0126114a169c64845d6126c98a82019081526001600160a01b039485166020820152938b1691840191909152606083018c9052608083019190915260a08201929092528160c082010391610a11601f1993848101835282610be1565b5190206040519384918883019687909160429261190160f01b8352600283015260228201520190565b03908101835282610be1565b5190206040805191825260ff909816602082015260a4359781019790975260c43560608801526080870190565b866000978892838052039060015afa15610aea575b84519083610acb8261045360018060a01b0395610ab18782168015159081610ade575b50610c1d565b6001600160a01b0316600090815260026020526040902090565b556040519384528116931691602090a380f35b9050888c161438610aab565b610af2610c10565b610a88565b503461000e57604036600319011261000e576020610b47610b16610285565b610b1e61029b565b6001600160a01b0391821660009081526002855260408082209290931681526020919091522090565b54604051908152f35b50634e487b7160e01b600052601160045260246000fd5b91908203918211610b7457565b610b7c610b50565b565b15610b8557565b60405162461bcd60e51b815260206004820152601760248201527f5045524d49545f444541444c494e455f455850495245440000000000000000006044820152606490fd5b50634e487b7160e01b600052604160045260246000fd5b90601f8019910116810190811067ffffffffffffffff821117610c0357604052565b610c0b610bca565b604052565b506040513d6000823e3d90fd5b15610c2457565b60405162461bcd60e51b815260206004820152600e60248201526d24a72b20a624a22fa9a4a3a722a960911b6044820152606490fd5b60208183031261000e57805167ffffffffffffffff9182821161000e57019082601f8301121561000e578151908111610cc7575b60405192610ca6601f8301601f191660200185610be1565b8184526020828401011161000e57610cc4916020808501910161015c565b90565b610ccf610bca565b610c8e565b6040516306fdde0360e01b8152600081600481305afa908115610daf575b600091610d96575b506020815191012060405160208101917f8b73c3c69bb8fe3d512ecc4cf759cc79239f7b179b0ffacaa9a75d522b39400f835260408201527fc89efdaa54c0f20c7adf612882df0950f5a951637e0307cdcb4c672f298b8bc660608201524660808201523060a082015260a0815260c0810181811067ffffffffffffffff821117610d89575b60405251902090565b610d91610bca565b610d80565b610da9913d8091833e6102668183610be1565b38610cfa565b610db7610c10565b610cf2565b90610dcf6020928281519485920161015c565b0190565b601a9291644153542d5760d81b82526bffffffffffffffffffffffff199060601b166005820152602d60f81b6019820152610e17825180936020868501910161015c565b010190565b15610e2357565b60405162461bcd60e51b8152602060048201526014602482015273696e73756666696369656e742062616c616e636560601b6044820152606490fd5b9081602091031261000e575190565b81810292918115918404141715610b7457565b6001600160a01b03166000818152600160209081526040822080549294600080516020610f67833981519152939091828203918211610ecb575b55808554038555604051908152a3565b610ed3610b50565b610ebb565b600181800414811517821515161561000e570490565b600091826044926020956040519363a9059cbb60e01b8552600485015260248401525af13d15601f3d1160016000511416171615610f2857565b60405162461bcd60e51b815260206004820152600f60248201526e1514905394d1915497d19052531151608a1b6044820152606490fd5b1561000e5756feddf252ad1be2c89b69c2b068fc378daa952ba7f163c4a11628f55a4df523b3efa2646970667358221220c4ced03f566b825e6e6f9910154ecfc055faf4bd1e3f5358a905b6d4eee81db164736f6c63430008110033",
    "linkReferences": {}
  },
  "methodIdentifiers": {
    "DOMAIN_SEPARATOR()": "3644e515",
    "allowance(address,address)": "dd62ed3e",
    "approve(address,uint256)": "095ea7b3",
    "balanceOf(address)": "70a08231",
    "mint(address,uint256)": "40c10f19",
    "name()": "06fdde03",
    "nonces(address)": "7ecebe00",
    "owner()": "8da5cb5b",
    "permit(address,address,uint256,uint256,uint8,bytes32,bytes32)": "d505accf",
    "symbol()": "95d89b41",
    "totalSupply()": "18160ddd",
    "transfer(address,uint256)": "a9059cbb",
    "transferFrom(address,address,uint256)": "23b872dd",
    "underlying()": "6f307dc3",
    "undoWithdraw(uint256)": "93256e70",
    "withdraw(uint256)": "2e1a7d4d"
  },
  "id": 38
}