{
  "abi": [
    {
      "inputs": [],
      "stateMutability": "nonpayable",
      "type": "constructor"
    },
    {
      "inputs": [
        {
          "internalType": "address",
          "name": "conduit",
          "type": "address"
        }
      ],
      "name": "CallerIsNotNewPotentialOwner",
      "type": "error"
    },
    {
      "inputs": [
        {
          "internalType": "address",
          "name": "conduit",
          "type": "address"
        }
      ],
      "name": "CallerIsNotOwner",
      "type": "error"
    },
    {
      "inputs": [
        {
          "internalType": "address",
          "name": "conduit",
          "type": "address"
        }
      ],
      "name": "ChannelOutOfRange",
      "type": "error"
    },
    {
      "inputs": [
        {
          "internalType": "address",
          "name": "conduit",
          "type": "address"
        }
      ],
      "name": "ConduitAlreadyExists",
      "type": "error"
    },
    {
      "inputs": [],
      "name": "InvalidCreator",
      "type": "error"
    },
    {
      "inputs": [],
      "name": "InvalidInitialOwner",
      "type": "error"
    },
    {
      "inputs": [
        {
          "internalType": "address",
          "name": "conduit",
          "type": "address"
        },
        {
          "internalType": "address",
          "name": "newPotentialOwner",
          "type": "address"
        }
      ],
      "name": "NewPotentialOwnerAlreadySet",
      "type": "error"
    },
    {
      "inputs": [
        {
          "internalType": "address",
          "name": "conduit",
          "type": "address"
        }
      ],
      "name": "NewPotentialOwnerIsZeroAddress",
      "type": "error"
    },
    {
      "inputs": [],
      "name": "NoConduit",
      "type": "error"
    },
    {
      "inputs": [
        {
          "internalType": "address",
          "name": "conduit",
          "type": "address"
        }
      ],
      "name": "NoPotentialOwnerCurrentlySet",
      "type": "error"
    },
    {
      "anonymous": false,
      "inputs": [
        {
          "indexed": false,
          "internalType": "address",
          "name": "conduit",
          "type": "address"
        },
        {
          "indexed": false,
          "internalType": "bytes32",
          "name": "conduitKey",
          "type": "bytes32"
        }
      ],
      "name": "NewConduit",
      "type": "event"
    },
    {
      "anonymous": false,
      "inputs": [
        {
          "indexed": true,
          "internalType": "address",
          "name": "conduit",
          "type": "address"
        },
        {
          "indexed": true,
          "internalType": "address",
          "name": "previousOwner",
          "type": "address"
        },
        {
          "indexed": true,
          "internalType": "address",
          "name": "newOwner",
          "type": "address"
        }
      ],
      "name": "OwnershipTransferred",
      "type": "event"
    },
    {
      "anonymous": false,
      "inputs": [
        {
          "indexed": true,
          "internalType": "address",
          "name": "newPotentialOwner",
          "type": "address"
        }
      ],
      "name": "PotentialOwnerUpdated",
      "type": "event"
    },
    {
      "inputs": [
        {
          "internalType": "address",
          "name": "conduit",
          "type": "address"
        }
      ],
      "name": "acceptOwnership",
      "outputs": [],
      "stateMutability": "nonpayable",
      "type": "function"
    },
    {
      "inputs": [
        {
          "internalType": "address",
          "name": "conduit",
          "type": "address"
        }
      ],
      "name": "cancelOwnershipTransfer",
      "outputs": [],
      "stateMutability": "nonpayable",
      "type": "function"
    },
    {
      "inputs": [
        {
          "internalType": "bytes32",
          "name": "conduitKey",
          "type": "bytes32"
        },
        {
          "internalType": "address",
          "name": "initialOwner",
          "type": "address"
        }
      ],
      "name": "createConduit",
      "outputs": [
        {
          "internalType": "address",
          "name": "conduit",
          "type": "address"
        }
      ],
      "stateMutability": "nonpayable",
      "type": "function"
    },
    {
      "inputs": [
        {
          "internalType": "address",
          "name": "conduit",
          "type": "address"
        },
        {
          "internalType": "uint256",
          "name": "channelIndex",
          "type": "uint256"
        }
      ],
      "name": "getChannel",
      "outputs": [
        {
          "internalType": "address",
          "name": "channel",
          "type": "address"
        }
      ],
      "stateMutability": "view",
      "type": "function"
    },
    {
      "inputs": [
        {
          "internalType": "address",
          "name": "conduit",
          "type": "address"
        },
        {
          "internalType": "address",
          "name": "channel",
          "type": "address"
        }
      ],
      "name": "getChannelStatus",
      "outputs": [
        {
          "internalType": "bool",
          "name": "isOpen",
          "type": "bool"
        }
      ],
      "stateMutability": "view",
      "type": "function"
    },
    {
      "inputs": [
        {
          "internalType": "address",
          "name": "conduit",
          "type": "address"
        }
      ],
      "name": "getChannels",
      "outputs": [
        {
          "internalType": "address[]",
          "name": "channels",
          "type": "address[]"
        }
      ],
      "stateMutability": "view",
      "type": "function"
    },
    {
      "inputs": [
        {
          "internalType": "bytes32",
          "name": "conduitKey",
          "type": "bytes32"
        }
      ],
      "name": "getConduit",
      "outputs": [
        {
          "internalType": "address",
          "name": "conduit",
          "type": "address"
        },
        {
          "internalType": "bool",
          "name": "exists",
          "type": "bool"
        }
      ],
      "stateMutability": "view",
      "type": "function"
    },
    {
      "inputs": [],
      "name": "getConduitCodeHashes",
      "outputs": [
        {
          "internalType": "bytes32",
          "name": "creationCodeHash",
          "type": "bytes32"
        },
        {
          "internalType": "bytes32",
          "name": "runtimeCodeHash",
          "type": "bytes32"
        }
      ],
      "stateMutability": "view",
      "type": "function"
    },
    {
      "inputs": [
        {
          "internalType": "address",
          "name": "conduit",
          "type": "address"
        }
      ],
      "name": "getKey",
      "outputs": [
        {
          "internalType": "bytes32",
          "name": "conduitKey",
          "type": "bytes32"
        }
      ],
      "stateMutability": "view",
      "type": "function"
    },
    {
      "inputs": [
        {
          "internalType": "address",
          "name": "conduit",
          "type": "address"
        }
      ],
      "name": "getPotentialOwner",
      "outputs": [
        {
          "internalType": "address",
          "name": "potentialOwner",
          "type": "address"
        }
      ],
      "stateMutability": "view",
      "type": "function"
    },
    {
      "inputs": [
        {
          "internalType": "address",
          "name": "conduit",
          "type": "address"
        }
      ],
      "name": "getTotalChannels",
      "outputs": [
        {
          "internalType": "uint256",
          "name": "totalChannels",
          "type": "uint256"
        }
      ],
      "stateMutability": "view",
      "type": "function"
    },
    {
      "inputs": [
        {
          "internalType": "address",
          "name": "conduit",
          "type": "address"
        }
      ],
      "name": "ownerOf",
      "outputs": [
        {
          "internalType": "address",
          "name": "owner",
          "type": "address"
        }
      ],
      "stateMutability": "view",
      "type": "function"
    },
    {
      "inputs": [
        {
          "internalType": "address",
          "name": "conduit",
          "type": "address"
        },
        {
          "internalType": "address",
          "name": "newPotentialOwner",
          "type": "address"
        }
      ],
      "name": "transferOwnership",
      "outputs": [],
      "stateMutability": "nonpayable",
      "type": "function"
    },
    {
      "inputs": [
        {
          "internalType": "address",
          "name": "conduit",
          "type": "address"
        },
        {
          "internalType": "address",
          "name": "channel",
          "type": "address"
        },
        {
          "internalType": "bool",
          "name": "isOpen",
          "type": "bool"
        }
      ],
      "name": "updateChannel",
      "outputs": [],
      "stateMutability": "nonpayable",
      "type": "function"
    }
  ],
  "bytecode": {
    "object": "0x60c060405234801561001057600080fd5b5060405161002060208201610088565b6020820181038252601f19601f82011660405250805190602001206080818152505060008060001b60405161005490610088565b8190604051809103906000f5905080158015610074573d6000803e3d6000fd5b506001600160a01b03163f60a05250610095565b6111338061258d83390190565b60805160a0516124b76100d660003960008181610155015281816102f90152610c760152600081816101320152818161027c0152610c3201526124b76000f3fe608060405234801561001057600080fd5b50600436106100ea5760003560e01c80636d4354211161008c5780637b37e561116100665780637b37e5611461035f5780638b9e028b14610372578063906c87cc1461039257806393790f44146103a557600080fd5b80636d435421146101fe5780636e9bfd9f14610211578063794593bc1461034c57600080fd5b806314afd79e116100c857806314afd79e1461019457806333bc8572146101a75780634e3f9580146101ca57806351710e45146101eb57600080fd5b8063027cc764146100ef5780630a96ad391461012c57806313ad9cab1461017f575b600080fd5b6101026100fd366004611151565b6103b8565b60405173ffffffffffffffffffffffffffffffffffffffff90911681526020015b60405180910390f35b604080517f000000000000000000000000000000000000000000000000000000000000000081527f0000000000000000000000000000000000000000000000000000000000000000602082015201610123565b61019261018d36600461117b565b6104a6565b005b6101026101a23660046111c7565b610783565b6101ba6101b53660046111e9565b6107bd565b6040519015158152602001610123565b6101dd6101d83660046111c7565b610805565b604051908152602001610123565b6101926101f93660046111c7565b61083c565b61019261020c3660046111e9565b6109be565b61032061021f36600461121c565b6040517fff0000000000000000000000000000000000000000000000000000000000000060208201527fffffffffffffffffffffffffffffffffffffffff0000000000000000000000003060601b166021820152603581018290527f000000000000000000000000000000000000000000000000000000000000000060558201526000908190607501604080517fffffffffffffffffffffffffffffffffffffffffffffffffffffffffffffffe081840301815291905280516020909101209373ffffffffffffffffffffffffffffffffffffffff85163f7f0000000000000000000000000000000000000000000000000000000000000000149350915050565b6040805173ffffffffffffffffffffffffffffffffffffffff9093168352901515602083015201610123565b61010261035a366004611235565b610b49565b61019261036d3660046111c7565b610e0b565b6103856103803660046111c7565b610f07565b6040516101239190611258565b6101026103a03660046111c7565b610fa1565b6101dd6103b33660046111c7565b610fdb565b60006103c38361103d565b73ffffffffffffffffffffffffffffffffffffffff8316600090815260208190526040902060030154808310610442576040517f6ceb340b00000000000000000000000000000000000000000000000000000000815273ffffffffffffffffffffffffffffffffffffffff851660048201526024015b60405180910390fd5b73ffffffffffffffffffffffffffffffffffffffff8416600090815260208190526040902060030180548490811061047c5761047c6112b2565b60009182526020909120015473ffffffffffffffffffffffffffffffffffffffff16949350505050565b6104af8361109c565b6040517fc4e8fcb500000000000000000000000000000000000000000000000000000000815273ffffffffffffffffffffffffffffffffffffffff8381166004830152821515602483015284169063c4e8fcb590604401600060405180830381600087803b15801561052057600080fd5b505af1158015610534573d6000803e3d6000fd5b5050505073ffffffffffffffffffffffffffffffffffffffff83811660009081526020818152604080832093861683526004840190915290205480151583801561057c575080155b156105f1576003830180546001810182556000828152602080822090920180547fffffffffffffffffffffffff00000000000000000000000000000000000000001673ffffffffffffffffffffffffffffffffffffffff8a16908117909155925492815260048601909152604090205561077b565b831580156105fc5750805b1561077b57600061060e6001846112e1565b6003850154909150600090610625906001906112e1565b90508181146106e5576000856003018281548110610645576106456112b2565b60009182526020909120015460038701805473ffffffffffffffffffffffffffffffffffffffff9092169250829185908110610683576106836112b2565b600091825260208083209190910180547fffffffffffffffffffffffff00000000000000000000000000000000000000001673ffffffffffffffffffffffffffffffffffffffff94851617905592909116815260048701909152604090208490555b846003018054806106f8576106f861131f565b6000828152602080822083017fffffffffffffffffffffffffffffffffffffffffffffffffffffffffffffffff90810180547fffffffffffffffffffffffff000000000000000000000000000000000000000016905590920190925573ffffffffffffffffffffffffffffffffffffffff89168252600487019052604081205550505b505050505050565b600061078e8261103d565b5073ffffffffffffffffffffffffffffffffffffffff9081166000908152602081905260409020600101541690565b60006107c88361103d565b5073ffffffffffffffffffffffffffffffffffffffff91821660009081526020818152604080832093909416825260049092019091522054151590565b60006108108261103d565b5073ffffffffffffffffffffffffffffffffffffffff1660009081526020819052604090206003015490565b6108458161103d565b73ffffffffffffffffffffffffffffffffffffffff8181166000908152602081905260409020600201541633146108c0576040517f88c3a11500000000000000000000000000000000000000000000000000000000815273ffffffffffffffffffffffffffffffffffffffff82166004820152602401610439565b6040516000907f11a3cf439fb225bfe74225716b6774765670ec1060e3796802e62139d69974da908290a273ffffffffffffffffffffffffffffffffffffffff8082166000818152602081905260408082206002810180547fffffffffffffffffffffffff000000000000000000000000000000000000000016905560010154905133949190911692917fc8894f26f396ce8c004245c8b7cd1b92103a6e4302fcbab883987149ac01b7ec91a473ffffffffffffffffffffffffffffffffffffffff16600090815260208190526040902060010180547fffffffffffffffffffffffff00000000000000000000000000000000000000001633179055565b6109c78261109c565b73ffffffffffffffffffffffffffffffffffffffff8116610a2c576040517fa388d26300000000000000000000000000000000000000000000000000000000815273ffffffffffffffffffffffffffffffffffffffff83166004820152602401610439565b73ffffffffffffffffffffffffffffffffffffffff808316600090815260208190526040902060020154811690821603610ab2576040517fcbc080ca00000000000000000000000000000000000000000000000000000000815273ffffffffffffffffffffffffffffffffffffffff808416600483015282166024820152604401610439565b60405173ffffffffffffffffffffffffffffffffffffffff8216907f11a3cf439fb225bfe74225716b6774765670ec1060e3796802e62139d69974da90600090a273ffffffffffffffffffffffffffffffffffffffff918216600090815260208190526040902060020180547fffffffffffffffffffffffff00000000000000000000000000000000000000001691909216179055565b600073ffffffffffffffffffffffffffffffffffffffff8216610b98576040517f99faaa0400000000000000000000000000000000000000000000000000000000815260040160405180910390fd5b606083901c3314610bd5576040517fcb6e534400000000000000000000000000000000000000000000000000000000815260040160405180910390fd5b6040517fff0000000000000000000000000000000000000000000000000000000000000060208201527fffffffffffffffffffffffffffffffffffffffff0000000000000000000000003060601b166021820152603581018490527f000000000000000000000000000000000000000000000000000000000000000060558201526075016040516020818303038152906040528051906020012060001c90507f00000000000000000000000000000000000000000000000000000000000000008173ffffffffffffffffffffffffffffffffffffffff163f03610cfc576040517f6328ccb200000000000000000000000000000000000000000000000000000000815273ffffffffffffffffffffffffffffffffffffffff82166004820152602401610439565b82604051610d0990611120565b8190604051809103906000f5905080158015610d29573d6000803e3d6000fd5b505073ffffffffffffffffffffffffffffffffffffffff818116600081815260208181526040918290206001810180547fffffffffffffffffffffffff00000000000000000000000000000000000000001695881695909517909455868455815192835282018690527f4397af6128d529b8ae0442f99db1296d5136062597a15bbc61c1b2a6431a7d15910160405180910390a160405173ffffffffffffffffffffffffffffffffffffffff808516916000918516907fc8894f26f396ce8c004245c8b7cd1b92103a6e4302fcbab883987149ac01b7ec908390a45092915050565b610e148161109c565b73ffffffffffffffffffffffffffffffffffffffff81811660009081526020819052604090206002015416610e8d576040517f6b01361600000000000000000000000000000000000000000000000000000000815273ffffffffffffffffffffffffffffffffffffffff82166004820152602401610439565b6040516000907f11a3cf439fb225bfe74225716b6774765670ec1060e3796802e62139d69974da908290a273ffffffffffffffffffffffffffffffffffffffff16600090815260208190526040902060020180547fffffffffffffffffffffffff0000000000000000000000000000000000000000169055565b6060610f128261103d565b73ffffffffffffffffffffffffffffffffffffffff82166000908152602081815260409182902060030180548351818402810184019094528084529091830182828015610f9557602002820191906000526020600020905b815473ffffffffffffffffffffffffffffffffffffffff168152600190910190602001808311610f6a575b50505050509050919050565b6000610fac8261103d565b5073ffffffffffffffffffffffffffffffffffffffff9081166000908152602081905260409020600201541690565b73ffffffffffffffffffffffffffffffffffffffff811660009081526020819052604090205480611038576040517f4ca8209000000000000000000000000000000000000000000000000000000000815260040160405180910390fd5b919050565b73ffffffffffffffffffffffffffffffffffffffff8116600090815260208190526040902054611099576040517f4ca8209000000000000000000000000000000000000000000000000000000000815260040160405180910390fd5b50565b6110a58161103d565b73ffffffffffffffffffffffffffffffffffffffff818116600090815260208190526040902060010154163314611099576040517fd4ed9a1700000000000000000000000000000000000000000000000000000000815273ffffffffffffffffffffffffffffffffffffffff82166004820152602401610439565b6111338061134f83390190565b803573ffffffffffffffffffffffffffffffffffffffff8116811461103857600080fd5b6000806040838503121561116457600080fd5b61116d8361112d565b946020939093013593505050565b60008060006060848603121561119057600080fd5b6111998461112d565b92506111a76020850161112d565b9150604084013580151581146111bc57600080fd5b809150509250925092565b6000602082840312156111d957600080fd5b6111e28261112d565b9392505050565b600080604083850312156111fc57600080fd5b6112058361112d565b91506112136020840161112d565b90509250929050565b60006020828403121561122e57600080fd5b5035919050565b6000806040838503121561124857600080fd5b823591506112136020840161112d565b6020808252825182820181905260009190848201906040850190845b818110156112a657835173ffffffffffffffffffffffffffffffffffffffff1683529284019291840191600101611274565b50909695505050505050565b7f4e487b7100000000000000000000000000000000000000000000000000000000600052603260045260246000fd5b60008282101561131a577f4e487b7100000000000000000000000000000000000000000000000000000000600052601160045260246000fd5b500390565b7f4e487b7100000000000000000000000000000000000000000000000000000000600052603160045260246000fdfe60a060405234801561001057600080fd5b503360805260805161110361003060003960006102fe01526111036000f3fe608060405234801561001057600080fd5b506004361061004c5760003560e01c80634ce34aa214610051578063899e104c146100995780638df25d92146100ac578063c4e8fcb5146100bf575b600080fd5b61006461005f366004610c95565b6100d4565b6040517fffffffff00000000000000000000000000000000000000000000000000000000909116815260200160405180910390f35b6100646100a7366004610d1c565b610156565b6100646100ba366004610d88565b610224565b6100d26100cd366004610df5565b6102e6565b005b3360009081526020819052604081205460ff16610124576040517f93daadf20000000000000000000000000000000000000000000000000000000081523360048201526024015b60405180910390fd5b61012e8383610464565b507f4ce34aa20000000000000000000000000000000000000000000000000000000092915050565b3360009081526020819052604081205460ff166101a1576040517f93daadf200000000000000000000000000000000000000000000000000000000815233600482015260240161011b565b6101ab8585610464565b8160005b818110156101f857368585838181106101ca576101ca610e2c565b90506020028101906101dc9190610e5b565b90506101e7816104ab565b506101f181610e99565b90506101af565b507f899e104c000000000000000000000000000000000000000000000000000000009695505050505050565b3360009081526020819052604081205460ff1661026f576040517f93daadf200000000000000000000000000000000000000000000000000000000815233600482015260240161011b565b8160005b818110156102bc573685858381811061028e5761028e610e2c565b90506020028101906102a09190610e5b565b90506102ab816104ab565b506102b581610e99565b9050610273565b507f8df25d9200000000000000000000000000000000000000000000000000000000949350505050565b3373ffffffffffffffffffffffffffffffffffffffff7f00000000000000000000000000000000000000000000000000000000000000001614610355576040517f6d5769be00000000000000000000000000000000000000000000000000000000815260040160405180910390fd5b73ffffffffffffffffffffffffffffffffffffffff821660009081526020819052604090205481151560ff9091161515036103dc576040517f924e341e00000000000000000000000000000000000000000000000000000000815273ffffffffffffffffffffffffffffffffffffffff83166004820152811515602482015260440161011b565b73ffffffffffffffffffffffffffffffffffffffff82166000818152602081815260409182902080547fffffffffffffffffffffffffffffffffffffffffffffffffffffffffffffff001685151590811790915591519182527fae63067d43ac07563b7eb8db6595635fc77f1578a2a5ea06ba91b63e2afa37e2910160405180910390a25050565b8060005b818110156104a5573684848381811061048357610483610e2c565b905060c00201905061049481610587565b5061049e81610e99565b9050610468565b50505050565b60006104ba6020830183610ef8565b905060006104ce6040840160208501610ef8565b905060006104e26060850160408601610ef8565b90503660006104f46060870187610f1a565b90925090503660006105096080890189610f1a565b9150915061057d87878787878080602002602001604051908101604052809392919081815260200183836020028082843760009201919091525050604080516020808b0282810182019093528a82529093508a92508991829185019084908082843760009201919091525061072592505050565b5050505050505050565b60016105966020830183610fb1565b60038111156105a7576105a7610f82565b036105ec576105e96105bf6040830160208401610ef8565b6105cf6060840160408501610ef8565b6105df6080850160608601610ef8565b8460a0013561081f565b50565b60026105fb6020830183610fb1565b600381111561060c5761060c610f82565b0361068c578060a0013560011461064f576040517fefcc00b100000000000000000000000000000000000000000000000000000000815260040160405180910390fd5b6105e96106626040830160208401610ef8565b6106726060840160408501610ef8565b6106826080850160608601610ef8565b8460800135610a73565b600361069b6020830183610fb1565b60038111156106ac576106ac610f82565b036106f3576105e96106c46040830160208401610ef8565b6106d46060840160408501610ef8565b6106e46080850160608601610ef8565b84608001358560a00135610b68565b6040517f7932f1fc00000000000000000000000000000000000000000000000000000000815260040160405180910390fd5b8473ffffffffffffffffffffffffffffffffffffffff163b60000361078e576040517f5f15d67200000000000000000000000000000000000000000000000000000000815273ffffffffffffffffffffffffffffffffffffffff8616600482015260240161011b565b6040517f2eb2c2d600000000000000000000000000000000000000000000000000000000815273ffffffffffffffffffffffffffffffffffffffff861690632eb2c2d6906107e690879087908790879060040161100d565b600060405180830381600087803b15801561080057600080fd5b505af1158015610814573d6000803e3d6000fd5b505050505050505050565b8373ffffffffffffffffffffffffffffffffffffffff163b600003610888576040517f5f15d67200000000000000000000000000000000000000000000000000000000815273ffffffffffffffffffffffffffffffffffffffff8516600482015260240161011b565b6040805173ffffffffffffffffffffffffffffffffffffffff85811660248301528481166044830152606480830185905283518084039091018152608490920183526020820180517bffffffffffffffffffffffffffffffffffffffffffffffffffffffff167f23b872dd0000000000000000000000000000000000000000000000000000000017905291516000928392908816916109279190611075565b6000604051808303816000865af19150503d8060008114610964576040519150601f19603f3d011682016040523d82523d6000602084013e610969565b606091505b5091509150816109db576040517ff486bc8700000000000000000000000000000000000000000000000000000000815273ffffffffffffffffffffffffffffffffffffffff8088166004830152808716602483015285166044820152600060648201526084810184905260a40161011b565b8051158015906109ed57506020815110155b15610a6b5780806020019051810190610a0691906110b0565b610a6b576040517f9889192300000000000000000000000000000000000000000000000000000000815273ffffffffffffffffffffffffffffffffffffffff80881660048301528087166024830152851660448201526064810184905260840161011b565b505050505050565b8373ffffffffffffffffffffffffffffffffffffffff163b600003610adc576040517f5f15d67200000000000000000000000000000000000000000000000000000000815273ffffffffffffffffffffffffffffffffffffffff8516600482015260240161011b565b6040517f23b872dd00000000000000000000000000000000000000000000000000000000815273ffffffffffffffffffffffffffffffffffffffff84811660048301528381166024830152604482018390528516906323b872dd90606401600060405180830381600087803b158015610b5457600080fd5b505af115801561057d573d6000803e3d6000fd5b8473ffffffffffffffffffffffffffffffffffffffff163b600003610bd1576040517f5f15d67200000000000000000000000000000000000000000000000000000000815273ffffffffffffffffffffffffffffffffffffffff8616600482015260240161011b565b6040517ff242432a00000000000000000000000000000000000000000000000000000000815273ffffffffffffffffffffffffffffffffffffffff85811660048301528481166024830152604482018490526064820183905260a06084830152600060a483015286169063f242432a9060c4016107e6565b60008083601f840112610c5b57600080fd5b50813567ffffffffffffffff811115610c7357600080fd5b60208301915083602060c083028501011115610c8e57600080fd5b9250929050565b60008060208385031215610ca857600080fd5b823567ffffffffffffffff811115610cbf57600080fd5b610ccb85828601610c49565b90969095509350505050565b60008083601f840112610ce957600080fd5b50813567ffffffffffffffff811115610d0157600080fd5b6020830191508360208260051b8501011115610c8e57600080fd5b60008060008060408587031215610d3257600080fd5b843567ffffffffffffffff80821115610d4a57600080fd5b610d5688838901610c49565b90965094506020870135915080821115610d6f57600080fd5b50610d7c87828801610cd7565b95989497509550505050565b60008060208385031215610d9b57600080fd5b823567ffffffffffffffff811115610db257600080fd5b610ccb85828601610cd7565b803573ffffffffffffffffffffffffffffffffffffffff81168114610de257600080fd5b919050565b80151581146105e957600080fd5b60008060408385031215610e0857600080fd5b610e1183610dbe565b91506020830135610e2181610de7565b809150509250929050565b7f4e487b7100000000000000000000000000000000000000000000000000000000600052603260045260246000fd5b600082357fffffffffffffffffffffffffffffffffffffffffffffffffffffffffffffff61833603018112610e8f57600080fd5b9190910192915050565b60007fffffffffffffffffffffffffffffffffffffffffffffffffffffffffffffffff8203610ef1577f4e487b7100000000000000000000000000000000000000000000000000000000600052601160045260246000fd5b5060010190565b600060208284031215610f0a57600080fd5b610f1382610dbe565b9392505050565b60008083357fffffffffffffffffffffffffffffffffffffffffffffffffffffffffffffffe1843603018112610f4f57600080fd5b83018035915067ffffffffffffffff821115610f6a57600080fd5b6020019150600581901b3603821315610c8e57600080fd5b7f4e487b7100000000000000000000000000000000000000000000000000000000600052602160045260246000fd5b600060208284031215610fc357600080fd5b813560048110610f1357600080fd5b600081518084526020808501945080840160005b8381101561100257815187529582019590820190600101610fe6565b509495945050505050565b600073ffffffffffffffffffffffffffffffffffffffff808716835280861660208401525060a0604083015261104660a0830185610fd2565b82810360608401526110588185610fd2565b838103608090940193909352505060008152602001949350505050565b6000825160005b81811015611096576020818601810151858301520161107c565b818111156110a5576000828501525b509190910192915050565b6000602082840312156110c257600080fd5b8151610f1381610de756fea2646970667358221220489431a6f8da1d30efc822acbfe62aa2a037c48b1f9caa2034d58c919e2f993864736f6c634300080e0033a2646970667358221220e5bdb272e187196461a7212ac588df0dc83d100207ff147424308f8b9ee6196f64736f6c634300080e003360a060405234801561001057600080fd5b503360805260805161110361003060003960006102fe01526111036000f3fe608060405234801561001057600080fd5b506004361061004c5760003560e01c80634ce34aa214610051578063899e104c146100995780638df25d92146100ac578063c4e8fcb5146100bf575b600080fd5b61006461005f366004610c95565b6100d4565b6040517fffffffff00000000000000000000000000000000000000000000000000000000909116815260200160405180910390f35b6100646100a7366004610d1c565b610156565b6100646100ba366004610d88565b610224565b6100d26100cd366004610df5565b6102e6565b005b3360009081526020819052604081205460ff16610124576040517f93daadf20000000000000000000000000000000000000000000000000000000081523360048201526024015b60405180910390fd5b61012e8383610464565b507f4ce34aa20000000000000000000000000000000000000000000000000000000092915050565b3360009081526020819052604081205460ff166101a1576040517f93daadf200000000000000000000000000000000000000000000000000000000815233600482015260240161011b565b6101ab8585610464565b8160005b818110156101f857368585838181106101ca576101ca610e2c565b90506020028101906101dc9190610e5b565b90506101e7816104ab565b506101f181610e99565b90506101af565b507f899e104c000000000000000000000000000000000000000000000000000000009695505050505050565b3360009081526020819052604081205460ff1661026f576040517f93daadf200000000000000000000000000000000000000000000000000000000815233600482015260240161011b565b8160005b818110156102bc573685858381811061028e5761028e610e2c565b90506020028101906102a09190610e5b565b90506102ab816104ab565b506102b581610e99565b9050610273565b507f8df25d9200000000000000000000000000000000000000000000000000000000949350505050565b3373ffffffffffffffffffffffffffffffffffffffff7f00000000000000000000000000000000000000000000000000000000000000001614610355576040517f6d5769be00000000000000000000000000000000000000000000000000000000815260040160405180910390fd5b73ffffffffffffffffffffffffffffffffffffffff821660009081526020819052604090205481151560ff9091161515036103dc576040517f924e341e00000000000000000000000000000000000000000000000000000000815273ffffffffffffffffffffffffffffffffffffffff83166004820152811515602482015260440161011b565b73ffffffffffffffffffffffffffffffffffffffff82166000818152602081815260409182902080547fffffffffffffffffffffffffffffffffffffffffffffffffffffffffffffff001685151590811790915591519182527fae63067d43ac07563b7eb8db6595635fc77f1578a2a5ea06ba91b63e2afa37e2910160405180910390a25050565b8060005b818110156104a5573684848381811061048357610483610e2c565b905060c00201905061049481610587565b5061049e81610e99565b9050610468565b50505050565b60006104ba6020830183610ef8565b905060006104ce6040840160208501610ef8565b905060006104e26060850160408601610ef8565b90503660006104f46060870187610f1a565b90925090503660006105096080890189610f1a565b9150915061057d87878787878080602002602001604051908101604052809392919081815260200183836020028082843760009201919091525050604080516020808b0282810182019093528a82529093508a92508991829185019084908082843760009201919091525061072592505050565b5050505050505050565b60016105966020830183610fb1565b60038111156105a7576105a7610f82565b036105ec576105e96105bf6040830160208401610ef8565b6105cf6060840160408501610ef8565b6105df6080850160608601610ef8565b8460a0013561081f565b50565b60026105fb6020830183610fb1565b600381111561060c5761060c610f82565b0361068c578060a0013560011461064f576040517fefcc00b100000000000000000000000000000000000000000000000000000000815260040160405180910390fd5b6105e96106626040830160208401610ef8565b6106726060840160408501610ef8565b6106826080850160608601610ef8565b8460800135610a73565b600361069b6020830183610fb1565b60038111156106ac576106ac610f82565b036106f3576105e96106c46040830160208401610ef8565b6106d46060840160408501610ef8565b6106e46080850160608601610ef8565b84608001358560a00135610b68565b6040517f7932f1fc00000000000000000000000000000000000000000000000000000000815260040160405180910390fd5b8473ffffffffffffffffffffffffffffffffffffffff163b60000361078e576040517f5f15d67200000000000000000000000000000000000000000000000000000000815273ffffffffffffffffffffffffffffffffffffffff8616600482015260240161011b565b6040517f2eb2c2d600000000000000000000000000000000000000000000000000000000815273ffffffffffffffffffffffffffffffffffffffff861690632eb2c2d6906107e690879087908790879060040161100d565b600060405180830381600087803b15801561080057600080fd5b505af1158015610814573d6000803e3d6000fd5b505050505050505050565b8373ffffffffffffffffffffffffffffffffffffffff163b600003610888576040517f5f15d67200000000000000000000000000000000000000000000000000000000815273ffffffffffffffffffffffffffffffffffffffff8516600482015260240161011b565b6040805173ffffffffffffffffffffffffffffffffffffffff85811660248301528481166044830152606480830185905283518084039091018152608490920183526020820180517bffffffffffffffffffffffffffffffffffffffffffffffffffffffff167f23b872dd0000000000000000000000000000000000000000000000000000000017905291516000928392908816916109279190611075565b6000604051808303816000865af19150503d8060008114610964576040519150601f19603f3d011682016040523d82523d6000602084013e610969565b606091505b5091509150816109db576040517ff486bc8700000000000000000000000000000000000000000000000000000000815273ffffffffffffffffffffffffffffffffffffffff8088166004830152808716602483015285166044820152600060648201526084810184905260a40161011b565b8051158015906109ed57506020815110155b15610a6b5780806020019051810190610a0691906110b0565b610a6b576040517f9889192300000000000000000000000000000000000000000000000000000000815273ffffffffffffffffffffffffffffffffffffffff80881660048301528087166024830152851660448201526064810184905260840161011b565b505050505050565b8373ffffffffffffffffffffffffffffffffffffffff163b600003610adc576040517f5f15d67200000000000000000000000000000000000000000000000000000000815273ffffffffffffffffffffffffffffffffffffffff8516600482015260240161011b565b6040517f23b872dd00000000000000000000000000000000000000000000000000000000815273ffffffffffffffffffffffffffffffffffffffff84811660048301528381166024830152604482018390528516906323b872dd90606401600060405180830381600087803b158015610b5457600080fd5b505af115801561057d573d6000803e3d6000fd5b8473ffffffffffffffffffffffffffffffffffffffff163b600003610bd1576040517f5f15d67200000000000000000000000000000000000000000000000000000000815273ffffffffffffffffffffffffffffffffffffffff8616600482015260240161011b565b6040517ff242432a00000000000000000000000000000000000000000000000000000000815273ffffffffffffffffffffffffffffffffffffffff85811660048301528481166024830152604482018490526064820183905260a06084830152600060a483015286169063f242432a9060c4016107e6565b60008083601f840112610c5b57600080fd5b50813567ffffffffffffffff811115610c7357600080fd5b60208301915083602060c083028501011115610c8e57600080fd5b9250929050565b60008060208385031215610ca857600080fd5b823567ffffffffffffffff811115610cbf57600080fd5b610ccb85828601610c49565b90969095509350505050565b60008083601f840112610ce957600080fd5b50813567ffffffffffffffff811115610d0157600080fd5b6020830191508360208260051b8501011115610c8e57600080fd5b60008060008060408587031215610d3257600080fd5b843567ffffffffffffffff80821115610d4a57600080fd5b610d5688838901610c49565b90965094506020870135915080821115610d6f57600080fd5b50610d7c87828801610cd7565b95989497509550505050565b60008060208385031215610d9b57600080fd5b823567ffffffffffffffff811115610db257600080fd5b610ccb85828601610cd7565b803573ffffffffffffffffffffffffffffffffffffffff81168114610de257600080fd5b919050565b80151581146105e957600080fd5b60008060408385031215610e0857600080fd5b610e1183610dbe565b91506020830135610e2181610de7565b809150509250929050565b7f4e487b7100000000000000000000000000000000000000000000000000000000600052603260045260246000fd5b600082357fffffffffffffffffffffffffffffffffffffffffffffffffffffffffffffff61833603018112610e8f57600080fd5b9190910192915050565b60007fffffffffffffffffffffffffffffffffffffffffffffffffffffffffffffffff8203610ef1577f4e487b7100000000000000000000000000000000000000000000000000000000600052601160045260246000fd5b5060010190565b600060208284031215610f0a57600080fd5b610f1382610dbe565b9392505050565b60008083357fffffffffffffffffffffffffffffffffffffffffffffffffffffffffffffffe1843603018112610f4f57600080fd5b83018035915067ffffffffffffffff821115610f6a57600080fd5b6020019150600581901b3603821315610c8e57600080fd5b7f4e487b7100000000000000000000000000000000000000000000000000000000600052602160045260246000fd5b600060208284031215610fc357600080fd5b813560048110610f1357600080fd5b600081518084526020808501945080840160005b8381101561100257815187529582019590820190600101610fe6565b509495945050505050565b600073ffffffffffffffffffffffffffffffffffffffff808716835280861660208401525060a0604083015261104660a0830185610fd2565b82810360608401526110588185610fd2565b838103608090940193909352505060008152602001949350505050565b6000825160005b81811015611096576020818601810151858301520161107c565b818111156110a5576000828501525b509190910192915050565b6000602082840312156110c257600080fd5b8151610f1381610de756fea2646970667358221220489431a6f8da1d30efc822acbfe62aa2a037c48b1f9caa2034d58c919e2f993864736f6c634300080e0033",
    "linkReferences": {}
  },
  "methodIdentifiers": {
    "acceptOwnership(address)": "51710e45",
    "cancelOwnershipTransfer(address)": "7b37e561",
    "createConduit(bytes32,address)": "794593bc",
    "getChannel(address,uint256)": "027cc764",
    "getChannelStatus(address,address)": "33bc8572",
    "getChannels(address)": "8b9e028b",
    "getConduit(bytes32)": "6e9bfd9f",
    "getConduitCodeHashes()": "0a96ad39",
    "getKey(address)": "93790f44",
    "getPotentialOwner(address)": "906c87cc",
    "getTotalChannels(address)": "4e3f9580",
    "ownerOf(address)": "14afd79e",
    "transferOwnership(address,address)": "6d435421",
    "updateChannel(address,address,bool)": "13ad9cab"
  },
  "id": 86
}